{
  "_format": "hh-sol-artifact-1",
  "contractName": "EFC",
  "sourceName": "contracts/tokens/EFC.sol",
  "abi": [
    {
      "inputs": [
        {
          "internalType": "uint256",
          "name": "_capArchitect",
          "type": "uint256"
        },
        {
          "internalType": "uint256",
          "name": "_capConnector",
          "type": "uint256"
        },
        {
          "internalType": "uint256",
          "name": "_capPerConnectorCanMint",
          "type": "uint256"
        },
        {
          "internalType": "contract IRewardFarmCallback",
          "name": "_rewardFarmCallback",
          "type": "address"
        },
        {
          "internalType": "contract IFeeDistributorCallback",
          "name": "_feeDistributorCallback",
          "type": "address"
        }
      ],
      "stateMutability": "nonpayable",
      "type": "constructor"
    },
    {
      "inputs": [
        {
          "internalType": "address",
          "name": "owner",
          "type": "address"
        }
      ],
      "name": "CallerIsNotOwner",
      "type": "error"
    },
    {
      "inputs": [
        {
          "internalType": "uint256",
          "name": "cap",
          "type": "uint256"
        }
      ],
      "name": "CapExceeded",
      "type": "error"
    },
    {
      "inputs": [
        {
          "internalType": "uint256",
          "name": "capArchitect",
          "type": "uint256"
        },
        {
          "internalType": "uint256",
          "name": "capConnector",
          "type": "uint256"
        }
      ],
      "name": "CapTooLarge",
      "type": "error"
    },
    {
      "inputs": [
        {
          "internalType": "string",
          "name": "code",
          "type": "string"
        }
      ],
      "name": "CodeAlreadyRegistered",
      "type": "error"
    },
    {
      "inputs": [
        {
          "internalType": "string",
          "name": "code",
          "type": "string"
        }
      ],
      "name": "CodeNotRegistered",
      "type": "error"
    },
    {
      "inputs": [],
      "name": "Forbidden",
      "type": "error"
    },
    {
      "inputs": [],
      "name": "InvalidCode",
      "type": "error"
    },
    {
      "inputs": [],
      "name": "InvalidShortString",
      "type": "error"
    },
    {
      "inputs": [
        {
          "internalType": "uint256",
          "name": "tokenId",
          "type": "uint256"
        }
      ],
      "name": "NotConnectorToken",
      "type": "error"
    },
    {
      "inputs": [
        {
          "internalType": "uint256",
          "name": "tokenId",
          "type": "uint256"
        }
      ],
      "name": "NotMemberToken",
      "type": "error"
    },
    {
      "inputs": [],
      "name": "ReentrancyGuardReentrantCall",
      "type": "error"
    },
    {
      "inputs": [
        {
          "internalType": "string",
          "name": "str",
          "type": "string"
        }
      ],
      "name": "StringTooLong",
      "type": "error"
    },
    {
      "anonymous": false,
      "inputs": [
        {
          "indexed": true,
          "internalType": "address",
          "name": "owner",
          "type": "address"
        },
        {
          "indexed": true,
          "internalType": "address",
          "name": "approved",
          "type": "address"
        },
        {
          "indexed": true,
          "internalType": "uint256",
          "name": "tokenId",
          "type": "uint256"
        }
      ],
      "name": "Approval",
      "type": "event"
    },
    {
      "anonymous": false,
      "inputs": [
        {
          "indexed": true,
          "internalType": "address",
          "name": "owner",
          "type": "address"
        },
        {
          "indexed": true,
          "internalType": "address",
          "name": "operator",
          "type": "address"
        },
        {
          "indexed": false,
          "internalType": "bool",
          "name": "approved",
          "type": "bool"
        }
      ],
      "name": "ApprovalForAll",
      "type": "event"
    },
    {
      "anonymous": false,
      "inputs": [
        {
          "indexed": true,
          "internalType": "address",
          "name": "previousGov",
          "type": "address"
        },
        {
          "indexed": true,
          "internalType": "address",
          "name": "newGov",
          "type": "address"
        }
      ],
      "name": "ChangeGovStarted",
      "type": "event"
    },
    {
      "anonymous": false,
      "inputs": [
        {
          "indexed": true,
          "internalType": "address",
          "name": "referee",
          "type": "address"
        },
        {
          "indexed": false,
          "internalType": "string",
          "name": "code",
          "type": "string"
        },
        {
          "indexed": false,
          "internalType": "uint256",
          "name": "tokenIdBefore",
          "type": "uint256"
        },
        {
          "indexed": false,
          "internalType": "uint256",
          "name": "tokenIdAfter",
          "type": "uint256"
        }
      ],
      "name": "CodeBound",
      "type": "event"
    },
    {
      "anonymous": false,
      "inputs": [
        {
          "indexed": true,
          "internalType": "address",
          "name": "referrer",
          "type": "address"
        },
        {
          "indexed": true,
          "internalType": "uint256",
          "name": "tokenId",
          "type": "uint256"
        },
        {
          "indexed": false,
          "internalType": "string",
          "name": "code",
          "type": "string"
        }
      ],
      "name": "CodeRegistered",
      "type": "event"
    },
    {
      "anonymous": false,
      "inputs": [
        {
          "indexed": true,
          "internalType": "address",
          "name": "delegator",
          "type": "address"
        },
        {
          "indexed": true,
          "internalType": "address",
          "name": "fromDelegate",
          "type": "address"
        },
        {
          "indexed": true,
          "internalType": "address",
          "name": "toDelegate",
          "type": "address"
        }
      ],
      "name": "DelegateChanged",
      "type": "event"
    },
    {
      "anonymous": false,
      "inputs": [
        {
          "indexed": true,
          "internalType": "address",
          "name": "delegate",
          "type": "address"
        },
        {
          "indexed": false,
          "internalType": "uint256",
          "name": "previousBalance",
          "type": "uint256"
        },
        {
          "indexed": false,
          "internalType": "uint256",
          "name": "newBalance",
          "type": "uint256"
        }
      ],
      "name": "DelegateVotesChanged",
      "type": "event"
    },
    {
      "anonymous": false,
      "inputs": [],
      "name": "EIP712DomainChanged",
      "type": "event"
    },
    {
      "anonymous": false,
      "inputs": [
        {
          "indexed": true,
          "internalType": "address",
          "name": "previousGov",
          "type": "address"
        },
        {
          "indexed": true,
          "internalType": "address",
          "name": "newGov",
          "type": "address"
        }
      ],
      "name": "GovChanged",
      "type": "event"
    },
    {
      "anonymous": false,
      "inputs": [
        {
          "indexed": true,
          "internalType": "address",
          "name": "from",
          "type": "address"
        },
        {
          "indexed": true,
          "internalType": "address",
          "name": "to",
          "type": "address"
        },
        {
          "indexed": true,
          "internalType": "uint256",
          "name": "tokenId",
          "type": "uint256"
        }
      ],
      "name": "Transfer",
      "type": "event"
    },
    {
      "inputs": [],
      "name": "CLOCK_MODE",
      "outputs": [
        {
          "internalType": "string",
          "name": "",
          "type": "string"
        }
      ],
      "stateMutability": "view",
      "type": "function"
    },
    {
      "inputs": [],
      "name": "DOMAIN_SEPARATOR",
      "outputs": [
        {
          "internalType": "bytes32",
          "name": "",
          "type": "bytes32"
        }
      ],
      "stateMutability": "view",
      "type": "function"
    },
    {
      "inputs": [],
      "name": "acceptGov",
      "outputs": [],
      "stateMutability": "nonpayable",
      "type": "function"
    },
    {
      "inputs": [
        {
          "internalType": "address",
          "name": "to",
          "type": "address"
        },
        {
          "internalType": "uint256",
          "name": "tokenId",
          "type": "uint256"
        }
      ],
      "name": "approve",
      "outputs": [],
      "stateMutability": "nonpayable",
      "type": "function"
    },
    {
      "inputs": [],
      "name": "architectMinted",
      "outputs": [
        {
          "internalType": "uint256",
          "name": "",
          "type": "uint256"
        }
      ],
      "stateMutability": "view",
      "type": "function"
    },
    {
      "inputs": [
        {
          "internalType": "address",
          "name": "owner",
          "type": "address"
        }
      ],
      "name": "balanceOf",
      "outputs": [
        {
          "internalType": "uint256",
          "name": "",
          "type": "uint256"
        }
      ],
      "stateMutability": "view",
      "type": "function"
    },
    {
      "inputs": [],
      "name": "baseURI",
      "outputs": [
        {
          "internalType": "string",
          "name": "",
          "type": "string"
        }
      ],
      "stateMutability": "view",
      "type": "function"
    },
    {
      "inputs": [
        {
          "internalType": "address[]",
          "name": "_to",
          "type": "address[]"
        }
      ],
      "name": "batchMintArchitect",
      "outputs": [],
      "stateMutability": "nonpayable",
      "type": "function"
    },
    {
      "inputs": [
        {
          "internalType": "address[]",
          "name": "_to",
          "type": "address[]"
        }
      ],
      "name": "batchMintConnector",
      "outputs": [],
      "stateMutability": "nonpayable",
      "type": "function"
    },
    {
      "inputs": [
        {
          "internalType": "uint256",
          "name": "_connectorTokenId",
          "type": "uint256"
        },
        {
          "internalType": "address[]",
          "name": "_to",
          "type": "address[]"
        }
      ],
      "name": "batchMintMember",
      "outputs": [],
      "stateMutability": "nonpayable",
      "type": "function"
    },
    {
      "inputs": [
        {
          "internalType": "string",
          "name": "_code",
          "type": "string"
        }
      ],
      "name": "bindCode",
      "outputs": [],
      "stateMutability": "nonpayable",
      "type": "function"
    },
    {
      "inputs": [
        {
          "internalType": "address",
          "name": "_newGov",
          "type": "address"
        }
      ],
      "name": "changeGov",
      "outputs": [],
      "stateMutability": "nonpayable",
      "type": "function"
    },
    {
      "inputs": [],
      "name": "clock",
      "outputs": [
        {
          "internalType": "uint48",
          "name": "",
          "type": "uint48"
        }
      ],
      "stateMutability": "view",
      "type": "function"
    },
    {
      "inputs": [
        {
          "internalType": "string",
          "name": "",
          "type": "string"
        }
      ],
      "name": "codeTokens",
      "outputs": [
        {
          "internalType": "uint256",
          "name": "",
          "type": "uint256"
        }
      ],
      "stateMutability": "view",
      "type": "function"
    },
    {
      "inputs": [],
      "name": "connectorMinted",
      "outputs": [
        {
          "internalType": "uint256",
          "name": "",
          "type": "uint256"
        }
      ],
      "stateMutability": "view",
      "type": "function"
    },
    {
      "inputs": [
        {
          "internalType": "address",
          "name": "delegatee",
          "type": "address"
        }
      ],
      "name": "delegate",
      "outputs": [],
      "stateMutability": "nonpayable",
      "type": "function"
    },
    {
      "inputs": [
        {
          "internalType": "address",
          "name": "delegatee",
          "type": "address"
        },
        {
          "internalType": "uint256",
          "name": "nonce",
          "type": "uint256"
        },
        {
          "internalType": "uint256",
          "name": "expiry",
          "type": "uint256"
        },
        {
          "internalType": "uint8",
          "name": "v",
          "type": "uint8"
        },
        {
          "internalType": "bytes32",
          "name": "r",
          "type": "bytes32"
        },
        {
          "internalType": "bytes32",
          "name": "s",
          "type": "bytes32"
        }
      ],
      "name": "delegateBySig",
      "outputs": [],
      "stateMutability": "nonpayable",
      "type": "function"
    },
    {
      "inputs": [
        {
          "internalType": "address",
          "name": "account",
          "type": "address"
        }
      ],
      "name": "delegates",
      "outputs": [
        {
          "internalType": "address",
          "name": "",
          "type": "address"
        }
      ],
      "stateMutability": "view",
      "type": "function"
    },
    {
      "inputs": [],
      "name": "eip712Domain",
      "outputs": [
        {
          "internalType": "bytes1",
          "name": "fields",
          "type": "bytes1"
        },
        {
          "internalType": "string",
          "name": "name",
          "type": "string"
        },
        {
          "internalType": "string",
          "name": "version",
          "type": "string"
        },
        {
          "internalType": "uint256",
          "name": "chainId",
          "type": "uint256"
        },
        {
          "internalType": "address",
          "name": "verifyingContract",
          "type": "address"
        },
        {
          "internalType": "bytes32",
          "name": "salt",
          "type": "bytes32"
        },
        {
          "internalType": "uint256[]",
          "name": "extensions",
          "type": "uint256[]"
        }
      ],
      "stateMutability": "view",
      "type": "function"
    },
    {
      "inputs": [],
      "name": "feeDistributorCallback",
      "outputs": [
        {
          "internalType": "contract IFeeDistributorCallback",
          "name": "",
          "type": "address"
        }
      ],
      "stateMutability": "view",
      "type": "function"
    },
    {
      "inputs": [
        {
          "internalType": "uint256",
          "name": "tokenId",
          "type": "uint256"
        }
      ],
      "name": "getApproved",
      "outputs": [
        {
          "internalType": "address",
          "name": "",
          "type": "address"
        }
      ],
      "stateMutability": "view",
      "type": "function"
    },
    {
      "inputs": [
        {
          "internalType": "uint256",
          "name": "timepoint",
          "type": "uint256"
        }
      ],
      "name": "getPastTotalSupply",
      "outputs": [
        {
          "internalType": "uint256",
          "name": "",
          "type": "uint256"
        }
      ],
      "stateMutability": "view",
      "type": "function"
    },
    {
      "inputs": [
        {
          "internalType": "address",
          "name": "account",
          "type": "address"
        },
        {
          "internalType": "uint256",
          "name": "timepoint",
          "type": "uint256"
        }
      ],
      "name": "getPastVotes",
      "outputs": [
        {
          "internalType": "uint256",
          "name": "",
          "type": "uint256"
        }
      ],
      "stateMutability": "view",
      "type": "function"
    },
    {
      "inputs": [
        {
          "internalType": "address",
          "name": "account",
          "type": "address"
        }
      ],
      "name": "getVotes",
      "outputs": [
        {
          "internalType": "uint256",
          "name": "",
          "type": "uint256"
        }
      ],
      "stateMutability": "view",
      "type": "function"
    },
    {
      "inputs": [],
      "name": "gov",
      "outputs": [
        {
          "internalType": "address",
          "name": "",
          "type": "address"
        }
      ],
      "stateMutability": "view",
      "type": "function"
    },
    {
      "inputs": [
        {
          "internalType": "address",
          "name": "owner",
          "type": "address"
        },
        {
          "internalType": "address",
          "name": "operator",
          "type": "address"
        }
      ],
      "name": "isApprovedForAll",
      "outputs": [
        {
          "internalType": "bool",
          "name": "",
          "type": "bool"
        }
      ],
      "stateMutability": "view",
      "type": "function"
    },
    {
      "inputs": [
        {
          "internalType": "uint256",
          "name": "",
          "type": "uint256"
        }
      ],
      "name": "memberMintedCounter",
      "outputs": [
        {
          "internalType": "uint256",
          "name": "",
          "type": "uint256"
        }
      ],
      "stateMutability": "view",
      "type": "function"
    },
    {
      "inputs": [],
      "name": "name",
      "outputs": [
        {
          "internalType": "string",
          "name": "",
          "type": "string"
        }
      ],
      "stateMutability": "view",
      "type": "function"
    },
    {
      "inputs": [
        {
          "internalType": "address",
          "name": "owner",
          "type": "address"
        }
      ],
      "name": "nonces",
      "outputs": [
        {
          "internalType": "uint256",
          "name": "",
          "type": "uint256"
        }
      ],
      "stateMutability": "view",
      "type": "function"
    },
    {
      "inputs": [
        {
          "internalType": "uint256",
          "name": "tokenId",
          "type": "uint256"
        }
      ],
      "name": "ownerOf",
      "outputs": [
        {
          "internalType": "address",
          "name": "",
          "type": "address"
        }
      ],
      "stateMutability": "view",
      "type": "function"
    },
    {
      "inputs": [],
      "name": "pendingGov",
      "outputs": [
        {
          "internalType": "address",
          "name": "",
          "type": "address"
        }
      ],
      "stateMutability": "view",
      "type": "function"
    },
    {
      "inputs": [
        {
          "internalType": "address",
          "name": "",
          "type": "address"
        }
      ],
      "name": "refereeTokens",
      "outputs": [
        {
          "internalType": "uint256",
          "name": "",
          "type": "uint256"
        }
      ],
      "stateMutability": "view",
      "type": "function"
    },
    {
      "inputs": [
        {
          "internalType": "address",
          "name": "referee",
          "type": "address"
        }
      ],
      "name": "referrerTokens",
      "outputs": [
        {
          "internalType": "uint256",
          "name": "_memberTokenId",
          "type": "uint256"
        },
        {
          "internalType": "uint256",
          "name": "_connectorTokenId",
          "type": "uint256"
        }
      ],
      "stateMutability": "view",
      "type": "function"
    },
    {
      "inputs": [
        {
          "internalType": "uint256",
          "name": "_tokenId",
          "type": "uint256"
        },
        {
          "internalType": "string",
          "name": "_code",
          "type": "string"
        }
      ],
      "name": "registerCode",
      "outputs": [],
      "stateMutability": "nonpayable",
      "type": "function"
    },
    {
      "inputs": [],
      "name": "rewardFarmCallback",
      "outputs": [
        {
          "internalType": "contract IRewardFarmCallback",
          "name": "",
          "type": "address"
        }
      ],
      "stateMutability": "view",
      "type": "function"
    },
    {
      "inputs": [
        {
          "internalType": "address",
          "name": "from",
          "type": "address"
        },
        {
          "internalType": "address",
          "name": "to",
          "type": "address"
        },
        {
          "internalType": "uint256",
          "name": "tokenId",
          "type": "uint256"
        }
      ],
      "name": "safeTransferFrom",
      "outputs": [],
      "stateMutability": "nonpayable",
      "type": "function"
    },
    {
      "inputs": [
        {
          "internalType": "address",
          "name": "from",
          "type": "address"
        },
        {
          "internalType": "address",
          "name": "to",
          "type": "address"
        },
        {
          "internalType": "uint256",
          "name": "tokenId",
          "type": "uint256"
        },
        {
          "internalType": "bytes",
          "name": "data",
          "type": "bytes"
        }
      ],
      "name": "safeTransferFrom",
      "outputs": [],
      "stateMutability": "nonpayable",
      "type": "function"
    },
    {
      "inputs": [
        {
          "internalType": "address",
          "name": "operator",
          "type": "address"
        },
        {
          "internalType": "bool",
          "name": "approved",
          "type": "bool"
        }
      ],
      "name": "setApprovalForAll",
      "outputs": [],
      "stateMutability": "nonpayable",
      "type": "function"
    },
    {
      "inputs": [
        {
          "internalType": "string",
          "name": "_URI",
          "type": "string"
        }
      ],
      "name": "setBaseURI",
      "outputs": [],
      "stateMutability": "nonpayable",
      "type": "function"
    },
    {
      "inputs": [
        {
          "internalType": "bytes4",
          "name": "interfaceId",
          "type": "bytes4"
        }
      ],
      "name": "supportsInterface",
      "outputs": [
        {
          "internalType": "bool",
          "name": "",
          "type": "bool"
        }
      ],
      "stateMutability": "view",
      "type": "function"
    },
    {
      "inputs": [],
      "name": "symbol",
      "outputs": [
        {
          "internalType": "string",
          "name": "",
          "type": "string"
        }
      ],
      "stateMutability": "view",
      "type": "function"
    },
    {
      "inputs": [
        {
          "internalType": "uint256",
          "name": "tokenId",
          "type": "uint256"
        }
      ],
      "name": "tokenURI",
      "outputs": [
        {
          "internalType": "string",
          "name": "",
          "type": "string"
        }
      ],
      "stateMutability": "view",
      "type": "function"
    },
    {
      "inputs": [
        {
          "internalType": "address",
          "name": "from",
          "type": "address"
        },
        {
          "internalType": "address",
          "name": "to",
          "type": "address"
        },
        {
          "internalType": "uint256",
          "name": "tokenId",
          "type": "uint256"
        }
      ],
      "name": "transferFrom",
      "outputs": [],
      "stateMutability": "nonpayable",
      "type": "function"
    }
  ],
  "bytecode": "0x610200346200060757601f6200577e38819003918201601f19168301916001600160401b03831184841017620003ef5780849260a094604052833981010312620006075780516020820151604083015160608401519293919290916001600160a01b0382168203620006075760800151916001600160a01b038316830362000607576040516200008f816200060c565b600381526245464360e81b602082015260405190620000ae826200060c565b60038252620312e360ec1b6020830152604051620000cc816200060c565b601681527f4571756174696f6e20466f756e6465727320436c75620000000000000000000060208201526040519062000105826200060c565b600382526245464360e81b60208301528051906001600160401b038211620003ef5760005490600182811c92168015620005fc575b6020831014620004f35781601f8493116200059c575b50602090601f8311600114620005205760009262000514575b50508160011b916000199060031b1c1916176000555b8051906001600160401b038211620003ef5760015490600182811c9216801562000509575b6020831014620004f35781601f8493116200048f575b50602090601f8311600114620004115760009262000405575b50508160011b916000199060031b1c1916176001555b620001f48162000628565b610120526200020382620007ef565b6101405260208151910120908160e0526020815191012080610100524660a0526040519060208201927f8b73c3c69bb8fe3d512ecc4cf759cc79239f7b179b0ffacaa9a75d522b39400f8452604083015260608201524660808201523060a082015260a0815260c081019181831060018060401b03841117620003ef576040839052815190206080523060c052600d8054336001600160a01b0319821681179092556001600160a01b03167f3d1e4c3a68fed9f4f8315582b7297cf8fa264bc8e6704287603ba8c72bf05ac2600080a36001600f558660010180600111620003d9576103e8809111908115620003c1575b50620003a55750506101a09081526101809384526101609485526101e09283526101c091825260405193614d969586620009a88739608051866133e8015260a051866134a3015260c051866133b9015260e051866134370152610100518661345d0152610120518661195d01526101405186611987015251856117720152518461049b015251838181612a2c01526130320152518281816113120152611c7c01525181818161163d01526117a40152f35b630e3c2e1f60e41b825260c4810187905260e401859052604490fd5b9050868101809111620003d9576127101038620002f4565b634e487b7160e01b600052601160045260246000fd5b634e487b7160e01b600052604160045260246000fd5b015190503880620001d3565b6001600090815293506000805160206200575e83398151915291905b601f198416851062000473576001945083601f1981161062000459575b505050811b01600155620001e9565b015160001960f88460031b161c191690553880806200044a565b818101518355602094850194600190930192909101906200042d565b60016000529091506000805160206200575e833981519152601f840160051c81019160208510620004e8575b90601f859493920160051c01905b818110620004d85750620001ba565b60008155849350600101620004c9565b9091508190620004bb565b634e487b7160e01b600052602260045260246000fd5b91607f1691620001a4565b01519050388062000169565b600080805293506000805160206200573e83398151915291905b601f198416851062000580576001945083601f1981161062000566575b505050811b016000556200017f565b015160001960f88460031b161c1916905538808062000557565b818101518355602094850194600190930192909101906200053a565b600080529091506000805160206200573e833981519152601f840160051c810160208510620005f4575b90849392915b601f830160051c82018110620005e457505062000150565b60008155859450600101620005cc565b5080620005c6565b91607f16916200013a565b600080fd5b604081019081106001600160401b03821117620003ef57604052565b805160209081811015620006c55750601f8251116200066457808251920151908083106200065557501790565b82600019910360031b1b161790565b90604051809263305a27a960e01b82528060048301528251908160248401526000935b828510620006ab575050604492506000838284010152601f80199101168101030190fd5b848101820151868601604401529381019385935062000687565b906001600160401b038211620003ef57600654926001938481811c91168015620007e4575b83821014620004f357601f8111620007aa575b5081601f84116001146200073e575092829391839260009462000732575b50501b916000199060031b1c19161760065560ff90565b0151925038806200071b565b919083601f198116600660005284600020946000905b888383106200078f575050501062000775575b505050811b0160065560ff90565b015160001960f88460031b161c1916905538808062000767565b85870151885590960195948501948793509081019062000754565b600660005284601f84600020920160051c820191601f860160051c015b828110620007d7575050620006fd565b60008155018590620007c7565b90607f1690620006ea565b8051602090818110156200087d5750601f8251116200081c57808251920151908083106200065557501790565b90604051809263305a27a960e01b82528060048301528251908160248401526000935b82851062000863575050604492506000838284010152601f80199101168101030190fd5b84810182015186860160440152938101938593506200083f565b906001600160401b038211620003ef57600754926001938481811c911680156200099c575b83821014620004f357601f811162000962575b5081601f8411600114620008f65750928293918392600094620008ea575b50501b916000199060031b1c19161760075560ff90565b015192503880620008d3565b919083601f198116600760005284600020946000905b888383106200094757505050106200092d575b505050811b0160075560ff90565b015160001960f88460031b161c191690553880806200091f565b8587015188559096019594850194879350908101906200090c565b600760005284601f84600020920160051c820191601f860160051c015b8281106200098f575050620008b5565b600081550185906200097f565b90607f1690620008a256fe6080604052600436101561001257600080fd5b60003560e01c806301ffc9a7146102c757806303e98e27146102c257806306fdde03146102bd578063081812fc146102b8578063093b1218146102b3578063095ea7b3146102ae5780630f2aec3a146102a957806312d43a51146102a45780631e54b2ee1461029f57806323b872dd1461029a5780632524081014610295578063274b0bea146102905780633644e5151461028b5780633a46b1a81461028657806342842e0e146102815780634bf5d7e91461027c57806355f804b314610277578063587cde1e146102725780635c19a95c1461026d5780635fca0cf0146102685780636352211e146102635780636c0360eb1461025e57806370a0823114610259578063771caa20146102545780637bc6729b1461024f5780637cf0263a1461024a5780637ecebe001461024557806384b0196e146102405780638e539e8c1461023b57806391ddadf4146102365780639210350d1461023157806393ec64991461022c57806395d89b41146102275780639ab24eb014610222578063a22cb4651461021d578063a962ef1e14610218578063b88d4fde14610213578063b9b848cc1461020e578063c3cda52014610209578063c87b56dd14610204578063e985e9c5146101ff578063e9dab583146101fa5763ef498a6d146101f557600080fd5b612880565b612817565b612775565b61251f565b612378565b61232e565b6122a8565b6121f7565b612092565b612004565b611f3f565b611d81565b611bcb565b611b81565b611a59565b611924565b6118bb565b611739565b611661565b6115f2565b6114f5565b611498565b611336565b6112c7565b611283565b611218565b6110c8565b610f68565b610f40565b610e01565b610dc0565b610d29565b610b63565b610b3a565b610a66565b610a14565b6108e3565b610771565b610717565b6106bd565b61059a565b610469565b6102fb565b7fffffffff000000000000000000000000000000000000000000000000000000008116036102f657565b600080fd5b346102f65760207ffffffffffffffffffffffffffffffffffffffffffffffffffffffffffffffffc3601126102f65760207fffffffff00000000000000000000000000000000000000000000000000000000600435610359816102cc565b167f80ac58cd0000000000000000000000000000000000000000000000000000000081149081156103c1575b8115610397575b506040519015158152f35b7f01ffc9a7000000000000000000000000000000000000000000000000000000009150143861038c565b7f5b5e139f0000000000000000000000000000000000000000000000000000000081149150610385565b9181601f840112156102f65782359167ffffffffffffffff83116102f6576020808501948460051b0101116102f657565b60207ffffffffffffffffffffffffffffffffffffffffffffffffffffffffffffffffc8201126102f6576004359067ffffffffffffffff82116102f657610465916004016103eb565b9091565b346102f6576104773661041c565b61047f612e93565b610487612eb4565b601354918183018084116104df57806013557f00000000000000000000000000000000000000000000000000000000000000008091116104e457506103e89283018093116104df576104d892612eef565b6001600f55005b6128bc565b602490604051907f73a6d13b0000000000000000000000000000000000000000000000000000000082526004820152fd5b60009103126102f657565b60005b8381106105335750506000910152565b8181015183820152602001610523565b907fffffffffffffffffffffffffffffffffffffffffffffffffffffffffffffffe0601f60209361057f81518092818752878088019101610520565b0116010190565b906020610597928181520190610543565b90565b346102f6576000807ffffffffffffffffffffffffffffffffffffffffffffffffffffffffffffffffc3601126106ba5760405190808054906105db82611372565b8085529160209160019182811690811561066f5750600114610618575b6106148661060881880382610c51565b60405191829182610586565b0390f35b80809550527f290decd9548b62a8d60345a988386fc84ba6bc95484008f6362f93160ef3e5635b83851061065c5750505050810160200161060882610614386105f8565b805486860184015293820193810161063f565b879650610614979450602093506106089592507fffffffffffffffffffffffffffffffffffffffffffffffffffffffffffffff0091501682840152151560051b8201019293386105f8565b80fd5b346102f65760207ffffffffffffffffffffffffffffffffffffffffffffffffffffffffffffffffc3601126102f65760206106f9600435612924565b73ffffffffffffffffffffffffffffffffffffffff60405191168152f35b346102f65760007ffffffffffffffffffffffffffffffffffffffffffffffffffffffffffffffffc3601126102f6576020601354604051908152f35b73ffffffffffffffffffffffffffffffffffffffff8116036102f657565b346102f65760407ffffffffffffffffffffffffffffffffffffffffffffffffffffffffffffffffc3601126102f6576004356107ac81610753565b6024356107b881612cec565b9173ffffffffffffffffffffffffffffffffffffffff808416809183161461085f576107f7936107f29133149081156107f9575b5061297b565b612f36565b005b61085991506108529061082d339173ffffffffffffffffffffffffffffffffffffffff166000526005602052604060002090565b9073ffffffffffffffffffffffffffffffffffffffff16600052602052604060002090565b5460ff1690565b386107ec565b60846040517f08c379a000000000000000000000000000000000000000000000000000000000815260206004820152602160248201527f4552433732313a20617070726f76616c20746f2063757272656e74206f776e6560448201527f72000000000000000000000000000000000000000000000000000000000000006064820152fd5b346102f65760407ffffffffffffffffffffffffffffffffffffffffffffffffffffffffffffffffc3601126102f65760043560243567ffffffffffffffff81116102f6576109359036906004016103eb565b906103e883101580610a09575b156109d85761096c61095384612cec565b73ffffffffffffffffffffffffffffffffffffffff1690565b330361097b576107f792612a06565b6109d461098784612cec565b6040517fd4ed9a1700000000000000000000000000000000000000000000000000000000815273ffffffffffffffffffffffffffffffffffffffff90911660048201529081906024820190565b0390fd5b602483604051907f049435eb0000000000000000000000000000000000000000000000000000000082526004820152fd5b506127108310610942565b346102f65760007ffffffffffffffffffffffffffffffffffffffffffffffffffffffffffffffffc3601126102f657602073ffffffffffffffffffffffffffffffffffffffff600d5416604051908152f35b346102f65760207ffffffffffffffffffffffffffffffffffffffffffffffffffffffffffffffffc3601126102f657600435610aa181610753565b73ffffffffffffffffffffffffffffffffffffffff1660009081526011602052604081205480610adf5750805b604080519182526020820192909252f35b9050610aea8161300b565b90610ace565b7ffffffffffffffffffffffffffffffffffffffffffffffffffffffffffffffffc60609101126102f657600435610b2681610753565b90602435610b3381610753565b9060443590565b346102f6576107f7610b4b36610af0565b91610b5e610b59843361305f565b612b25565b613185565b346102f65760007ffffffffffffffffffffffffffffffffffffffffffffffffffffffffffffffffc3601126102f657602073ffffffffffffffffffffffffffffffffffffffff600e5416604051908152f35b7f4e487b7100000000000000000000000000000000000000000000000000000000600052604160045260246000fd5b67ffffffffffffffff8111610bf857604052565b610bb5565b6040810190811067ffffffffffffffff821117610bf857604052565b6020810190811067ffffffffffffffff821117610bf857604052565b60c0810190811067ffffffffffffffff821117610bf857604052565b90601f7fffffffffffffffffffffffffffffffffffffffffffffffffffffffffffffffe0910116810190811067ffffffffffffffff821117610bf857604052565b60405190610c9f82610bfd565b565b67ffffffffffffffff8111610bf857601f017fffffffffffffffffffffffffffffffffffffffffffffffffffffffffffffffe01660200190565b929192610ce782610ca1565b91610cf56040519384610c51565b8294818452818301116102f6578281602093846000960137010152565b90610d2560209282815194859201610520565b0190565b346102f65760207ffffffffffffffffffffffffffffffffffffffffffffffffffffffffffffffffc3601126102f65760043567ffffffffffffffff81116102f657366023820112156102f657610da46020610d91610614933690602481600401359101610cdb565b8160405193828580945193849201610520565b8101601081520301902054604051918291829190602083019252565b346102f65760007ffffffffffffffffffffffffffffffffffffffffffffffffffffffffffffffffc3601126102f6576020610df96133a2565b604051908152f35b346102f65760407ffffffffffffffffffffffffffffffffffffffffffffffffffffffffffffffffc3601126102f657600435610e3c81610753565b60243590610e5b65ffffffffffff610e5343613a7a565b168310612bb0565b73ffffffffffffffffffffffffffffffffffffffff6000911681526009602052610e8860408220926134c9565b91805482938160058111610eed575b5090602094610ea69284613fb2565b80610ed45750505b7bffffffffffffffffffffffffffffffffffffffffffffffffffffffff60405191168152f35b91610ee0849293612af8565b928152200154811c610eae565b94610ef786613df9565b86039586116104df57602095610ea69385875263ffffffff80838a8a2001541690851610600014610f2e5750915b91925094610e97565b929150610f3a90612909565b90610f25565b346102f6576107f7610f5136610af0565b9060405192610f5f84610c19565b60008452612e02565b346102f65760007ffffffffffffffffffffffffffffffffffffffffffffffffffffffffffffffffc3601126102f6574365ffffffffffff610fa843613a7a565b1603610ff357610614604051610fbd81610bfd565b601d81527f6d6f64653d626c6f636b6e756d6265722666726f6d3d64656661756c74000000602082015260405191829182610586565b60646040517f08c379a000000000000000000000000000000000000000000000000000000000815260206004820152601860248201527f566f7465733a2062726f6b656e20636c6f636b206d6f646500000000000000006044820152fd5b9181601f840112156102f65782359167ffffffffffffffff83116102f657602083818601950101116102f657565b60207ffffffffffffffffffffffffffffffffffffffffffffffffffffffffffffffffc8201126102f6576004359067ffffffffffffffff82116102f65761046591600401611051565b346102f6576110d63661107f565b6110de612e93565b67ffffffffffffffff8111610bf857611101816110fc601554611372565b612c15565b6000601f821160011461115e57819061114e93600092611153575b50507fffffffffffffffffffffffffffffffffffffffffffffffffffffffffffffffff8260011b9260031b1c19161790565b601555005b01359050388061111c565b60156000527fffffffffffffffffffffffffffffffffffffffffffffffffffffffffffffffe08216927f55f448fdea98c4d29eb340757ef0a66cd03dbb9538908a6a81d96026b71ec47591805b858110611200575083600195106111c8575b505050811b01601555005b7fffffffffffffffffffffffffffffffffffffffffffffffffffffffffffffffff60f88560031b161c199101351690553880806111bd565b909260206001819286860135815501940191016111ab565b346102f65760207ffffffffffffffffffffffffffffffffffffffffffffffffffffffffffffffffc3601126102f657602060043561125581610753565b73ffffffffffffffffffffffffffffffffffffffff8091166000526008825260406000205416604051908152f35b346102f65760207ffffffffffffffffffffffffffffffffffffffffffffffffffffffffffffffffc3601126102f6576107f76004356112c181610753565b3361355e565b346102f65760007ffffffffffffffffffffffffffffffffffffffffffffffffffffffffffffffffc3601126102f657602060405173ffffffffffffffffffffffffffffffffffffffff7f0000000000000000000000000000000000000000000000000000000000000000168152f35b346102f65760207ffffffffffffffffffffffffffffffffffffffffffffffffffffffffffffffffc3601126102f65760206106f9600435612cec565b90600182811c921680156113bb575b602083101461138c57565b7f4e487b7100000000000000000000000000000000000000000000000000000000600052602260045260246000fd5b91607f1691611381565b601554600092916113d582611372565b8082529160209060019081811690811561145457506001146113f8575b50505050565b9293945060156000527f55f448fdea98c4d29eb340757ef0a66cd03dbb9538908a6a81d96026b71ec475926000935b8585106114415750505060209250010190388080806113f2565b8054858501840152938201938101611427565b91505060209495507fffffffffffffffffffffffffffffffffffffffffffffffffffffffffffffff0091509291921683830152151560051b010190388080806113f2565b346102f65760007ffffffffffffffffffffffffffffffffffffffffffffffffffffffffffffffffc3601126102f6576106146040516114e1816114da816113c5565b0382610c51565b604051918291602083526020830190610543565b346102f65760207ffffffffffffffffffffffffffffffffffffffffffffffffffffffffffffffffc3601126102f65773ffffffffffffffffffffffffffffffffffffffff60043561154581610753565b16801561156e576000526003602052610614604060002054604051918291829190602083019252565b60846040517f08c379a000000000000000000000000000000000000000000000000000000000815260206004820152602960248201527f4552433732313a2061646472657373207a65726f206973206e6f74206120766160448201527f6c6964206f776e657200000000000000000000000000000000000000000000006064820152fd5b346102f65760007ffffffffffffffffffffffffffffffffffffffffffffffffffffffffffffffffc3601126102f657602060405173ffffffffffffffffffffffffffffffffffffffff7f0000000000000000000000000000000000000000000000000000000000000000168152f35b346102f6576000807ffffffffffffffffffffffffffffffffffffffffffffffffffffffffffffffffc3601126106ba57600e5473ffffffffffffffffffffffffffffffffffffffff808216330361170f577fffffffffffffffffffffffff0000000000000000000000000000000000000000809216600e55600d54913390831617600d553391167f3d1e4c3a68fed9f4f8315582b7297cf8fa264bc8e6704287603ba8c72bf05ac28380a380f35b60046040517fee90c468000000000000000000000000000000000000000000000000000000008152fd5b346102f6576117473661041c565b90611750612e93565b611758612eb4565b60125461176d6117688483612917565b601255565b6012547f000000000000000000000000000000000000000000000000000000000000000080911161188857506117a2906128eb565b7f000000000000000000000000000000000000000000000000000000000000000073ffffffffffffffffffffffffffffffffffffffff169060005b8481106117ee576107f76001600f55565b6117f88183612917565b906118158261181061180b848a8a612d4a565b612d5f565b61360f565b833b156102f6576040517f54f80bb1000000000000000000000000000000000000000000000000000000008152600481019290925260008260248183885af19182156118835760019261186a575b50016117dd565b8061187761187d92610be4565b80610515565b38611863565b612d69565b6040517f73a6d13b0000000000000000000000000000000000000000000000000000000081526004810191909152602490fd5b346102f65760207ffffffffffffffffffffffffffffffffffffffffffffffffffffffffffffffffc3601126102f65773ffffffffffffffffffffffffffffffffffffffff60043561190b81610753565b16600052600b6020526020604060002054604051908152f35b346102f6576000807ffffffffffffffffffffffffffffffffffffffffffffffffffffffffffffffffc3601126106ba576119fc906119817f000000000000000000000000000000000000000000000000000000000000000061388b565b906119ab7f00000000000000000000000000000000000000000000000000000000000000006139bf565b90604051916119b983610c19565b818352611a0a6020916040519687967f0f00000000000000000000000000000000000000000000000000000000000000885260e0602089015260e0880190610543565b908682036040880152610543565b904660608601523060808601528260a086015284820360c0860152602080855193848152019401925b828110611a4257505050500390f35b835185528695509381019392810192600101611a33565b346102f65760207ffffffffffffffffffffffffffffffffffffffffffffffffffffffffffffffffc3601126102f657611aae600435611aa965ffffffffffff611aa143613a7a565b168210612bb0565b6134c9565b600a54906000829160058411611b15575b611ac99350613f39565b80611adb575060405160008152602090f35b611ae6602091612af8565b600a6000527fc65a7bb8d6351c1cf70c95a316cc6a92839c986682d98bc35f958f4883f9d2a80154811c610eae565b9192611b2081613df9565b81039081116104df57611ac993600a60005263ffffffff80837fc65a7bb8d6351c1cf70c95a316cc6a92839c986682d98bc35f958f4883f9d2a801541690851610600014611b6f575091611abf565b929150611b7b90612909565b90611abf565b346102f65760007ffffffffffffffffffffffffffffffffffffffffffffffffffffffffffffffffc3601126102f6576020611bbb43613a7a565b65ffffffffffff60405191168152f35b346102f657611bd93661107f565b611be38183612d75565b54918215611d4c577fb05472b1e3f617044d7ebc0ba7b093eef318f044ff7680d935db83d7ee98b087611c363373ffffffffffffffffffffffffffffffffffffffff166000526011602052604060002090565b54809385611c643373ffffffffffffffffffffffffffffffffffffffff166000526011602052604060002090565b55611c7786604051938493339785612dde565b0390a27f000000000000000000000000000000000000000000000000000000000000000073ffffffffffffffffffffffffffffffffffffffff169181611d3d576000925b611cc48261300b565b93813b156102f6576040517f24675390000000000000000000000000000000000000000000000000000000008152336004820152602481019490945260448401526064830191909152608482019290925290600090829060a490829084905af1801561188357611d3057005b806118776107f792610be4565b611d468261300b565b92611cbb565b6109d46040519283927f06e3fbd100000000000000000000000000000000000000000000000000000000845260048401612dcd565b346102f6576040807ffffffffffffffffffffffffffffffffffffffffffffffffffffffffffffffffc3601126102f657600480359060243567ffffffffffffffff81116102f657611dd59036908301611051565b90936127108410611f0a578115611ee257611def84612cec565b9273ffffffffffffffffffffffffffffffffffffffff841693338503611e965750611e1a8387612d75565b54611e6257509084611e5d7f52b2e683ce1064b57a865568a3849f571a603dec12750fc74f69d6dee5171a319386611e528585612d75565b555192839283612dcd565b0390a3005b6109d4838793519384937f7f7d0ec30000000000000000000000000000000000000000000000000000000085528401612dcd565b91517fd4ed9a1700000000000000000000000000000000000000000000000000000000815273ffffffffffffffffffffffffffffffffffffffff90921690820190815281906020010390fd5b9050517f6606a462000000000000000000000000000000000000000000000000000000008152fd5b517f61b3217d000000000000000000000000000000000000000000000000000000008152918201928352509081906020010390fd5b346102f6576000807ffffffffffffffffffffffffffffffffffffffffffffffffffffffffffffffffc3601126106ba5760405190806001805490611f8282611372565b808652926020926001811690811561066f5750600114611fac576106148661060881880382610c51565b9350600184527fb10e2d527612073b26eecdfd717e6a320cf44b4afac2b0732d9fcbe2b7fa0cf65b838510611ff15750505050810160200161060882610614386105f8565b8054868601840152938201938101611fd4565b346102f65760207ffffffffffffffffffffffffffffffffffffffffffffffffffffffffffffffffc3601126102f65773ffffffffffffffffffffffffffffffffffffffff60043561205481610753565b16600052600960205260207bffffffffffffffffffffffffffffffffffffffffffffffffffffffff6120896040600020613b76565b16604051908152f35b346102f65760407ffffffffffffffffffffffffffffffffffffffffffffffffffffffffffffffffc3601126102f6576004356120cd81610753565b60243580151581036102f65773ffffffffffffffffffffffffffffffffffffffff82169182331461219957816121336121639233600052600560205260406000209073ffffffffffffffffffffffffffffffffffffffff16600052602052604060002090565b9060ff7fffffffffffffffffffffffffffffffffffffffffffffffffffffffffffffff0083541691151516179055565b604051901515815233907f17307eab39ab6107e8899845ad3d59bd9653f200f220920489ca2b5937696c31908060208101611e5d565b60646040517f08c379a000000000000000000000000000000000000000000000000000000000815260206004820152601960248201527f4552433732313a20617070726f766520746f2063616c6c6572000000000000006044820152fd5b346102f65760207ffffffffffffffffffffffffffffffffffffffffffffffffffffffffffffffffc3601126102f65760043561223281610753565b61223a612e93565b73ffffffffffffffffffffffffffffffffffffffff80911690817fffffffffffffffffffffffff0000000000000000000000000000000000000000600e541617600e55600d54167fb9911e2099e372c216862258dc462bb65da46a2c854536c8b1acae619d0d62ed600080a3005b346102f65760807ffffffffffffffffffffffffffffffffffffffffffffffffffffffffffffffffc3601126102f6576004356122e381610753565b6024356122ef81610753565b6064359167ffffffffffffffff83116102f657366023840112156102f6576123246107f7933690602481600401359101610cdb565b9160443591612e02565b346102f65760207ffffffffffffffffffffffffffffffffffffffffffffffffffffffffffffffffc3601126102f65760043560005260146020526020604060002054604051908152f35b346102f65760c07ffffffffffffffffffffffffffffffffffffffffffffffffffffffffffffffffc3601126102f6576004356123b381610753565b6064359060243560443560ff841684036102f6578042116124c1576124826124bc916107f7956040519061246a8261243e6020820195898b8860609194939273ffffffffffffffffffffffffffffffffffffffff60808301967fe48329057bfd03d55e49b547132e39cffd9c1820ad7b9d4c5307691425d15adf845216602083015260408201520152565b037fffffffffffffffffffffffffffffffffffffffffffffffffffffffffffffffe08101845283610c51565b61247d60a4359360843593519020613c4c565b613c8d565b916124b68373ffffffffffffffffffffffffffffffffffffffff16600052600b602052604060002090815491600183019055565b14612e2e565b61355e565b60646040517f08c379a000000000000000000000000000000000000000000000000000000000815260206004820152601860248201527f566f7465733a207369676e6174757265206578706972656400000000000000006044820152fd5b346102f65760207ffffffffffffffffffffffffffffffffffffffffffffffffffffffffffffffffc3601126102f65760043561258661258182600052600260205273ffffffffffffffffffffffffffffffffffffffff60406000205416151590565b612c87565b604051612596816114da816113c5565b80511561275b57600091807a184f03e93ff9f4daa797ed6e38ed64bf6a1f010000000000000000818181101561274d575b50506d04ee2d6d415b85acef81000000008083101561273e575b50662386f26fc100008083101561272f575b506305f5e10080831015612720575b5061271080831015612711575b506064821015612701575b600a809210156126f7575b60019081602161263760018801613cbd565b96870101905b612696575b505050506106086126649161266a610614946040519485936020850190610d12565b90610d12565b037fffffffffffffffffffffffffffffffffffffffffffffffffffffffffffffffe08101835282610c51565b7fffffffffffffffffffffffffffffffffffffffffffffffffffffffffffffffff849101917f30313233343536373839616263646566000000000000000000000000000000008282061a8353049182156126f25791908261263d565b612642565b9260010192612625565b929060646002910491019261261a565b6004919492049101923861260f565b60089194920491019238612602565b601091949204910192386125f3565b602091949204910192386125e1565b6040955004915038806125c7565b505061061460405161276c81610c19565b60008152610608565b346102f65760407ffffffffffffffffffffffffffffffffffffffffffffffffffffffffffffffffc3601126102f657602060ff61280b6004356127b781610753565b73ffffffffffffffffffffffffffffffffffffffff602435916127d983610753565b166000526005845260406000209073ffffffffffffffffffffffffffffffffffffffff16600052602052604060002090565b54166040519015158152f35b346102f65760207ffffffffffffffffffffffffffffffffffffffffffffffffffffffffffffffffc3601126102f65773ffffffffffffffffffffffffffffffffffffffff60043561286781610753565b1660005260116020526020604060002054604051908152f35b346102f65760007ffffffffffffffffffffffffffffffffffffffffffffffffffffffffffffffffc3601126102f6576020601254604051908152f35b7f4e487b7100000000000000000000000000000000000000000000000000000000600052601160045260246000fd5b60010190816001116104df57565b906127109182018092116104df57565b90600182018092116104df57565b919082018092116104df57565b61295461258182600052600260205273ffffffffffffffffffffffffffffffffffffffff60406000205416151590565b600052600460205273ffffffffffffffffffffffffffffffffffffffff6040600020541690565b1561298257565b60846040517f08c379a000000000000000000000000000000000000000000000000000000000815260206004820152603d60248201527f4552433732313a20617070726f76652063616c6c6572206973206e6f7420746f60448201527f6b656e206f776e6572206f7220617070726f76656420666f7220616c6c0000006064820152fd5b91612a0f612eb4565b82600052601460205260406000205490808201918281116104df577f0000000000000000000000000000000000000000000000000000000000000000809311612ac7577ffffffffffffffffffffffffffffffffffffffffffffffffffffffffffffffc1885018581116104df578381029381850414901517156104df57612aa482612abf95612aa984612aa4612aae986128f9565b612917565b612eef565b916000526014602052604060002090565b556001600f55565b602483604051907f73a6d13b0000000000000000000000000000000000000000000000000000000082526004820152fd5b907fffffffffffffffffffffffffffffffffffffffffffffffffffffffffffffffff82019182116104df57565b15612b2c57565b60846040517f08c379a000000000000000000000000000000000000000000000000000000000815260206004820152602d60248201527f4552433732313a2063616c6c6572206973206e6f7420746f6b656e206f776e6560448201527f72206f7220617070726f766564000000000000000000000000000000000000006064820152fd5b15612bb757565b60646040517f08c379a000000000000000000000000000000000000000000000000000000000815260206004820152601460248201527f566f7465733a20667574757265206c6f6f6b75700000000000000000000000006044820152fd5b601f8111612c21575050565b60009060156000527f55f448fdea98c4d29eb340757ef0a66cd03dbb9538908a6a81d96026b71ec475906020601f850160051c83019410612c7d575b601f0160051c01915b828110612c7257505050565b818155600101612c66565b9092508290612c5d565b15612c8e57565b60646040517f08c379a000000000000000000000000000000000000000000000000000000000815260206004820152601860248201527f4552433732313a20696e76616c696420746f6b656e20494400000000000000006044820152fd5b600052600260205273ffffffffffffffffffffffffffffffffffffffff60406000205416610597811515612c87565b7f4e487b7100000000000000000000000000000000000000000000000000000000600052603260045260246000fd5b9190811015612d5a5760051b0190565b612d1b565b3561059781610753565b6040513d6000823e3d90fd5b6020908260405193849283378101601081520301902090565b601f82602094937fffffffffffffffffffffffffffffffffffffffffffffffffffffffffffffffe0938186528686013760008582860101520116010190565b916020610597938181520191612d8e565b90612df89060409396959496606084526060840191612d8e565b9460208201520152565b91610c9f9391612e2993612e19610b59843361305f565b612e24838383613185565b6143ee565b613bc0565b15612e3557565b60646040517f08c379a000000000000000000000000000000000000000000000000000000000815260206004820152601460248201527f566f7465733a20696e76616c6964206e6f6e63650000000000000000000000006044820152fd5b73ffffffffffffffffffffffffffffffffffffffff600d5416330361170f57565b6002600f5414612ec5576002600f55565b60046040517f3ee5aeb5000000000000000000000000000000000000000000000000000000008152fd5b90929160005b818110612f03575050509050565b612f0e818387612d4a565b3590612f1982610753565b808401918285116104df57600192612f309161360f565b01612ef5565b816000526004602052612f888160406000209073ffffffffffffffffffffffffffffffffffffffff167fffffffffffffffffffffffff0000000000000000000000000000000000000000825416179055565b73ffffffffffffffffffffffffffffffffffffffff80612fa784612cec565b169116907f8c5be1e5ebec7d5bd14f71427d1e84f3dd0314c0f7b2291e5b200ac8c7c3b925600080a4565b8115612fdc570490565b7f4e487b7100000000000000000000000000000000000000000000000000000000600052601260045260246000fd5b613058907fffffffffffffffffffffffffffffffffffffffffffffffffffffffffffffd8f07f00000000000000000000000000000000000000000000000000000000000000009101612fd2565b6103e80190565b73ffffffffffffffffffffffffffffffffffffffff8061307e84612cec565b1692818316928484149485156130b4575b5050831561309e575b50505090565b6130aa91929350612924565b1614388080613098565b60ff929550906130f091600052600560205260406000209073ffffffffffffffffffffffffffffffffffffffff16600052602052604060002090565b541692388061308f565b1561310157565b60846040517f08c379a000000000000000000000000000000000000000000000000000000000815260206004820152602560248201527f4552433732313a207472616e736665722066726f6d20696e636f72726563742060448201527f6f776e65720000000000000000000000000000000000000000000000000000006064820152fd5b906131b8929161319483612cec565b73ffffffffffffffffffffffffffffffffffffffff828116959091821686146130fa565b821693841561331f57610c9f94816131dd86936131d761095386612cec565b146130fa565b61321c6131f4846000526004602052604060002090565b7fffffffffffffffffffffffff00000000000000000000000000000000000000008154169055565b6132468473ffffffffffffffffffffffffffffffffffffffff166000526003602052604060002090565b7fffffffffffffffffffffffffffffffffffffffffffffffffffffffffffffffff81540190556132968573ffffffffffffffffffffffffffffffffffffffff166000526003602052604060002090565b600181540190556132f5856132b5856000526002602052604060002090565b9073ffffffffffffffffffffffffffffffffffffffff167fffffffffffffffffffffffff0000000000000000000000000000000000000000825416179055565b7fddf252ad1be2c89b69c2b068fc378daa952ba7f163c4a11628f55a4df523b3ef600080a4613d0c565b60846040517f08c379a0000000000000000000000000000000000000000000000000000000008152602060048201526024808201527f4552433732313a207472616e7366657220746f20746865207a65726f2061646460448201527f72657373000000000000000000000000000000000000000000000000000000006064820152fd5b73ffffffffffffffffffffffffffffffffffffffff7f0000000000000000000000000000000000000000000000000000000000000000163014806134a0575b1561340a577f000000000000000000000000000000000000000000000000000000000000000090565b60405160208101907f8b73c3c69bb8fe3d512ecc4cf759cc79239f7b179b0ffacaa9a75d522b39400f82527f000000000000000000000000000000000000000000000000000000000000000060408201527f000000000000000000000000000000000000000000000000000000000000000060608201524660808201523060a082015260a0815261349a81610c35565b51902090565b507f000000000000000000000000000000000000000000000000000000000000000046146133e1565b63ffffffff908181116134da571690565b60846040517f08c379a000000000000000000000000000000000000000000000000000000000815260206004820152602660248201527f53616665436173743a2076616c756520646f65736e27742066697420696e203360448201527f32206269747300000000000000000000000000000000000000000000000000006064820152fd5b9080610c9f9273ffffffffffffffffffffffffffffffffffffffff809116908160005260086020526040600020906135d6818354169586939073ffffffffffffffffffffffffffffffffffffffff167fffffffffffffffffffffffff0000000000000000000000000000000000000000825416179055565b8316917f3134e8a2e6d97e929a7e54011ea5485d7d196dd5f0ba4d4ef95803e8e3fc257f600080a4600c60205260406000205491614011565b9060405161361c81610c19565b60009182825273ffffffffffffffffffffffffffffffffffffffff9384811694851561382d5761367861367284600052600260205273ffffffffffffffffffffffffffffffffffffffff60406000205416151590565b156147b9565b6136a861367284600052600260205273ffffffffffffffffffffffffffffffffffffffff60406000205416151590565b6136d28273ffffffffffffffffffffffffffffffffffffffff166000526003602052604060002090565b600181540190556136f1826132b5856000526002602052604060002090565b8286867fddf252ad1be2c89b69c2b068fc378daa952ba7f163c4a11628f55a4df523b3ef8180a482151580613822575b1561381a5760ff60015b166137568373ffffffffffffffffffffffffffffffffffffffff16600052600c602052604060002090565b548181018091116104df5761378b8473ffffffffffffffffffffffffffffffffffffffff16600052600c602052604060002090565b55613795816146bb565b966137af65ffffffffffff6137a943613a7a565b166134c9565b927bffffffffffffffffffffffffffffffffffffffffffffffffffffffff9889806137d8613b11565b169116019889116104df576040612e29986137f9610c9f9b61381597614ac3565b5050808052600860205282828220541693815220541690614011565b614282565b60ff8561372b565b506103e88310613721565b60646040517f08c379a000000000000000000000000000000000000000000000000000000000815260206004820152602060248201527f4552433732313a206d696e7420746f20746865207a65726f20616464726573736044820152fd5b60ff81146138dd5760ff811690601f82116138b3576138a8613ca4565b918252602082015290565b60046040517fb3512b0c000000000000000000000000000000000000000000000000000000008152fd5b506040516006548160006138f083611372565b8083529260209060019081811690811561397c575060011461391b575b505061059792500382610c51565b91509260066000527ff652222313e28459528d920b65115c16c04f3efc82aaedc97be59f3f377c0d3f936000925b8284106139645750610597945050508101602001388061390d565b85548785018301529485019486945092810192613949565b9050602093506105979592507fffffffffffffffffffffffffffffffffffffffffffffffffffffffffffffff0091501682840152151560051b820101388061390d565b60ff81146139dc5760ff811690601f82116138b3576138a8613ca4565b506040516007548160006139ef83611372565b8083529260209060019081811690811561397c5750600114613a1957505061059792500382610c51565b91509260076000527fa66cc928b5edb82af9bd49922954155ab7b0942694bea4ce44661d9a8736c688936000925b828410613a625750610597945050508101602001388061390d565b85548785018301529485019486945092810192613a47565b65ffffffffffff90818111613a8d571690565b60846040517f08c379a000000000000000000000000000000000000000000000000000000000815260206004820152602660248201527f53616665436173743a2076616c756520646f65736e27742066697420696e203460448201527f38206269747300000000000000000000000000000000000000000000000000006064820152fd5b600a5480613b1f5750600090565b807fffffffffffffffffffffffffffffffffffffffffffffffffffffffffffffffff8101116104df57600a6000527fc65a7bb8d6351c1cf70c95a316cc6a92839c986682d98bc35f958f4883f9d2a7015460201c90565b805480613b84575050600090565b7fffffffffffffffffffffffffffffffffffffffffffffffffffffffffffffffff9181838101116104df57600052602060002001015460201c90565b15613bc757565b6040517f08c379a000000000000000000000000000000000000000000000000000000000815260206004820152603260248201527f4552433732313a207472616e7366657220746f206e6f6e20455243373231526560448201527f63656976657220696d706c656d656e74657200000000000000000000000000006064820152608490fd5b604290613c576133a2565b90604051917f19010000000000000000000000000000000000000000000000000000000000008352600283015260228201522090565b916105979391613c9c93614458565b919091614520565b60405190613cb182610bfd565b60208083523683820137565b90613cc782610ca1565b613cd46040519182610c51565b8281527fffffffffffffffffffffffffffffffffffffffffffffffffffffffffffffffe0613d028294610ca1565b0190602036910137565b918015159081613ded575b5015613de45760ff60015b169073ffffffffffffffffffffffffffffffffffffffff928381169384613db4575b610c9f945082161561481e57613d8483613d7e8473ffffffffffffffffffffffffffffffffffffffff16600052600c602052604060002090565b54612917565b613dae8373ffffffffffffffffffffffffffffffffffffffff16600052600c602052604060002090565b5561481e565b84600052600c6020526040600020548481039081116104df57610c9f95600052600c602052604060002055613d44565b60ff6000613d22565b6103e891501038613d17565b8015613f335780613ecc613ec5613ebb613eb1613ea7613e9d613e93613e8960016105979a6000908b60801c80613f27575b508060401c80613f1a575b508060201c80613f0d575b508060101c80613f00575b508060081c80613ef3575b508060041c80613ee6575b508060021c80613ed9575b50821c613ed2575b811c1b613e82818b612fd2565b0160011c90565b613e82818a612fd2565b613e828189612fd2565b613e828188612fd2565b613e828187612fd2565b613e828186612fd2565b613e828185612fd2565b8092612fd2565b906146a9565b8101613e75565b6002915091019038613e6d565b6004915091019038613e62565b6008915091019038613e57565b6010915091019038613e4c565b6020915091019038613e41565b6040915091019038613e36565b91505060809038613e2b565b50600090565b905b828110613f4757505090565b90918082169080831860011c82018092116104df57600a60005263ffffffff80837fc65a7bb8d6351c1cf70c95a316cc6a92839c986682d98bc35f958f4883f9d2a801541690851610600014613fa05750915b90613f3b565b929150613fac90612909565b90613f9a565b91905b838210613fc25750505090565b9091928083169080841860011c82018092116104df5760008581526020902082015463ffffffff9081169084161015613fff5750925b9190613fb5565b93925061400b90612909565b91613ff8565b919073ffffffffffffffffffffffffffffffffffffffff928382169381169084821415806141bf575b614046575b5050505050565b816140f1575b50508261405b575b808061403f565b7fdec2bacdd2f05b59de34da9b523dff8be42e5e38e818c82fdb0bae774387a724916140b36140ad6140b99373ffffffffffffffffffffffffffffffffffffffff166000526009602052604060002090565b916146bb565b90614768565b604080517bffffffffffffffffffffffffffffffffffffffffffffffffffffffff9384168152919092166020820152a2388080614054565b61411b9073ffffffffffffffffffffffffffffffffffffffff166000526009602052604060002090565b614124846146bb565b61413765ffffffffffff6137a943613a7a565b7bffffffffffffffffffffffffffffffffffffffffffffffffffffffff91828061416086613b76565b1691169003928284116104df577fdec2bacdd2f05b59de34da9b523dff8be42e5e38e818c82fdb0bae774387a724936141b59261419c92614c50565b6040805192851683529316602082015291829190820190565b0390a2388061404c565b5083151561403a565b908160209103126102f65751610597816102cc565b610597939273ffffffffffffffffffffffffffffffffffffffff6080931682526000602083015260408201528160608201520190610543565b9092610597949360809373ffffffffffffffffffffffffffffffffffffffff809216845216602083015260408201528160608201520190610543565b3d1561427d573d9061426382610ca1565b916142716040519384610c51565b82523d6000602084013e565b606090565b909190803b156143e6576142e260209173ffffffffffffffffffffffffffffffffffffffff9360006040519586809581947f150b7a02000000000000000000000000000000000000000000000000000000009a8b845233600485016141dd565b0393165af1600091816143b5575b5061438f576142fd614252565b8051908161438a576040517f08c379a000000000000000000000000000000000000000000000000000000000815260206004820152603260248201527f4552433732313a207472616e7366657220746f206e6f6e20455243373231526560448201527f63656976657220696d706c656d656e74657200000000000000000000000000006064820152608490fd5b602001fd5b7fffffffff00000000000000000000000000000000000000000000000000000000161490565b6143d891925060203d6020116143df575b6143d08183610c51565b8101906141c8565b90386142f0565b503d6143c6565b505050600190565b92909190823b1561444f576142e292602092600073ffffffffffffffffffffffffffffffffffffffff6040518097819682957f150b7a02000000000000000000000000000000000000000000000000000000009b8c85523360048601614216565b50505050600190565b9291907f7fffffffffffffffffffffffffffffff5d576e7357a4501ddfe92f46681b20a083116144db5791608094939160ff602094604051948552168484015260408301526060820152600093849182805260015afa1561188357815173ffffffffffffffffffffffffffffffffffffffff8116156144d5579190565b50600190565b50505050600090600390565b600511156144f157565b7f4e487b7100000000000000000000000000000000000000000000000000000000600052602160045260246000fd5b614529816144e7565b806145315750565b61453a816144e7565b600181036145a1576040517f08c379a000000000000000000000000000000000000000000000000000000000815260206004820152601860248201527f45434453413a20696e76616c6964207369676e617475726500000000000000006044820152606490fd5b6145aa816144e7565b60028103614611576040517f08c379a000000000000000000000000000000000000000000000000000000000815260206004820152601f60248201527f45434453413a20696e76616c6964207369676e6174757265206c656e677468006044820152606490fd5b8061461d6003926144e7565b1461462457565b6040517f08c379a000000000000000000000000000000000000000000000000000000000815260206004820152602260248201527f45434453413a20696e76616c6964207369676e6174757265202773272076616c60448201527f75650000000000000000000000000000000000000000000000000000000000006064820152608490fd5b90808210156146b6575090565b905090565b7bffffffffffffffffffffffffffffffffffffffffffffffffffffffff908181116146e4571690565b60846040517f08c379a000000000000000000000000000000000000000000000000000000000815260206004820152602760248201527f53616665436173743a2076616c756520646f65736e27742066697420696e203260448201527f32342062697473000000000000000000000000000000000000000000000000006064820152fd5b9061477c65ffffffffffff6137a943613a7a565b7bffffffffffffffffffffffffffffffffffffffffffffffffffffffff9182806147a586613b76565b169116019182116104df5761046592614c50565b156147c057565b60646040517f08c379a000000000000000000000000000000000000000000000000000000000815260206004820152601c60248201527f4552433732313a20746f6b656e20616c7265616479206d696e746564000000006044820152fd5b73ffffffffffffffffffffffffffffffffffffffff9081169291819084156148d6575b1690811561486f575b610c9f9360005260086020528060406000205416916000526040600020541690614011565b614878836146bb565b9361488c65ffffffffffff6137a943613a7a565b7bffffffffffffffffffffffffffffffffffffffffffffffffffffffff9586806148b4613b11565b16911690039586116104df57610c9f956148cd91614ac3565b5050935061484a565b90506148e1836146bb565b906148f565ffffffffffff6137a943613a7a565b7bffffffffffffffffffffffffffffffffffffffffffffffffffffffff92838061491d613b11565b169116019283116104df57839261493391614ac3565b5050614841565b600a549068010000000000000000821015610bf8576001820180600a55821015612d5a57600a600052805160209182015190911b7fffffffffffffffffffffffffffffffffffffffffffffffffffffffff000000001663ffffffff91909116177fc65a7bb8d6351c1cf70c95a316cc6a92839c986682d98bc35f958f4883f9d2a890910155565b90815468010000000000000000811015610bf85760018101808455811015612d5a57600092835260209283902082519284015190931b7fffffffffffffffffffffffffffffffffffffffffffffffffffffffff000000001663ffffffff9290921691909117910155565b906040516040810181811067ffffffffffffffff821117610bf857604052602081935463ffffffff81168352811c910152565b15614a6557565b60646040517f08c379a000000000000000000000000000000000000000000000000000000000815260206004820152601b60248201527f436865636b706f696e743a2064656372656173696e67206b65797300000000006044820152fd5b600a549192918015614c1157614bc2918185614b15614b10614ae6602096612af8565b600a6000527fc65a7bb8d6351c1cf70c95a316cc6a92839c986682d98bc35f958f4883f9d2a80190565b614a2b565b92614b24845163ffffffff1690565b614b3b63ffffffff91828416928391161115614a5e565b614b55614b4c865163ffffffff1690565b63ffffffff1690565b03614bc65750614b6a614ae6614b9f93612af8565b9063ffffffff7fffffffffffffffffffffffffffffffffffffffffffffffffffffffff0000000083549260201b169116179055565b01517bffffffffffffffffffffffffffffffffffffffffffffffffffffffff1690565b9190565b9050614c0c9150614be4614bd8610c92565b63ffffffff9092168252565b7bffffffffffffffffffffffffffffffffffffffffffffffffffffffff87168185015261493a565b614b9f565b50614c4a90614c21614bd8610c92565b7bffffffffffffffffffffffffffffffffffffffffffffffffffffffff8416602082015261493a565b60009190565b90929192838254801515600014614d2657926020929184614c86614b10614c79614bc298612af8565b8560005260206000200190565b93614c95855163ffffffff1690565b614cac63ffffffff91828416928391161115614a5e565b614cbd614b4c875163ffffffff1690565b03614ce05750614b9f92614cd3614b6a92612af8565b9060005260206000200190565b915050614c0c91614cfe614cf2610c92565b63ffffffff9093168352565b7bffffffffffffffffffffffffffffffffffffffffffffffffffffffff8816828601526149c1565b5050614c4a91614d37614cf2610c92565b7bffffffffffffffffffffffffffffffffffffffffffffffffffffffff851660208301526149c156fea26469706673582212200c08dac355bfcf5219d7d2901e922ae16734fe3a59093dcf137b3bc0e81bf0bf64736f6c63430008180033290decd9548b62a8d60345a988386fc84ba6bc95484008f6362f93160ef3e563b10e2d527612073b26eecdfd717e6a320cf44b4afac2b0732d9fcbe2b7fa0cf6",
  "linkReferences": {},
  "deployedLinkReferences": {}
}