{
  "_format": "hh-sol-artifact-1",
  "contractName": "ExecutorAssistant",
  "sourceName": "contracts/misc/ExecutorAssistant.sol",
  "abi": [
    {
      "inputs": [
        {
          "internalType": "contract IPositionRouterState",
          "name": "_positionRouter",
          "type": "address"
        }
      ],
      "stateMutability": "nonpayable",
      "type": "constructor"
    },
    {
      "inputs": [
        {
          "internalType": "uint128",
          "name": "_max",
          "type": "uint128"
        }
      ],
      "name": "calculateNextMulticall",
      "outputs": [
        {
          "internalType": "contract IPool[]",
          "name": "pools",
          "type": "address[]"
        },
        {
          "components": [
            {
              "internalType": "uint128",
              "name": "index",
              "type": "uint128"
            },
            {
              "internalType": "uint128",
              "name": "indexNext",
              "type": "uint128"
            },
            {
              "internalType": "uint128",
              "name": "indexEnd",
              "type": "uint128"
            }
          ],
          "internalType": "struct ExecutorAssistant.IndexPerOperation[7]",
          "name": "indexPerOperations",
          "type": "tuple[7]"
        }
      ],
      "stateMutability": "view",
      "type": "function"
    },
    {
      "inputs": [],
      "name": "positionRouter",
      "outputs": [
        {
          "internalType": "contract IPositionRouterState",
          "name": "",
          "type": "address"
        }
      ],
      "stateMutability": "view",
      "type": "function"
    }
  ],
  "bytecode": "0x60a03461007057601f611d8238819003918201601f19168301916001600160401b038311848410176100755780849260209460405283398101031261007057516001600160a01b038116810361007057608052604051611cf6908161008c823960805181818160c301526114620152f35b600080fd5b634e487b7160e01b600052604160045260246000fdfe60406080815260048036101561001457600080fd5b60009160e0908335821c806361ef161f1461141c5763b6e256d31461003857600080fd5b34611418576020807ffffffffffffffffffffffffffffffffffffffffffffffffffffffffffffffffc360112611414578335946100748661148e565b61007c61162c565b956100a66100a161008c836116b5565b6fffffffffffffffffffffffffffffffff1690565b6116f6565b94829688519473ffffffffffffffffffffffffffffffffffffffff7f000000000000000000000000000000000000000000000000000000000000000016928751967f25d1bcee00000000000000000000000000000000000000000000000000000000885282888581885afa9788156109445787986113f5575b508851977f46b3ef1f00000000000000000000000000000000000000000000000000000000895283898681895afa9889156109445788996113d2575b506101959061017f8584019a8b906fffffffffffffffffffffffffffffffff169052565b6fffffffffffffffffffffffffffffffff168252565b80516fffffffffffffffffffffffffffffffff16976101c761008c82516fffffffffffffffffffffffffffffffff1690565b986fffffffffffffffffffffffffffffffff998a82160361126e575b505050818b015188517f468ebcb000000000000000000000000000000000000000000000000000000000815283818681895afa908115610944578891611251575b508951907f4c3facf3000000000000000000000000000000000000000000000000000000008252848287818a5afa91821561094457899261122e575b5061029a906102848685019384906fffffffffffffffffffffffffffffffff169052565b6fffffffffffffffffffffffffffffffff168352565b81516fffffffffffffffffffffffffffffffff166102cb61008c83516fffffffffffffffffffffffffffffffff1690565b8a8216036110ca575b505050878b015188517f948f9f7500000000000000000000000000000000000000000000000000000000815283818681895afa9081156109445788916110ad575b508951907f8abb40ae000000000000000000000000000000000000000000000000000000008252848287818a5afa91821561094457899261108a575b50610375906102848685019384906fffffffffffffffffffffffffffffffff169052565b81516fffffffffffffffffffffffffffffffff166103a661008c83516fffffffffffffffffffffffffffffffff1690565b8a821603610f24575b50505060608b015188517f753363bc00000000000000000000000000000000000000000000000000000000815283818681895afa908115610944578891610f07575b508951907f5c845f80000000000000000000000000000000000000000000000000000000008252848287818a5afa918215610944578992610ee4575b50610451906102848685019384906fffffffffffffffffffffffffffffffff169052565b81516fffffffffffffffffffffffffffffffff1661048261008c83516fffffffffffffffffffffffffffffffff1690565b8a821603610d61575b50505060808b01519088517f376fa02e00000000000000000000000000000000000000000000000000000000815283818681895afa908115610944578891610d44575b508951907f868e45b7000000000000000000000000000000000000000000000000000000008252848287818a5afa918215610944578992610d21575b506105449061052e8686019384906fffffffffffffffffffffffffffffffff169052565b6fffffffffffffffffffffffffffffffff168452565b82516fffffffffffffffffffffffffffffffff1661057561008c83516fffffffffffffffffffffffffffffffff1690565b8a821603610b8e575b5050505060a08a015187517f5d585edc00000000000000000000000000000000000000000000000000000000815282818581885afa908115610944578791610b71575b508851907fbb11d2d000000000000000000000000000000000000000000000000000000000825283828681895afa918215610944578892610b4e575b50610621906102848585019384906fffffffffffffffffffffffffffffffff169052565b81516fffffffffffffffffffffffffffffffff1661065261008c83516fffffffffffffffffffffffffffffffff1690565b898216036109bd575b50505060c08a01519387517f27d95c5800000000000000000000000000000000000000000000000000000000815282818581885afa9081156109445787916109a0575b508851927fe59e4d7000000000000000000000000000000000000000000000000000000000845280848681895afa938415610944578894610967575b50906106fe6107149288019485906fffffffffffffffffffffffffffffffff169052565b6fffffffffffffffffffffffffffffffff168652565b84516fffffffffffffffffffffffffffffffff1661074561008c84516fffffffffffffffffffffffffffffffff1690565b88821603610772575b8b8a61076e8b61075f8f8451611ca1565b835103835251928392836114ad565b0390f35b6107e19288806107a96107929b9e999c9a9d9b6107b19661008c96611776565b93516fffffffffffffffffffffffffffffffff1690565b169116611cae565b6fffffffffffffffffffffffffffffffff16858801908152965b516fffffffffffffffffffffffffffffffff1690565b6107fe61008c88516fffffffffffffffffffffffffffffffff1690565b89821610156109495784517fdef66c4e00000000000000000000000000000000000000000000000000000000815261014090818180610858868883019190916fffffffffffffffffffffffffffffffff6020820193169052565b0381885afa908115610944576107fe93888d9360019361008c968f92610917575b50506108b561089c825173ffffffffffffffffffffffffffffffffffffffff1690565b73ffffffffffffffffffffffffffffffffffffffff1690565b6108c6575b505001169150506107e1565b01516109109073ffffffffffffffffffffffffffffffffffffffff166108f56108ee8b61187d565b9a8d6118aa565b9073ffffffffffffffffffffffffffffffffffffffff169052565b88386108ba565b6109369250803d1061093d575b61092e81836115a9565b810190611bea565b3880610879565b503d610924565b61176a565b50505090925061075f91945061076e9350939238808080808061074e565b8194506109906106fe9161071494933d8811610999575b61098881836115a9565b810190611752565b949192506106da565b503d61097e565b6109b79150833d85116109995761098881836115a9565b3861069e565b61008c6109fc928a809e9996959c9a9d9b6107a9610792896109de97611776565b6fffffffffffffffffffffffffffffffff16878a01908152986107cb565b610a1961008c8a516fffffffffffffffffffffffffffffffff1690565b8b82161015610b3d578651907f26624a4100000000000000000000000000000000000000000000000000000000825261012091828180610a74858a83019190916fffffffffffffffffffffffffffffffff6020820193169052565b03818a5afa928315610944578d938b928b928f92610b10575b5050610ab061089c825173ffffffffffffffffffffffffffffffffffffffff1690565b610ac1575b505050600101166109fc565b92610b03610a1995939a6108f5610af360019561008c98015173ffffffffffffffffffffffffffffffffffffffff1690565b91610afd8161187d565b9d6118aa565b928b9294508a9150610ab5565b610b2f9250803d10610b36575b610b2781836115a9565b810190611b45565b3880610a8d565b503d610b1d565b50909398959794965038808061065b565b610621919250610b6a90853d87116109995761098881836115a9565b91906105fd565b610b889150833d85116109995761098881836115a9565b386105c1565b61008c610bcf928b9f96949c9a9e99959d9b806107a961079289610bb197611776565b6fffffffffffffffffffffffffffffffff16888c019081529a6107cb565b610bec61008c8c516fffffffffffffffffffffffffffffffff1690565b8d82161015610d0d578751907f729e73da0000000000000000000000000000000000000000000000000000000082528a8280610c43848a83019190916fffffffffffffffffffffffffffffffff6020820193169052565b03818a5afa801561094457898f93918f928e8e9492610ce0575b5050610c8061089c825173ffffffffffffffffffffffffffffffffffffffff1690565b610c91575b50505060010116610bcf565b92610cd3610bec95939b6108f5610cc360019561008c98015173ffffffffffffffffffffffffffffffffffffffff1690565b91610ccd8161187d565b9e6118aa565b928c9294508b9150610c85565b610cff9250803d10610d06575b610cf781836115a9565b810190611aba565b388e610c5d565b503d610ced565b50919a96985093989496503880808061057e565b610544919250610d3d90863d88116109995761098881836115a9565b919061050a565b610d5b9150843d86116109995761098881836115a9565b386104ce565b61008c610da1928b9e999695949c9a9d9b806107a96107928a610d8397611776565b6fffffffffffffffffffffffffffffffff16888b01908152996107cb565b610dbe61008c8b516fffffffffffffffffffffffffffffffff1690565b8c82161015610ed2578751907fc2b37ccb00000000000000000000000000000000000000000000000000000000825260c091828180610e18858b83019190916fffffffffffffffffffffffffffffffff6020820193169052565b03818b5afa928315610944578e938c928f928d9392610ea5575b5050610e5561089c825173ffffffffffffffffffffffffffffffffffffffff1690565b610e66575b50505060010116610da1565b92610e98610dbe95939b6108f5610cc360019561008c98015173ffffffffffffffffffffffffffffffffffffffff1690565b928c9294508b9150610e5a565b610ec49250803d10610ecb575b610ebc81836115a9565b810190611a2e565b3880610e32565b503d610eb2565b5090919499969895975038808061048b565b610451919250610f0090863d88116109995761098881836115a9565b919061042d565b610f1e9150843d86116109995761098881836115a9565b386103f1565b61008c610f46928b9e999695949c9a9d9b806107a96107928a610d8397611776565b610f6361008c8b516fffffffffffffffffffffffffffffffff1690565b8c82161015611078578751907fe97ec8ad00000000000000000000000000000000000000000000000000000000825261010091828180610fbe858b83019190916fffffffffffffffffffffffffffffffff6020820193169052565b03818b5afa928315610944578e938c928f928d939261104b575b5050610ffb61089c825173ffffffffffffffffffffffffffffffffffffffff1690565b61100c575b50505060010116610f46565b9261103e610f6395939b6108f5610cc360019561008c98015173ffffffffffffffffffffffffffffffffffffffff1690565b928c9294508b9150611000565b61106a9250803d10611071575b61106281836115a9565b810190611985565b3880610fd8565b503d611058565b509091949996989597503880806103af565b6103759192506110a690863d88116109995761098881836115a9565b9190610351565b6110c49150843d86116109995761098881836115a9565b38610315565b61008c6110ee928b9f96949d9b8a969d9b9f9a6107a96107928392610bb197611776565b61110b61008c8c516fffffffffffffffffffffffffffffffff1690565b8d8216101561121c578751907f5dfff2340000000000000000000000000000000000000000000000000000000082528a8280611162848a83019190916fffffffffffffffffffffffffffffffff6020820193169052565b03818a5afa801561094457898f93918f928e8e94926111ef575b505061119f61089c825173ffffffffffffffffffffffffffffffffffffffff1690565b6111b0575b505050600101166110ee565b926111e261110b95939b6108f5610cc360019561008c98015173ffffffffffffffffffffffffffffffffffffffff1690565b928c9294508b91506111a4565b61120e9250803d10611215575b61120681836115a9565b8101906118ed565b388e61117c565b503d6111fc565b50919a969850939894963880806102d4565b61029a91925061124a90863d88116109995761098881836115a9565b9190610260565b6112689150843d86116109995761098881836115a9565b38610224565b61008c611292928b9f96949d9b8a969d9b9f9a6107a96107928392610bb197611776565b6112af61008c8c516fffffffffffffffffffffffffffffffff1690565b8d821610156113c0578751907fd3d615bc0000000000000000000000000000000000000000000000000000000082528a8280611306848a83019190916fffffffffffffffffffffffffffffffff6020820193169052565b03818a5afa801561094457898f93918f928e8e9492611393575b505061134361089c825173ffffffffffffffffffffffffffffffffffffffff1690565b611354575b50505060010116611292565b926113866112af95939b6108f5610cc360019561008c98015173ffffffffffffffffffffffffffffffffffffffff1690565b928c9294508b9150611348565b6113b29250803d106113b9575b6113aa81836115a9565b8101906117f1565b388e611320565b503d6113a0565b50919a969850939894963880806101e3565b6101959199506113ee90853d87116109995761098881836115a9565b989061015b565b61140d919850833d85116109995761098881836115a9565b963861011f565b8480fd5b8380fd5b843461148b57807ffffffffffffffffffffffffffffffffffffffffffffffffffffffffffffffffc36011261148b5773ffffffffffffffffffffffffffffffffffffffff7f00000000000000000000000000000000000000000000000000000000000000001660805260206080f35b80fd5b6fffffffffffffffffffffffffffffffff8116036114a857565b600080fd5b9291906102c09081850191855280518092526102e08501602092838093019060005b81811061152d5750505094016000905b600782106114ed5750505050565b82606060019286516fffffffffffffffffffffffffffffffff808251168352808583015116858401526040809201511690820152019401910190926114df565b825173ffffffffffffffffffffffffffffffffffffffff168452859493840193909201916001016114cf565b7f4e487b7100000000000000000000000000000000000000000000000000000000600052604160045260246000fd5b60e0810190811067ffffffffffffffff8211176115a457604052565b611559565b90601f7fffffffffffffffffffffffffffffffffffffffffffffffffffffffffffffffe0910116810190811067ffffffffffffffff8211176115a457604052565b60405190610120820182811067ffffffffffffffff8211176115a457604052565b60405190610140820182811067ffffffffffffffff8211176115a457604052565b6040906040519161163c83611588565b600083815b60e0811061164f5750505050565b835190606082019180831067ffffffffffffffff8411176115a4576020928652848152848382015284868201528184015201611641565b7f4e487b7100000000000000000000000000000000000000000000000000000000600052601160045260246000fd5b906fffffffffffffffffffffffffffffffff8092166007029182169182036116d957565b611686565b67ffffffffffffffff81116115a45760051b60200190565b90611700826116de565b61170d60405191826115a9565b8281527fffffffffffffffffffffffffffffffffffffffffffffffffffffffffffffffe061173b82946116de565b0190602036910137565b51906117508261148e565b565b908160209103126114a857516117678161148e565b90565b6040513d6000823e3d90fd5b9190916fffffffffffffffffffffffffffffffff808094169116019182116116d957565b73ffffffffffffffffffffffffffffffffffffffff8116036114a857565b51906117508261179a565b51906bffffffffffffffffffffffff821682036114a857565b519067ffffffffffffffff821682036114a857565b908160e09103126114a85760c06040519161180b83611588565b80516118168161179a565b8352611824602082016117c3565b602084015260408101516118378161179a565b6040840152611848606082016117dc565b6060840152608081015161185b8161148e565b608084015260a081015161186e8161148e565b60a0840152015160c082015290565b7fffffffffffffffffffffffffffffffffffffffffffffffffffffffffffffffff81146116d95760010190565b80518210156118be5760209160051b010190565b7f4e487b7100000000000000000000000000000000000000000000000000000000600052603260045260246000fd5b908160e09103126114a85761196f60c06040519261190a84611588565b80516119158161179a565b8452611923602082016117c3565b602085015260408101516119368161179a565b6040850152611947606082016117c3565b60608501526080810151608085015260a08101516119648161179a565b60a0850152016117dc565b60c082015290565b519081600f0b82036114a857565b809161010092839103126114a8576040519182019082821067ffffffffffffffff8311176115a45760e0916040526119bc816117b8565b83526119ca602082016117c3565b60208401526119db604082016117b8565b60408401526119ec606082016117c3565b60608401526119fd60808201611977565b6080840152611a0e60a082016117dc565b60a0840152611a1f60c082016117b8565b60c0840152015160e082015290565b908160c09103126114a8576040519060c082019082821067ffffffffffffffff8311176115a45760a0916040528051611a668161179a565b8352611a74602082016117c3565b60208401526040810151611a878161179a565b6040840152611a98606082016117dc565b60608401526080810151611aab8161148e565b6080840152015160a082015290565b908160e09103126114a85760c060405191611ad483611588565b8051611adf8161179a565b8352611aed602082016117c3565b60208401526040810151611b008161179a565b6040840152611b11606082016117dc565b60608401526080810151611b248161148e565b608084015260a081015161186e8161179a565b519060ff821682036114a857565b90816101209103126114a857611b596115ea565b90611b63816117b8565b8252611b71602082016117c3565b6020830152611b82604082016117b8565b6040830152611b9360608201611745565b6060830152611ba460808201611745565b6080830152611bb560a082016117b8565b60a0830152611bc660c082016117dc565b60c0830152611bd760e08201611b37565b60e0830152610100809101519082015290565b90816101409103126114a857611bfe61160b565b90611c08816117b8565b8252611c16602082016117c3565b6020830152611c27604082016117b8565b6040830152611c3860608201611745565b6060830152611c4960808201611745565b6080830152611c5a60a082016117b8565b60a0830152611c6b60c082016117dc565b60c0830152611c7c60e08201611b37565b60e0830152610100611c8f8183016117b8565b90830152610120809101519082015290565b919082039182116116d957565b9080821015611cbb575090565b90509056fea264697066735822122076727e67f7065598273398c5dd110b8a6d872ad37277fae169d9d173de33708e64736f6c63430008180033",
  "linkReferences": {},
  "deployedLinkReferences": {}
}