{
  "_format": "hh-sol-artifact-1",
  "contractName": "ERC20Test",
  "sourceName": "contracts/test/ERC20Test.sol",
  "abi": [
    {
      "inputs": [
        {
          "internalType": "string",
          "name": "_name",
          "type": "string"
        },
        {
          "internalType": "string",
          "name": "_symbol",
          "type": "string"
        },
        {
          "internalType": "uint8",
          "name": "_decimals",
          "type": "uint8"
        },
        {
          "internalType": "uint256",
          "name": "_initialSupply",
          "type": "uint256"
        }
      ],
      "stateMutability": "nonpayable",
      "type": "constructor"
    },
    {
      "inputs": [],
      "name": "InvalidShortString",
      "type": "error"
    },
    {
      "inputs": [
        {
          "internalType": "string",
          "name": "str",
          "type": "string"
        }
      ],
      "name": "StringTooLong",
      "type": "error"
    },
    {
      "anonymous": false,
      "inputs": [
        {
          "indexed": true,
          "internalType": "address",
          "name": "owner",
          "type": "address"
        },
        {
          "indexed": true,
          "internalType": "address",
          "name": "spender",
          "type": "address"
        },
        {
          "indexed": false,
          "internalType": "uint256",
          "name": "value",
          "type": "uint256"
        }
      ],
      "name": "Approval",
      "type": "event"
    },
    {
      "anonymous": false,
      "inputs": [
        {
          "indexed": true,
          "internalType": "address",
          "name": "delegator",
          "type": "address"
        },
        {
          "indexed": true,
          "internalType": "address",
          "name": "fromDelegate",
          "type": "address"
        },
        {
          "indexed": true,
          "internalType": "address",
          "name": "toDelegate",
          "type": "address"
        }
      ],
      "name": "DelegateChanged",
      "type": "event"
    },
    {
      "anonymous": false,
      "inputs": [
        {
          "indexed": true,
          "internalType": "address",
          "name": "delegate",
          "type": "address"
        },
        {
          "indexed": false,
          "internalType": "uint256",
          "name": "previousBalance",
          "type": "uint256"
        },
        {
          "indexed": false,
          "internalType": "uint256",
          "name": "newBalance",
          "type": "uint256"
        }
      ],
      "name": "DelegateVotesChanged",
      "type": "event"
    },
    {
      "anonymous": false,
      "inputs": [],
      "name": "EIP712DomainChanged",
      "type": "event"
    },
    {
      "anonymous": false,
      "inputs": [
        {
          "indexed": true,
          "internalType": "address",
          "name": "from",
          "type": "address"
        },
        {
          "indexed": true,
          "internalType": "address",
          "name": "to",
          "type": "address"
        },
        {
          "indexed": false,
          "internalType": "uint256",
          "name": "value",
          "type": "uint256"
        }
      ],
      "name": "Transfer",
      "type": "event"
    },
    {
      "inputs": [],
      "name": "CLOCK_MODE",
      "outputs": [
        {
          "internalType": "string",
          "name": "",
          "type": "string"
        }
      ],
      "stateMutability": "view",
      "type": "function"
    },
    {
      "inputs": [],
      "name": "DOMAIN_SEPARATOR",
      "outputs": [
        {
          "internalType": "bytes32",
          "name": "",
          "type": "bytes32"
        }
      ],
      "stateMutability": "view",
      "type": "function"
    },
    {
      "inputs": [
        {
          "internalType": "address",
          "name": "owner",
          "type": "address"
        },
        {
          "internalType": "address",
          "name": "spender",
          "type": "address"
        }
      ],
      "name": "allowance",
      "outputs": [
        {
          "internalType": "uint256",
          "name": "",
          "type": "uint256"
        }
      ],
      "stateMutability": "view",
      "type": "function"
    },
    {
      "inputs": [
        {
          "internalType": "address",
          "name": "spender",
          "type": "address"
        },
        {
          "internalType": "uint256",
          "name": "amount",
          "type": "uint256"
        }
      ],
      "name": "approve",
      "outputs": [
        {
          "internalType": "bool",
          "name": "",
          "type": "bool"
        }
      ],
      "stateMutability": "nonpayable",
      "type": "function"
    },
    {
      "inputs": [
        {
          "internalType": "address",
          "name": "account",
          "type": "address"
        }
      ],
      "name": "balanceOf",
      "outputs": [
        {
          "internalType": "uint256",
          "name": "",
          "type": "uint256"
        }
      ],
      "stateMutability": "view",
      "type": "function"
    },
    {
      "inputs": [
        {
          "internalType": "address",
          "name": "account",
          "type": "address"
        },
        {
          "internalType": "uint32",
          "name": "pos",
          "type": "uint32"
        }
      ],
      "name": "checkpoints",
      "outputs": [
        {
          "components": [
            {
              "internalType": "uint32",
              "name": "fromBlock",
              "type": "uint32"
            },
            {
              "internalType": "uint224",
              "name": "votes",
              "type": "uint224"
            }
          ],
          "internalType": "struct ERC20Votes.Checkpoint",
          "name": "",
          "type": "tuple"
        }
      ],
      "stateMutability": "view",
      "type": "function"
    },
    {
      "inputs": [],
      "name": "clock",
      "outputs": [
        {
          "internalType": "uint48",
          "name": "",
          "type": "uint48"
        }
      ],
      "stateMutability": "view",
      "type": "function"
    },
    {
      "inputs": [],
      "name": "decimals",
      "outputs": [
        {
          "internalType": "uint8",
          "name": "",
          "type": "uint8"
        }
      ],
      "stateMutability": "view",
      "type": "function"
    },
    {
      "inputs": [
        {
          "internalType": "address",
          "name": "spender",
          "type": "address"
        },
        {
          "internalType": "uint256",
          "name": "subtractedValue",
          "type": "uint256"
        }
      ],
      "name": "decreaseAllowance",
      "outputs": [
        {
          "internalType": "bool",
          "name": "",
          "type": "bool"
        }
      ],
      "stateMutability": "nonpayable",
      "type": "function"
    },
    {
      "inputs": [
        {
          "internalType": "address",
          "name": "delegatee",
          "type": "address"
        }
      ],
      "name": "delegate",
      "outputs": [],
      "stateMutability": "nonpayable",
      "type": "function"
    },
    {
      "inputs": [
        {
          "internalType": "address",
          "name": "delegatee",
          "type": "address"
        },
        {
          "internalType": "uint256",
          "name": "nonce",
          "type": "uint256"
        },
        {
          "internalType": "uint256",
          "name": "expiry",
          "type": "uint256"
        },
        {
          "internalType": "uint8",
          "name": "v",
          "type": "uint8"
        },
        {
          "internalType": "bytes32",
          "name": "r",
          "type": "bytes32"
        },
        {
          "internalType": "bytes32",
          "name": "s",
          "type": "bytes32"
        }
      ],
      "name": "delegateBySig",
      "outputs": [],
      "stateMutability": "nonpayable",
      "type": "function"
    },
    {
      "inputs": [
        {
          "internalType": "address",
          "name": "account",
          "type": "address"
        }
      ],
      "name": "delegates",
      "outputs": [
        {
          "internalType": "address",
          "name": "",
          "type": "address"
        }
      ],
      "stateMutability": "view",
      "type": "function"
    },
    {
      "inputs": [],
      "name": "eip712Domain",
      "outputs": [
        {
          "internalType": "bytes1",
          "name": "fields",
          "type": "bytes1"
        },
        {
          "internalType": "string",
          "name": "name",
          "type": "string"
        },
        {
          "internalType": "string",
          "name": "version",
          "type": "string"
        },
        {
          "internalType": "uint256",
          "name": "chainId",
          "type": "uint256"
        },
        {
          "internalType": "address",
          "name": "verifyingContract",
          "type": "address"
        },
        {
          "internalType": "bytes32",
          "name": "salt",
          "type": "bytes32"
        },
        {
          "internalType": "uint256[]",
          "name": "extensions",
          "type": "uint256[]"
        }
      ],
      "stateMutability": "view",
      "type": "function"
    },
    {
      "inputs": [
        {
          "internalType": "uint256",
          "name": "timepoint",
          "type": "uint256"
        }
      ],
      "name": "getPastTotalSupply",
      "outputs": [
        {
          "internalType": "uint256",
          "name": "",
          "type": "uint256"
        }
      ],
      "stateMutability": "view",
      "type": "function"
    },
    {
      "inputs": [
        {
          "internalType": "address",
          "name": "account",
          "type": "address"
        },
        {
          "internalType": "uint256",
          "name": "timepoint",
          "type": "uint256"
        }
      ],
      "name": "getPastVotes",
      "outputs": [
        {
          "internalType": "uint256",
          "name": "",
          "type": "uint256"
        }
      ],
      "stateMutability": "view",
      "type": "function"
    },
    {
      "inputs": [
        {
          "internalType": "address",
          "name": "account",
          "type": "address"
        }
      ],
      "name": "getVotes",
      "outputs": [
        {
          "internalType": "uint256",
          "name": "",
          "type": "uint256"
        }
      ],
      "stateMutability": "view",
      "type": "function"
    },
    {
      "inputs": [
        {
          "internalType": "address",
          "name": "spender",
          "type": "address"
        },
        {
          "internalType": "uint256",
          "name": "addedValue",
          "type": "uint256"
        }
      ],
      "name": "increaseAllowance",
      "outputs": [
        {
          "internalType": "bool",
          "name": "",
          "type": "bool"
        }
      ],
      "stateMutability": "nonpayable",
      "type": "function"
    },
    {
      "inputs": [
        {
          "internalType": "address",
          "name": "_account",
          "type": "address"
        },
        {
          "internalType": "uint256",
          "name": "_amount",
          "type": "uint256"
        }
      ],
      "name": "mint",
      "outputs": [],
      "stateMutability": "nonpayable",
      "type": "function"
    },
    {
      "inputs": [],
      "name": "name",
      "outputs": [
        {
          "internalType": "string",
          "name": "",
          "type": "string"
        }
      ],
      "stateMutability": "view",
      "type": "function"
    },
    {
      "inputs": [
        {
          "internalType": "address",
          "name": "owner",
          "type": "address"
        }
      ],
      "name": "nonces",
      "outputs": [
        {
          "internalType": "uint256",
          "name": "",
          "type": "uint256"
        }
      ],
      "stateMutability": "view",
      "type": "function"
    },
    {
      "inputs": [
        {
          "internalType": "address",
          "name": "account",
          "type": "address"
        }
      ],
      "name": "numCheckpoints",
      "outputs": [
        {
          "internalType": "uint32",
          "name": "",
          "type": "uint32"
        }
      ],
      "stateMutability": "view",
      "type": "function"
    },
    {
      "inputs": [
        {
          "internalType": "address",
          "name": "owner",
          "type": "address"
        },
        {
          "internalType": "address",
          "name": "spender",
          "type": "address"
        },
        {
          "internalType": "uint256",
          "name": "value",
          "type": "uint256"
        },
        {
          "internalType": "uint256",
          "name": "deadline",
          "type": "uint256"
        },
        {
          "internalType": "uint8",
          "name": "v",
          "type": "uint8"
        },
        {
          "internalType": "bytes32",
          "name": "r",
          "type": "bytes32"
        },
        {
          "internalType": "bytes32",
          "name": "s",
          "type": "bytes32"
        }
      ],
      "name": "permit",
      "outputs": [],
      "stateMutability": "nonpayable",
      "type": "function"
    },
    {
      "inputs": [],
      "name": "symbol",
      "outputs": [
        {
          "internalType": "string",
          "name": "",
          "type": "string"
        }
      ],
      "stateMutability": "view",
      "type": "function"
    },
    {
      "inputs": [],
      "name": "totalSupply",
      "outputs": [
        {
          "internalType": "uint256",
          "name": "",
          "type": "uint256"
        }
      ],
      "stateMutability": "view",
      "type": "function"
    },
    {
      "inputs": [
        {
          "internalType": "address",
          "name": "to",
          "type": "address"
        },
        {
          "internalType": "uint256",
          "name": "amount",
          "type": "uint256"
        }
      ],
      "name": "transfer",
      "outputs": [
        {
          "internalType": "bool",
          "name": "",
          "type": "bool"
        }
      ],
      "stateMutability": "nonpayable",
      "type": "function"
    },
    {
      "inputs": [
        {
          "internalType": "address",
          "name": "from",
          "type": "address"
        },
        {
          "internalType": "address",
          "name": "to",
          "type": "address"
        },
        {
          "internalType": "uint256",
          "name": "amount",
          "type": "uint256"
        }
      ],
      "name": "transferFrom",
      "outputs": [
        {
          "internalType": "bool",
          "name": "",
          "type": "bool"
        }
      ],
      "stateMutability": "nonpayable",
      "type": "function"
    },
    {
      "stateMutability": "payable",
      "type": "receive"
    }
  ],
  "bytecode": "0x6101608060405234620000dc57620041369081380380926200002182620000f7565b823960808282019212620000dc5780516001600160401b039290838111620000dc57816200005191840162000175565b9261018051908111620000dc576200006a920162000175565b906101a05160ff81168103620000dc576200008a926101c05192620001db565b60405161300d908162001109823960805181611e80015260a05181611f3b015260c05181611e51015260e05181611ecf01526101005181611ef501526101205181610c9901526101405181610cc30152f35b600080fd5b634e487b7160e01b600052604160045260246000fd5b601f01601f1916610160908101906001600160401b038211908210176200011d57604052565b620000e1565b604081019081106001600160401b038211176200011d57604052565b604051906200014e8262000123565b565b60005b838110620001645750506000910152565b818101518382015260200162000153565b81601f82011215620000dc5780516001600160401b03928382116200011d5760405193601f8301601f19908116603f01168501908111858210176200011d5760405281845260208284010111620000dc57620001d8916020808501910162000150565b90565b9392919093604051620001ee8162000123565b6001808252603160f81b602080840191825284519194926001600160401b0383116200011d576200022c836200022660035462000381565b620003be565b602091601f8411600114620002e35750506200014e97986200027383620002d098979695946200027c94600091620002d7575b508160011b916000199060031b1c19161790565b6003556200052a565b620002878162000625565b61012052620002968262000732565b610140526020815191012060e052519020610100524660a052620002b96200083f565b6080523060c05260ff1660ff19600c541617600c55565b3362000911565b9050850151386200025f565b60036000529190601f198416907fc2575a0e9e593c00f959f8c92f12db2869c3395a3b0502d05e2516446f71f85b936000915b8383106200036957505050836200027c936200014e9b9c93620002d09a99989796600194106200034f575b5050811b016003556200052a565b86015160001960f88460031b161c19169055388062000341565b87850151865594850194938101939181019162000316565b90600182811c92168015620003b3575b60208310146200039d57565b634e487b7160e01b600052602260045260246000fd5b91607f169162000391565b601f8111620003cb575050565b60009060036000526020600020906020601f850160051c830194106200040e575b601f0160051c01915b8281106200040257505050565b818155600101620003f5565b9092508290620003ec565b601f811162000426575050565b60009060046000526020600020906020601f850160051c8301941062000469575b601f0160051c01915b8281106200045d57505050565b81815560010162000450565b909250829062000447565b601f811162000481575050565b60009060056000526020600020906020601f850160051c83019410620004c4575b601f0160051c01915b828110620004b857505050565b818155600101620004ab565b9092508290620004a2565b601f8111620004dc575050565b60009060066000526020600020906020601f850160051c830194106200051f575b601f0160051c01915b8281106200051357505050565b81815560010162000506565b9092508290620004fd565b80519091906001600160401b0381116200011d5762000556816200055060045462000381565b62000419565b602080601f83116001146200059d575081906200058c939460009262000591575b50508160011b916000199060031b1c19161790565b600455565b01519050388062000577565b6004600052601f198316949091907f8a35acfbc15ff81a39ae7d344fd709f28e8600b4aa8c65c6b64bfe7fe36bd19b926000905b8782106200060c575050836001959610620005f2575b505050811b01600455565b015160001960f88460031b161c19169055388080620005e7565b80600185968294968601518155019501930190620005d1565b90815160208082106000146200064357505090620001d89062000a00565b6001600160401b0382116200011d576200066a826200066460055462000381565b62000474565b602090601f8311600114620006a7575081906200069f9394600092620005915750508160011b916000199060031b1c19161790565b60055560ff90565b6005600052601f198316949091907f036b6384b5eca791c62761152d0c79bb0604c104a5fb6f4eb0703f3154bb3db0926000905b87821062000719575050836001959610620006ff575b505050811b0160055560ff90565b015160001960f88460031b161c19169055388080620006f1565b80600185968294968601518155019501930190620006db565b90815160208082106000146200075057505090620001d89062000a00565b6001600160401b0382116200011d5762000777826200077160065462000381565b620004cf565b602090601f8311600114620007b457508190620007ac9394600092620005915750508160011b916000199060031b1c19161790565b60065560ff90565b6006600052601f198316949091907ff652222313e28459528d920b65115c16c04f3efc82aaedc97be59f3f377c0d3f926000905b878210620008265750508360019596106200080c575b505050811b0160065560ff90565b015160001960f88460031b161c19169055388080620007fe565b80600185968294968601518155019501930190620007e8565b60e051610100516040519060208201927f8b73c3c69bb8fe3d512ecc4cf759cc79239f7b179b0ffacaa9a75d522b39400f8452604083015260608201524660808201523060a082015260a0815260c0810181811060018060401b038211176200011d5760405251902090565b15620008b357565b60405162461bcd60e51b815260206004820152603060248201527f4552433230566f7465733a20746f74616c20737570706c79207269736b73206f60448201526f766572666c6f77696e6720766f74657360801b6064820152608490fd5b906001600160a01b0382168015620009bb57600254828101809111620009b557620009b1936200099392620009468593600255565b6001600160a01b038216600090815260208181526040808320805487019055518581527fddf252ad1be2c89b69c2b068fc378daa952ba7f163c4a11628f55a4df523b3ef9190a362000f76565b600254620009ab906001600160e01b031015620008ab565b62000b8f565b5050565b62000a6f565b60405162461bcd60e51b815260206004820152601f60248201527f45524332303a206d696e7420746f20746865207a65726f2061646472657373006044820152606490fd5b601f81511162000a2e57602081519101516020821062000a1e571790565b6000198260200360031b1b161790565b6044604051809263305a27a960e01b82526020600483015262000a61815180928160248601526020868601910162000150565b601f01601f19168101030190fd5b634e487b7160e01b600052601160045260246000fd5b604080519192919081016001600160401b038111828210176200011d57604052602081935463ffffffff81168352811c910152565b600b5490680100000000000000008210156200011d576001820180600b5582101562000b2857600b600052805160209182015190911b63ffffffff191663ffffffff91909116177f0175b7a638427703f0dbe7bb9bbf987a2551717b34e79f33b5b1008d1fa01db990910155565b634e487b7160e01b600052603260045260246000fd5b908154680100000000000000008110156200011d576001810180845581101562000b2857600092835260209283902082519284015190931b63ffffffff191663ffffffff9290921691909117910155565b600b549091811591821562000cd75762000ba86200013f565b60008152600060208201525b602081015162000be19062000bd9906001600160e01b03165b6001600160e01b031690565b9586620010ec565b9315908162000cb0575b501562000c48576200014e9062000c3162000c068562000f0c565b600b600052917f0175b7a638427703f0dbe7bb9bbf987a2551717b34e79f33b5b1008d1fa01db80190565b9063ffffffff82549181199060201b169116179055565b506200014e62000c7162000c6b62000c604362001084565b65ffffffffffff1690565b62000ea6565b62000caa62000c808562000f0c565b62000c9a62000c8e6200013f565b63ffffffff9094168452565b6001600160e01b03166020830152565b62000aba565b5163ffffffff16905063ffffffff62000ccd62000c604362001084565b9116143862000beb565b600b60005262000d0f7f0175b7a638427703f0dbe7bb9bbf987a2551717b34e79f33b5b1008d1fa01db8820162000a85565b62000a85565b62000bb4565b90918154918215928360001462000e195762000d306200013f565b60008152600060208201525b602081015162000d629062000d5a906001600160e01b031662000bcd565b9687620010fa565b9415908162000df2575b501562000d995762000c316200014e9262000d878662000f0c565b92600019019060005260206000200190565b506200014e9062000db262000c6b62000c604362001084565b9062000dec62000dc28662000f0c565b62000ddc62000dd06200013f565b63ffffffff9095168552565b6001600160e01b03166020840152565b62000b3e565b5163ffffffff16905063ffffffff62000e0f62000c604362001084565b9116143862000d6c565b62000e3362000d0960001983018460005260206000200190565b62000d3c565b90918154918215928360001462000e865762000e546200013f565b60008152600060208201525b602081015162000d629062000e7e906001600160e01b031662000bcd565b9687620010ec565b62000ea062000d0960001983018460005260206000200190565b62000e60565b63ffffffff9081811162000eb8571690565b60405162461bcd60e51b815260206004820152602660248201527f53616665436173743a2076616c756520646f65736e27742066697420696e203360448201526532206269747360d01b6064820152608490fd5b6001600160e01b039081811162000f21571690565b60405162461bcd60e51b815260206004820152602760248201527f53616665436173743a2076616c756520646f65736e27742066697420696e20326044820152663234206269747360c81b6064820152608490fd5b60096020527fec8156718a8372b1db44bb411437d0870f3e3790d4a08526d024ce1b0b668f6b546001600160a01b0391821660009081526040812054831693929091169081841415806200107a575b62000fd1575b50505050565b82908262001039575b5050508162000fec575b808062000fcb565b6001600160a01b0382166000908152600a602052604090206000805160206200411683398151915291620010209162000e39565b60408051928352602083019190915290a2388062000fe4565b600080516020620041168339815191529160408285620010609452600a6020522062000d15565b60408051928352602083019190915290a238818162000fda565b5082151562000fc5565b65ffffffffffff9081811162001098571690565b60405162461bcd60e51b815260206004820152602660248201527f53616665436173743a2076616c756520646f65736e27742066697420696e203460448201526538206269747360d01b6064820152608490fd5b908101809111620009b55790565b908103908111620009b5579056fe6080604052600436101561001b575b361561001957600080fd5b005b60003560e01c806306fdde03146101bb578063095ea7b3146101b657806318160ddd146101b157806323b872dd146101ac578063313ce567146101a75780633644e515146101a2578063395093511461019d5780633a46b1a81461019857806340c10f19146101935780634bf5d7e91461018e578063587cde1e146101895780635c19a95c146101845780636fcfff451461017f57806370a082311461017a5780637ecebe001461017557806384b0196e146101705780638e539e8c1461016b57806391ddadf41461016657806395d89b41146101615780639ab24eb01461015c578063a457c2d714610157578063a9059cbb14610152578063c3cda5201461014d578063d505accf14610148578063dd62ed3e146101435763f1127ed80361000e5761160d565b611578565b6113d5565b611236565b6111d2565b6110c7565b61101c565b610f56565b610f0c565b610d95565b610c60565b610bfb565b610b96565b610b23565b610ae3565b610a7d565b610994565b61082e565b610681565b6105f7565b6105b6565b610577565b61042d565b6103f1565b6103a2565b610232565b919082519283825260005b84811061020a5750507fffffffffffffffffffffffffffffffffffffffffffffffffffffffffffffffe0601f8460006020809697860101520116010190565b6020818301810151848301820152016101cb565b90602061022f9281815201906101c0565b90565b34610357576000807ffffffffffffffffffffffffffffffffffffffffffffffffffffffffffffffffc3601126103545760405190806003549061027482611726565b8085529160209160019182811690811561030957506001146102b1575b6102ad866102a181880382611801565b6040519182918261021e565b0390f35b9350600384527fc2575a0e9e593c00f959f8c92f12db2869c3395a3b0502d05e2516446f71f85b5b8385106102f6575050505081016020016102a1826102ad38610291565b80548686018401529382019381016102d9565b8796506102ad979450602093506102a19592507fffffffffffffffffffffffffffffffffffffffffffffffffffffffffffffff0091501682840152151560051b820101929338610291565b80fd5b600080fd5b6004359073ffffffffffffffffffffffffffffffffffffffff8216820361035757565b6024359073ffffffffffffffffffffffffffffffffffffffff8216820361035757565b346103575760407ffffffffffffffffffffffffffffffffffffffffffffffffffffffffffffffffc360112610357576103e66103dc61035c565b60243590336119e9565b602060405160018152f35b346103575760007ffffffffffffffffffffffffffffffffffffffffffffffffffffffffffffffffc360112610357576020600254604051908152f35b346103575760607ffffffffffffffffffffffffffffffffffffffffffffffffffffffffffffffffc3601126103575761046461035c565b61046c61037f565b6044359073ffffffffffffffffffffffffffffffffffffffff831660005260016020526104bd3360406000209073ffffffffffffffffffffffffffffffffffffffff16600052602052604060002090565b54927fffffffffffffffffffffffffffffffffffffffffffffffffffffffffffffffff84036104fd575b6104f19350611cbe565b60405160018152602090f35b82841061051957610514836104f1950333836119e9565b6104e7565b60646040517f08c379a000000000000000000000000000000000000000000000000000000000815260206004820152601d60248201527f45524332303a20696e73756666696369656e7420616c6c6f77616e63650000006044820152fd5b346103575760007ffffffffffffffffffffffffffffffffffffffffffffffffffffffffffffffffc36011261035757602060ff600c5416604051908152f35b346103575760007ffffffffffffffffffffffffffffffffffffffffffffffffffffffffffffffffc3601126103575760206105ef611e3a565b604051908152f35b346103575760407ffffffffffffffffffffffffffffffffffffffffffffffffffffffffffffffffc3601126103575761062e61035c565b3360005260016020526106658160406000209073ffffffffffffffffffffffffffffffffffffffff16600052602052604060002090565b54602435810180911161067c576103e691336119e9565b6116cf565b346103575760407ffffffffffffffffffffffffffffffffffffffffffffffffffffffffffffffffc360112610357576106b861035c565b73ffffffffffffffffffffffffffffffffffffffff602435916106ec65ffffffffffff6106e443612285565b168410611842565b16600052600a6020526040600020805491600083600581116107dd575b50905b83821061078c57505081610747575050602060005b7bffffffffffffffffffffffffffffffffffffffffffffffffffffffff60405191168152f35b610780610787917fffffffffffffffffffffffffffffffffffffffffffffffffffffffffffffffff602094019060005260206000200190565b5460201c90565b610721565b909261079881856124ed565b908263ffffffff6107bd6107b3858860005260206000200190565b5463ffffffff1690565b1611156107cd5750925b9061070c565b93506107d8906116fe565b6107c7565b806107ed6107f3929693966123ad565b90611719565b908263ffffffff61080e6107b3858860005260206000200190565b16111561081e5750925b38610709565b9350610829906116fe565b610818565b346103575760407ffffffffffffffffffffffffffffffffffffffffffffffffffffffffffffffffc3601126103575761086561035c565b60243573ffffffffffffffffffffffffffffffffffffffff8216918215610936578161090791610019946108a361089e8460025461170c565b600255565b6108cd8273ffffffffffffffffffffffffffffffffffffffff166000526000602052604060002090565b8054840190556040518381526000907fddf252ad1be2c89b69c2b068fc378daa952ba7f163c4a11628f55a4df523b3ef90602090a3612ac3565b6109317bffffffffffffffffffffffffffffffffffffffffffffffffffffffff6002541115612502565b612c88565b60646040517f08c379a000000000000000000000000000000000000000000000000000000000815260206004820152601f60248201527f45524332303a206d696e7420746f20746865207a65726f2061646472657373006044820152fd5b346103575760007ffffffffffffffffffffffffffffffffffffffffffffffffffffffffffffffffc360112610357574365ffffffffffff6109d443612285565b1603610a1f576102ad6040516109e9816117a8565b601d81527f6d6f64653d626c6f636b6e756d6265722666726f6d3d64656661756c7400000060208201526040519182918261021e565b60646040517f08c379a000000000000000000000000000000000000000000000000000000000815260206004820152601d60248201527f4552433230566f7465733a2062726f6b656e20636c6f636b206d6f64650000006044820152fd5b346103575760207ffffffffffffffffffffffffffffffffffffffffffffffffffffffffffffffffc36011261035757602073ffffffffffffffffffffffffffffffffffffffff80610acc61035c565b166000526009825260406000205416604051908152f35b346103575760207ffffffffffffffffffffffffffffffffffffffffffffffffffffffffffffffffc36011261035757610019610b1d61035c565b33611f61565b346103575760207ffffffffffffffffffffffffffffffffffffffffffffffffffffffffffffffffc3601126103575773ffffffffffffffffffffffffffffffffffffffff610b6f61035c565b16600052600a6020526020610b88604060002054611ff8565b63ffffffff60405191168152f35b346103575760207ffffffffffffffffffffffffffffffffffffffffffffffffffffffffffffffffc3601126103575773ffffffffffffffffffffffffffffffffffffffff610be261035c565b1660005260006020526020604060002054604051908152f35b346103575760207ffffffffffffffffffffffffffffffffffffffffffffffffffffffffffffffffc3601126103575773ffffffffffffffffffffffffffffffffffffffff610c4761035c565b1660005260076020526020604060002054604051908152f35b34610357576000807ffffffffffffffffffffffffffffffffffffffffffffffffffffffffffffffffc36011261035457610d3890610cbd7f000000000000000000000000000000000000000000000000000000000000000061208d565b90610ce77f00000000000000000000000000000000000000000000000000000000000000006121c5565b9060405191610cf5836117c9565b818352610d466020916040519687967f0f00000000000000000000000000000000000000000000000000000000000000885260e0602089015260e08801906101c0565b9086820360408801526101c0565b904660608601523060808601528260a086015284820360c0860152602080855193848152019401925b828110610d7e57505050500390f35b835185528695509381019392810192600101610d6f565b346103575760207ffffffffffffffffffffffffffffffffffffffffffffffffffffffffffffffffc36011261035757600435610de265ffffffffffff610dda43612285565b168210611842565b600b549060008260058111610ea5575b50905b828210610e42578280610e0f575060405160008152602090f35b600b600052602090610787907f0175b7a638427703f0dbe7bb9bbf987a2551717b34e79f33b5b1008d1fa01db801610780565b9091610e4e81846124ed565b600b600052908263ffffffff610e857f0175b7a638427703f0dbe7bb9bbf987a2551717b34e79f33b5b1008d1fa01db985016107b3565b161115610e955750915b90610df5565b9250610ea0906116fe565b610e8f565b806107ed610eb5929593956123ad565b600b600052908263ffffffff610eec7f0175b7a638427703f0dbe7bb9bbf987a2551717b34e79f33b5b1008d1fa01db985016107b3565b161115610efc5750915b38610df2565b9250610f07906116fe565b610ef6565b346103575760007ffffffffffffffffffffffffffffffffffffffffffffffffffffffffffffffffc360112610357576020610f4643612285565b65ffffffffffff60405191168152f35b34610357576000807ffffffffffffffffffffffffffffffffffffffffffffffffffffffffffffffffc36011261035457604051908060045490610f9882611726565b808552916020916001918281169081156103095750600114610fc4576102ad866102a181880382611801565b9350600484527f8a35acfbc15ff81a39ae7d344fd709f28e8600b4aa8c65c6b64bfe7fe36bd19b5b838510611009575050505081016020016102a1826102ad38610291565b8054868601840152938201938101610fec565b346103575760207ffffffffffffffffffffffffffffffffffffffffffffffffffffffffffffffffc3601126103575773ffffffffffffffffffffffffffffffffffffffff61106861035c565b16600052600a60205260406000208054801560001461108f57505060405160008152602090f35b6020917fffffffffffffffffffffffffffffffffffffffffffffffffffffffffffffffff6110be9201906118b6565b5054811c610721565b346103575760407ffffffffffffffffffffffffffffffffffffffffffffffffffffffffffffffffc360112610357576110fe61035c565b602435903360005260016020526111398160406000209073ffffffffffffffffffffffffffffffffffffffff16600052602052604060002090565b549180831061114e576104f1920390336119e9565b60846040517f08c379a000000000000000000000000000000000000000000000000000000000815260206004820152602560248201527f45524332303a2064656372656173656420616c6c6f77616e63652062656c6f7760448201527f207a65726f0000000000000000000000000000000000000000000000000000006064820152fd5b346103575760407ffffffffffffffffffffffffffffffffffffffffffffffffffffffffffffffffc360112610357576103e661120c61035c565b6024359033611cbe565b6064359060ff8216820361035757565b6084359060ff8216820361035757565b346103575760c07ffffffffffffffffffffffffffffffffffffffffffffffffffffffffffffffffc3601126103575761126d61035c565b6044359060243561127c611216565b9280421161137757611338611372916100199560405190611320826112f46020820195898b8860609194939273ffffffffffffffffffffffffffffffffffffffff60808301967fe48329057bfd03d55e49b547132e39cffd9c1820ad7b9d4c5307691425d15adf845216602083015260408201520152565b037fffffffffffffffffffffffffffffffffffffffffffffffffffffffffffffffe08101845283611801565b61133360a435936084359351902061231c565b61235d565b9161136c8373ffffffffffffffffffffffffffffffffffffffff166000526007602052604060002090815491600183019055565b146118fd565b611f61565b60646040517f08c379a000000000000000000000000000000000000000000000000000000000815260206004820152601d60248201527f4552433230566f7465733a207369676e617475726520657870697265640000006044820152fd5b346103575760e07ffffffffffffffffffffffffffffffffffffffffffffffffffffffffffffffffc3601126103575761140c61035c565b61141461037f565b6044359060643592611424611226565b9380421161151a576114f5611515916112f4610019976114e26114708773ffffffffffffffffffffffffffffffffffffffff166000526007602052604060002090815491600183019055565b9360405193849160208301968c8c8c8a91959493909260a09360c08401977f6e71edae12b1b97f4d1f60370fef10105fa2faae0126114a169c64845d6126c9855273ffffffffffffffffffffffffffffffffffffffff8092166020860152166040840152606083015260808201520152565b61133360c4359360a4359351902061231c565b73ffffffffffffffffffffffffffffffffffffffff808416911614611962565b6119e9565b60646040517f08c379a000000000000000000000000000000000000000000000000000000000815260206004820152601d60248201527f45524332305065726d69743a206578706972656420646561646c696e650000006044820152fd5b346103575760407ffffffffffffffffffffffffffffffffffffffffffffffffffffffffffffffffc3601126103575760206116046115b461035c565b73ffffffffffffffffffffffffffffffffffffffff6115d161037f565b91166000526001835260406000209073ffffffffffffffffffffffffffffffffffffffff16600052602052604060002090565b54604051908152f35b346103575760407ffffffffffffffffffffffffffffffffffffffffffffffffffffffffffffffffc3601126103575761164461035c565b63ffffffff60243581811681036103575760206116bd6116b77bffffffffffffffffffffffffffffffffffffffffffffffffffffffff9373ffffffffffffffffffffffffffffffffffffffff6040976000868a516116a1816117a8565b828152015216600052600a8452866000206118b6565b506119c7565b84519381511684520151166020820152f35b7f4e487b7100000000000000000000000000000000000000000000000000000000600052601160045260246000fd5b906001820180921161067c57565b9190820180921161067c57565b9190820391821161067c57565b90600182811c9216801561176f575b602083101461174057565b7f4e487b7100000000000000000000000000000000000000000000000000000000600052602260045260246000fd5b91607f1691611735565b7f4e487b7100000000000000000000000000000000000000000000000000000000600052604160045260246000fd5b6040810190811067ffffffffffffffff8211176117c457604052565b611779565b6020810190811067ffffffffffffffff8211176117c457604052565b60c0810190811067ffffffffffffffff8211176117c457604052565b90601f7fffffffffffffffffffffffffffffffffffffffffffffffffffffffffffffffe0910116810190811067ffffffffffffffff8211176117c457604052565b1561184957565b60646040517f08c379a000000000000000000000000000000000000000000000000000000000815260206004820152601960248201527f4552433230566f7465733a20667574757265206c6f6f6b7570000000000000006044820152fd5b604051906118b4826117a8565b565b80548210156118ce5760005260206000200190600090565b7f4e487b7100000000000000000000000000000000000000000000000000000000600052603260045260246000fd5b1561190457565b60646040517f08c379a000000000000000000000000000000000000000000000000000000000815260206004820152601960248201527f4552433230566f7465733a20696e76616c6964206e6f6e6365000000000000006044820152fd5b1561196957565b60646040517f08c379a000000000000000000000000000000000000000000000000000000000815260206004820152601e60248201527f45524332305065726d69743a20696e76616c6964207369676e617475726500006044820152fd5b906040516119d4816117a8565b602081935463ffffffff81168352811c910152565b9073ffffffffffffffffffffffffffffffffffffffff91828116928315611b25578216938415611aa15780611a8b7f8c5be1e5ebec7d5bd14f71427d1e84f3dd0314c0f7b2291e5b200ac8c7c3b92594611a66611a9c9573ffffffffffffffffffffffffffffffffffffffff166000526001602052604060002090565b9073ffffffffffffffffffffffffffffffffffffffff16600052602052604060002090565b556040519081529081906020820190565b0390a3565b60846040517f08c379a000000000000000000000000000000000000000000000000000000000815260206004820152602260248201527f45524332303a20617070726f766520746f20746865207a65726f20616464726560448201527f73730000000000000000000000000000000000000000000000000000000000006064820152fd5b60846040517f08c379a0000000000000000000000000000000000000000000000000000000008152602060048201526024808201527f45524332303a20617070726f76652066726f6d20746865207a65726f2061646460448201527f72657373000000000000000000000000000000000000000000000000000000006064820152fd5b15611baf57565b60846040517f08c379a000000000000000000000000000000000000000000000000000000000815260206004820152602360248201527f45524332303a207472616e7366657220746f20746865207a65726f206164647260448201527f65737300000000000000000000000000000000000000000000000000000000006064820152fd5b15611c3a57565b60846040517f08c379a000000000000000000000000000000000000000000000000000000000815260206004820152602660248201527f45524332303a207472616e7366657220616d6f756e742065786365656473206260448201527f616c616e636500000000000000000000000000000000000000000000000000006064820152fd5b919073ffffffffffffffffffffffffffffffffffffffff928381168015611db6576118b494831690611cf1821515611ba8565b84611d1c8473ffffffffffffffffffffffffffffffffffffffff166000526000602052604060002090565b54611d2982821015611c33565b03611d548473ffffffffffffffffffffffffffffffffffffffff166000526000602052604060002090565b55611d7f8473ffffffffffffffffffffffffffffffffffffffff166000526000602052604060002090565b8054860190556040518581527fddf252ad1be2c89b69c2b068fc378daa952ba7f163c4a11628f55a4df523b3ef90602090a3612b1b565b60846040517f08c379a000000000000000000000000000000000000000000000000000000000815260206004820152602560248201527f45524332303a207472616e736665722066726f6d20746865207a65726f20616460448201527f64726573730000000000000000000000000000000000000000000000000000006064820152fd5b73ffffffffffffffffffffffffffffffffffffffff7f000000000000000000000000000000000000000000000000000000000000000016301480611f38575b15611ea2577f000000000000000000000000000000000000000000000000000000000000000090565b60405160208101907f8b73c3c69bb8fe3d512ecc4cf759cc79239f7b179b0ffacaa9a75d522b39400f82527f000000000000000000000000000000000000000000000000000000000000000060408201527f000000000000000000000000000000000000000000000000000000000000000060608201524660808201523060a082015260a08152611f32816117e5565b51902090565b507f00000000000000000000000000000000000000000000000000000000000000004614611e79565b6118b49173ffffffffffffffffffffffffffffffffffffffff8092166000928184526009602052806040852054168092856020527f3134e8a2e6d97e929a7e54011ea5485d7d196dd5f0ba4d4ef95803e8e3fc257f60408720549660096020526040812094871694857fffffffffffffffffffffffff000000000000000000000000000000000000000082541617905580a461258d565b63ffffffff90818111612009571690565b60846040517f08c379a000000000000000000000000000000000000000000000000000000000815260206004820152602660248201527f53616665436173743a2076616c756520646f65736e27742066697420696e203360448201527f32206269747300000000000000000000000000000000000000000000000000006064820152fd5b60ff81146120e35760ff811690601f82116120b957604051916120af836117a8565b8252602082015290565b60046040517fb3512b0c000000000000000000000000000000000000000000000000000000008152fd5b506040516005548160006120f683611726565b808352926020906001908181169081156121825750600114612121575b505061022f92500382611801565b91509260056000527f036b6384b5eca791c62761152d0c79bb0604c104a5fb6f4eb0703f3154bb3db0936000925b82841061216a575061022f9450505081016020013880612113565b8554878501830152948501948694509281019261214f565b90506020935061022f9592507fffffffffffffffffffffffffffffffffffffffffffffffffffffffffffffff0091501682840152151560051b8201013880612113565b60ff81146121e75760ff811690601f82116120b957604051916120af836117a8565b506040516006548160006121fa83611726565b80835292602090600190818116908115612182575060011461222457505061022f92500382611801565b91509260066000527ff652222313e28459528d920b65115c16c04f3efc82aaedc97be59f3f377c0d3f936000925b82841061226d575061022f9450505081016020013880612113565b85548785018301529485019486945092810192612252565b65ffffffffffff90818111612298571690565b60846040517f08c379a000000000000000000000000000000000000000000000000000000000815260206004820152602660248201527f53616665436173743a2076616c756520646f65736e27742066697420696e203460448201527f38206269747300000000000000000000000000000000000000000000000000006064820152fd5b604290612327611e3a565b90604051917f19010000000000000000000000000000000000000000000000000000000000008352600283015260228201522090565b9161022f939161236c93612865565b91909161293a565b811561237e570490565b7f4e487b7100000000000000000000000000000000000000000000000000000000600052601260045260246000fd5b80156124e7578061248061247961246f61246561245b61245161244761243d600161022f9a6000908b60801c806124db575b508060401c806124ce575b508060201c806124c1575b508060101c806124b4575b508060081c806124a7575b508060041c8061249a575b508060021c8061248d575b50821c612486575b811c1b612436818b612374565b0160011c90565b612436818a612374565b6124368189612374565b6124368188612374565b6124368187612374565b6124368186612374565b6124368185612374565b8092612374565b90612b5c565b8101612429565b6002915091019038612421565b6004915091019038612416565b600891509101903861240b565b6010915091019038612400565b60209150910190386123f5565b60409150910190386123ea565b915050608090386123df565b50600090565b90808216911860011c810180911161067c5790565b1561250957565b60846040517f08c379a000000000000000000000000000000000000000000000000000000000815260206004820152603060248201527f4552433230566f7465733a20746f74616c20737570706c79207269736b73206f60448201527f766572666c6f77696e6720766f746573000000000000000000000000000000006064820152fd5b919073ffffffffffffffffffffffffffffffffffffffff8082169316838114158061285c575b6125be575b50505050565b8061263e575b50826125d1575b806125b8565b7fdec2bacdd2f05b59de34da9b523dff8be42e5e38e818c82fdb0bae774387a724916126206126259273ffffffffffffffffffffffffffffffffffffffff16600052600a602052604060002090565b612e04565b60408051928352602083019190915290a23880806125cb565b80600052600a6020527fdec2bacdd2f05b59de34da9b523dff8be42e5e38e818c82fdb0bae774387a724604060002080548015918260001461281b576126826118a7565b6000815260006020820152915b6126dc6126bb60208501517bffffffffffffffffffffffffffffffffffffffffffffffffffffffff1690565b7bffffffffffffffffffffffffffffffffffffffffffffffffffffffff1690565b926126e78985612fbd565b941590816127f8575b50156127815761273661276b927fffffffffffffffffffffffffffffffffffffffffffffffffffffffffffffffff61272787612f10565b93019060005260206000200190565b9063ffffffff7fffffffffffffffffffffffffffffffffffffffffffffffffffffffff0000000083549260201b169116179055565b604080519182526020820192909252a2386125c4565b506127f3906127a56127a061279543612285565b65ffffffffffff1690565b611ff8565b906127ee6127b286612f10565b6127c96127bd6118a7565b63ffffffff9095168552565b7bffffffffffffffffffffffffffffffffffffffffffffffffffffffff166020840152565b612bf5565b61276b565b5163ffffffff16905063ffffffff61281261279543612285565b911614386126f0565b6128566128517fffffffffffffffffffffffffffffffffffffffffffffffffffffffffffffffff84018360005260206000200190565b6119c7565b9161268f565b508215156125b3565b9291907f7fffffffffffffffffffffffffffffff5d576e7357a4501ddfe92f46681b20a083116128f55791608094939160ff602094604051948552168484015260408301526060820152600093849182805260015afa156128e857815173ffffffffffffffffffffffffffffffffffffffff8116156128e2579190565b50600190565b50604051903d90823e3d90fd5b50505050600090600390565b6005111561290b57565b7f4e487b7100000000000000000000000000000000000000000000000000000000600052602160045260246000fd5b61294381612901565b8061294b5750565b61295481612901565b600181036129bb576040517f08c379a000000000000000000000000000000000000000000000000000000000815260206004820152601860248201527f45434453413a20696e76616c6964207369676e617475726500000000000000006044820152606490fd5b6129c481612901565b60028103612a2b576040517f08c379a000000000000000000000000000000000000000000000000000000000815260206004820152601f60248201527f45434453413a20696e76616c6964207369676e6174757265206c656e677468006044820152606490fd5b80612a37600392612901565b14612a3e57565b6040517f08c379a000000000000000000000000000000000000000000000000000000000815260206004820152602260248201527f45434453413a20696e76616c6964207369676e6174757265202773272076616c60448201527f75650000000000000000000000000000000000000000000000000000000000006064820152608490fd5b60096020527fec8156718a8372b1db44bb411437d0870f3e3790d4a08526d024ce1b0b668f6b5473ffffffffffffffffffffffffffffffffffffffff918216600090815260409020546118b49392908116911661258d565b906118b4929173ffffffffffffffffffffffffffffffffffffffff80911660005260096020528080604060002054169216600052604060002054169061258d565b9080821015612b69575090565b905090565b600b5490680100000000000000008210156117c4576001820180600b558210156118ce57600b600052805160209182015190911b7fffffffffffffffffffffffffffffffffffffffffffffffffffffffff000000001663ffffffff91909116177f0175b7a638427703f0dbe7bb9bbf987a2551717b34e79f33b5b1008d1fa01db990910155565b8054680100000000000000008110156117c457612c17916001820181556118b6565b612c5957815160209283015190921b7fffffffffffffffffffffffffffffffffffffffffffffffffffffffff000000001663ffffffff92909216919091179055565b7f4e487b7100000000000000000000000000000000000000000000000000000000600052600060045260246000fd5b600b5490918115918215612dcf57612c9e6118a7565b60008152600060208201525b612ce0612cd96126bb60208401517bffffffffffffffffffffffffffffffffffffffffffffffffffffffff1690565b9586612fca565b93159081612dac575b5015612d4c576118b4906127367fffffffffffffffffffffffffffffffffffffffffffffffffffffffffffffffff612d2086612f10565b9201600b6000527f0175b7a638427703f0dbe7bb9bbf987a2551717b34e79f33b5b1008d1fa01db90190565b506118b4612d5f6127a061279543612285565b612da7612d6b85612f10565b612d82612d766118a7565b63ffffffff9094168452565b7bffffffffffffffffffffffffffffffffffffffffffffffffffffffff166020830152565b612b6e565b5163ffffffff16905063ffffffff612dc661279543612285565b91161438612ce9565b600b600052612dff7f0175b7a638427703f0dbe7bb9bbf987a2551717b34e79f33b5b1008d1fa01db882016119c7565b612caa565b909181549182159283600014612ed557612e1c6118a7565b60008152600060208201525b612e5e612e576126bb60208401517bffffffffffffffffffffffffffffffffffffffffffffffffffffffff1690565b9687612fca565b94159081612eb2575b5015612e9e576127366118b4927fffffffffffffffffffffffffffffffffffffffffffffffffffffffffffffffff61272787612f10565b506118b4906127a56127a061279543612285565b5163ffffffff16905063ffffffff612ecc61279543612285565b91161438612e67565b612f0b6128517fffffffffffffffffffffffffffffffffffffffffffffffffffffffffffffffff83018460005260206000200190565b612e28565b7bffffffffffffffffffffffffffffffffffffffffffffffffffffffff90818111612f39571690565b60846040517f08c379a000000000000000000000000000000000000000000000000000000000815260206004820152602760248201527f53616665436173743a2076616c756520646f65736e27742066697420696e203260448201527f32342062697473000000000000000000000000000000000000000000000000006064820152fd5b90810390811161067c5790565b90810180911161067c579056fea2646970667358221220125b1ed52b7a728f641e6e73d4fb49fe1b94ae9511988c3fae3f88b6b7c4b39664736f6c63430008180033dec2bacdd2f05b59de34da9b523dff8be42e5e38e818c82fdb0bae774387a724",
  "linkReferences": {},
  "deployedLinkReferences": {}
}