{"contracts/plugins/Router.sol":{"Router":{"abi":[{"inputs":[{"internalType":"contract IEFC","name":"_EFC","type":"address"},{"internalType":"contract IRewardFarm","name":"_rewardFarm","type":"address"},{"internalType":"contract IFeeDistributor","name":"_feeDistributor","type":"address"}],"stateMutability":"nonpayable","type":"constructor"},{"inputs":[],"name":"CallerUnauthorized","type":"error"},{"inputs":[],"name":"Forbidden","type":"error"},{"inputs":[{"internalType":"address","name":"liquidator","type":"address"}],"name":"LiquidatorAlreadyRegistered","type":"error"},{"inputs":[{"internalType":"address","name":"owner","type":"address"},{"internalType":"address","name":"expectedOwner","type":"address"}],"name":"OwnerMismatch","type":"error"},{"inputs":[{"internalType":"address","name":"sender","type":"address"},{"internalType":"address","name":"plugin","type":"address"}],"name":"PluginAlreadyApproved","type":"error"},{"inputs":[{"internalType":"address","name":"plugin","type":"address"}],"name":"PluginAlreadyRegistered","type":"error"},{"inputs":[{"internalType":"address","name":"sender","type":"address"},{"internalType":"address","name":"plugin","type":"address"}],"name":"PluginNotApproved","type":"error"},{"inputs":[{"internalType":"address","name":"plugin","type":"address"}],"name":"PluginNotRegistered","type":"error"},{"inputs":[{"internalType":"address","name":"token","type":"address"}],"name":"SafeERC20FailedOperation","type":"error"},{"anonymous":false,"inputs":[{"indexed":true,"internalType":"address","name":"previousGov","type":"address"},{"indexed":true,"internalType":"address","name":"newGov","type":"address"}],"name":"ChangeGovStarted","type":"event"},{"anonymous":false,"inputs":[{"indexed":true,"internalType":"address","name":"previousGov","type":"address"},{"indexed":true,"internalType":"address","name":"newGov","type":"address"}],"name":"GovChanged","type":"event"},{"anonymous":false,"inputs":[{"indexed":true,"internalType":"address","name":"liquidator","type":"address"}],"name":"LiquidatorRegistered","type":"event"},{"anonymous":false,"inputs":[{"indexed":true,"internalType":"address","name":"account","type":"address"},{"indexed":true,"internalType":"address","name":"plugin","type":"address"}],"name":"PluginApproved","type":"event"},{"anonymous":false,"inputs":[{"indexed":true,"internalType":"address","name":"plugin","type":"address"}],"name":"PluginRegistered","type":"event"},{"anonymous":false,"inputs":[{"indexed":true,"internalType":"address","name":"account","type":"address"},{"indexed":true,"internalType":"address","name":"plugin","type":"address"}],"name":"PluginRevoked","type":"event"},{"inputs":[],"name":"EFC","outputs":[{"internalType":"contract IEFC","name":"","type":"address"}],"stateMutability":"view","type":"function"},{"inputs":[],"name":"acceptGov","outputs":[],"stateMutability":"nonpayable","type":"function"},{"inputs":[{"internalType":"address","name":"_plugin","type":"address"}],"name":"approvePlugin","outputs":[],"stateMutability":"nonpayable","type":"function"},{"inputs":[{"internalType":"address","name":"_newGov","type":"address"}],"name":"changeGov","outputs":[],"stateMutability":"nonpayable","type":"function"},{"inputs":[],"name":"feeDistributor","outputs":[{"internalType":"contract IFeeDistributor","name":"","type":"address"}],"stateMutability":"view","type":"function"},{"inputs":[],"name":"gov","outputs":[{"internalType":"address","name":"","type":"address"}],"stateMutability":"view","type":"function"},{"inputs":[{"internalType":"address","name":"_account","type":"address"},{"internalType":"address","name":"_plugin","type":"address"}],"name":"isPluginApproved","outputs":[{"internalType":"bool","name":"","type":"bool"}],"stateMutability":"view","type":"function"},{"inputs":[{"internalType":"address","name":"_liquidator","type":"address"}],"name":"isRegisteredLiquidator","outputs":[{"internalType":"bool","name":"","type":"bool"}],"stateMutability":"view","type":"function"},{"inputs":[],"name":"pendingGov","outputs":[{"internalType":"address","name":"","type":"address"}],"stateMutability":"view","type":"function"},{"inputs":[{"internalType":"contract IPool","name":"_pool","type":"address"},{"internalType":"uint96","name":"_positionID","type":"uint96"},{"internalType":"int128","name":"_marginDelta","type":"int128"},{"internalType":"address","name":"_receiver","type":"address"}],"name":"pluginAdjustLiquidityPositionMargin","outputs":[],"stateMutability":"nonpayable","type":"function"},{"inputs":[{"internalType":"contract IPool","name":"_pool","type":"address"},{"internalType":"uint96","name":"_positionID","type":"uint96"},{"internalType":"address","name":"_receiver","type":"address"}],"name":"pluginCloseLiquidityPosition","outputs":[],"stateMutability":"nonpayable","type":"function"},{"inputs":[{"internalType":"contract IPool","name":"_pool","type":"address"},{"internalType":"address","name":"_account","type":"address"},{"internalType":"Side","name":"_side","type":"uint8"},{"internalType":"uint128","name":"_sizeDelta","type":"uint128"},{"internalType":"address","name":"_receiver","type":"address"}],"name":"pluginClosePositionByLiquidator","outputs":[],"stateMutability":"nonpayable","type":"function"},{"inputs":[{"internalType":"address","name":"_receiver","type":"address"},{"internalType":"uint256[]","name":"_tokenIDs","type":"uint256[]"}],"name":"pluginCollectArchitectRewardBatch","outputs":[{"internalType":"uint256","name":"rewardDebt","type":"uint256"}],"stateMutability":"nonpayable","type":"function"},{"inputs":[{"internalType":"contract IPool[]","name":"_pools","type":"address[]"},{"internalType":"address","name":"_owner","type":"address"},{"internalType":"address","name":"_receiver","type":"address"}],"name":"pluginCollectFarmLiquidityRewardBatch","outputs":[{"internalType":"uint256","name":"rewardDebt","type":"uint256"}],"stateMutability":"nonpayable","type":"function"},{"inputs":[{"internalType":"contract IPool[]","name":"_pools","type":"address[]"},{"internalType":"uint256[]","name":"_referralTokens","type":"uint256[]"},{"internalType":"address","name":"_receiver","type":"address"}],"name":"pluginCollectFarmReferralRewardBatch","outputs":[{"internalType":"uint256","name":"rewardDebt","type":"uint256"}],"stateMutability":"nonpayable","type":"function"},{"inputs":[{"internalType":"contract IPool[]","name":"_pools","type":"address[]"},{"internalType":"address","name":"_owner","type":"address"},{"internalType":"address","name":"_receiver","type":"address"}],"name":"pluginCollectFarmRiskBufferFundRewardBatch","outputs":[{"internalType":"uint256","name":"rewardDebt","type":"uint256"}],"stateMutability":"nonpayable","type":"function"},{"inputs":[{"internalType":"contract IPool","name":"_pool","type":"address"},{"internalType":"uint256","name":"_referralToken","type":"uint256"},{"internalType":"address","name":"_receiver","type":"address"}],"name":"pluginCollectReferralFee","outputs":[{"internalType":"uint256","name":"","type":"uint256"}],"stateMutability":"nonpayable","type":"function"},{"inputs":[{"internalType":"address","name":"_owner","type":"address"},{"internalType":"address","name":"_receiver","type":"address"},{"internalType":"uint256[]","name":"_ids","type":"uint256[]"}],"name":"pluginCollectStakingRewardBatch","outputs":[{"internalType":"uint256","name":"rewardDebt","type":"uint256"}],"stateMutability":"nonpayable","type":"function"},{"inputs":[{"internalType":"address","name":"_owner","type":"address"},{"internalType":"address","name":"_receiver","type":"address"},{"internalType":"uint256[]","name":"_ids","type":"uint256[]"}],"name":"pluginCollectV3PosStakingRewardBatch","outputs":[{"internalType":"uint256","name":"rewardDebt","type":"uint256"}],"stateMutability":"nonpayable","type":"function"},{"inputs":[{"internalType":"contract IPool","name":"_pool","type":"address"},{"internalType":"address","name":"_account","type":"address"},{"internalType":"Side","name":"_side","type":"uint8"},{"internalType":"uint128","name":"_marginDelta","type":"uint128"},{"internalType":"uint128","name":"_sizeDelta","type":"uint128"},{"internalType":"address","name":"_receiver","type":"address"}],"name":"pluginDecreasePosition","outputs":[{"internalType":"uint160","name":"tradePriceX96","type":"uint160"}],"stateMutability":"nonpayable","type":"function"},{"inputs":[{"internalType":"contract IPool","name":"_pool","type":"address"},{"internalType":"address","name":"_account","type":"address"},{"internalType":"uint128","name":"_liquidityDelta","type":"uint128"},{"internalType":"address","name":"_receiver","type":"address"}],"name":"pluginDecreaseRiskBufferFundPosition","outputs":[],"stateMutability":"nonpayable","type":"function"},{"inputs":[{"internalType":"contract IPool","name":"_pool","type":"address"},{"internalType":"address","name":"_account","type":"address"},{"internalType":"Side","name":"_side","type":"uint8"},{"internalType":"uint128","name":"_marginDelta","type":"uint128"},{"internalType":"uint128","name":"_sizeDelta","type":"uint128"}],"name":"pluginIncreasePosition","outputs":[{"internalType":"uint160","name":"tradePriceX96","type":"uint160"}],"stateMutability":"nonpayable","type":"function"},{"inputs":[{"internalType":"contract IPool","name":"_pool","type":"address"},{"internalType":"address","name":"_account","type":"address"},{"internalType":"uint128","name":"_liquidityDelta","type":"uint128"}],"name":"pluginIncreaseRiskBufferFundPosition","outputs":[],"stateMutability":"nonpayable","type":"function"},{"inputs":[{"internalType":"contract IPool","name":"_pool","type":"address"},{"internalType":"address","name":"_account","type":"address"},{"internalType":"uint128","name":"_margin","type":"uint128"},{"internalType":"uint128","name":"_liquidity","type":"uint128"}],"name":"pluginOpenLiquidityPosition","outputs":[{"internalType":"uint96","name":"positionID","type":"uint96"}],"stateMutability":"nonpayable","type":"function"},{"inputs":[{"internalType":"contract IERC20","name":"_token","type":"address"},{"internalType":"address","name":"_from","type":"address"},{"internalType":"address","name":"_to","type":"address"},{"internalType":"uint256","name":"_amount","type":"uint256"}],"name":"pluginTransfer","outputs":[],"stateMutability":"nonpayable","type":"function"},{"inputs":[{"internalType":"contract IERC721","name":"_token","type":"address"},{"internalType":"address","name":"_from","type":"address"},{"internalType":"address","name":"_to","type":"address"},{"internalType":"uint256","name":"_tokenId","type":"uint256"}],"name":"pluginTransferNFT","outputs":[],"stateMutability":"nonpayable","type":"function"},{"inputs":[{"internalType":"address","name":"_liquidator","type":"address"}],"name":"registerLiquidator","outputs":[],"stateMutability":"nonpayable","type":"function"},{"inputs":[{"internalType":"address","name":"_plugin","type":"address"}],"name":"registerPlugin","outputs":[],"stateMutability":"nonpayable","type":"function"},{"inputs":[{"internalType":"address","name":"","type":"address"}],"name":"registeredPlugins","outputs":[{"internalType":"bool","name":"","type":"bool"}],"stateMutability":"view","type":"function"},{"inputs":[{"internalType":"address","name":"_plugin","type":"address"}],"name":"revokePlugin","outputs":[],"stateMutability":"nonpayable","type":"function"},{"inputs":[],"name":"rewardFarm","outputs":[{"internalType":"contract IRewardFarm","name":"","type":"address"}],"stateMutability":"view","type":"function"}],"evm":{"bytecode":{"linkReferences":{},"object":"60e03461011d57601f6200251538819003918201601f19168301916001600160401b038311848410176101225780849260609460405283398101031261011d5780516001600160a01b0391828216820361011d57602081015190838216820361011d5760400151838116810361011d576000543360018060a01b0319821617600055604051943391167f3d1e4c3a68fed9f4f8315582b7297cf8fa264bc8e6704287603ba8c72bf05ac2600080a360c05260a0526080526123dc9081620001398239608051818181610bcd015281816117c7015281816119b201528181611b3201528181611cce0152611d7c015260a051818181610f88015281816110380152611c08015260c051818181610c7801528181610eaa015261191a0152f35b600080fd5b634e487b7160e01b600052604160045260246000fdfe608080604052600436101561001357600080fd5b600090813560e01c90816303dbee4d14611a8c575080630cfe36421461193e5780630d43e8ad146118ed57806310e8667b1461181e57806312d43a51146117eb5780631420f8021461179a57806318602c7b146117435780631b8278781461153c5780632524081014611508578063292b33fc146114be5780632a5a2cca146113e557806338c74dd91461129657806345b274071461118c57806351a4b38e146110b3578063525c86561461105c578063534593911461100b57806360f6f14b14610fc157806364fdd23c14610f17578063724fa77114610e39578063786bccf214610b3d5780637bc6729b14610a865780638c96742e146109d5578063a962ef1e14610946578063ae39e59c14610831578063afbb3831146107cf578063bb0c5f9514610706578063c171f0b0146105dd578063c67f1a35146104ae578063d3d0d999146103d5578063f5d01c53146102a75763f86786f11461017657600080fd5b346102a45760c06003193601126102a45761018f611ef6565b610197611eb0565b906101a0611fd5565b916101a9611f38565b916101b2611f57565b9160a4359073ffffffffffffffffffffffffffffffffffffffff9485831680930361029f5785809460a4948a936020986101eb87612229565b60ff6040519c8d9a8b997f1844c32c000000000000000000000000000000000000000000000000000000008b521660048a01521660248801526fffffffffffffffffffffffffffffffff80921660448801521660648601526084850152165af19182156102945760209392610265575b5060405191168152f35b610286919250833d851161028d575b61027e81836120b2565b8101906120f3565b903861025b565b503d610274565b6040513d85823e3d90fd5b600080fd5b80fd5b50346102a45760806003193601126102a4576102c1611ef6565b60206102cb611eb0565b9160646102d6611f19565b93856102e0611f38565b956102ea83612229565b6040517f76dc71af00000000000000000000000000000000000000000000000000000000815273ffffffffffffffffffffffffffffffffffffffff93841660048201526fffffffffffffffffffffffffffffffff91821660248201529616604487015285938492165af19081156103ca57829161037b575b6020826bffffffffffffffffffffffff60405191168152f35b90506020813d6020116103c2575b81610396602093836120b2565b810103126103be57516bffffffffffffffffffffffff811681036103be576020915038610362565b5080fd5b3d9150610389565b6040513d84823e3d90fd5b50346102a45760206003193601126102a45773ffffffffffffffffffffffffffffffffffffffff610404611ef6565b61040c612263565b16808252600360205260ff60408320541661047d5780825260036020526040822060017fffffffffffffffffffffffffffffffffffffffffffffffffffffffffffffff008254161790557f147270b607bb55cce19da6ecd1569d5d71e9638c59dc52ae16f6c456a255d5998280a280f35b602490604051907f651e96690000000000000000000000000000000000000000000000000000000082526004820152fd5b50346102a45760606003193601126102a457806104c9611ef6565b6104d1612044565b6104d9611e8d565b73ffffffffffffffffffffffffffffffffffffffff8093166bffffffffffffffffffffffff604051937f5186d6d20000000000000000000000000000000000000000000000000000000085521692836004820152602081602481855afa80156105d25761054d9187916105b3575b50612229565b803b156105af5784928360449260405196879586947f2c4d382600000000000000000000000000000000000000000000000000000000865260048601521660248401525af180156103ca5761059f5750f35b6105a89061209e565b6102a45780f35b8480fd5b6105cc915060203d60201161028d5761027e81836120b2565b38610547565b6040513d88823e3d90fd5b50346102a45760a06003193601126102a4576105f7611ef6565b6105ff611eb0565b90610608611fd5565b91610611611f38565b916084359173ffffffffffffffffffffffffffffffffffffffff9283811680910361029f57338752600360205260ff604088205416156106dc578360a49388926fffffffffffffffffffffffffffffffff60209860ff6040519b8c9a8b997f1844c32c000000000000000000000000000000000000000000000000000000008b521660048a01521660248801528560448801521660648601526084850152165af180156103ca576106c0575080f35b6106d89060203d60201161028d5761027e81836120b2565b5080f35b60046040517f2b6dd476000000000000000000000000000000000000000000000000000000008152fd5b50346102a45760806003193601126102a4578060043573ffffffffffffffffffffffffffffffffffffffff81168091036107cc57610742611eb0565b61074a611e8d565b9061075481612229565b823b156107c7576040517f42842e0e00000000000000000000000000000000000000000000000000000000815273ffffffffffffffffffffffffffffffffffffffff918216600482015291166024820152606480356044830152909183918391829084905af180156103ca5761059f5750f35b505050fd5b50fd5b50346102a45760406003193601126102a4576107e9611ef6565b60406107f3611eb0565b9273ffffffffffffffffffffffffffffffffffffffff80931681526004602052209116600052602052602060ff604060002054166040519015158152f35b50346102a45760806003193601126102a4578061084c611ef6565b610854612044565b9060443580600f0b8091036107c75761086b611ed3565b9273ffffffffffffffffffffffffffffffffffffffff809316906bffffffffffffffffffffffff604051917f5186d6d20000000000000000000000000000000000000000000000000000000083521690816004820152602081602481865afa801561093b576108e09188916105b35750612229565b813b156109375785606492819560405197889687957f8584075f000000000000000000000000000000000000000000000000000000008752600487015260248601521660448401525af180156103ca5761059f5750f35b8580fd5b6040513d89823e3d90fd5b50346102a45760206003193601126102a457610960611ef6565b610968612263565b73ffffffffffffffffffffffffffffffffffffffff80911690817fffffffffffffffffffffffff000000000000000000000000000000000000000060015416176001558254167fb9911e2099e372c216862258dc462bb65da46a2c854536c8b1acae619d0d62ed8380a380f35b50346102a45760606003193601126102a457806109f0611ef6565b6109f8611eb0565b610a00611f19565b91610a0a82612229565b73ffffffffffffffffffffffffffffffffffffffff809116803b156105af578492836044926fffffffffffffffffffffffffffffffff60405197889687957f578cb6ca0000000000000000000000000000000000000000000000000000000087521660048601521660248401525af180156103ca5761059f5750f35b50346102a457806003193601126102a45760015473ffffffffffffffffffffffffffffffffffffffff8082163303610b13577fffffffffffffffffffffffff0000000000000000000000000000000000000000809216600155825491339083161783553391167f3d1e4c3a68fed9f4f8315582b7297cf8fa264bc8e6704287603ba8c72bf05ac28380a380f35b60046040517fee90c468000000000000000000000000000000000000000000000000000000008152fd5b50346102a45760406003193601126102a457610b57611ef6565b9060249160243567ffffffffffffffff8111610e3557610b7b903690600401611e5c565b90918115610e31576040517f6352211e000000000000000000000000000000000000000000000000000000008082528435600483015260209673ffffffffffffffffffffffffffffffffffffffff93927f000000000000000000000000000000000000000000000000000000000000000085168982602481845afa918215610e26578992610e07575b5091818a97969593610c178b9694612229565b60019360015b898110610ce957505050505050908291610c74604051978896879586947f53ec31d1000000000000000000000000000000000000000000000000000000008652166004850152604060248501526044840191612176565b03927f0000000000000000000000000000000000000000000000000000000000000000165af1918215610cdd5791610cb0575b50604051908152f35b90508181813d8311610cd6575b610cc781836120b2565b8101031261029f575138610ca7565b503d610cbd565b604051903d90823e3d90fd5b8981939597999a9b50610d0092949698508c61205f565b356040519083825260048201528c818781875afa908115610dfc578c91610ddf575b5088808616911603610d40578501918a9593918c9998979593610c1d565b8b918b9495610d5184938c8e61205f565b35916040519586938492835260048301525afa928315610cdd5792610dc2575b50506040517f4ecf968e00000000000000000000000000000000000000000000000000000000815273ffffffffffffffffffffffffffffffffffffffff918216600482015291166024820152604490fd5b610dd89250803d1061028d5761027e81836120b2565b8280610d71565b610df691508d803d1061028d5761027e81836120b2565b38610d22565b6040513d8e823e3d90fd5b610e1f9192508a3d8c1161028d5761027e81836120b2565b9038610c04565b6040513d8b823e3d90fd5b8380fd5b8280fd5b50346102a457610e90906020610e4e36611f76565b610e5c849394979297612229565b60405196879485947f1d56eed0000000000000000000000000000000000000000000000000000000008652600486016121b3565b03818473ffffffffffffffffffffffffffffffffffffffff7f0000000000000000000000000000000000000000000000000000000000000000165af1908115610cdd5790610ee4575b602090604051908152f35b506020813d602011610f0f575b81610efe602093836120b2565b8101031261029f5760209051610ed9565b3d9150610ef1565b50346102a457610f6e906020610f2c36611fe5565b610f3a829792949394612229565b60405196879485947f563f2333000000000000000000000000000000000000000000000000000000008652600486016121eb565b03818473ffffffffffffffffffffffffffffffffffffffff7f0000000000000000000000000000000000000000000000000000000000000000165af1908115610cdd5790610ee457602090604051908152f35b50346102a45760206003193601126102a45760ff604060209273ffffffffffffffffffffffffffffffffffffffff610ff7611ef6565b168152600384522054166040519015158152f35b50346102a457806003193601126102a457602060405173ffffffffffffffffffffffffffffffffffffffff7f0000000000000000000000000000000000000000000000000000000000000000168152f35b50346102a457610f6e90602061107136611fe5565b61107f829792949394612229565b60405196879485947f2af44d04000000000000000000000000000000000000000000000000000000008652600486016121eb565b50346102a45760206003193601126102a45773ffffffffffffffffffffffffffffffffffffffff6110e2611ef6565b6110ea612263565b16808252600260205260ff60408320541661115b5780825260026020526040822060017fffffffffffffffffffffffffffffffffffffffffffffffffffffffffffffff008254161790557f03cab74d2fa2a557ffeb0fd712180cfbea66cb894cf67fcf8a25b38b9ec5ad968280a280f35b602490604051907f5a473fa10000000000000000000000000000000000000000000000000000000082526004820152fd5b50346102a45760206003193601126102a4576111a6611ef6565b3382526004602052604082209073ffffffffffffffffffffffffffffffffffffffff8116918260005260205260ff604060002054161561124757503382526004602052604082208160005260205260406000207fffffffffffffffffffffffffffffffffffffffffffffffffffffffffffffff008154169055337f15bb2b66587c2cebf2c9db7dc18211188c4c21b135dee66e2e66309c2e696d518380a380f35b6040517ffb96919d00000000000000000000000000000000000000000000000000000000815233600482015273ffffffffffffffffffffffffffffffffffffffff919091166024820152604490fd5b50346102a4576020806003193601126103be576112b1611ef6565b9033835260048152604083209173ffffffffffffffffffffffffffffffffffffffff81169283600052825260ff6040600020541661139657508183526002815260ff60408420541615611365573383526004815260408320908260005252604060002060017fffffffffffffffffffffffffffffffffffffffffffffffffffffffffffffff00825416179055337f66075e2684e8cbbd5dd40f4ecfa3cb7e9903d1b492d8484496b579070dd080b48380a380f35b602482604051907f697116290000000000000000000000000000000000000000000000000000000082526004820152fd5b6040517fa7ed43a100000000000000000000000000000000000000000000000000000000815233600482015273ffffffffffffffffffffffffffffffffffffffff919091166024820152604490fd5b50346102a45760a06003193601126102a4576113ff611ef6565b611407611eb0565b906020611412611fd5565b92608461141d611f38565b9186611427611f57565b61143083612229565b73ffffffffffffffffffffffffffffffffffffffff968795869260ff6040519b8c998a987f89e10817000000000000000000000000000000000000000000000000000000008a521660048901521660248701526fffffffffffffffffffffffffffffffff8092166044870152166064850152165af19182156102945760209392610265575060405191168152f35b50346102a45760206003193601126102a45760ff604060209273ffffffffffffffffffffffffffffffffffffffff6114f4611ef6565b168152600284522054166040519015158152f35b50346102a457806003193601126102a457602073ffffffffffffffffffffffffffffffffffffffff60015416604051908152f35b50346102a45760806003193601126102a45760043573ffffffffffffffffffffffffffffffffffffffff81168091036103be57611577611eb0565b61157f611e8d565b61158882612229565b6040517f23b872dd00000000000000000000000000000000000000000000000000000000602080830191825273ffffffffffffffffffffffffffffffffffffffff9485166024840152929093166044820152606480358183015281529091907fffffffffffffffffffffffffffffffffffffffffffffffffffffffffffffffe06116136084836120b2565b604051916040830167ffffffffffffffff94848210868311176117065788928392604052601e86527f416464726573733a206c6f772d6c6576656c2063616c6c206661696c6564000088870152519082895af13d15611735573d9384116117065761169b9361168c8660405194601f84011601846120b2565b82523d878684013e5b85612284565b80519182151591826116e5575b505090506116b4575080f35b602490604051907f5274afe70000000000000000000000000000000000000000000000000000000082526004820152fd5b809250819381010312610e31570151801590811503610e35578038806116a8565b7f4e487b7100000000000000000000000000000000000000000000000000000000600052604160045260246000fd5b61169b935060609150611695565b50346102a457610e9090602061175836611f76565b611766849394979297612229565b60405196879485947f24cf5671000000000000000000000000000000000000000000000000000000008652600486016121b3565b50346102a457806003193601126102a457602060405173ffffffffffffffffffffffffffffffffffffffff7f0000000000000000000000000000000000000000000000000000000000000000168152f35b50346102a457806003193601126102a45773ffffffffffffffffffffffffffffffffffffffff6020915416604051908152f35b50346102a45760806003193601126102a457611838611ef6565b81611841611eb0565b9161184a611f19565b92611853611ed3565b9061185d81612229565b73ffffffffffffffffffffffffffffffffffffffff80931691823b156105af576064928486926fffffffffffffffffffffffffffffffff604051998a9889977f8abcc9fb0000000000000000000000000000000000000000000000000000000089521660048801521660248601521660448401525af180156103ca576118e1575080f35b6118ea9061209e565b80f35b50346102a457806003193601126102a457602060405173ffffffffffffffffffffffffffffffffffffffff7f0000000000000000000000000000000000000000000000000000000000000000168152f35b50346102a45760606003193601126102a457611958611ef6565b90602435611964611e8d565b73ffffffffffffffffffffffffffffffffffffffff91604051947f6352211e0000000000000000000000000000000000000000000000000000000086528160048701526020958681602481887f0000000000000000000000000000000000000000000000000000000000000000165afa9081156105d257856044936119f48a9796948a948591611a755750612229565b60405197889687957fd125865f0000000000000000000000000000000000000000000000000000000087526004870152166024850152165af1918215610cdd578092611a45575b5050604051908152f35b9091508282813d8311611a6e575b611a5d81836120b2565b810103126102a45750513880611a3b565b503d611a53565b6105cc9150893d8b1161028d5761027e81836120b2565b9050346103be5760606003193601126103be5767ffffffffffffffff90600435828111610e3157611ac1903690600401611e5c565b9190926024359081116105af57611adc903690600401611e5c565b611ae4611e8d565b928115611e58577f6352211e0000000000000000000000000000000000000000000000000000000081528235600482015260208160248173ffffffffffffffffffffffffffffffffffffffff7f0000000000000000000000000000000000000000000000000000000000000000165afa90811561093b578791611e39575b50611b6c81612229565b60015b828110611c795787611bd5602089898973ffffffffffffffffffffffffffffffffffffffff611be78b8b60405198899788977f0de759e8000000000000000000000000000000000000000000000000000000008952606060048a0152606489019161211f565b91600319878403016024880152612176565b9116604483015203818573ffffffffffffffffffffffffffffffffffffffff7f0000000000000000000000000000000000000000000000000000000000000000165af19081156103ca578291611c43575b602082604051908152f35b90506020813d602011611c71575b81611c5e602093836120b2565b810103126103be57602091505182611c38565b3d9150611c51565b611c8481848661205f565b35604051907f6352211e000000000000000000000000000000000000000000000000000000008252600482015260208160248173ffffffffffffffffffffffffffffffffffffffff7f0000000000000000000000000000000000000000000000000000000000000000165afa908115610e26578991611e1a575b5073ffffffffffffffffffffffffffffffffffffffff808416911603611d2657600101611b6f565b8792611d32929461205f565b35604051907f6352211e000000000000000000000000000000000000000000000000000000008252600482015260208160248173ffffffffffffffffffffffffffffffffffffffff7f0000000000000000000000000000000000000000000000000000000000000000165afa918215610cdd5791611dfb575b506040517f4ecf968e00000000000000000000000000000000000000000000000000000000815273ffffffffffffffffffffffffffffffffffffffff918216600482015291166024820152604490fd5b611e14915060203d60201161028d5761027e81836120b2565b82611dab565b611e33915060203d60201161028d5761027e81836120b2565b38611cfe565b611e52915060203d60201161028d5761027e81836120b2565b38611b62565b8680fd5b9181601f8401121561029f5782359167ffffffffffffffff831161029f576020808501948460051b01011161029f57565b6044359073ffffffffffffffffffffffffffffffffffffffff8216820361029f57565b6024359073ffffffffffffffffffffffffffffffffffffffff8216820361029f57565b6064359073ffffffffffffffffffffffffffffffffffffffff8216820361029f57565b6004359073ffffffffffffffffffffffffffffffffffffffff8216820361029f57565b604435906fffffffffffffffffffffffffffffffff8216820361029f57565b606435906fffffffffffffffffffffffffffffffff8216820361029f57565b608435906fffffffffffffffffffffffffffffffff8216820361029f57565b606060031982011261029f5773ffffffffffffffffffffffffffffffffffffffff91600435838116810361029f5792602435908116810361029f57916044359067ffffffffffffffff821161029f57611fd191600401611e5c565b9091565b6044359060ff8216820361029f57565b606060031982011261029f576004359067ffffffffffffffff821161029f5761201091600401611e5c565b909173ffffffffffffffffffffffffffffffffffffffff90602435828116810361029f5791604435908116810361029f5790565b602435906bffffffffffffffffffffffff8216820361029f57565b919081101561206f5760051b0190565b7f4e487b7100000000000000000000000000000000000000000000000000000000600052603260045260246000fd5b67ffffffffffffffff811161170657604052565b90601f7fffffffffffffffffffffffffffffffffffffffffffffffffffffffffffffffe0910116810190811067ffffffffffffffff82111761170657604052565b9081602091031261029f575173ffffffffffffffffffffffffffffffffffffffff8116810361029f5790565b9190808252602080920192916000805b83821061213e57505050505090565b9091929394853573ffffffffffffffffffffffffffffffffffffffff8116809103610e3557815283019483019392916001019061212f565b90918281527f07ffffffffffffffffffffffffffffffffffffffffffffffffffffffffffffff831161029f5760209260051b809284830137010190565b6060916121e8959373ffffffffffffffffffffffffffffffffffffffff80921683521660208201528160408201520191612176565b90565b92906122059060409396959660608652606086019161211f565b9473ffffffffffffffffffffffffffffffffffffffff809216602085015216910152565b73ffffffffffffffffffffffffffffffffffffffff16600052600460205260406000203360005260205260ff60406000205416156106dc57565b73ffffffffffffffffffffffffffffffffffffffff600054163303610b1357565b919290156122ff5750815115612298575090565b3b156122a15790565b60646040517f08c379a000000000000000000000000000000000000000000000000000000000815260206004820152601d60248201527f416464726573733a2063616c6c20746f206e6f6e2d636f6e74726163740000006044820152fd5b8251909150156123125750805190602001fd5b604051907f08c379a000000000000000000000000000000000000000000000000000000000825281602080600483015282519283602484015260005b84811061238f575050507fffffffffffffffffffffffffffffffffffffffffffffffffffffffffffffffe0601f836000604480968601015201168101030190fd5b81810183015186820160440152859350820161234e56fea2646970667358221220c11016921144d6a895bd9a293505e03c1420bb25f8f546f3a04d5000a33b6fb364736f6c63430008180033","opcodes":"PUSH1 0xE0 CALLVALUE PUSH2 0x11D JUMPI PUSH1 0x1F PUSH3 0x2515 CODESIZE DUP2 SWAP1 SUB SWAP2 DUP3 ADD PUSH1 0x1F NOT AND DUP4 ADD SWAP2 PUSH1 0x1 PUSH1 0x1 PUSH1 0x40 SHL SUB DUP4 GT DUP5 DUP5 LT OR PUSH2 0x122 JUMPI DUP1 DUP5 SWAP3 PUSH1 0x60 SWAP5 PUSH1 0x40 MSTORE DUP4 CODECOPY DUP2 ADD SUB SLT PUSH2 0x11D JUMPI DUP1 MLOAD PUSH1 0x1 PUSH1 0x1 PUSH1 0xA0 SHL SUB SWAP2 DUP3 DUP3 AND DUP3 SUB PUSH2 0x11D JUMPI PUSH1 0x20 DUP2 ADD MLOAD SWAP1 DUP4 DUP3 AND DUP3 SUB PUSH2 0x11D JUMPI PUSH1 0x40 ADD MLOAD DUP4 DUP2 AND DUP2 SUB PUSH2 0x11D JUMPI PUSH1 0x0 SLOAD CALLER PUSH1 0x1 DUP1 PUSH1 0xA0 SHL SUB NOT DUP3 AND OR PUSH1 0x0 SSTORE PUSH1 0x40 MLOAD SWAP5 CALLER SWAP2 AND PUSH32 0x3D1E4C3A68FED9F4F8315582B7297CF8FA264BC8E6704287603BA8C72BF05AC2 PUSH1 0x0 DUP1 LOG3 PUSH1 0xC0 MSTORE PUSH1 0xA0 MSTORE PUSH1 0x80 MSTORE PUSH2 0x23DC SWAP1 DUP2 PUSH3 0x139 DUP3 CODECOPY PUSH1 0x80 MLOAD DUP2 DUP2 DUP2 PUSH2 0xBCD ADD MSTORE DUP2 DUP2 PUSH2 0x17C7 ADD MSTORE DUP2 DUP2 PUSH2 0x19B2 ADD MSTORE DUP2 DUP2 PUSH2 0x1B32 ADD MSTORE DUP2 DUP2 PUSH2 0x1CCE ADD MSTORE PUSH2 0x1D7C ADD MSTORE PUSH1 0xA0 MLOAD DUP2 DUP2 DUP2 PUSH2 0xF88 ADD MSTORE DUP2 DUP2 PUSH2 0x1038 ADD MSTORE PUSH2 0x1C08 ADD MSTORE PUSH1 0xC0 MLOAD DUP2 DUP2 DUP2 PUSH2 0xC78 ADD MSTORE DUP2 DUP2 PUSH2 0xEAA ADD MSTORE PUSH2 0x191A ADD MSTORE RETURN JUMPDEST PUSH1 0x0 DUP1 REVERT JUMPDEST PUSH4 0x4E487B71 PUSH1 0xE0 SHL PUSH1 0x0 MSTORE PUSH1 0x41 PUSH1 0x4 MSTORE PUSH1 0x24 PUSH1 0x0 REVERT INVALID PUSH1 0x80 DUP1 PUSH1 0x40 MSTORE PUSH1 0x4 CALLDATASIZE LT ISZERO PUSH2 0x13 JUMPI PUSH1 0x0 DUP1 REVERT JUMPDEST PUSH1 0x0 SWAP1 DUP2 CALLDATALOAD PUSH1 0xE0 SHR SWAP1 DUP2 PUSH4 0x3DBEE4D EQ PUSH2 0x1A8C JUMPI POP DUP1 PUSH4 0xCFE3642 EQ PUSH2 0x193E JUMPI DUP1 PUSH4 0xD43E8AD EQ PUSH2 0x18ED JUMPI DUP1 PUSH4 0x10E8667B EQ PUSH2 0x181E JUMPI DUP1 PUSH4 0x12D43A51 EQ PUSH2 0x17EB JUMPI DUP1 PUSH4 0x1420F802 EQ PUSH2 0x179A JUMPI DUP1 PUSH4 0x18602C7B EQ PUSH2 0x1743 JUMPI DUP1 PUSH4 0x1B827878 EQ PUSH2 0x153C JUMPI DUP1 PUSH4 0x25240810 EQ PUSH2 0x1508 JUMPI DUP1 PUSH4 0x292B33FC EQ PUSH2 0x14BE JUMPI DUP1 PUSH4 0x2A5A2CCA EQ PUSH2 0x13E5 JUMPI DUP1 PUSH4 0x38C74DD9 EQ PUSH2 0x1296 JUMPI DUP1 PUSH4 0x45B27407 EQ PUSH2 0x118C JUMPI DUP1 PUSH4 0x51A4B38E EQ PUSH2 0x10B3 JUMPI DUP1 PUSH4 0x525C8656 EQ PUSH2 0x105C JUMPI DUP1 PUSH4 0x53459391 EQ PUSH2 0x100B JUMPI DUP1 PUSH4 0x60F6F14B EQ PUSH2 0xFC1 JUMPI DUP1 PUSH4 0x64FDD23C EQ PUSH2 0xF17 JUMPI DUP1 PUSH4 0x724FA771 EQ PUSH2 0xE39 JUMPI DUP1 PUSH4 0x786BCCF2 EQ PUSH2 0xB3D JUMPI DUP1 PUSH4 0x7BC6729B EQ PUSH2 0xA86 JUMPI DUP1 PUSH4 0x8C96742E EQ PUSH2 0x9D5 JUMPI DUP1 PUSH4 0xA962EF1E EQ PUSH2 0x946 JUMPI DUP1 PUSH4 0xAE39E59C EQ PUSH2 0x831 JUMPI DUP1 PUSH4 0xAFBB3831 EQ PUSH2 0x7CF JUMPI DUP1 PUSH4 0xBB0C5F95 EQ PUSH2 0x706 JUMPI DUP1 PUSH4 0xC171F0B0 EQ PUSH2 0x5DD JUMPI DUP1 PUSH4 0xC67F1A35 EQ PUSH2 0x4AE JUMPI DUP1 PUSH4 0xD3D0D999 EQ PUSH2 0x3D5 JUMPI DUP1 PUSH4 0xF5D01C53 EQ PUSH2 0x2A7 JUMPI PUSH4 0xF86786F1 EQ PUSH2 0x176 JUMPI PUSH1 0x0 DUP1 REVERT JUMPDEST CALLVALUE PUSH2 0x2A4 JUMPI PUSH1 0xC0 PUSH1 0x3 NOT CALLDATASIZE ADD SLT PUSH2 0x2A4 JUMPI PUSH2 0x18F PUSH2 0x1EF6 JUMP JUMPDEST PUSH2 0x197 PUSH2 0x1EB0 JUMP JUMPDEST SWAP1 PUSH2 0x1A0 PUSH2 0x1FD5 JUMP JUMPDEST SWAP2 PUSH2 0x1A9 PUSH2 0x1F38 JUMP JUMPDEST SWAP2 PUSH2 0x1B2 PUSH2 0x1F57 JUMP JUMPDEST SWAP2 PUSH1 0xA4 CALLDATALOAD SWAP1 PUSH20 0xFFFFFFFFFFFFFFFFFFFFFFFFFFFFFFFFFFFFFFFF SWAP5 DUP6 DUP4 AND DUP1 SWAP4 SUB PUSH2 0x29F JUMPI DUP6 DUP1 SWAP5 PUSH1 0xA4 SWAP5 DUP11 SWAP4 PUSH1 0x20 SWAP9 PUSH2 0x1EB DUP8 PUSH2 0x2229 JUMP JUMPDEST PUSH1 0xFF PUSH1 0x40 MLOAD SWAP13 DUP14 SWAP11 DUP12 SWAP10 PUSH32 0x1844C32C00000000000000000000000000000000000000000000000000000000 DUP12 MSTORE AND PUSH1 0x4 DUP11 ADD MSTORE AND PUSH1 0x24 DUP9 ADD MSTORE PUSH16 0xFFFFFFFFFFFFFFFFFFFFFFFFFFFFFFFF DUP1 SWAP3 AND PUSH1 0x44 DUP9 ADD MSTORE AND PUSH1 0x64 DUP7 ADD MSTORE PUSH1 0x84 DUP6 ADD MSTORE AND GAS CALL SWAP2 DUP3 ISZERO PUSH2 0x294 JUMPI PUSH1 0x20 SWAP4 SWAP3 PUSH2 0x265 JUMPI JUMPDEST POP PUSH1 0x40 MLOAD SWAP2 AND DUP2 MSTORE RETURN JUMPDEST PUSH2 0x286 SWAP2 SWAP3 POP DUP4 RETURNDATASIZE DUP6 GT PUSH2 0x28D JUMPI JUMPDEST PUSH2 0x27E DUP2 DUP4 PUSH2 0x20B2 JUMP JUMPDEST DUP2 ADD SWAP1 PUSH2 0x20F3 JUMP JUMPDEST SWAP1 CODESIZE PUSH2 0x25B JUMP JUMPDEST POP RETURNDATASIZE PUSH2 0x274 JUMP JUMPDEST PUSH1 0x40 MLOAD RETURNDATASIZE DUP6 DUP3 RETURNDATACOPY RETURNDATASIZE SWAP1 REVERT JUMPDEST PUSH1 0x0 DUP1 REVERT JUMPDEST DUP1 REVERT JUMPDEST POP CALLVALUE PUSH2 0x2A4 JUMPI PUSH1 0x80 PUSH1 0x3 NOT CALLDATASIZE ADD SLT PUSH2 0x2A4 JUMPI PUSH2 0x2C1 PUSH2 0x1EF6 JUMP JUMPDEST PUSH1 0x20 PUSH2 0x2CB PUSH2 0x1EB0 JUMP JUMPDEST SWAP2 PUSH1 0x64 PUSH2 0x2D6 PUSH2 0x1F19 JUMP JUMPDEST SWAP4 DUP6 PUSH2 0x2E0 PUSH2 0x1F38 JUMP JUMPDEST SWAP6 PUSH2 0x2EA DUP4 PUSH2 0x2229 JUMP JUMPDEST PUSH1 0x40 MLOAD PUSH32 0x76DC71AF00000000000000000000000000000000000000000000000000000000 DUP2 MSTORE PUSH20 0xFFFFFFFFFFFFFFFFFFFFFFFFFFFFFFFFFFFFFFFF SWAP4 DUP5 AND PUSH1 0x4 DUP3 ADD MSTORE PUSH16 0xFFFFFFFFFFFFFFFFFFFFFFFFFFFFFFFF SWAP2 DUP3 AND PUSH1 0x24 DUP3 ADD MSTORE SWAP7 AND PUSH1 0x44 DUP8 ADD MSTORE DUP6 SWAP4 DUP5 SWAP3 AND GAS CALL SWAP1 DUP2 ISZERO PUSH2 0x3CA JUMPI DUP3 SWAP2 PUSH2 0x37B JUMPI JUMPDEST PUSH1 0x20 DUP3 PUSH12 0xFFFFFFFFFFFFFFFFFFFFFFFF PUSH1 0x40 MLOAD SWAP2 AND DUP2 MSTORE RETURN JUMPDEST SWAP1 POP PUSH1 0x20 DUP2 RETURNDATASIZE PUSH1 0x20 GT PUSH2 0x3C2 JUMPI JUMPDEST DUP2 PUSH2 0x396 PUSH1 0x20 SWAP4 DUP4 PUSH2 0x20B2 JUMP JUMPDEST DUP2 ADD SUB SLT PUSH2 0x3BE JUMPI MLOAD PUSH12 0xFFFFFFFFFFFFFFFFFFFFFFFF DUP2 AND DUP2 SUB PUSH2 0x3BE JUMPI PUSH1 0x20 SWAP2 POP CODESIZE PUSH2 0x362 JUMP JUMPDEST POP DUP1 REVERT JUMPDEST RETURNDATASIZE SWAP2 POP PUSH2 0x389 JUMP JUMPDEST PUSH1 0x40 MLOAD RETURNDATASIZE DUP5 DUP3 RETURNDATACOPY RETURNDATASIZE SWAP1 REVERT JUMPDEST POP CALLVALUE PUSH2 0x2A4 JUMPI PUSH1 0x20 PUSH1 0x3 NOT CALLDATASIZE ADD SLT PUSH2 0x2A4 JUMPI PUSH20 0xFFFFFFFFFFFFFFFFFFFFFFFFFFFFFFFFFFFFFFFF PUSH2 0x404 PUSH2 0x1EF6 JUMP JUMPDEST PUSH2 0x40C PUSH2 0x2263 JUMP JUMPDEST AND DUP1 DUP3 MSTORE PUSH1 0x3 PUSH1 0x20 MSTORE PUSH1 0xFF PUSH1 0x40 DUP4 KECCAK256 SLOAD AND PUSH2 0x47D JUMPI DUP1 DUP3 MSTORE PUSH1 0x3 PUSH1 0x20 MSTORE PUSH1 0x40 DUP3 KECCAK256 PUSH1 0x1 PUSH32 0xFFFFFFFFFFFFFFFFFFFFFFFFFFFFFFFFFFFFFFFFFFFFFFFFFFFFFFFFFFFFFF00 DUP3 SLOAD AND OR SWAP1 SSTORE PUSH32 0x147270B607BB55CCE19DA6ECD1569D5D71E9638C59DC52AE16F6C456A255D599 DUP3 DUP1 LOG2 DUP1 RETURN JUMPDEST PUSH1 0x24 SWAP1 PUSH1 0x40 MLOAD SWAP1 PUSH32 0x651E966900000000000000000000000000000000000000000000000000000000 DUP3 MSTORE PUSH1 0x4 DUP3 ADD MSTORE REVERT JUMPDEST POP CALLVALUE PUSH2 0x2A4 JUMPI PUSH1 0x60 PUSH1 0x3 NOT CALLDATASIZE ADD SLT PUSH2 0x2A4 JUMPI DUP1 PUSH2 0x4C9 PUSH2 0x1EF6 JUMP JUMPDEST PUSH2 0x4D1 PUSH2 0x2044 JUMP JUMPDEST PUSH2 0x4D9 PUSH2 0x1E8D JUMP JUMPDEST PUSH20 0xFFFFFFFFFFFFFFFFFFFFFFFFFFFFFFFFFFFFFFFF DUP1 SWAP4 AND PUSH12 0xFFFFFFFFFFFFFFFFFFFFFFFF PUSH1 0x40 MLOAD SWAP4 PUSH32 0x5186D6D200000000000000000000000000000000000000000000000000000000 DUP6 MSTORE AND SWAP3 DUP4 PUSH1 0x4 DUP3 ADD MSTORE PUSH1 0x20 DUP2 PUSH1 0x24 DUP2 DUP6 GAS STATICCALL DUP1 ISZERO PUSH2 0x5D2 JUMPI PUSH2 0x54D SWAP2 DUP8 SWAP2 PUSH2 0x5B3 JUMPI JUMPDEST POP PUSH2 0x2229 JUMP JUMPDEST DUP1 EXTCODESIZE ISZERO PUSH2 0x5AF JUMPI DUP5 SWAP3 DUP4 PUSH1 0x44 SWAP3 PUSH1 0x40 MLOAD SWAP7 DUP8 SWAP6 DUP7 SWAP5 PUSH32 0x2C4D382600000000000000000000000000000000000000000000000000000000 DUP7 MSTORE PUSH1 0x4 DUP7 ADD MSTORE AND PUSH1 0x24 DUP5 ADD MSTORE GAS CALL DUP1 ISZERO PUSH2 0x3CA JUMPI PUSH2 0x59F JUMPI POP RETURN JUMPDEST PUSH2 0x5A8 SWAP1 PUSH2 0x209E JUMP JUMPDEST PUSH2 0x2A4 JUMPI DUP1 RETURN JUMPDEST DUP5 DUP1 REVERT JUMPDEST PUSH2 0x5CC SWAP2 POP PUSH1 0x20 RETURNDATASIZE PUSH1 0x20 GT PUSH2 0x28D JUMPI PUSH2 0x27E DUP2 DUP4 PUSH2 0x20B2 JUMP JUMPDEST CODESIZE PUSH2 0x547 JUMP JUMPDEST PUSH1 0x40 MLOAD RETURNDATASIZE DUP9 DUP3 RETURNDATACOPY RETURNDATASIZE SWAP1 REVERT JUMPDEST POP CALLVALUE PUSH2 0x2A4 JUMPI PUSH1 0xA0 PUSH1 0x3 NOT CALLDATASIZE ADD SLT PUSH2 0x2A4 JUMPI PUSH2 0x5F7 PUSH2 0x1EF6 JUMP JUMPDEST PUSH2 0x5FF PUSH2 0x1EB0 JUMP JUMPDEST SWAP1 PUSH2 0x608 PUSH2 0x1FD5 JUMP JUMPDEST SWAP2 PUSH2 0x611 PUSH2 0x1F38 JUMP JUMPDEST SWAP2 PUSH1 0x84 CALLDATALOAD SWAP2 PUSH20 0xFFFFFFFFFFFFFFFFFFFFFFFFFFFFFFFFFFFFFFFF SWAP3 DUP4 DUP2 AND DUP1 SWAP2 SUB PUSH2 0x29F JUMPI CALLER DUP8 MSTORE PUSH1 0x3 PUSH1 0x20 MSTORE PUSH1 0xFF PUSH1 0x40 DUP9 KECCAK256 SLOAD AND ISZERO PUSH2 0x6DC JUMPI DUP4 PUSH1 0xA4 SWAP4 DUP9 SWAP3 PUSH16 0xFFFFFFFFFFFFFFFFFFFFFFFFFFFFFFFF PUSH1 0x20 SWAP9 PUSH1 0xFF PUSH1 0x40 MLOAD SWAP12 DUP13 SWAP11 DUP12 SWAP10 PUSH32 0x1844C32C00000000000000000000000000000000000000000000000000000000 DUP12 MSTORE AND PUSH1 0x4 DUP11 ADD MSTORE AND PUSH1 0x24 DUP9 ADD MSTORE DUP6 PUSH1 0x44 DUP9 ADD MSTORE AND PUSH1 0x64 DUP7 ADD MSTORE PUSH1 0x84 DUP6 ADD MSTORE AND GAS CALL DUP1 ISZERO PUSH2 0x3CA JUMPI PUSH2 0x6C0 JUMPI POP DUP1 RETURN JUMPDEST PUSH2 0x6D8 SWAP1 PUSH1 0x20 RETURNDATASIZE PUSH1 0x20 GT PUSH2 0x28D JUMPI PUSH2 0x27E DUP2 DUP4 PUSH2 0x20B2 JUMP JUMPDEST POP DUP1 RETURN JUMPDEST PUSH1 0x4 PUSH1 0x40 MLOAD PUSH32 0x2B6DD47600000000000000000000000000000000000000000000000000000000 DUP2 MSTORE REVERT JUMPDEST POP CALLVALUE PUSH2 0x2A4 JUMPI PUSH1 0x80 PUSH1 0x3 NOT CALLDATASIZE ADD SLT PUSH2 0x2A4 JUMPI DUP1 PUSH1 0x4 CALLDATALOAD PUSH20 0xFFFFFFFFFFFFFFFFFFFFFFFFFFFFFFFFFFFFFFFF DUP2 AND DUP1 SWAP2 SUB PUSH2 0x7CC JUMPI PUSH2 0x742 PUSH2 0x1EB0 JUMP JUMPDEST PUSH2 0x74A PUSH2 0x1E8D JUMP JUMPDEST SWAP1 PUSH2 0x754 DUP2 PUSH2 0x2229 JUMP JUMPDEST DUP3 EXTCODESIZE ISZERO PUSH2 0x7C7 JUMPI PUSH1 0x40 MLOAD PUSH32 0x42842E0E00000000000000000000000000000000000000000000000000000000 DUP2 MSTORE PUSH20 0xFFFFFFFFFFFFFFFFFFFFFFFFFFFFFFFFFFFFFFFF SWAP2 DUP3 AND PUSH1 0x4 DUP3 ADD MSTORE SWAP2 AND PUSH1 0x24 DUP3 ADD MSTORE PUSH1 0x64 DUP1 CALLDATALOAD PUSH1 0x44 DUP4 ADD MSTORE SWAP1 SWAP2 DUP4 SWAP2 DUP4 SWAP2 DUP3 SWAP1 DUP5 SWAP1 GAS CALL DUP1 ISZERO PUSH2 0x3CA JUMPI PUSH2 0x59F JUMPI POP RETURN JUMPDEST POP POP POP REVERT JUMPDEST POP REVERT JUMPDEST POP CALLVALUE PUSH2 0x2A4 JUMPI PUSH1 0x40 PUSH1 0x3 NOT CALLDATASIZE ADD SLT PUSH2 0x2A4 JUMPI PUSH2 0x7E9 PUSH2 0x1EF6 JUMP JUMPDEST PUSH1 0x40 PUSH2 0x7F3 PUSH2 0x1EB0 JUMP JUMPDEST SWAP3 PUSH20 0xFFFFFFFFFFFFFFFFFFFFFFFFFFFFFFFFFFFFFFFF DUP1 SWAP4 AND DUP2 MSTORE PUSH1 0x4 PUSH1 0x20 MSTORE KECCAK256 SWAP2 AND PUSH1 0x0 MSTORE PUSH1 0x20 MSTORE PUSH1 0x20 PUSH1 0xFF PUSH1 0x40 PUSH1 0x0 KECCAK256 SLOAD AND PUSH1 0x40 MLOAD SWAP1 ISZERO ISZERO DUP2 MSTORE RETURN JUMPDEST POP CALLVALUE PUSH2 0x2A4 JUMPI PUSH1 0x80 PUSH1 0x3 NOT CALLDATASIZE ADD SLT PUSH2 0x2A4 JUMPI DUP1 PUSH2 0x84C PUSH2 0x1EF6 JUMP JUMPDEST PUSH2 0x854 PUSH2 0x2044 JUMP JUMPDEST SWAP1 PUSH1 0x44 CALLDATALOAD DUP1 PUSH1 0xF SIGNEXTEND DUP1 SWAP2 SUB PUSH2 0x7C7 JUMPI PUSH2 0x86B PUSH2 0x1ED3 JUMP JUMPDEST SWAP3 PUSH20 0xFFFFFFFFFFFFFFFFFFFFFFFFFFFFFFFFFFFFFFFF DUP1 SWAP4 AND SWAP1 PUSH12 0xFFFFFFFFFFFFFFFFFFFFFFFF PUSH1 0x40 MLOAD SWAP2 PUSH32 0x5186D6D200000000000000000000000000000000000000000000000000000000 DUP4 MSTORE AND SWAP1 DUP2 PUSH1 0x4 DUP3 ADD MSTORE PUSH1 0x20 DUP2 PUSH1 0x24 DUP2 DUP7 GAS STATICCALL DUP1 ISZERO PUSH2 0x93B JUMPI PUSH2 0x8E0 SWAP2 DUP9 SWAP2 PUSH2 0x5B3 JUMPI POP PUSH2 0x2229 JUMP JUMPDEST DUP2 EXTCODESIZE ISZERO PUSH2 0x937 JUMPI DUP6 PUSH1 0x64 SWAP3 DUP2 SWAP6 PUSH1 0x40 MLOAD SWAP8 DUP9 SWAP7 DUP8 SWAP6 PUSH32 0x8584075F00000000000000000000000000000000000000000000000000000000 DUP8 MSTORE PUSH1 0x4 DUP8 ADD MSTORE PUSH1 0x24 DUP7 ADD MSTORE AND PUSH1 0x44 DUP5 ADD MSTORE GAS CALL DUP1 ISZERO PUSH2 0x3CA JUMPI PUSH2 0x59F JUMPI POP RETURN JUMPDEST DUP6 DUP1 REVERT JUMPDEST PUSH1 0x40 MLOAD RETURNDATASIZE DUP10 DUP3 RETURNDATACOPY RETURNDATASIZE SWAP1 REVERT JUMPDEST POP CALLVALUE PUSH2 0x2A4 JUMPI PUSH1 0x20 PUSH1 0x3 NOT CALLDATASIZE ADD SLT PUSH2 0x2A4 JUMPI PUSH2 0x960 PUSH2 0x1EF6 JUMP JUMPDEST PUSH2 0x968 PUSH2 0x2263 JUMP JUMPDEST PUSH20 0xFFFFFFFFFFFFFFFFFFFFFFFFFFFFFFFFFFFFFFFF DUP1 SWAP2 AND SWAP1 DUP2 PUSH32 0xFFFFFFFFFFFFFFFFFFFFFFFF0000000000000000000000000000000000000000 PUSH1 0x1 SLOAD AND OR PUSH1 0x1 SSTORE DUP3 SLOAD AND PUSH32 0xB9911E2099E372C216862258DC462BB65DA46A2C854536C8B1ACAE619D0D62ED DUP4 DUP1 LOG3 DUP1 RETURN JUMPDEST POP CALLVALUE PUSH2 0x2A4 JUMPI PUSH1 0x60 PUSH1 0x3 NOT CALLDATASIZE ADD SLT PUSH2 0x2A4 JUMPI DUP1 PUSH2 0x9F0 PUSH2 0x1EF6 JUMP JUMPDEST PUSH2 0x9F8 PUSH2 0x1EB0 JUMP JUMPDEST PUSH2 0xA00 PUSH2 0x1F19 JUMP JUMPDEST SWAP2 PUSH2 0xA0A DUP3 PUSH2 0x2229 JUMP JUMPDEST PUSH20 0xFFFFFFFFFFFFFFFFFFFFFFFFFFFFFFFFFFFFFFFF DUP1 SWAP2 AND DUP1 EXTCODESIZE ISZERO PUSH2 0x5AF JUMPI DUP5 SWAP3 DUP4 PUSH1 0x44 SWAP3 PUSH16 0xFFFFFFFFFFFFFFFFFFFFFFFFFFFFFFFF PUSH1 0x40 MLOAD SWAP8 DUP9 SWAP7 DUP8 SWAP6 PUSH32 0x578CB6CA00000000000000000000000000000000000000000000000000000000 DUP8 MSTORE AND PUSH1 0x4 DUP7 ADD MSTORE AND PUSH1 0x24 DUP5 ADD MSTORE GAS CALL DUP1 ISZERO PUSH2 0x3CA JUMPI PUSH2 0x59F JUMPI POP RETURN JUMPDEST POP CALLVALUE PUSH2 0x2A4 JUMPI DUP1 PUSH1 0x3 NOT CALLDATASIZE ADD SLT PUSH2 0x2A4 JUMPI PUSH1 0x1 SLOAD PUSH20 0xFFFFFFFFFFFFFFFFFFFFFFFFFFFFFFFFFFFFFFFF DUP1 DUP3 AND CALLER SUB PUSH2 0xB13 JUMPI PUSH32 0xFFFFFFFFFFFFFFFFFFFFFFFF0000000000000000000000000000000000000000 DUP1 SWAP3 AND PUSH1 0x1 SSTORE DUP3 SLOAD SWAP2 CALLER SWAP1 DUP4 AND OR DUP4 SSTORE CALLER SWAP2 AND PUSH32 0x3D1E4C3A68FED9F4F8315582B7297CF8FA264BC8E6704287603BA8C72BF05AC2 DUP4 DUP1 LOG3 DUP1 RETURN JUMPDEST PUSH1 0x4 PUSH1 0x40 MLOAD PUSH32 0xEE90C46800000000000000000000000000000000000000000000000000000000 DUP2 MSTORE REVERT JUMPDEST POP CALLVALUE PUSH2 0x2A4 JUMPI PUSH1 0x40 PUSH1 0x3 NOT CALLDATASIZE ADD SLT PUSH2 0x2A4 JUMPI PUSH2 0xB57 PUSH2 0x1EF6 JUMP JUMPDEST SWAP1 PUSH1 0x24 SWAP2 PUSH1 0x24 CALLDATALOAD PUSH8 0xFFFFFFFFFFFFFFFF DUP2 GT PUSH2 0xE35 JUMPI PUSH2 0xB7B SWAP1 CALLDATASIZE SWAP1 PUSH1 0x4 ADD PUSH2 0x1E5C JUMP JUMPDEST SWAP1 SWAP2 DUP2 ISZERO PUSH2 0xE31 JUMPI PUSH1 0x40 MLOAD PUSH32 0x6352211E00000000000000000000000000000000000000000000000000000000 DUP1 DUP3 MSTORE DUP5 CALLDATALOAD PUSH1 0x4 DUP4 ADD MSTORE PUSH1 0x20 SWAP7 PUSH20 0xFFFFFFFFFFFFFFFFFFFFFFFFFFFFFFFFFFFFFFFF SWAP4 SWAP3 PUSH32 0x0 DUP6 AND DUP10 DUP3 PUSH1 0x24 DUP2 DUP5 GAS STATICCALL SWAP2 DUP3 ISZERO PUSH2 0xE26 JUMPI DUP10 SWAP3 PUSH2 0xE07 JUMPI JUMPDEST POP SWAP2 DUP2 DUP11 SWAP8 SWAP7 SWAP6 SWAP4 PUSH2 0xC17 DUP12 SWAP7 SWAP5 PUSH2 0x2229 JUMP JUMPDEST PUSH1 0x1 SWAP4 PUSH1 0x1 JUMPDEST DUP10 DUP2 LT PUSH2 0xCE9 JUMPI POP POP POP POP POP POP SWAP1 DUP3 SWAP2 PUSH2 0xC74 PUSH1 0x40 MLOAD SWAP8 DUP9 SWAP7 DUP8 SWAP6 DUP7 SWAP5 PUSH32 0x53EC31D100000000000000000000000000000000000000000000000000000000 DUP7 MSTORE AND PUSH1 0x4 DUP6 ADD MSTORE PUSH1 0x40 PUSH1 0x24 DUP6 ADD MSTORE PUSH1 0x44 DUP5 ADD SWAP2 PUSH2 0x2176 JUMP JUMPDEST SUB SWAP3 PUSH32 0x0 AND GAS CALL SWAP2 DUP3 ISZERO PUSH2 0xCDD JUMPI SWAP2 PUSH2 0xCB0 JUMPI JUMPDEST POP PUSH1 0x40 MLOAD SWAP1 DUP2 MSTORE RETURN JUMPDEST SWAP1 POP DUP2 DUP2 DUP2 RETURNDATASIZE DUP4 GT PUSH2 0xCD6 JUMPI JUMPDEST PUSH2 0xCC7 DUP2 DUP4 PUSH2 0x20B2 JUMP JUMPDEST DUP2 ADD SUB SLT PUSH2 0x29F JUMPI MLOAD CODESIZE PUSH2 0xCA7 JUMP JUMPDEST POP RETURNDATASIZE PUSH2 0xCBD JUMP JUMPDEST PUSH1 0x40 MLOAD SWAP1 RETURNDATASIZE SWAP1 DUP3 RETURNDATACOPY RETURNDATASIZE SWAP1 REVERT JUMPDEST DUP10 DUP2 SWAP4 SWAP6 SWAP8 SWAP10 SWAP11 SWAP12 POP PUSH2 0xD00 SWAP3 SWAP5 SWAP7 SWAP9 POP DUP13 PUSH2 0x205F JUMP JUMPDEST CALLDATALOAD PUSH1 0x40 MLOAD SWAP1 DUP4 DUP3 MSTORE PUSH1 0x4 DUP3 ADD MSTORE DUP13 DUP2 DUP8 DUP2 DUP8 GAS STATICCALL SWAP1 DUP2 ISZERO PUSH2 0xDFC JUMPI DUP13 SWAP2 PUSH2 0xDDF JUMPI JUMPDEST POP DUP9 DUP1 DUP7 AND SWAP2 AND SUB PUSH2 0xD40 JUMPI DUP6 ADD SWAP2 DUP11 SWAP6 SWAP4 SWAP2 DUP13 SWAP10 SWAP9 SWAP8 SWAP6 SWAP4 PUSH2 0xC1D JUMP JUMPDEST DUP12 SWAP2 DUP12 SWAP5 SWAP6 PUSH2 0xD51 DUP5 SWAP4 DUP13 DUP15 PUSH2 0x205F JUMP JUMPDEST CALLDATALOAD SWAP2 PUSH1 0x40 MLOAD SWAP6 DUP7 SWAP4 DUP5 SWAP3 DUP4 MSTORE PUSH1 0x4 DUP4 ADD MSTORE GAS STATICCALL SWAP3 DUP4 ISZERO PUSH2 0xCDD JUMPI SWAP3 PUSH2 0xDC2 JUMPI JUMPDEST POP POP PUSH1 0x40 MLOAD PUSH32 0x4ECF968E00000000000000000000000000000000000000000000000000000000 DUP2 MSTORE PUSH20 0xFFFFFFFFFFFFFFFFFFFFFFFFFFFFFFFFFFFFFFFF SWAP2 DUP3 AND PUSH1 0x4 DUP3 ADD MSTORE SWAP2 AND PUSH1 0x24 DUP3 ADD MSTORE PUSH1 0x44 SWAP1 REVERT JUMPDEST PUSH2 0xDD8 SWAP3 POP DUP1 RETURNDATASIZE LT PUSH2 0x28D JUMPI PUSH2 0x27E DUP2 DUP4 PUSH2 0x20B2 JUMP JUMPDEST DUP3 DUP1 PUSH2 0xD71 JUMP JUMPDEST PUSH2 0xDF6 SWAP2 POP DUP14 DUP1 RETURNDATASIZE LT PUSH2 0x28D JUMPI PUSH2 0x27E DUP2 DUP4 PUSH2 0x20B2 JUMP JUMPDEST CODESIZE PUSH2 0xD22 JUMP JUMPDEST PUSH1 0x40 MLOAD RETURNDATASIZE DUP15 DUP3 RETURNDATACOPY RETURNDATASIZE SWAP1 REVERT JUMPDEST PUSH2 0xE1F SWAP2 SWAP3 POP DUP11 RETURNDATASIZE DUP13 GT PUSH2 0x28D JUMPI PUSH2 0x27E DUP2 DUP4 PUSH2 0x20B2 JUMP JUMPDEST SWAP1 CODESIZE PUSH2 0xC04 JUMP JUMPDEST PUSH1 0x40 MLOAD RETURNDATASIZE DUP12 DUP3 RETURNDATACOPY RETURNDATASIZE SWAP1 REVERT JUMPDEST DUP4 DUP1 REVERT JUMPDEST DUP3 DUP1 REVERT JUMPDEST POP CALLVALUE PUSH2 0x2A4 JUMPI PUSH2 0xE90 SWAP1 PUSH1 0x20 PUSH2 0xE4E CALLDATASIZE PUSH2 0x1F76 JUMP JUMPDEST PUSH2 0xE5C DUP5 SWAP4 SWAP5 SWAP8 SWAP3 SWAP8 PUSH2 0x2229 JUMP JUMPDEST PUSH1 0x40 MLOAD SWAP7 DUP8 SWAP5 DUP6 SWAP5 PUSH32 0x1D56EED000000000000000000000000000000000000000000000000000000000 DUP7 MSTORE PUSH1 0x4 DUP7 ADD PUSH2 0x21B3 JUMP JUMPDEST SUB DUP2 DUP5 PUSH20 0xFFFFFFFFFFFFFFFFFFFFFFFFFFFFFFFFFFFFFFFF PUSH32 0x0 AND GAS CALL SWAP1 DUP2 ISZERO PUSH2 0xCDD JUMPI SWAP1 PUSH2 0xEE4 JUMPI JUMPDEST PUSH1 0x20 SWAP1 PUSH1 0x40 MLOAD SWAP1 DUP2 MSTORE RETURN JUMPDEST POP PUSH1 0x20 DUP2 RETURNDATASIZE PUSH1 0x20 GT PUSH2 0xF0F JUMPI JUMPDEST DUP2 PUSH2 0xEFE PUSH1 0x20 SWAP4 DUP4 PUSH2 0x20B2 JUMP JUMPDEST DUP2 ADD SUB SLT PUSH2 0x29F JUMPI PUSH1 0x20 SWAP1 MLOAD PUSH2 0xED9 JUMP JUMPDEST RETURNDATASIZE SWAP2 POP PUSH2 0xEF1 JUMP JUMPDEST POP CALLVALUE PUSH2 0x2A4 JUMPI PUSH2 0xF6E SWAP1 PUSH1 0x20 PUSH2 0xF2C CALLDATASIZE PUSH2 0x1FE5 JUMP JUMPDEST PUSH2 0xF3A DUP3 SWAP8 SWAP3 SWAP5 SWAP4 SWAP5 PUSH2 0x2229 JUMP JUMPDEST PUSH1 0x40 MLOAD SWAP7 DUP8 SWAP5 DUP6 SWAP5 PUSH32 0x563F233300000000000000000000000000000000000000000000000000000000 DUP7 MSTORE PUSH1 0x4 DUP7 ADD PUSH2 0x21EB JUMP JUMPDEST SUB DUP2 DUP5 PUSH20 0xFFFFFFFFFFFFFFFFFFFFFFFFFFFFFFFFFFFFFFFF PUSH32 0x0 AND GAS CALL SWAP1 DUP2 ISZERO PUSH2 0xCDD JUMPI SWAP1 PUSH2 0xEE4 JUMPI PUSH1 0x20 SWAP1 PUSH1 0x40 MLOAD SWAP1 DUP2 MSTORE RETURN JUMPDEST POP CALLVALUE PUSH2 0x2A4 JUMPI PUSH1 0x20 PUSH1 0x3 NOT CALLDATASIZE ADD SLT PUSH2 0x2A4 JUMPI PUSH1 0xFF PUSH1 0x40 PUSH1 0x20 SWAP3 PUSH20 0xFFFFFFFFFFFFFFFFFFFFFFFFFFFFFFFFFFFFFFFF PUSH2 0xFF7 PUSH2 0x1EF6 JUMP JUMPDEST AND DUP2 MSTORE PUSH1 0x3 DUP5 MSTORE KECCAK256 SLOAD AND PUSH1 0x40 MLOAD SWAP1 ISZERO ISZERO DUP2 MSTORE RETURN JUMPDEST POP CALLVALUE PUSH2 0x2A4 JUMPI DUP1 PUSH1 0x3 NOT CALLDATASIZE ADD SLT PUSH2 0x2A4 JUMPI PUSH1 0x20 PUSH1 0x40 MLOAD PUSH20 0xFFFFFFFFFFFFFFFFFFFFFFFFFFFFFFFFFFFFFFFF PUSH32 0x0 AND DUP2 MSTORE RETURN JUMPDEST POP CALLVALUE PUSH2 0x2A4 JUMPI PUSH2 0xF6E SWAP1 PUSH1 0x20 PUSH2 0x1071 CALLDATASIZE PUSH2 0x1FE5 JUMP JUMPDEST PUSH2 0x107F DUP3 SWAP8 SWAP3 SWAP5 SWAP4 SWAP5 PUSH2 0x2229 JUMP JUMPDEST PUSH1 0x40 MLOAD SWAP7 DUP8 SWAP5 DUP6 SWAP5 PUSH32 0x2AF44D0400000000000000000000000000000000000000000000000000000000 DUP7 MSTORE PUSH1 0x4 DUP7 ADD PUSH2 0x21EB JUMP JUMPDEST POP CALLVALUE PUSH2 0x2A4 JUMPI PUSH1 0x20 PUSH1 0x3 NOT CALLDATASIZE ADD SLT PUSH2 0x2A4 JUMPI PUSH20 0xFFFFFFFFFFFFFFFFFFFFFFFFFFFFFFFFFFFFFFFF PUSH2 0x10E2 PUSH2 0x1EF6 JUMP JUMPDEST PUSH2 0x10EA PUSH2 0x2263 JUMP JUMPDEST AND DUP1 DUP3 MSTORE PUSH1 0x2 PUSH1 0x20 MSTORE PUSH1 0xFF PUSH1 0x40 DUP4 KECCAK256 SLOAD AND PUSH2 0x115B JUMPI DUP1 DUP3 MSTORE PUSH1 0x2 PUSH1 0x20 MSTORE PUSH1 0x40 DUP3 KECCAK256 PUSH1 0x1 PUSH32 0xFFFFFFFFFFFFFFFFFFFFFFFFFFFFFFFFFFFFFFFFFFFFFFFFFFFFFFFFFFFFFF00 DUP3 SLOAD AND OR SWAP1 SSTORE PUSH32 0x3CAB74D2FA2A557FFEB0FD712180CFBEA66CB894CF67FCF8A25B38B9EC5AD96 DUP3 DUP1 LOG2 DUP1 RETURN JUMPDEST PUSH1 0x24 SWAP1 PUSH1 0x40 MLOAD SWAP1 PUSH32 0x5A473FA100000000000000000000000000000000000000000000000000000000 DUP3 MSTORE PUSH1 0x4 DUP3 ADD MSTORE REVERT JUMPDEST POP CALLVALUE PUSH2 0x2A4 JUMPI PUSH1 0x20 PUSH1 0x3 NOT CALLDATASIZE ADD SLT PUSH2 0x2A4 JUMPI PUSH2 0x11A6 PUSH2 0x1EF6 JUMP JUMPDEST CALLER DUP3 MSTORE PUSH1 0x4 PUSH1 0x20 MSTORE PUSH1 0x40 DUP3 KECCAK256 SWAP1 PUSH20 0xFFFFFFFFFFFFFFFFFFFFFFFFFFFFFFFFFFFFFFFF DUP2 AND SWAP2 DUP3 PUSH1 0x0 MSTORE PUSH1 0x20 MSTORE PUSH1 0xFF PUSH1 0x40 PUSH1 0x0 KECCAK256 SLOAD AND ISZERO PUSH2 0x1247 JUMPI POP CALLER DUP3 MSTORE PUSH1 0x4 PUSH1 0x20 MSTORE PUSH1 0x40 DUP3 KECCAK256 DUP2 PUSH1 0x0 MSTORE PUSH1 0x20 MSTORE PUSH1 0x40 PUSH1 0x0 KECCAK256 PUSH32 0xFFFFFFFFFFFFFFFFFFFFFFFFFFFFFFFFFFFFFFFFFFFFFFFFFFFFFFFFFFFFFF00 DUP2 SLOAD AND SWAP1 SSTORE CALLER PUSH32 0x15BB2B66587C2CEBF2C9DB7DC18211188C4C21B135DEE66E2E66309C2E696D51 DUP4 DUP1 LOG3 DUP1 RETURN JUMPDEST PUSH1 0x40 MLOAD PUSH32 0xFB96919D00000000000000000000000000000000000000000000000000000000 DUP2 MSTORE CALLER PUSH1 0x4 DUP3 ADD MSTORE PUSH20 0xFFFFFFFFFFFFFFFFFFFFFFFFFFFFFFFFFFFFFFFF SWAP2 SWAP1 SWAP2 AND PUSH1 0x24 DUP3 ADD MSTORE PUSH1 0x44 SWAP1 REVERT JUMPDEST POP CALLVALUE PUSH2 0x2A4 JUMPI PUSH1 0x20 DUP1 PUSH1 0x3 NOT CALLDATASIZE ADD SLT PUSH2 0x3BE JUMPI PUSH2 0x12B1 PUSH2 0x1EF6 JUMP JUMPDEST SWAP1 CALLER DUP4 MSTORE PUSH1 0x4 DUP2 MSTORE PUSH1 0x40 DUP4 KECCAK256 SWAP2 PUSH20 0xFFFFFFFFFFFFFFFFFFFFFFFFFFFFFFFFFFFFFFFF DUP2 AND SWAP3 DUP4 PUSH1 0x0 MSTORE DUP3 MSTORE PUSH1 0xFF PUSH1 0x40 PUSH1 0x0 KECCAK256 SLOAD AND PUSH2 0x1396 JUMPI POP DUP2 DUP4 MSTORE PUSH1 0x2 DUP2 MSTORE PUSH1 0xFF PUSH1 0x40 DUP5 KECCAK256 SLOAD AND ISZERO PUSH2 0x1365 JUMPI CALLER DUP4 MSTORE PUSH1 0x4 DUP2 MSTORE PUSH1 0x40 DUP4 KECCAK256 SWAP1 DUP3 PUSH1 0x0 MSTORE MSTORE PUSH1 0x40 PUSH1 0x0 KECCAK256 PUSH1 0x1 PUSH32 0xFFFFFFFFFFFFFFFFFFFFFFFFFFFFFFFFFFFFFFFFFFFFFFFFFFFFFFFFFFFFFF00 DUP3 SLOAD AND OR SWAP1 SSTORE CALLER PUSH32 0x66075E2684E8CBBD5DD40F4ECFA3CB7E9903D1B492D8484496B579070DD080B4 DUP4 DUP1 LOG3 DUP1 RETURN JUMPDEST PUSH1 0x24 DUP3 PUSH1 0x40 MLOAD SWAP1 PUSH32 0x6971162900000000000000000000000000000000000000000000000000000000 DUP3 MSTORE PUSH1 0x4 DUP3 ADD MSTORE REVERT JUMPDEST PUSH1 0x40 MLOAD PUSH32 0xA7ED43A100000000000000000000000000000000000000000000000000000000 DUP2 MSTORE CALLER PUSH1 0x4 DUP3 ADD MSTORE PUSH20 0xFFFFFFFFFFFFFFFFFFFFFFFFFFFFFFFFFFFFFFFF SWAP2 SWAP1 SWAP2 AND PUSH1 0x24 DUP3 ADD MSTORE PUSH1 0x44 SWAP1 REVERT JUMPDEST POP CALLVALUE PUSH2 0x2A4 JUMPI PUSH1 0xA0 PUSH1 0x3 NOT CALLDATASIZE ADD SLT PUSH2 0x2A4 JUMPI PUSH2 0x13FF PUSH2 0x1EF6 JUMP JUMPDEST PUSH2 0x1407 PUSH2 0x1EB0 JUMP JUMPDEST SWAP1 PUSH1 0x20 PUSH2 0x1412 PUSH2 0x1FD5 JUMP JUMPDEST SWAP3 PUSH1 0x84 PUSH2 0x141D PUSH2 0x1F38 JUMP JUMPDEST SWAP2 DUP7 PUSH2 0x1427 PUSH2 0x1F57 JUMP JUMPDEST PUSH2 0x1430 DUP4 PUSH2 0x2229 JUMP JUMPDEST PUSH20 0xFFFFFFFFFFFFFFFFFFFFFFFFFFFFFFFFFFFFFFFF SWAP7 DUP8 SWAP6 DUP7 SWAP3 PUSH1 0xFF PUSH1 0x40 MLOAD SWAP12 DUP13 SWAP10 DUP11 SWAP9 PUSH32 0x89E1081700000000000000000000000000000000000000000000000000000000 DUP11 MSTORE AND PUSH1 0x4 DUP10 ADD MSTORE AND PUSH1 0x24 DUP8 ADD MSTORE PUSH16 0xFFFFFFFFFFFFFFFFFFFFFFFFFFFFFFFF DUP1 SWAP3 AND PUSH1 0x44 DUP8 ADD MSTORE AND PUSH1 0x64 DUP6 ADD MSTORE AND GAS CALL SWAP2 DUP3 ISZERO PUSH2 0x294 JUMPI PUSH1 0x20 SWAP4 SWAP3 PUSH2 0x265 JUMPI POP PUSH1 0x40 MLOAD SWAP2 AND DUP2 MSTORE RETURN JUMPDEST POP CALLVALUE PUSH2 0x2A4 JUMPI PUSH1 0x20 PUSH1 0x3 NOT CALLDATASIZE ADD SLT PUSH2 0x2A4 JUMPI PUSH1 0xFF PUSH1 0x40 PUSH1 0x20 SWAP3 PUSH20 0xFFFFFFFFFFFFFFFFFFFFFFFFFFFFFFFFFFFFFFFF PUSH2 0x14F4 PUSH2 0x1EF6 JUMP JUMPDEST AND DUP2 MSTORE PUSH1 0x2 DUP5 MSTORE KECCAK256 SLOAD AND PUSH1 0x40 MLOAD SWAP1 ISZERO ISZERO DUP2 MSTORE RETURN JUMPDEST POP CALLVALUE PUSH2 0x2A4 JUMPI DUP1 PUSH1 0x3 NOT CALLDATASIZE ADD SLT PUSH2 0x2A4 JUMPI PUSH1 0x20 PUSH20 0xFFFFFFFFFFFFFFFFFFFFFFFFFFFFFFFFFFFFFFFF PUSH1 0x1 SLOAD AND PUSH1 0x40 MLOAD SWAP1 DUP2 MSTORE RETURN JUMPDEST POP CALLVALUE PUSH2 0x2A4 JUMPI PUSH1 0x80 PUSH1 0x3 NOT CALLDATASIZE ADD SLT PUSH2 0x2A4 JUMPI PUSH1 0x4 CALLDATALOAD PUSH20 0xFFFFFFFFFFFFFFFFFFFFFFFFFFFFFFFFFFFFFFFF DUP2 AND DUP1 SWAP2 SUB PUSH2 0x3BE JUMPI PUSH2 0x1577 PUSH2 0x1EB0 JUMP JUMPDEST PUSH2 0x157F PUSH2 0x1E8D JUMP JUMPDEST PUSH2 0x1588 DUP3 PUSH2 0x2229 JUMP JUMPDEST PUSH1 0x40 MLOAD PUSH32 0x23B872DD00000000000000000000000000000000000000000000000000000000 PUSH1 0x20 DUP1 DUP4 ADD SWAP2 DUP3 MSTORE PUSH20 0xFFFFFFFFFFFFFFFFFFFFFFFFFFFFFFFFFFFFFFFF SWAP5 DUP6 AND PUSH1 0x24 DUP5 ADD MSTORE SWAP3 SWAP1 SWAP4 AND PUSH1 0x44 DUP3 ADD MSTORE PUSH1 0x64 DUP1 CALLDATALOAD DUP2 DUP4 ADD MSTORE DUP2 MSTORE SWAP1 SWAP2 SWAP1 PUSH32 0xFFFFFFFFFFFFFFFFFFFFFFFFFFFFFFFFFFFFFFFFFFFFFFFFFFFFFFFFFFFFFFE0 PUSH2 0x1613 PUSH1 0x84 DUP4 PUSH2 0x20B2 JUMP JUMPDEST PUSH1 0x40 MLOAD SWAP2 PUSH1 0x40 DUP4 ADD PUSH8 0xFFFFFFFFFFFFFFFF SWAP5 DUP5 DUP3 LT DUP7 DUP4 GT OR PUSH2 0x1706 JUMPI DUP9 SWAP3 DUP4 SWAP3 PUSH1 0x40 MSTORE PUSH1 0x1E DUP7 MSTORE PUSH32 0x416464726573733A206C6F772D6C6576656C2063616C6C206661696C65640000 DUP9 DUP8 ADD MSTORE MLOAD SWAP1 DUP3 DUP10 GAS CALL RETURNDATASIZE ISZERO PUSH2 0x1735 JUMPI RETURNDATASIZE SWAP4 DUP5 GT PUSH2 0x1706 JUMPI PUSH2 0x169B SWAP4 PUSH2 0x168C DUP7 PUSH1 0x40 MLOAD SWAP5 PUSH1 0x1F DUP5 ADD AND ADD DUP5 PUSH2 0x20B2 JUMP JUMPDEST DUP3 MSTORE RETURNDATASIZE DUP8 DUP7 DUP5 ADD RETURNDATACOPY JUMPDEST DUP6 PUSH2 0x2284 JUMP JUMPDEST DUP1 MLOAD SWAP2 DUP3 ISZERO ISZERO SWAP2 DUP3 PUSH2 0x16E5 JUMPI JUMPDEST POP POP SWAP1 POP PUSH2 0x16B4 JUMPI POP DUP1 RETURN JUMPDEST PUSH1 0x24 SWAP1 PUSH1 0x40 MLOAD SWAP1 PUSH32 0x5274AFE700000000000000000000000000000000000000000000000000000000 DUP3 MSTORE PUSH1 0x4 DUP3 ADD MSTORE REVERT JUMPDEST DUP1 SWAP3 POP DUP2 SWAP4 DUP2 ADD SUB SLT PUSH2 0xE31 JUMPI ADD MLOAD DUP1 ISZERO SWAP1 DUP2 ISZERO SUB PUSH2 0xE35 JUMPI DUP1 CODESIZE DUP1 PUSH2 0x16A8 JUMP JUMPDEST PUSH32 0x4E487B7100000000000000000000000000000000000000000000000000000000 PUSH1 0x0 MSTORE PUSH1 0x41 PUSH1 0x4 MSTORE PUSH1 0x24 PUSH1 0x0 REVERT JUMPDEST PUSH2 0x169B SWAP4 POP PUSH1 0x60 SWAP2 POP PUSH2 0x1695 JUMP JUMPDEST POP CALLVALUE PUSH2 0x2A4 JUMPI PUSH2 0xE90 SWAP1 PUSH1 0x20 PUSH2 0x1758 CALLDATASIZE PUSH2 0x1F76 JUMP JUMPDEST PUSH2 0x1766 DUP5 SWAP4 SWAP5 SWAP8 SWAP3 SWAP8 PUSH2 0x2229 JUMP JUMPDEST PUSH1 0x40 MLOAD SWAP7 DUP8 SWAP5 DUP6 SWAP5 PUSH32 0x24CF567100000000000000000000000000000000000000000000000000000000 DUP7 MSTORE PUSH1 0x4 DUP7 ADD PUSH2 0x21B3 JUMP JUMPDEST POP CALLVALUE PUSH2 0x2A4 JUMPI DUP1 PUSH1 0x3 NOT CALLDATASIZE ADD SLT PUSH2 0x2A4 JUMPI PUSH1 0x20 PUSH1 0x40 MLOAD PUSH20 0xFFFFFFFFFFFFFFFFFFFFFFFFFFFFFFFFFFFFFFFF PUSH32 0x0 AND DUP2 MSTORE RETURN JUMPDEST POP CALLVALUE PUSH2 0x2A4 JUMPI DUP1 PUSH1 0x3 NOT CALLDATASIZE ADD SLT PUSH2 0x2A4 JUMPI PUSH20 0xFFFFFFFFFFFFFFFFFFFFFFFFFFFFFFFFFFFFFFFF PUSH1 0x20 SWAP2 SLOAD AND PUSH1 0x40 MLOAD SWAP1 DUP2 MSTORE RETURN JUMPDEST POP CALLVALUE PUSH2 0x2A4 JUMPI PUSH1 0x80 PUSH1 0x3 NOT CALLDATASIZE ADD SLT PUSH2 0x2A4 JUMPI PUSH2 0x1838 PUSH2 0x1EF6 JUMP JUMPDEST DUP2 PUSH2 0x1841 PUSH2 0x1EB0 JUMP JUMPDEST SWAP2 PUSH2 0x184A PUSH2 0x1F19 JUMP JUMPDEST SWAP3 PUSH2 0x1853 PUSH2 0x1ED3 JUMP JUMPDEST SWAP1 PUSH2 0x185D DUP2 PUSH2 0x2229 JUMP JUMPDEST PUSH20 0xFFFFFFFFFFFFFFFFFFFFFFFFFFFFFFFFFFFFFFFF DUP1 SWAP4 AND SWAP2 DUP3 EXTCODESIZE ISZERO PUSH2 0x5AF JUMPI PUSH1 0x64 SWAP3 DUP5 DUP7 SWAP3 PUSH16 0xFFFFFFFFFFFFFFFFFFFFFFFFFFFFFFFF PUSH1 0x40 MLOAD SWAP10 DUP11 SWAP9 DUP10 SWAP8 PUSH32 0x8ABCC9FB00000000000000000000000000000000000000000000000000000000 DUP10 MSTORE AND PUSH1 0x4 DUP9 ADD MSTORE AND PUSH1 0x24 DUP7 ADD MSTORE AND PUSH1 0x44 DUP5 ADD MSTORE GAS CALL DUP1 ISZERO PUSH2 0x3CA JUMPI PUSH2 0x18E1 JUMPI POP DUP1 RETURN JUMPDEST PUSH2 0x18EA SWAP1 PUSH2 0x209E JUMP JUMPDEST DUP1 RETURN JUMPDEST POP CALLVALUE PUSH2 0x2A4 JUMPI DUP1 PUSH1 0x3 NOT CALLDATASIZE ADD SLT PUSH2 0x2A4 JUMPI PUSH1 0x20 PUSH1 0x40 MLOAD PUSH20 0xFFFFFFFFFFFFFFFFFFFFFFFFFFFFFFFFFFFFFFFF PUSH32 0x0 AND DUP2 MSTORE RETURN JUMPDEST POP CALLVALUE PUSH2 0x2A4 JUMPI PUSH1 0x60 PUSH1 0x3 NOT CALLDATASIZE ADD SLT PUSH2 0x2A4 JUMPI PUSH2 0x1958 PUSH2 0x1EF6 JUMP JUMPDEST SWAP1 PUSH1 0x24 CALLDATALOAD PUSH2 0x1964 PUSH2 0x1E8D JUMP JUMPDEST PUSH20 0xFFFFFFFFFFFFFFFFFFFFFFFFFFFFFFFFFFFFFFFF SWAP2 PUSH1 0x40 MLOAD SWAP5 PUSH32 0x6352211E00000000000000000000000000000000000000000000000000000000 DUP7 MSTORE DUP2 PUSH1 0x4 DUP8 ADD MSTORE PUSH1 0x20 SWAP6 DUP7 DUP2 PUSH1 0x24 DUP2 DUP9 PUSH32 0x0 AND GAS STATICCALL SWAP1 DUP2 ISZERO PUSH2 0x5D2 JUMPI DUP6 PUSH1 0x44 SWAP4 PUSH2 0x19F4 DUP11 SWAP8 SWAP7 SWAP5 DUP11 SWAP5 DUP6 SWAP2 PUSH2 0x1A75 JUMPI POP PUSH2 0x2229 JUMP JUMPDEST PUSH1 0x40 MLOAD SWAP8 DUP9 SWAP7 DUP8 SWAP6 PUSH32 0xD125865F00000000000000000000000000000000000000000000000000000000 DUP8 MSTORE PUSH1 0x4 DUP8 ADD MSTORE AND PUSH1 0x24 DUP6 ADD MSTORE AND GAS CALL SWAP2 DUP3 ISZERO PUSH2 0xCDD JUMPI DUP1 SWAP3 PUSH2 0x1A45 JUMPI JUMPDEST POP POP PUSH1 0x40 MLOAD SWAP1 DUP2 MSTORE RETURN JUMPDEST SWAP1 SWAP2 POP DUP3 DUP3 DUP2 RETURNDATASIZE DUP4 GT PUSH2 0x1A6E JUMPI JUMPDEST PUSH2 0x1A5D DUP2 DUP4 PUSH2 0x20B2 JUMP JUMPDEST DUP2 ADD SUB SLT PUSH2 0x2A4 JUMPI POP MLOAD CODESIZE DUP1 PUSH2 0x1A3B JUMP JUMPDEST POP RETURNDATASIZE PUSH2 0x1A53 JUMP JUMPDEST PUSH2 0x5CC SWAP2 POP DUP10 RETURNDATASIZE DUP12 GT PUSH2 0x28D JUMPI PUSH2 0x27E DUP2 DUP4 PUSH2 0x20B2 JUMP JUMPDEST SWAP1 POP CALLVALUE PUSH2 0x3BE JUMPI PUSH1 0x60 PUSH1 0x3 NOT CALLDATASIZE ADD SLT PUSH2 0x3BE JUMPI PUSH8 0xFFFFFFFFFFFFFFFF SWAP1 PUSH1 0x4 CALLDATALOAD DUP3 DUP2 GT PUSH2 0xE31 JUMPI PUSH2 0x1AC1 SWAP1 CALLDATASIZE SWAP1 PUSH1 0x4 ADD PUSH2 0x1E5C JUMP JUMPDEST SWAP2 SWAP1 SWAP3 PUSH1 0x24 CALLDATALOAD SWAP1 DUP2 GT PUSH2 0x5AF JUMPI PUSH2 0x1ADC SWAP1 CALLDATASIZE SWAP1 PUSH1 0x4 ADD PUSH2 0x1E5C JUMP JUMPDEST PUSH2 0x1AE4 PUSH2 0x1E8D JUMP JUMPDEST SWAP3 DUP2 ISZERO PUSH2 0x1E58 JUMPI PUSH32 0x6352211E00000000000000000000000000000000000000000000000000000000 DUP2 MSTORE DUP3 CALLDATALOAD PUSH1 0x4 DUP3 ADD MSTORE PUSH1 0x20 DUP2 PUSH1 0x24 DUP2 PUSH20 0xFFFFFFFFFFFFFFFFFFFFFFFFFFFFFFFFFFFFFFFF PUSH32 0x0 AND GAS STATICCALL SWAP1 DUP2 ISZERO PUSH2 0x93B JUMPI DUP8 SWAP2 PUSH2 0x1E39 JUMPI JUMPDEST POP PUSH2 0x1B6C DUP2 PUSH2 0x2229 JUMP JUMPDEST PUSH1 0x1 JUMPDEST DUP3 DUP2 LT PUSH2 0x1C79 JUMPI DUP8 PUSH2 0x1BD5 PUSH1 0x20 DUP10 DUP10 DUP10 PUSH20 0xFFFFFFFFFFFFFFFFFFFFFFFFFFFFFFFFFFFFFFFF PUSH2 0x1BE7 DUP12 DUP12 PUSH1 0x40 MLOAD SWAP9 DUP10 SWAP8 DUP9 SWAP8 PUSH32 0xDE759E800000000000000000000000000000000000000000000000000000000 DUP10 MSTORE PUSH1 0x60 PUSH1 0x4 DUP11 ADD MSTORE PUSH1 0x64 DUP10 ADD SWAP2 PUSH2 0x211F JUMP JUMPDEST SWAP2 PUSH1 0x3 NOT DUP8 DUP5 SUB ADD PUSH1 0x24 DUP9 ADD MSTORE PUSH2 0x2176 JUMP JUMPDEST SWAP2 AND PUSH1 0x44 DUP4 ADD MSTORE SUB DUP2 DUP6 PUSH20 0xFFFFFFFFFFFFFFFFFFFFFFFFFFFFFFFFFFFFFFFF PUSH32 0x0 AND GAS CALL SWAP1 DUP2 ISZERO PUSH2 0x3CA JUMPI DUP3 SWAP2 PUSH2 0x1C43 JUMPI JUMPDEST PUSH1 0x20 DUP3 PUSH1 0x40 MLOAD SWAP1 DUP2 MSTORE RETURN JUMPDEST SWAP1 POP PUSH1 0x20 DUP2 RETURNDATASIZE PUSH1 0x20 GT PUSH2 0x1C71 JUMPI JUMPDEST DUP2 PUSH2 0x1C5E PUSH1 0x20 SWAP4 DUP4 PUSH2 0x20B2 JUMP JUMPDEST DUP2 ADD SUB SLT PUSH2 0x3BE JUMPI PUSH1 0x20 SWAP2 POP MLOAD DUP3 PUSH2 0x1C38 JUMP JUMPDEST RETURNDATASIZE SWAP2 POP PUSH2 0x1C51 JUMP JUMPDEST PUSH2 0x1C84 DUP2 DUP5 DUP7 PUSH2 0x205F JUMP JUMPDEST CALLDATALOAD PUSH1 0x40 MLOAD SWAP1 PUSH32 0x6352211E00000000000000000000000000000000000000000000000000000000 DUP3 MSTORE PUSH1 0x4 DUP3 ADD MSTORE PUSH1 0x20 DUP2 PUSH1 0x24 DUP2 PUSH20 0xFFFFFFFFFFFFFFFFFFFFFFFFFFFFFFFFFFFFFFFF PUSH32 0x0 AND GAS STATICCALL SWAP1 DUP2 ISZERO PUSH2 0xE26 JUMPI DUP10 SWAP2 PUSH2 0x1E1A JUMPI JUMPDEST POP PUSH20 0xFFFFFFFFFFFFFFFFFFFFFFFFFFFFFFFFFFFFFFFF DUP1 DUP5 AND SWAP2 AND SUB PUSH2 0x1D26 JUMPI PUSH1 0x1 ADD PUSH2 0x1B6F JUMP JUMPDEST DUP8 SWAP3 PUSH2 0x1D32 SWAP3 SWAP5 PUSH2 0x205F JUMP JUMPDEST CALLDATALOAD PUSH1 0x40 MLOAD SWAP1 PUSH32 0x6352211E00000000000000000000000000000000000000000000000000000000 DUP3 MSTORE PUSH1 0x4 DUP3 ADD MSTORE PUSH1 0x20 DUP2 PUSH1 0x24 DUP2 PUSH20 0xFFFFFFFFFFFFFFFFFFFFFFFFFFFFFFFFFFFFFFFF PUSH32 0x0 AND GAS STATICCALL SWAP2 DUP3 ISZERO PUSH2 0xCDD JUMPI SWAP2 PUSH2 0x1DFB JUMPI JUMPDEST POP PUSH1 0x40 MLOAD PUSH32 0x4ECF968E00000000000000000000000000000000000000000000000000000000 DUP2 MSTORE PUSH20 0xFFFFFFFFFFFFFFFFFFFFFFFFFFFFFFFFFFFFFFFF SWAP2 DUP3 AND PUSH1 0x4 DUP3 ADD MSTORE SWAP2 AND PUSH1 0x24 DUP3 ADD MSTORE PUSH1 0x44 SWAP1 REVERT JUMPDEST PUSH2 0x1E14 SWAP2 POP PUSH1 0x20 RETURNDATASIZE PUSH1 0x20 GT PUSH2 0x28D JUMPI PUSH2 0x27E DUP2 DUP4 PUSH2 0x20B2 JUMP JUMPDEST DUP3 PUSH2 0x1DAB JUMP JUMPDEST PUSH2 0x1E33 SWAP2 POP PUSH1 0x20 RETURNDATASIZE PUSH1 0x20 GT PUSH2 0x28D JUMPI PUSH2 0x27E DUP2 DUP4 PUSH2 0x20B2 JUMP JUMPDEST CODESIZE PUSH2 0x1CFE JUMP JUMPDEST PUSH2 0x1E52 SWAP2 POP PUSH1 0x20 RETURNDATASIZE PUSH1 0x20 GT PUSH2 0x28D JUMPI PUSH2 0x27E DUP2 DUP4 PUSH2 0x20B2 JUMP JUMPDEST CODESIZE PUSH2 0x1B62 JUMP JUMPDEST DUP7 DUP1 REVERT JUMPDEST SWAP2 DUP2 PUSH1 0x1F DUP5 ADD SLT ISZERO PUSH2 0x29F JUMPI DUP3 CALLDATALOAD SWAP2 PUSH8 0xFFFFFFFFFFFFFFFF DUP4 GT PUSH2 0x29F JUMPI PUSH1 0x20 DUP1 DUP6 ADD SWAP5 DUP5 PUSH1 0x5 SHL ADD ADD GT PUSH2 0x29F JUMPI JUMP JUMPDEST PUSH1 0x44 CALLDATALOAD SWAP1 PUSH20 0xFFFFFFFFFFFFFFFFFFFFFFFFFFFFFFFFFFFFFFFF DUP3 AND DUP3 SUB PUSH2 0x29F JUMPI JUMP JUMPDEST PUSH1 0x24 CALLDATALOAD SWAP1 PUSH20 0xFFFFFFFFFFFFFFFFFFFFFFFFFFFFFFFFFFFFFFFF DUP3 AND DUP3 SUB PUSH2 0x29F JUMPI JUMP JUMPDEST PUSH1 0x64 CALLDATALOAD SWAP1 PUSH20 0xFFFFFFFFFFFFFFFFFFFFFFFFFFFFFFFFFFFFFFFF DUP3 AND DUP3 SUB PUSH2 0x29F JUMPI JUMP JUMPDEST PUSH1 0x4 CALLDATALOAD SWAP1 PUSH20 0xFFFFFFFFFFFFFFFFFFFFFFFFFFFFFFFFFFFFFFFF DUP3 AND DUP3 SUB PUSH2 0x29F JUMPI JUMP JUMPDEST PUSH1 0x44 CALLDATALOAD SWAP1 PUSH16 0xFFFFFFFFFFFFFFFFFFFFFFFFFFFFFFFF DUP3 AND DUP3 SUB PUSH2 0x29F JUMPI JUMP JUMPDEST PUSH1 0x64 CALLDATALOAD SWAP1 PUSH16 0xFFFFFFFFFFFFFFFFFFFFFFFFFFFFFFFF DUP3 AND DUP3 SUB PUSH2 0x29F JUMPI JUMP JUMPDEST PUSH1 0x84 CALLDATALOAD SWAP1 PUSH16 0xFFFFFFFFFFFFFFFFFFFFFFFFFFFFFFFF DUP3 AND DUP3 SUB PUSH2 0x29F JUMPI JUMP JUMPDEST PUSH1 0x60 PUSH1 0x3 NOT DUP3 ADD SLT PUSH2 0x29F JUMPI PUSH20 0xFFFFFFFFFFFFFFFFFFFFFFFFFFFFFFFFFFFFFFFF SWAP2 PUSH1 0x4 CALLDATALOAD DUP4 DUP2 AND DUP2 SUB PUSH2 0x29F JUMPI SWAP3 PUSH1 0x24 CALLDATALOAD SWAP1 DUP2 AND DUP2 SUB PUSH2 0x29F JUMPI SWAP2 PUSH1 0x44 CALLDATALOAD SWAP1 PUSH8 0xFFFFFFFFFFFFFFFF DUP3 GT PUSH2 0x29F JUMPI PUSH2 0x1FD1 SWAP2 PUSH1 0x4 ADD PUSH2 0x1E5C JUMP JUMPDEST SWAP1 SWAP2 JUMP JUMPDEST PUSH1 0x44 CALLDATALOAD SWAP1 PUSH1 0xFF DUP3 AND DUP3 SUB PUSH2 0x29F JUMPI JUMP JUMPDEST PUSH1 0x60 PUSH1 0x3 NOT DUP3 ADD SLT PUSH2 0x29F JUMPI PUSH1 0x4 CALLDATALOAD SWAP1 PUSH8 0xFFFFFFFFFFFFFFFF DUP3 GT PUSH2 0x29F JUMPI PUSH2 0x2010 SWAP2 PUSH1 0x4 ADD PUSH2 0x1E5C JUMP JUMPDEST SWAP1 SWAP2 PUSH20 0xFFFFFFFFFFFFFFFFFFFFFFFFFFFFFFFFFFFFFFFF SWAP1 PUSH1 0x24 CALLDATALOAD DUP3 DUP2 AND DUP2 SUB PUSH2 0x29F JUMPI SWAP2 PUSH1 0x44 CALLDATALOAD SWAP1 DUP2 AND DUP2 SUB PUSH2 0x29F JUMPI SWAP1 JUMP JUMPDEST PUSH1 0x24 CALLDATALOAD SWAP1 PUSH12 0xFFFFFFFFFFFFFFFFFFFFFFFF DUP3 AND DUP3 SUB PUSH2 0x29F JUMPI JUMP JUMPDEST SWAP2 SWAP1 DUP2 LT ISZERO PUSH2 0x206F JUMPI PUSH1 0x5 SHL ADD SWAP1 JUMP JUMPDEST PUSH32 0x4E487B7100000000000000000000000000000000000000000000000000000000 PUSH1 0x0 MSTORE PUSH1 0x32 PUSH1 0x4 MSTORE PUSH1 0x24 PUSH1 0x0 REVERT JUMPDEST PUSH8 0xFFFFFFFFFFFFFFFF DUP2 GT PUSH2 0x1706 JUMPI PUSH1 0x40 MSTORE JUMP JUMPDEST SWAP1 PUSH1 0x1F PUSH32 0xFFFFFFFFFFFFFFFFFFFFFFFFFFFFFFFFFFFFFFFFFFFFFFFFFFFFFFFFFFFFFFE0 SWAP2 ADD AND DUP2 ADD SWAP1 DUP2 LT PUSH8 0xFFFFFFFFFFFFFFFF DUP3 GT OR PUSH2 0x1706 JUMPI PUSH1 0x40 MSTORE JUMP JUMPDEST SWAP1 DUP2 PUSH1 0x20 SWAP2 SUB SLT PUSH2 0x29F JUMPI MLOAD PUSH20 0xFFFFFFFFFFFFFFFFFFFFFFFFFFFFFFFFFFFFFFFF DUP2 AND DUP2 SUB PUSH2 0x29F JUMPI SWAP1 JUMP JUMPDEST SWAP2 SWAP1 DUP1 DUP3 MSTORE PUSH1 0x20 DUP1 SWAP3 ADD SWAP3 SWAP2 PUSH1 0x0 DUP1 JUMPDEST DUP4 DUP3 LT PUSH2 0x213E JUMPI POP POP POP POP POP SWAP1 JUMP JUMPDEST SWAP1 SWAP2 SWAP3 SWAP4 SWAP5 DUP6 CALLDATALOAD PUSH20 0xFFFFFFFFFFFFFFFFFFFFFFFFFFFFFFFFFFFFFFFF DUP2 AND DUP1 SWAP2 SUB PUSH2 0xE35 JUMPI DUP2 MSTORE DUP4 ADD SWAP5 DUP4 ADD SWAP4 SWAP3 SWAP2 PUSH1 0x1 ADD SWAP1 PUSH2 0x212F JUMP JUMPDEST SWAP1 SWAP2 DUP3 DUP2 MSTORE PUSH32 0x7FFFFFFFFFFFFFFFFFFFFFFFFFFFFFFFFFFFFFFFFFFFFFFFFFFFFFFFFFFFFFF DUP4 GT PUSH2 0x29F JUMPI PUSH1 0x20 SWAP3 PUSH1 0x5 SHL DUP1 SWAP3 DUP5 DUP4 ADD CALLDATACOPY ADD ADD SWAP1 JUMP JUMPDEST PUSH1 0x60 SWAP2 PUSH2 0x21E8 SWAP6 SWAP4 PUSH20 0xFFFFFFFFFFFFFFFFFFFFFFFFFFFFFFFFFFFFFFFF DUP1 SWAP3 AND DUP4 MSTORE AND PUSH1 0x20 DUP3 ADD MSTORE DUP2 PUSH1 0x40 DUP3 ADD MSTORE ADD SWAP2 PUSH2 0x2176 JUMP JUMPDEST SWAP1 JUMP JUMPDEST SWAP3 SWAP1 PUSH2 0x2205 SWAP1 PUSH1 0x40 SWAP4 SWAP7 SWAP6 SWAP7 PUSH1 0x60 DUP7 MSTORE PUSH1 0x60 DUP7 ADD SWAP2 PUSH2 0x211F JUMP JUMPDEST SWAP5 PUSH20 0xFFFFFFFFFFFFFFFFFFFFFFFFFFFFFFFFFFFFFFFF DUP1 SWAP3 AND PUSH1 0x20 DUP6 ADD MSTORE AND SWAP2 ADD MSTORE JUMP JUMPDEST PUSH20 0xFFFFFFFFFFFFFFFFFFFFFFFFFFFFFFFFFFFFFFFF AND PUSH1 0x0 MSTORE PUSH1 0x4 PUSH1 0x20 MSTORE PUSH1 0x40 PUSH1 0x0 KECCAK256 CALLER PUSH1 0x0 MSTORE PUSH1 0x20 MSTORE PUSH1 0xFF PUSH1 0x40 PUSH1 0x0 KECCAK256 SLOAD AND ISZERO PUSH2 0x6DC JUMPI JUMP JUMPDEST PUSH20 0xFFFFFFFFFFFFFFFFFFFFFFFFFFFFFFFFFFFFFFFF PUSH1 0x0 SLOAD AND CALLER SUB PUSH2 0xB13 JUMPI JUMP JUMPDEST SWAP2 SWAP3 SWAP1 ISZERO PUSH2 0x22FF JUMPI POP DUP2 MLOAD ISZERO PUSH2 0x2298 JUMPI POP SWAP1 JUMP JUMPDEST EXTCODESIZE ISZERO PUSH2 0x22A1 JUMPI SWAP1 JUMP JUMPDEST PUSH1 0x64 PUSH1 0x40 MLOAD PUSH32 0x8C379A000000000000000000000000000000000000000000000000000000000 DUP2 MSTORE PUSH1 0x20 PUSH1 0x4 DUP3 ADD MSTORE PUSH1 0x1D PUSH1 0x24 DUP3 ADD MSTORE PUSH32 0x416464726573733A2063616C6C20746F206E6F6E2D636F6E7472616374000000 PUSH1 0x44 DUP3 ADD MSTORE REVERT JUMPDEST DUP3 MLOAD SWAP1 SWAP2 POP ISZERO PUSH2 0x2312 JUMPI POP DUP1 MLOAD SWAP1 PUSH1 0x20 ADD REVERT JUMPDEST PUSH1 0x40 MLOAD SWAP1 PUSH32 0x8C379A000000000000000000000000000000000000000000000000000000000 DUP3 MSTORE DUP2 PUSH1 0x20 DUP1 PUSH1 0x4 DUP4 ADD MSTORE DUP3 MLOAD SWAP3 DUP4 PUSH1 0x24 DUP5 ADD MSTORE PUSH1 0x0 JUMPDEST DUP5 DUP2 LT PUSH2 0x238F JUMPI POP POP POP PUSH32 0xFFFFFFFFFFFFFFFFFFFFFFFFFFFFFFFFFFFFFFFFFFFFFFFFFFFFFFFFFFFFFFE0 PUSH1 0x1F DUP4 PUSH1 0x0 PUSH1 0x44 DUP1 SWAP7 DUP7 ADD ADD MSTORE ADD AND DUP2 ADD SUB ADD SWAP1 REVERT JUMPDEST DUP2 DUP2 ADD DUP4 ADD MLOAD DUP7 DUP3 ADD PUSH1 0x44 ADD MSTORE DUP6 SWAP4 POP DUP3 ADD PUSH2 0x234E JUMP INVALID LOG2 PUSH5 0x6970667358 0x22 SLT KECCAK256 0xC1 LT AND SWAP3 GT PREVRANDAO 0xD6 0xA8 SWAP6 0xBD SWAP11 0x29 CALLDATALOAD SDIV 0xE0 EXTCODECOPY EQ KECCAK256 0xBB 0x25 0xF8 CREATE2 CHAINID RETURN LOG0 0x4D POP STOP LOG3 EXTCODESIZE PUSH16 0xB364736F6C6343000818003300000000 "},"methodIdentifiers":{"EFC()":"1420f802","acceptGov()":"7bc6729b","approvePlugin(address)":"38c74dd9","changeGov(address)":"a962ef1e","feeDistributor()":"0d43e8ad","gov()":"12d43a51","isPluginApproved(address,address)":"afbb3831","isRegisteredLiquidator(address)":"60f6f14b","pendingGov()":"25240810","pluginAdjustLiquidityPositionMargin(address,uint96,int128,address)":"ae39e59c","pluginCloseLiquidityPosition(address,uint96,address)":"c67f1a35","pluginClosePositionByLiquidator(address,address,uint8,uint128,address)":"c171f0b0","pluginCollectArchitectRewardBatch(address,uint256[])":"786bccf2","pluginCollectFarmLiquidityRewardBatch(address[],address,address)":"525c8656","pluginCollectFarmReferralRewardBatch(address[],uint256[],address)":"03dbee4d","pluginCollectFarmRiskBufferFundRewardBatch(address[],address,address)":"64fdd23c","pluginCollectReferralFee(address,uint256,address)":"0cfe3642","pluginCollectStakingRewardBatch(address,address,uint256[])":"724fa771","pluginCollectV3PosStakingRewardBatch(address,address,uint256[])":"18602c7b","pluginDecreasePosition(address,address,uint8,uint128,uint128,address)":"f86786f1","pluginDecreaseRiskBufferFundPosition(address,address,uint128,address)":"10e8667b","pluginIncreasePosition(address,address,uint8,uint128,uint128)":"2a5a2cca","pluginIncreaseRiskBufferFundPosition(address,address,uint128)":"8c96742e","pluginOpenLiquidityPosition(address,address,uint128,uint128)":"f5d01c53","pluginTransfer(address,address,address,uint256)":"1b827878","pluginTransferNFT(address,address,address,uint256)":"bb0c5f95","registerLiquidator(address)":"d3d0d999","registerPlugin(address)":"51a4b38e","registeredPlugins(address)":"292b33fc","revokePlugin(address)":"45b27407","rewardFarm()":"53459391"}}}}}