{
  "_format": "hh-sol-artifact-1",
  "contractName": "RewardFarm",
  "sourceName": "contracts/farming/RewardFarm.sol",
  "abi": [
    {
      "inputs": [
        {
          "internalType": "contract IPoolFactory",
          "name": "_poolFactory",
          "type": "address"
        },
        {
          "internalType": "contract Router",
          "name": "_router",
          "type": "address"
        },
        {
          "internalType": "contract IEFC",
          "name": "_EFC",
          "type": "address"
        },
        {
          "internalType": "contract IERC20",
          "name": "_EQU",
          "type": "address"
        },
        {
          "internalType": "uint64",
          "name": "_mintTime",
          "type": "uint64"
        },
        {
          "internalType": "uint32",
          "name": "_referralMultiplier",
          "type": "uint32"
        }
      ],
      "stateMutability": "nonpayable",
      "type": "constructor"
    },
    {
      "inputs": [],
      "name": "Forbidden",
      "type": "error"
    },
    {
      "inputs": [],
      "name": "InvalidArgument",
      "type": "error"
    },
    {
      "inputs": [
        {
          "internalType": "address",
          "name": "caller",
          "type": "address"
        }
      ],
      "name": "InvalidCaller",
      "type": "error"
    },
    {
      "inputs": [
        {
          "internalType": "uint256",
          "name": "rate",
          "type": "uint256"
        }
      ],
      "name": "InvalidMiningRate",
      "type": "error"
    },
    {
      "inputs": [
        {
          "internalType": "uint64",
          "name": "mintTime",
          "type": "uint64"
        }
      ],
      "name": "InvalidMintTime",
      "type": "error"
    },
    {
      "inputs": [
        {
          "internalType": "contract IPool",
          "name": "pool",
          "type": "address"
        }
      ],
      "name": "InvalidPool",
      "type": "error"
    },
    {
      "inputs": [],
      "name": "InvalidRewardCap",
      "type": "error"
    },
    {
      "inputs": [],
      "name": "ReentrancyGuardReentrantCall",
      "type": "error"
    },
    {
      "inputs": [
        {
          "internalType": "uint8",
          "name": "bits",
          "type": "uint8"
        },
        {
          "internalType": "uint256",
          "name": "value",
          "type": "uint256"
        }
      ],
      "name": "SafeCastOverflowedUintDowncast",
      "type": "error"
    },
    {
      "inputs": [],
      "name": "TooManyPools",
      "type": "error"
    },
    {
      "anonymous": false,
      "inputs": [
        {
          "indexed": true,
          "internalType": "address",
          "name": "previousGov",
          "type": "address"
        },
        {
          "indexed": true,
          "internalType": "address",
          "name": "newGov",
          "type": "address"
        }
      ],
      "name": "ChangeGovStarted",
      "type": "event"
    },
    {
      "anonymous": false,
      "inputs": [
        {
          "components": [
            {
              "internalType": "uint32",
              "name": "liquidityRate",
              "type": "uint32"
            },
            {
              "internalType": "uint32",
              "name": "riskBufferFundLiquidityRate",
              "type": "uint32"
            },
            {
              "internalType": "uint32",
              "name": "referralTokenRate",
              "type": "uint32"
            },
            {
              "internalType": "uint32",
              "name": "referralParentTokenRate",
              "type": "uint32"
            }
          ],
          "indexed": false,
          "internalType": "struct IRewardFarm.Config",
          "name": "newConfig",
          "type": "tuple"
        }
      ],
      "name": "ConfigChanged",
      "type": "event"
    },
    {
      "anonymous": false,
      "inputs": [
        {
          "indexed": true,
          "internalType": "address",
          "name": "previousGov",
          "type": "address"
        },
        {
          "indexed": true,
          "internalType": "address",
          "name": "newGov",
          "type": "address"
        }
      ],
      "name": "GovChanged",
      "type": "event"
    },
    {
      "anonymous": false,
      "inputs": [
        {
          "indexed": false,
          "internalType": "contract IPool[]",
          "name": "pools",
          "type": "address[]"
        },
        {
          "indexed": true,
          "internalType": "address",
          "name": "account",
          "type": "address"
        },
        {
          "indexed": true,
          "internalType": "address",
          "name": "receiver",
          "type": "address"
        },
        {
          "indexed": false,
          "internalType": "uint256",
          "name": "rewardDebt",
          "type": "uint256"
        }
      ],
      "name": "LiquidityRewardCollected",
      "type": "event"
    },
    {
      "anonymous": false,
      "inputs": [
        {
          "indexed": true,
          "internalType": "contract IPool",
          "name": "pool",
          "type": "address"
        },
        {
          "indexed": true,
          "internalType": "address",
          "name": "account",
          "type": "address"
        },
        {
          "indexed": false,
          "internalType": "uint256",
          "name": "rewardDebtDelta",
          "type": "uint256"
        }
      ],
      "name": "LiquidityRewardDebtChanged",
      "type": "event"
    },
    {
      "anonymous": false,
      "inputs": [
        {
          "indexed": true,
          "internalType": "contract IPool",
          "name": "pool",
          "type": "address"
        },
        {
          "indexed": false,
          "internalType": "uint256",
          "name": "rewardDelta",
          "type": "uint256"
        },
        {
          "indexed": false,
          "internalType": "uint128",
          "name": "rewardGrowthAfterX64",
          "type": "uint128"
        }
      ],
      "name": "PoolLiquidityRewardGrowthIncreased",
      "type": "event"
    },
    {
      "anonymous": false,
      "inputs": [
        {
          "indexed": true,
          "internalType": "contract IPool",
          "name": "pool",
          "type": "address"
        },
        {
          "indexed": false,
          "internalType": "uint256",
          "name": "rewardDelta",
          "type": "uint256"
        },
        {
          "indexed": false,
          "internalType": "uint128",
          "name": "rewardGrowthAfterX64",
          "type": "uint128"
        },
        {
          "indexed": false,
          "internalType": "uint256",
          "name": "positionRewardDelta",
          "type": "uint256"
        },
        {
          "indexed": false,
          "internalType": "uint128",
          "name": "positionRewardGrowthAfterX64",
          "type": "uint128"
        }
      ],
      "name": "PoolReferralParentTokenRewardGrowthIncreased",
      "type": "event"
    },
    {
      "anonymous": false,
      "inputs": [
        {
          "indexed": true,
          "internalType": "contract IPool",
          "name": "pool",
          "type": "address"
        },
        {
          "indexed": false,
          "internalType": "uint256",
          "name": "rewardDelta",
          "type": "uint256"
        },
        {
          "indexed": false,
          "internalType": "uint128",
          "name": "rewardGrowthAfterX64",
          "type": "uint128"
        },
        {
          "indexed": false,
          "internalType": "uint256",
          "name": "positionRewardDelta",
          "type": "uint256"
        },
        {
          "indexed": false,
          "internalType": "uint128",
          "name": "positionRewardGrowthAfterX64",
          "type": "uint128"
        }
      ],
      "name": "PoolReferralTokenRewardGrowthIncreased",
      "type": "event"
    },
    {
      "anonymous": false,
      "inputs": [
        {
          "indexed": true,
          "internalType": "contract IPool",
          "name": "pool",
          "type": "address"
        },
        {
          "indexed": false,
          "internalType": "uint160",
          "name": "rewardPerSecond",
          "type": "uint160"
        }
      ],
      "name": "PoolRewardUpdated",
      "type": "event"
    },
    {
      "anonymous": false,
      "inputs": [
        {
          "indexed": true,
          "internalType": "contract IPool",
          "name": "pool",
          "type": "address"
        },
        {
          "indexed": false,
          "internalType": "uint256",
          "name": "rewardDelta",
          "type": "uint256"
        },
        {
          "indexed": false,
          "internalType": "uint128",
          "name": "rewardGrowthAfterX64",
          "type": "uint128"
        }
      ],
      "name": "PoolRiskBufferFundRewardGrowthIncreased",
      "type": "event"
    },
    {
      "anonymous": false,
      "inputs": [
        {
          "indexed": true,
          "internalType": "contract IPool",
          "name": "pool",
          "type": "address"
        },
        {
          "indexed": true,
          "internalType": "uint256",
          "name": "referralToken",
          "type": "uint256"
        },
        {
          "indexed": false,
          "internalType": "uint256",
          "name": "rewardDebtDelta",
          "type": "uint256"
        }
      ],
      "name": "ReferralLiquidityRewardDebtChanged",
      "type": "event"
    },
    {
      "anonymous": false,
      "inputs": [
        {
          "indexed": true,
          "internalType": "contract IPool",
          "name": "pool",
          "type": "address"
        },
        {
          "indexed": true,
          "internalType": "uint256",
          "name": "referralToken",
          "type": "uint256"
        },
        {
          "indexed": false,
          "internalType": "uint256",
          "name": "rewardDebtDelta",
          "type": "uint256"
        }
      ],
      "name": "ReferralPositionRewardDebtChanged",
      "type": "event"
    },
    {
      "anonymous": false,
      "inputs": [
        {
          "indexed": false,
          "internalType": "contract IPool[]",
          "name": "pools",
          "type": "address[]"
        },
        {
          "indexed": false,
          "internalType": "uint256[]",
          "name": "referralTokens",
          "type": "uint256[]"
        },
        {
          "indexed": true,
          "internalType": "address",
          "name": "receiver",
          "type": "address"
        },
        {
          "indexed": false,
          "internalType": "uint256",
          "name": "rewardDebt",
          "type": "uint256"
        }
      ],
      "name": "ReferralRewardCollected",
      "type": "event"
    },
    {
      "anonymous": false,
      "inputs": [
        {
          "indexed": false,
          "internalType": "uint128",
          "name": "rewardCapAfter",
          "type": "uint128"
        }
      ],
      "name": "RewardCapChanged",
      "type": "event"
    },
    {
      "anonymous": false,
      "inputs": [
        {
          "indexed": false,
          "internalType": "contract IPool[]",
          "name": "pools",
          "type": "address[]"
        },
        {
          "indexed": true,
          "internalType": "address",
          "name": "account",
          "type": "address"
        },
        {
          "indexed": true,
          "internalType": "address",
          "name": "receiver",
          "type": "address"
        },
        {
          "indexed": false,
          "internalType": "uint256",
          "name": "rewardDebt",
          "type": "uint256"
        }
      ],
      "name": "RiskBufferFundRewardCollected",
      "type": "event"
    },
    {
      "anonymous": false,
      "inputs": [
        {
          "indexed": true,
          "internalType": "contract IPool",
          "name": "pool",
          "type": "address"
        },
        {
          "indexed": true,
          "internalType": "address",
          "name": "account",
          "type": "address"
        },
        {
          "indexed": false,
          "internalType": "uint256",
          "name": "rewardDebtDelta",
          "type": "uint256"
        }
      ],
      "name": "RiskBufferFundRewardDebtChanged",
      "type": "event"
    },
    {
      "inputs": [],
      "name": "EFC",
      "outputs": [
        {
          "internalType": "contract IEFC",
          "name": "",
          "type": "address"
        }
      ],
      "stateMutability": "view",
      "type": "function"
    },
    {
      "inputs": [],
      "name": "EQU",
      "outputs": [
        {
          "internalType": "contract IERC20",
          "name": "",
          "type": "address"
        }
      ],
      "stateMutability": "view",
      "type": "function"
    },
    {
      "inputs": [],
      "name": "acceptGov",
      "outputs": [],
      "stateMutability": "nonpayable",
      "type": "function"
    },
    {
      "inputs": [
        {
          "internalType": "address",
          "name": "",
          "type": "address"
        }
      ],
      "name": "alreadyBoundReferralTokens",
      "outputs": [
        {
          "internalType": "bool",
          "name": "",
          "type": "bool"
        }
      ],
      "stateMutability": "view",
      "type": "function"
    },
    {
      "inputs": [
        {
          "internalType": "address",
          "name": "_newGov",
          "type": "address"
        }
      ],
      "name": "changeGov",
      "outputs": [],
      "stateMutability": "nonpayable",
      "type": "function"
    },
    {
      "inputs": [
        {
          "internalType": "contract IPool[]",
          "name": "_pools",
          "type": "address[]"
        },
        {
          "internalType": "address",
          "name": "_account",
          "type": "address"
        },
        {
          "internalType": "address",
          "name": "_receiver",
          "type": "address"
        }
      ],
      "name": "collectLiquidityRewardBatch",
      "outputs": [
        {
          "internalType": "uint256",
          "name": "rewardDebt",
          "type": "uint256"
        }
      ],
      "stateMutability": "nonpayable",
      "type": "function"
    },
    {
      "inputs": [
        {
          "internalType": "contract IPool[]",
          "name": "_pools",
          "type": "address[]"
        },
        {
          "internalType": "uint256[]",
          "name": "_referralTokens",
          "type": "uint256[]"
        },
        {
          "internalType": "address",
          "name": "_receiver",
          "type": "address"
        }
      ],
      "name": "collectReferralRewardBatch",
      "outputs": [
        {
          "internalType": "uint256",
          "name": "rewardDebt",
          "type": "uint256"
        }
      ],
      "stateMutability": "nonpayable",
      "type": "function"
    },
    {
      "inputs": [
        {
          "internalType": "contract IPool[]",
          "name": "_pools",
          "type": "address[]"
        },
        {
          "internalType": "address",
          "name": "_account",
          "type": "address"
        },
        {
          "internalType": "address",
          "name": "_receiver",
          "type": "address"
        }
      ],
      "name": "collectRiskBufferFundRewardBatch",
      "outputs": [
        {
          "internalType": "uint256",
          "name": "rewardDebt",
          "type": "uint256"
        }
      ],
      "stateMutability": "nonpayable",
      "type": "function"
    },
    {
      "inputs": [],
      "name": "config",
      "outputs": [
        {
          "internalType": "uint32",
          "name": "liquidityRate",
          "type": "uint32"
        },
        {
          "internalType": "uint32",
          "name": "riskBufferFundLiquidityRate",
          "type": "uint32"
        },
        {
          "internalType": "uint32",
          "name": "referralTokenRate",
          "type": "uint32"
        },
        {
          "internalType": "uint32",
          "name": "referralParentTokenRate",
          "type": "uint32"
        }
      ],
      "stateMutability": "view",
      "type": "function"
    },
    {
      "inputs": [],
      "name": "gov",
      "outputs": [
        {
          "internalType": "address",
          "name": "",
          "type": "address"
        }
      ],
      "stateMutability": "view",
      "type": "function"
    },
    {
      "inputs": [
        {
          "internalType": "uint256",
          "name": "",
          "type": "uint256"
        }
      ],
      "name": "indexPools",
      "outputs": [
        {
          "internalType": "contract IPool",
          "name": "",
          "type": "address"
        }
      ],
      "stateMutability": "view",
      "type": "function"
    },
    {
      "inputs": [
        {
          "internalType": "address",
          "name": "",
          "type": "address"
        }
      ],
      "name": "liquidityRewards",
      "outputs": [
        {
          "internalType": "Bitmap",
          "name": "bitmap",
          "type": "uint256"
        },
        {
          "internalType": "uint256",
          "name": "rewardDebt",
          "type": "uint256"
        }
      ],
      "stateMutability": "view",
      "type": "function"
    },
    {
      "inputs": [
        {
          "internalType": "address",
          "name": "_account",
          "type": "address"
        },
        {
          "internalType": "contract IPool",
          "name": "_pool",
          "type": "address"
        }
      ],
      "name": "liquidityRewardsWithPool",
      "outputs": [
        {
          "internalType": "uint128",
          "name": "liquidity",
          "type": "uint128"
        },
        {
          "internalType": "uint128",
          "name": "rewardGrowthX64",
          "type": "uint128"
        }
      ],
      "stateMutability": "view",
      "type": "function"
    },
    {
      "inputs": [],
      "name": "mintTime",
      "outputs": [
        {
          "internalType": "uint64",
          "name": "",
          "type": "uint64"
        }
      ],
      "stateMutability": "view",
      "type": "function"
    },
    {
      "inputs": [],
      "name": "mintedReward",
      "outputs": [
        {
          "internalType": "uint128",
          "name": "",
          "type": "uint128"
        }
      ],
      "stateMutability": "view",
      "type": "function"
    },
    {
      "inputs": [
        {
          "internalType": "address",
          "name": "_referee",
          "type": "address"
        },
        {
          "internalType": "uint256",
          "name": "_oldReferralToken",
          "type": "uint256"
        },
        {
          "internalType": "uint256",
          "name": "_oldReferralParentToken",
          "type": "uint256"
        },
        {
          "internalType": "uint256",
          "name": "_newReferralToken",
          "type": "uint256"
        },
        {
          "internalType": "uint256",
          "name": "_newReferralParentToken",
          "type": "uint256"
        }
      ],
      "name": "onChangeReferralToken",
      "outputs": [],
      "stateMutability": "nonpayable",
      "type": "function"
    },
    {
      "inputs": [
        {
          "internalType": "address",
          "name": "_account",
          "type": "address"
        },
        {
          "internalType": "int256",
          "name": "_liquidityDelta",
          "type": "int256"
        }
      ],
      "name": "onLiquidityPositionChanged",
      "outputs": [],
      "stateMutability": "nonpayable",
      "type": "function"
    },
    {
      "inputs": [
        {
          "internalType": "address",
          "name": "_account",
          "type": "address"
        },
        {
          "internalType": "Side",
          "name": "_side",
          "type": "uint8"
        },
        {
          "internalType": "uint128",
          "name": "_sizeAfter",
          "type": "uint128"
        },
        {
          "internalType": "uint160",
          "name": "_entryPriceAfterX96",
          "type": "uint160"
        }
      ],
      "name": "onPositionChanged",
      "outputs": [],
      "stateMutability": "nonpayable",
      "type": "function"
    },
    {
      "inputs": [
        {
          "internalType": "address",
          "name": "_account",
          "type": "address"
        },
        {
          "internalType": "uint256",
          "name": "_liquidityAfter",
          "type": "uint256"
        }
      ],
      "name": "onRiskBufferFundPositionChanged",
      "outputs": [],
      "stateMutability": "nonpayable",
      "type": "function"
    },
    {
      "inputs": [],
      "name": "pendingGov",
      "outputs": [
        {
          "internalType": "address",
          "name": "",
          "type": "address"
        }
      ],
      "stateMutability": "view",
      "type": "function"
    },
    {
      "inputs": [],
      "name": "poolFactory",
      "outputs": [
        {
          "internalType": "contract IPoolFactory",
          "name": "",
          "type": "address"
        }
      ],
      "stateMutability": "view",
      "type": "function"
    },
    {
      "inputs": [],
      "name": "poolIndexNext",
      "outputs": [
        {
          "internalType": "uint256",
          "name": "",
          "type": "uint256"
        }
      ],
      "stateMutability": "view",
      "type": "function"
    },
    {
      "inputs": [
        {
          "internalType": "contract IPool",
          "name": "",
          "type": "address"
        }
      ],
      "name": "poolIndexes",
      "outputs": [
        {
          "internalType": "uint256",
          "name": "",
          "type": "uint256"
        }
      ],
      "stateMutability": "view",
      "type": "function"
    },
    {
      "inputs": [
        {
          "internalType": "contract IPool",
          "name": "",
          "type": "address"
        }
      ],
      "name": "poolRewards",
      "outputs": [
        {
          "internalType": "uint128",
          "name": "liquidity",
          "type": "uint128"
        },
        {
          "internalType": "uint128",
          "name": "liquidityRewardGrowthX64",
          "type": "uint128"
        },
        {
          "internalType": "uint128",
          "name": "referralLiquidity",
          "type": "uint128"
        },
        {
          "internalType": "uint128",
          "name": "referralTokenRewardGrowthX64",
          "type": "uint128"
        },
        {
          "internalType": "uint128",
          "name": "referralParentTokenRewardGrowthX64",
          "type": "uint128"
        },
        {
          "internalType": "uint128",
          "name": "referralPosition",
          "type": "uint128"
        },
        {
          "internalType": "uint128",
          "name": "referralTokenPositionRewardGrowthX64",
          "type": "uint128"
        },
        {
          "internalType": "uint128",
          "name": "referralParentTokenPositionRewardGrowthX64",
          "type": "uint128"
        },
        {
          "internalType": "uint128",
          "name": "riskBufferFundLiquidity",
          "type": "uint128"
        },
        {
          "internalType": "uint128",
          "name": "riskBufferFundRewardGrowthX64",
          "type": "uint128"
        },
        {
          "internalType": "uint128",
          "name": "rewardPerSecond",
          "type": "uint128"
        },
        {
          "internalType": "uint128",
          "name": "lastMintTime",
          "type": "uint128"
        }
      ],
      "stateMutability": "view",
      "type": "function"
    },
    {
      "inputs": [
        {
          "internalType": "address",
          "name": "",
          "type": "address"
        }
      ],
      "name": "positions",
      "outputs": [
        {
          "internalType": "Bitmap",
          "name": "bitmap",
          "type": "uint256"
        }
      ],
      "stateMutability": "view",
      "type": "function"
    },
    {
      "inputs": [
        {
          "internalType": "address",
          "name": "_account",
          "type": "address"
        },
        {
          "internalType": "contract IPool",
          "name": "_pool",
          "type": "address"
        }
      ],
      "name": "positionsWithPool",
      "outputs": [
        {
          "internalType": "uint128",
          "name": "long",
          "type": "uint128"
        },
        {
          "internalType": "uint128",
          "name": "short",
          "type": "uint128"
        }
      ],
      "stateMutability": "view",
      "type": "function"
    },
    {
      "inputs": [],
      "name": "referralMultiplier",
      "outputs": [
        {
          "internalType": "uint32",
          "name": "",
          "type": "uint32"
        }
      ],
      "stateMutability": "view",
      "type": "function"
    },
    {
      "inputs": [
        {
          "internalType": "uint256",
          "name": "",
          "type": "uint256"
        }
      ],
      "name": "referralRewards",
      "outputs": [
        {
          "internalType": "uint256",
          "name": "rewardDebt",
          "type": "uint256"
        }
      ],
      "stateMutability": "view",
      "type": "function"
    },
    {
      "inputs": [
        {
          "internalType": "uint256",
          "name": "_referralToken",
          "type": "uint256"
        },
        {
          "internalType": "contract IPool",
          "name": "_pool",
          "type": "address"
        }
      ],
      "name": "referralRewardsWithPool",
      "outputs": [
        {
          "internalType": "uint128",
          "name": "liquidity",
          "type": "uint128"
        },
        {
          "internalType": "uint128",
          "name": "rewardGrowthX64",
          "type": "uint128"
        },
        {
          "internalType": "uint128",
          "name": "position",
          "type": "uint128"
        },
        {
          "internalType": "uint128",
          "name": "positionRewardGrowthX64",
          "type": "uint128"
        }
      ],
      "stateMutability": "view",
      "type": "function"
    },
    {
      "inputs": [],
      "name": "rewardCap",
      "outputs": [
        {
          "internalType": "uint128",
          "name": "",
          "type": "uint128"
        }
      ],
      "stateMutability": "view",
      "type": "function"
    },
    {
      "inputs": [
        {
          "internalType": "address",
          "name": "",
          "type": "address"
        }
      ],
      "name": "riskBufferFundRewards",
      "outputs": [
        {
          "internalType": "uint256",
          "name": "rewardDebt",
          "type": "uint256"
        }
      ],
      "stateMutability": "view",
      "type": "function"
    },
    {
      "inputs": [
        {
          "internalType": "address",
          "name": "_account",
          "type": "address"
        },
        {
          "internalType": "contract IPool",
          "name": "_pool",
          "type": "address"
        }
      ],
      "name": "riskBufferFundRewardsWithPool",
      "outputs": [
        {
          "internalType": "uint128",
          "name": "liquidity",
          "type": "uint128"
        },
        {
          "internalType": "uint128",
          "name": "rewardGrowthX64",
          "type": "uint128"
        }
      ],
      "stateMutability": "view",
      "type": "function"
    },
    {
      "inputs": [],
      "name": "router",
      "outputs": [
        {
          "internalType": "contract Router",
          "name": "",
          "type": "address"
        }
      ],
      "stateMutability": "view",
      "type": "function"
    },
    {
      "inputs": [
        {
          "components": [
            {
              "internalType": "uint32",
              "name": "liquidityRate",
              "type": "uint32"
            },
            {
              "internalType": "uint32",
              "name": "riskBufferFundLiquidityRate",
              "type": "uint32"
            },
            {
              "internalType": "uint32",
              "name": "referralTokenRate",
              "type": "uint32"
            },
            {
              "internalType": "uint32",
              "name": "referralParentTokenRate",
              "type": "uint32"
            }
          ],
          "internalType": "struct IRewardFarm.Config",
          "name": "_config",
          "type": "tuple"
        }
      ],
      "name": "setConfig",
      "outputs": [],
      "stateMutability": "nonpayable",
      "type": "function"
    },
    {
      "inputs": [
        {
          "internalType": "contract IPool[]",
          "name": "_pools",
          "type": "address[]"
        },
        {
          "internalType": "uint128[]",
          "name": "_rewardsPerSecond",
          "type": "uint128[]"
        }
      ],
      "name": "setPoolsReward",
      "outputs": [],
      "stateMutability": "nonpayable",
      "type": "function"
    },
    {
      "inputs": [
        {
          "internalType": "uint128",
          "name": "_rewardCap",
          "type": "uint128"
        }
      ],
      "name": "setRewardCap",
      "outputs": [],
      "stateMutability": "nonpayable",
      "type": "function"
    }
  ],
  "bytecode": "0x61014034620001e7576001600160401b03601f6200473638819003918201601f191684019183831185841017620001ec5780859260c094604052833981010312620001e75781516001600160a01b03908181168103620001e75760208401518281168103620001e7576040850151918383168303620001e7576060860151938085168503620001e757608087015195861696878703620001e75760a001519663ffffffff88168803620001e7576000543360018060a01b0319821617600055604051923391167f3d1e4c3a68fed9f4f8315582b7297cf8fa264bc8e6704287603ba8c72bf05ac2600080a36001600255600380546001600160801b0316670422ca8b0a00a42560991b179055428110620001d257505060a05260e05260c0526080526101209081526101009182526040519061453392836200020384396080518381816104c30152613c5b015260a05183818161088401528181610b2f015281816110810152818161144c01526116c6015260c0518381816117d20152818161213f01528181612b4a0152612e15015260e0518381816101f8015281816111ad015281816114e901526122460152518281816102ba0152818161360d0152613fd80152518181816109c60152610d230152f35b634466d3e960e11b8252600482015260249150fd5b600080fd5b634e487b7160e01b600052604160045260246000fdfe60808060405260048036101561001457600080fd5b60003560e01c9182630de759e8146121b55750816312d43a51146121635781631420f802146120f4578163144cdcd614611f03578163206529bf14611ec7578163246753901461178357816325240810146117315781632752401214611646578163299ca165146115c95781632af44d04146114be5781632af4f9c0146114705781634219dc40146114015781634b6d10b9146113b957816355f5751014611354578163563f23331461118357816363ec5f351461111957816366063f9214610fc8578163661cd5fc14610f635781636751b28214610ee657816379502c5514610e8457816379d88af214610e1f5781637bc6729b14610d475781638647812214610ce45781638b0de8f414610943578163950f5408146108045781639532e287146107c5578163a962ef1e14610718578163ae4a4e751461064c578163baf4076e14610555578163baff63ee146104e7578163c2aa99a514610478578163c2f4152d146103cc578163dd5aba4b146102de578163de1896c31461027f578163de455e7e14610221575063f887ea40146101ad57600080fd5b3461021c5760007ffffffffffffffffffffffffffffffffffffffffffffffffffffffffffffffffc36011261021c57602060405173ffffffffffffffffffffffffffffffffffffffff7f0000000000000000000000000000000000000000000000000000000000000000168152f35b600080fd5b3461021c5760207ffffffffffffffffffffffffffffffffffffffffffffffffffffffffffffffffc36011261021c5735600052600d602052602073ffffffffffffffffffffffffffffffffffffffff60406000205416604051908152f35b3461021c5760007ffffffffffffffffffffffffffffffffffffffffffffffffffffffffffffffffc36011261021c57602060405163ffffffff7f0000000000000000000000000000000000000000000000000000000000000000168152f35b3461021c5760207ffffffffffffffffffffffffffffffffffffffffffffffffffffffffffffffffc36011261021c576101809073ffffffffffffffffffffffffffffffffffffffff61032e612599565b1660005260056020526040600020908154916fffffffffffffffffffffffffffffffff6080916001810154936002820154600560038401549284015493015495604051978581168952861c60208901528481166040890152851c606088015283811685880152841c60a087015282811660c0870152831c60e0860152818116610100860152821c61012085015282166101408401521c610160820152f35b3461021c5760407ffffffffffffffffffffffffffffffffffffffffffffffffffffffffffffffffc36011261021c57610403612599565b61040b612648565b9073ffffffffffffffffffffffffffffffffffffffff809116600052600a60205260016040600020019116600052602052610449604060002061295a565b8051602091820151604080516fffffffffffffffffffffffffffffffff93841681529290911692820192909252f35b3461021c5760007ffffffffffffffffffffffffffffffffffffffffffffffffffffffffffffffffc36011261021c57602060405173ffffffffffffffffffffffffffffffffffffffff7f0000000000000000000000000000000000000000000000000000000000000000168152f35b3461021c5760207ffffffffffffffffffffffffffffffffffffffffffffffffffffffffffffffffc36011261021c5773ffffffffffffffffffffffffffffffffffffffff610533612599565b1660005260096020526040806000206001815491015482519182526020820152f35b3461021c5760207ffffffffffffffffffffffffffffffffffffffffffffffffffffffffffffffffc36011261021c576fffffffffffffffffffffffffffffffff8135818116929183820361021c576105ab613db0565b6105b3612f3b565b6105bb613dfb565b6003541691838311610624577fca51489b36966186f0786d629f3e2f5eb1b38c3df5a184adec59c033d65174a4602085857fffffffffffffffffffffffffffffffff000000000000000000000000000000008660801b1617600355604051908152a16001600255005b6040517f56f84113000000000000000000000000000000000000000000000000000000008152fd5b3461021c5760407ffffffffffffffffffffffffffffffffffffffffffffffffffffffffffffffffc36011261021c57610683612648565b9035600052600660205273ffffffffffffffffffffffffffffffffffffffff600160406000200191166000526020526080604060002060606040516106c7816125bc565b8254926fffffffffffffffffffffffffffffffff91600183861695868352871c92836020840152015492831692836040830152861c9384910152604051938452602084015260408301526060820152f35b3461021c5760207ffffffffffffffffffffffffffffffffffffffffffffffffffffffffffffffffc36011261021c5761074f612599565b610757613db0565b73ffffffffffffffffffffffffffffffffffffffff80911690817fffffffffffffffffffffffff00000000000000000000000000000000000000006001541617600155600054167fb9911e2099e372c216862258dc462bb65da46a2c854536c8b1acae619d0d62ed600080a3005b3461021c5760007ffffffffffffffffffffffffffffffffffffffffffffffffffffffffffffffffc36011261021c57602060035460801c604051908152f35b3461021c5760407ffffffffffffffffffffffffffffffffffffffffffffffffffffffffffffffffc36011261021c5761083b612599565b906040517f5b16ebb7000000000000000000000000000000000000000000000000000000008152338282015260208160248173ffffffffffffffffffffffffffffffffffffffff7f0000000000000000000000000000000000000000000000000000000000000000165afa90811561093757600091610908575b50156108d7576108d0826108c7612f3b565b60243590612ca8565b6001600255005b602490604051907fcbd9d2e00000000000000000000000000000000000000000000000000000000082523390820152fd5b61092a915060203d602011610930575b6109228183612607565b8101906127df565b836108b5565b503d610918565b6040513d6000823e3d90fd5b3461021c5760407ffffffffffffffffffffffffffffffffffffffffffffffffffffffffffffffffc36011261021c5767ffffffffffffffff813581811161021c576109919036908401612568565b9160249060243581811161021c576109ac9036908701612568565b916109b5613db0565b6109bd612f3b565b828603610cbb577f000000000000000000000000000000000000000000000000000000000000000016804211600014610cb257506109fa42613f30565b9360005b868110610a0c576001600255005b80610a21610a1c8a938a866126e8565b612727565b73ffffffffffffffffffffffffffffffffffffffff908181169182600052600591602092808452604060002001918a6fffffffffffffffffffffffffffffffff97888554161515600014610afb57505050947f2080e01c40bb15fa4f4356a31d0ace856653e2ba4c48db9562e1ad472469fe609291610aa1600197612f74565b5081610ab6610ab1888d8d6126e8565b612c8b565b167fffffffffffffffffffffffffffffffff000000000000000000000000000000008254161790555b610aed610ab1868b8b6126e8565b60405191168152a2016109fe565b8591879160405194859384927f5b16ebb70000000000000000000000000000000000000000000000000000000084528301527f0000000000000000000000000000000000000000000000000000000000000000165afa90811561093757600091610c95575b5015610c665785610b75610ab1878c8c6126e8565b16610ba7575b50507f2080e01c40bb15fa4f4356a31d0ace856653e2ba4c48db9562e1ad472469fe6090600194610adf565b610bb390929192613ea1565b15610c3d5784610c348b7f2080e01c40bb15fa4f4356a31d0ace856653e2ba4c48db9562e1ad472469fe6094600198610bf0610ab18a8f8f6126e8565b6fffffffffffffffffffffffffffffffff91161660809290921b7fffffffffffffffffffffffffffffffff0000000000000000000000000000000016919091179055565b94819250610b7b565b8b6040517febcfae4b000000000000000000000000000000000000000000000000000000008152fd5b898d85604051917f3d325c6c000000000000000000000000000000000000000000000000000000008352820152fd5b610cac9150843d8611610930576109228183612607565b8e610b60565b6109fa90613f30565b866040517fa9cb9e0d000000000000000000000000000000000000000000000000000000008152fd5b3461021c5760007ffffffffffffffffffffffffffffffffffffffffffffffffffffffffffffffffc36011261021c57602060405167ffffffffffffffff7f0000000000000000000000000000000000000000000000000000000000000000168152f35b3461021c5760007ffffffffffffffffffffffffffffffffffffffffffffffffffffffffffffffffc36011261021c576001549073ffffffffffffffffffffffffffffffffffffffff908183163303610df757507fffffffffffffffffffffffff00000000000000000000000000000000000000008092166001556000549133908316176000553391167f3d1e4c3a68fed9f4f8315582b7297cf8fa264bc8e6704287603ba8c72bf05ac2600080a3005b6040517fee90c468000000000000000000000000000000000000000000000000000000008152fd5b3461021c5760207ffffffffffffffffffffffffffffffffffffffffffffffffffffffffffffffffc36011261021c5773ffffffffffffffffffffffffffffffffffffffff610e6b612599565b1660005260076020526020604060002054604051908152f35b3461021c5760007ffffffffffffffffffffffffffffffffffffffffffffffffffffffffffffffffc36011261021c576080905463ffffffff604051918181168352818160201c166020840152818160401c16604084015260601c166060820152f35b3461021c5760407ffffffffffffffffffffffffffffffffffffffffffffffffffffffffffffffffc36011261021c57610f1d612599565b610f25612648565b9073ffffffffffffffffffffffffffffffffffffffff809116600052600960205260026040600020019116600052602052610449604060002061295a565b3461021c5760207ffffffffffffffffffffffffffffffffffffffffffffffffffffffffffffffffc36011261021c5773ffffffffffffffffffffffffffffffffffffffff610faf612599565b16600052600c6020526020604060002054604051908152f35b3461021c5760807ffffffffffffffffffffffffffffffffffffffffffffffffffffffffffffffffc36011261021c57610fff612599565b60243560ff8116810361021c57604435906fffffffffffffffffffffffffffffffff8216820361021c576064359273ffffffffffffffffffffffffffffffffffffffff808516850361021c576020602491604051928380927f5b16ebb7000000000000000000000000000000000000000000000000000000008252338b8301527f0000000000000000000000000000000000000000000000000000000000000000165afa908115610937576000916110fa575b50156110ca576108d094506110c5612f3b565b6129f5565b6040517fcbd9d2e00000000000000000000000000000000000000000000000000000000081523381870152602490fd5b611113915060203d602011610930576109228183612607565b866110b2565b3461021c5760207ffffffffffffffffffffffffffffffffffffffffffffffffffffffffffffffffc36011261021c5773ffffffffffffffffffffffffffffffffffffffff611165612599565b166000526008602052602060ff604060002054166040519015158152f35b3461021c576111913661266b565b91939273ffffffffffffffffffffffffffffffffffffffff94857f00000000000000000000000000000000000000000000000000000000000000001633036110ca576111db612f3b565b85600093169283600052602095600760205260406000209660009160019160018a01905b86851061127a57505050505090602096600061123f7fcfd9cefab5433bbe7be7136cc3c84760c846180870000677f0e3225006546b649594895490612748565b975561124b8787613c40565b611262604051938493604085526040850191612784565b95878984015216940390a36001600255604051908152f35b9091926113498c86978b611293610a1c869a8d8f6126e8565b61131b896112a083612f74565b015494608095861c921691826000528989526112d960406000209687546fffffffffffffffffffffffffffffffff8116911c83036140ae565b95906fffffffffffffffffffffffffffffffff7fffffffffffffffffffffffffffffffff0000000000000000000000000000000083549260801b169116179055565b7f5bc84be5789fbebd979ff6e88ba7433d75ba1e01504a077e29af0b8dfaefe34087604051868152a3612748565b9501939291906111ff565b3461021c5760207ffffffffffffffffffffffffffffffffffffffffffffffffffffffffffffffffc36011261021c5773ffffffffffffffffffffffffffffffffffffffff6113a0612599565b16600052600a6020526020604060002054604051908152f35b3461021c5760207ffffffffffffffffffffffffffffffffffffffffffffffffffffffffffffffffc36011261021c573560005260066020526020604060002054604051908152f35b3461021c5760007ffffffffffffffffffffffffffffffffffffffffffffffffffffffffffffffffc36011261021c57602060405173ffffffffffffffffffffffffffffffffffffffff7f0000000000000000000000000000000000000000000000000000000000000000168152f35b3461021c5760007ffffffffffffffffffffffffffffffffffffffffffffffffffffffffffffffffc36011261021c5760206fffffffffffffffffffffffffffffffff60035416604051908152f35b3461021c576114cc3661266b565b9173ffffffffffffffffffffffffffffffffffffffff94939493847f00000000000000000000000000000000000000000000000000000000000000001633036108d75750611518612f3b565b83821691826000526020906009602052604060002091600860205260ff6040600020541660009260028501935b8681106115895760208a8a8a7f4e6e2efd3554c6bdccae597689562635404676b029cf189a5681b046d7e23a9c8f8c60018d019560008754975561124b8787613c40565b806115c361159e610a1c6001948f8c906126e8565b858d6115a983612f74565b908316600052898952866040600020915460801c93613f85565b01611545565b3461021c5760407ffffffffffffffffffffffffffffffffffffffffffffffffffffffffffffffffc36011261021c57611600612599565b611608612648565b9073ffffffffffffffffffffffffffffffffffffffff809116600052600760205260016040600020019116600052602052610449604060002061295a565b3461021c5760407ffffffffffffffffffffffffffffffffffffffffffffffffffffffffffffffffc36011261021c5761167d612599565b906040517f5b16ebb7000000000000000000000000000000000000000000000000000000008152338282015260208160248173ffffffffffffffffffffffffffffffffffffffff7f0000000000000000000000000000000000000000000000000000000000000000165afa90811561093757600091611712575b50156108d7576108d082611709612f3b565b60243590612804565b61172b915060203d602011610930576109228183612607565b836116f7565b3461021c5760007ffffffffffffffffffffffffffffffffffffffffffffffffffffffffffffffffc36011261021c57602073ffffffffffffffffffffffffffffffffffffffff60015416604051908152f35b3461021c5760a07ffffffffffffffffffffffffffffffffffffffffffffffffffffffffffffffffc36011261021c576117ba612599565b9073ffffffffffffffffffffffffffffffffffffffff7f00000000000000000000000000000000000000000000000000000000000000001633036108d757611800612f3b565b73ffffffffffffffffffffffffffffffffffffffff8216600052600860205260ff604060002054166040519160e083019083821067ffffffffffffffff831117611e9957506040526000825273ffffffffffffffffffffffffffffffffffffffff8316602083015260243560408301526044356060830152606435608083015260843560a0830152151560c082015273ffffffffffffffffffffffffffffffffffffffff8216600052600960205260406000205460005b60ff811115611bd5575b505073ffffffffffffffffffffffffffffffffffffffff8216600052600a60205260406000205460005b60ff81111561194c575b73ffffffffffffffffffffffffffffffffffffffff84166000526008602052604060002060017fffffffffffffffffffffffffffffffffffffffffffffffffffffffffffffff008254161790556001600255600080f35b60ff7fffffffffffffffffffffffffffffffffffffffffffffffffffffffffffffffff91161b81168015600014611b6257506000805b15611b5d578061010060ff80931617600052600d6020526119c073ffffffffffffffffffffffffffffffffffffffff60406000205416808652612f74565b9073ffffffffffffffffffffffffffffffffffffffff602086015116600052600a602052611afc6001928360406000200173ffffffffffffffffffffffffffffffffffffffff885116600052602052611a1c604060002061295a565b90611ad9611a466fffffffffffffffffffffffffffffffff938460208183511692015116906129bb565b809360038401549081169060801c9360408c01511515600014611b035750611a8d82828d604073ffffffffffffffffffffffffffffffffffffffff825116910151906138c5565b611ab682858d606073ffffffffffffffffffffffffffffffffffffffff825116910151906138c5565b73ffffffffffffffffffffffffffffffffffffffff8b511660808c015190613a44565b73ffffffffffffffffffffffffffffffffffffffff88511660a089015190613a44565b01166118eb565b6002611b589101611b1884825460801c6129bb565b6fffffffffffffffffffffffffffffffff7fffffffffffffffffffffffffffffffff0000000000000000000000000000000083549260801b169116179055565b611ab6565b6118f5565b60ff60019182811901167e1f0d1e100c1d070f090b19131c1706010e11080a1a141802121b1503160405601f826fffffffffffffffffffffffffffffffff1060071b83811c67ffffffffffffffff1060061b1783811c63ffffffff1060051b1792831c63d76453e004161a171690611982565b60ff7fffffffffffffffffffffffffffffffffffffffffffffffffffffffffffffffff91161b81168015600014611e2657506000805b15611e21578061010060ff80931617600052600d602052611c4973ffffffffffffffffffffffffffffffffffffffff60406000205416808652612f74565b9073ffffffffffffffffffffffffffffffffffffffff6020860151166000526009602052611dcb60028060406000200173ffffffffffffffffffffffffffffffffffffffff88511660005260205286611da8604060002095611ceb73ffffffffffffffffffffffffffffffffffffffff84511673ffffffffffffffffffffffffffffffffffffffff6020860151168960c0870151151591855460801c93613f85565b6fffffffffffffffffffffffffffffffff80975416938491600198898201918254916040818460801c96840154169801511515600014611dd25750505050611d5a8b82604073ffffffffffffffffffffffffffffffffffffffff835116920151611d5486613e74565b926137a8565b611d858b85606073ffffffffffffffffffffffffffffffffffffffff835116920151611d5486613e74565b73ffffffffffffffffffffffffffffffffffffffff8b511660808c0151906137a8565b73ffffffffffffffffffffffffffffffffffffffff88511660a0890151906137a8565b01166118b7565b81549181611de288828616612999565b167fffffffffffffffffffffffffffffffff00000000000000000000000000000000809416179055611e16868285166129bb565b169116179055611d85565b6118c1565b60ff60019182811901167e1f0d1e100c1d070f090b19131c1706010e11080a1a141802121b1503160405601f826fffffffffffffffffffffffffffffffff1060071b83811c67ffffffffffffffff1060061b1783811c63ffffffff1060051b1792831c63d76453e004161a171690611c0b565b6041907f4e487b71000000000000000000000000000000000000000000000000000000006000525260246000fd5b3461021c5760007ffffffffffffffffffffffffffffffffffffffffffffffffffffffffffffffffc36011261021c576020600b54604051908152f35b3461021c5760807ffffffffffffffffffffffffffffffffffffffffffffffffffffffffffffffffc36011261021c5760405190611f3f826125bc565b63ffffffff918135838116810361021c578152602435838116810361021c576020820190815260443590848216820361021c576040830191825260643592858416840361021c5760608101938452611f95613db0565b611f9d612f3b565b611fae868251168784511690612748565b8684511687865116018781116120c6579087611fcb921690612748565b6305f5e1008103612096577fcd72166bdc523723ee3595a4c9f2f13da1db67d43498c7fca56b85561e489f3460808789888189818a818b61200a613dfb565b511696805467ffffffff00000000835160201b166bffffffff0000000000000000865160401b16908a7fffffffffffffffffffffffffffffffff000000000000000000000000000000006fffffffff0000000000000000000000008b5160601b169416171717179055604051968752511660208601525116604084015251166060820152a16001600255005b85602491604051917fad07fdb1000000000000000000000000000000000000000000000000000000008352820152fd5b6011877f4e487b71000000000000000000000000000000000000000000000000000000006000525260246000fd5b3461021c5760007ffffffffffffffffffffffffffffffffffffffffffffffffffffffffffffffffc36011261021c57602060405173ffffffffffffffffffffffffffffffffffffffff7f0000000000000000000000000000000000000000000000000000000000000000168152f35b3461021c5760007ffffffffffffffffffffffffffffffffffffffffffffffffffffffffffffffffc36011261021c57602073ffffffffffffffffffffffffffffffffffffffff60005416604051908152f35b3461021c5760607ffffffffffffffffffffffffffffffffffffffffffffffffffffffffffffffffc36011261021c5767ffffffffffffffff91803583811161021c576122049036908301612568565b9360243590811161021c5761221c9036908401612568565b94909160443573ffffffffffffffffffffffffffffffffffffffff958682169586830361021c57877f000000000000000000000000000000000000000000000000000000000000000016330361253a57505094612277612f3b565b600095869160005b8581106123245750506122a8929161229691613c40565b60405192606084526060840191612784565b81810360208301528581527f07ffffffffffffffffffffffffffffffffffffffffffffffffffffffffffffff861161021c57817ffdd32c30fe15e5d6c23c7c145227067d0e6d8fe20a986c993f43fd7a2367a09f9360209792889360051b80928583013787604084015201030190a26001600255604051908152f35b90919250612336610a1c8287876126e8565b61233f81612f74565b90831660005b8b8981831061235f5750505050506001019087929161227f565b6124446124de61237685600196956124bf956126e8565b359e8f6127108110156124f05780887f282d381d1410b2c3d61bfcd6e8fb420e27b581ed95e7d5da44dbe20ae206e2738b61244460036fffffffffffffffffffffffffffffffff60028401541692015460801c5b8560005260069a8b9160209b8c9584875260406000209460018a7ffaf8a8e835761789e8d18c5cc5c47ba6813bd5fc052e3e77e4ca0aca9aee41758a8e9399836000528a810182526040600020906124868254986fffffffffffffffffffffffffffffffff9e8f9a60809b808216918d1c908416036140ae565b93906fffffffffffffffffffffffffffffffff7fffffffffffffffffffffffffffffffff0000000000000000000000000000000083549260801b169116179055565b818154019055604051908152a38a6000528752604060002094896000528086018852604060002001958654818116921c908416036140ae565b818154019055604051908152a360005283835260406000205490612748565b9d600052526000604081205501612345565b80887f282d381d1410b2c3d61bfcd6e8fb420e27b581ed95e7d5da44dbe20ae206e2738b6124446fffffffffffffffffffffffffffffffff60038d84015460801c930154166123ca565b602492507fcbd9d2e00000000000000000000000000000000000000000000000000000000082523390820152fd5b9181601f8401121561021c5782359167ffffffffffffffff831161021c576020808501948460051b01011161021c57565b6004359073ffffffffffffffffffffffffffffffffffffffff8216820361021c57565b6080810190811067ffffffffffffffff8211176125d857604052565b7f4e487b7100000000000000000000000000000000000000000000000000000000600052604160045260246000fd5b90601f7fffffffffffffffffffffffffffffffffffffffffffffffffffffffffffffffe0910116810190811067ffffffffffffffff8211176125d857604052565b6024359073ffffffffffffffffffffffffffffffffffffffff8216820361021c57565b60607ffffffffffffffffffffffffffffffffffffffffffffffffffffffffffffffffc82011261021c576004359067ffffffffffffffff821161021c576126b491600401612568565b909173ffffffffffffffffffffffffffffffffffffffff90602435828116810361021c5791604435908116810361021c5790565b91908110156126f85760051b0190565b7f4e487b7100000000000000000000000000000000000000000000000000000000600052603260045260246000fd5b3573ffffffffffffffffffffffffffffffffffffffff8116810361021c5790565b9190820180921161275557565b7f4e487b7100000000000000000000000000000000000000000000000000000000600052601160045260246000fd5b9190808252602080920192916000805b8382106127a357505050505090565b9091929394853573ffffffffffffffffffffffffffffffffffffffff81168091036127db578152830194830193929160010190612794565b8280fd5b9081602091031261021c5751801515810361021c5790565b9190820391821161275557565b9061280e33613ea1565b156129565773ffffffffffffffffffffffffffffffffffffffff61283133612f74565b9216918260005260076020526040600020336000526001810160205261294e6129496040600020938454936fffffffffffffffffffffffffffffffff9460048682169301986128d061288d858c5460801c9460801c85036140ae565b9289906fffffffffffffffffffffffffffffffff7fffffffffffffffffffffffffffffffff0000000000000000000000000000000083549260801b169116179055565b866128da8a613f30565b16977fffffffffffffffffffffffffffffffff0000000000000000000000000000000098898254161790556040518281527f5bc84be5789fbebd979ff6e88ba7433d75ba1e01504a077e29af0b8dfaefe34060203392a38154019055612944875496858816612748565b6127f7565b613f30565b169116179055565b5050565b906040516040810181811067ffffffffffffffff8211176125d85760405291546fffffffffffffffffffffffffffffffff8116835260801c6020830152565b6fffffffffffffffffffffffffffffffff918216908216039190821161275557565b9190916fffffffffffffffffffffffffffffffff8080941691160191821161275557565b919082604091031261021c576020825192015190565b939193929092612a0433613ea1565b8015612c8357602093949573ffffffffffffffffffffffffffffffffffffffff80931692600097848952600a8752604093848a2091338b526001830189528a600160ff8883209387612a558661295a565b9d8e9d612a7d6129496fffffffffffffffffffffffffffffffff9d8e80968195169116614174565b9f51169d01511693501614600014612c335788818b1792878c167fffffffffffffffffffffffffffffffff000000000000000000000000000000008254161790555b171590858280612c27575b8315612c08575b505050612bf5575b5050838852600860205260ff838920541615612beb5782612af933612f74565b94612b1860028701611b188a612b138b845460801c612999565b6129bb565b60248251809481937f1e54b2ee00000000000000000000000000000000000000000000000000000000835260048301527f0000000000000000000000000000000000000000000000000000000000000000165afa928315612be2578887928792612ba59a9b9296612ba7575b50506003612b9a94959601948554169033613b57565b5460801c9033613b57565b565b612b9a959650600392509081612bd192903d10612bdb575b612bc98183612607565b8101906129df565b9190919594612b84565b503d612bbf565b513d89823e3d90fd5b5050505050509050565b600160ff835492161b1890553880612ad9565b1592509082612c1c575b5050388581612ad1565b161590508438612c12565b82821615159350612aca565b8098612c7e8b82811794906fffffffffffffffffffffffffffffffff7fffffffffffffffffffffffffffffffff0000000000000000000000000000000083549260801b169116179055565b612abf565b505050915050565b356fffffffffffffffffffffffffffffffff8116810361021c5790565b9190612cb333613ea1565b8015612f3557612cc233612f74565b9373ffffffffffffffffffffffffffffffffffffffff94858216956000968088526009602052604094858920600860205260ff878b2054169182600014612eea576001860180547fffffffffffffffffffffffffffffffff000000000000000000000000000000006fffffffffffffffffffffffffffffffff612d478d828516614072565b1691161790555b338b5260028201602052612d6d888c20978489895460801c9233613f85565b7fffffffffffffffffffffffffffffffff00000000000000000000000000000000898854986fffffffffffffffffffffffffffffffff998a612db28183169485614072565b169384911617905515908180612ee0575b8215612ec6575b5050612eb3575b5050612de1575050505050509050565b849060248251809481937f1e54b2ee00000000000000000000000000000000000000000000000000000000835260048301527f0000000000000000000000000000000000000000000000000000000000000000165afa938415612eaa57968591612e7097988296612e7c575b50508291612e66916001600295015460801c90336137a8565b01541690336137a8565b80388080808080612beb565b600294939650612e6692509081612e9e92903d10612bdb57612bc98183612607565b95909181939450612e4d565b513d88823e3d90fd5b600160ff835492161b1890553880612dd1565b15915081612ed7575b503880612dca565b90501538612ecf565b8115159250612dc3565b85547fffffffffffffffffffffffffffffffff000000000000000000000000000000006fffffffffffffffffffffffffffffffff612f2a8c828516614072565b169116178655612d4e565b50509050565b6002805414612f4a5760028055565b60046040517f3ee5aeb5000000000000000000000000000000000000000000000000000000008152fd5b9073ffffffffffffffffffffffffffffffffffffffff821660005260056020526040600020916fffffffffffffffffffffffffffffffff600584015416801561295657612fc042613f30565b90600585015460801c906fffffffffffffffffffffffffffffffff8316600092600354906fffffffffffffffffffffffffffffffff82169160801c928181118061379f575b613753575b5050505050801561374e5760008554936fffffffffffffffffffffffffffffffff85166fffffffffffffffffffffffffffffffff600189015416908181176135f3575b50612ba59550600288015460801c906fffffffffffffffffffffffffffffffff61307783836129bb565b169182151580806135df575b61344a575b80613436575b61322e575b505050600487018054936fffffffffffffffffffffffffffffffff851694851515918261314a575b505050505090507fffffffffffffffffffffffffffffffff000000000000000000000000000000006fffffffffffffffffffffffffffffffff806003549316818416011691161760035560058401906fffffffffffffffffffffffffffffffff7fffffffffffffffffffffffffffffffff0000000000000000000000000000000083549260801b169116179055565b6131b173ffffffffffffffffffffffffffffffffffffffff937f0655e050d65a585df43edac2de5e2cf58d44c0d6faa10156709d16c243388f4a959361319f6131f29463ffffffff60045460201c16906141e0565b99600092613217575b5060801c6129bb565b82546fffffffffffffffffffffffffffffffff1660809190911b7fffffffffffffffffffffffffffffffff0000000000000000000000000000000016178255565b546040805187815260809290921c60208301529190931692a2018038808080806130bb565b613227919250612949908b61426a565b90386131a8565b7f2a72c3a4ba70210dd77fc8e5aa00f8b35d7eea333d7d79e7b5dccb4bf9132c9d9061327461326c63ffffffff6004989697985460601c16896141e0565b958487614347565b928b600091806133e5575b506fffffffffffffffffffffffffffffffff6132c360027fffffffffffffffffffffffffffffffff00000000000000000000000000000000930154938285166129bb565b1691161760028c01556132d683866127f7565b908b600091806133b6575b506fffffffffffffffffffffffffffffffff60028261334f61330e60036133a9960196875460801c6129bb565b86546fffffffffffffffffffffffffffffffff1660809190911b7fffffffffffffffffffffffffffffffff0000000000000000000000000000000016178655565b015416915460801c60405193849373ffffffffffffffffffffffffffffffffffffffff8b1697859293606092919594608085019685526fffffffffffffffffffffffffffffffff8093166020860152604085015216910152565b0390a20190388080613093565b6133a991925060026133dc6129496fffffffffffffffffffffffffffffffff938761426a565b939250506132e1565b7fffffffffffffffffffffffffffffffff000000000000000000000000000000009192506132c3600261342c6129496fffffffffffffffffffffffffffffffff948a61426a565b949350505061327f565b5063ffffffff60045460601c16151561308e565b9461346063ffffffff60045460401c16886141e0565b908b7f51892fed83b0dcca368d6f6e64db412e0fae3a762cf1075125769f2c35cbe62973ffffffffffffffffffffffffffffffffffffffff886135ad7fffffffffffffffffffffffffffffffff000000000000000000000000000000006134c88b8b8a614347565b9561352b6134e660008d806135ca575b50600184015460801c6129bb565b60018301906fffffffffffffffffffffffffffffffff7fffffffffffffffffffffffffffffffff0000000000000000000000000000000083549260801b169116179055565b6001613537888b6127f7565b9160008c6135b7575b60038201906fffffffffffffffffffffffffffffffff6135648354928284166129bb565b1695869116179055015460801c6040519586951697859293606092919594608085019685526fffffffffffffffffffffffffffffffff8093166020860152604085015216910152565b0390a20194613088565b506135c56129498d8561426a565b613540565b6135d99150612949908b61426a565b8d6134d8565b5063ffffffff60045460401c161515613083565b90925063ffffffff9061360a8260045416866141e0565b917f000000000000000000000000000000000000000000000000000000000000000016906305f5e10061363d83876141e0565b928609613713575b612ba5976136596136ac9361366b93612748565b9060009180613703575060801c6129bb565b89546fffffffffffffffffffffffffffffffff1660809190911b7fffffffffffffffffffffffffffffffff0000000000000000000000000000000016178955565b87546040805183815260809290921c602083015273ffffffffffffffffffffffffffffffffffffffff8416917f1e7efe45410889c1dfe4295b708d0302dbbd270a9409ef6eebc550e6614ca7a19190a2913861304d565b613227919250612949908661426a565b6001820180921115613645577f4e487b7100000000000000000000000000000000000000000000000000000000600052601160045260246000fd5b505050565b61376092939495506127f7565b8381029381850414901517156127555790036fffffffffffffffffffffffffffffffff168082101561379857505b388080808061300a565b905061378e565b50828411613005565b7ffaf8a8e835761789e8d18c5cc5c47ba6813bd5fc052e3e77e4ca0aca9aee4175919392602091856000526006835273ffffffffffffffffffffffffffffffffffffffff60406000209116948560005260018201845260406000209081546fffffffffffffffffffffffffffffffff9161387261382f848416809460801c868a16036140ae565b9685906fffffffffffffffffffffffffffffffff7fffffffffffffffffffffffffffffffff0000000000000000000000000000000083549260801b169116179055565b8061388b575b50505050818154019055604051908152a3565b61389491614072565b167fffffffffffffffffffffffffffffffff0000000000000000000000000000000082541617905538808080613878565b929190926000848152600660205273ffffffffffffffffffffffffffffffffffffffff604082209216938482526001830160205260016040832001918254916fffffffffffffffffffffffffffffffff9261397061392d858316809360801c878b16036140ae565b9786906fffffffffffffffffffffffffffffffff7fffffffffffffffffffffffffffffffff0000000000000000000000000000000083549260801b169116179055565b8382166139b1575b505050505081817f282d381d1410b2c3d61bfcd6e8fb420e27b581ed95e7d5da44dbe20ae206e2739360209354019055604051908152a3565b83916139bc91612999565b16918211613a17575081547fffffffffffffffffffffffffffffffff00000000000000000000000000000000161790558160207f282d381d1410b2c3d61bfcd6e8fb420e27b581ed95e7d5da44dbe20ae206e2733880613978565b807f4e487b7100000000000000000000000000000000000000000000000000000000602492526011600452fd5b92919092600092848452600660205273ffffffffffffffffffffffffffffffffffffffff6040852092169384815260018301602052600160408220019182546fffffffffffffffffffffffffffffffff92613aac61392d858416809460801c878b16036140ae565b838316613aec57505050505081817f282d381d1410b2c3d61bfcd6e8fb420e27b581ed95e7d5da44dbe20ae206e2739360209354019055604051908152a3565b838211613a17575091613b257f282d381d1410b2c3d61bfcd6e8fb420e27b581ed95e7d5da44dbe20ae206e273969492602096946129bb565b167fffffffffffffffffffffffffffffffff000000000000000000000000000000008254161790559181933880613978565b917f282d381d1410b2c3d61bfcd6e8fb420e27b581ed95e7d5da44dbe20ae206e273926020929594866000526006845273ffffffffffffffffffffffffffffffffffffffff6040600020921695866000526001830185526001604060002001918254916fffffffffffffffffffffffffffffffff92613be361392d858316809360801c878b16036140ae565b8382841716613c01575b5050505050818154019055604051908152a3565b613c0e92612b1391612999565b167fffffffffffffffffffffffffffffffff000000000000000000000000000000008254161790553880808080613bed565b919073ffffffffffffffffffffffffffffffffffffffff92837f000000000000000000000000000000000000000000000000000000000000000016916040519460208601927f40c10f19000000000000000000000000000000000000000000000000000000008452166024860152604485015260448452613cc0846125bc565b60405191604083019467ffffffffffffffff95848110878211176125d857604052601e84527f416464726573733a206c6f772d6c6576656c2063616c6c206661696c656400006020850152600080938192519082855af1903d15613da0573d958611613d7357613d70949560405190613d6160207fffffffffffffffffffffffffffffffffffffffffffffffffffffffffffffffe0601f8401160183612607565b8152809360203d92013e6143db565b50565b6024837f4e487b710000000000000000000000000000000000000000000000000000000081526041600452fd5b9150613d709394506060916143db565b73ffffffffffffffffffffffffffffffffffffffff600054163303613dd157565b60046040517fee90c468000000000000000000000000000000000000000000000000000000008152fd5b60005b600b54811015613d705780610100600192176000526020600d81526fffffffffffffffffffffffffffffffff60409173ffffffffffffffffffffffffffffffffffffffff83600020541692836000526005809252600020015416613e64575b5001613dfe565b613e6d90612f74565b5038613e5d565b7f800000000000000000000000000000000000000000000000000000000000000081146127555760000390565b73ffffffffffffffffffffffffffffffffffffffff169081600052600c60205260406000208054928315613ed3575050565b909250600b5460ff8111613f28578060016101009201600b551780935582600052600d6020526040600020907fffffffffffffffffffffffff0000000000000000000000000000000000000000825416179055565b506000925050565b6fffffffffffffffffffffffffffffffff90818111613f4d571690565b604490604051907f6dfcc650000000000000000000000000000000000000000000000000000000008252608060048301526024820152fd5b939061401c6020927f5f3312a2eb02a24af64cb4db10d052c0b897909c61f0b7fb2f1d58dbba310d439495600014614056576112d9613ffe6fffffffffffffffffffffffffffffffff88541663ffffffff7f000000000000000000000000000000000000000000000000000000000000000016906141e0565b875460801c6fffffffffffffffffffffffffffffffff8416036140ae565b73ffffffffffffffffffffffffffffffffffffffff80911694856000526009835260016040600020018581540190556040519485521692a3565b6112d96fffffffffffffffffffffffffffffffff875416613ffe565b906000811215614095576fffffffffffffffffffffffffffffffff809216011690565b6fffffffffffffffffffffffffffffffff809216011690565b7fffffffffffffffffffffffffffffffffffffffffffffffffffffffffffffffff828209908281029283808410930392808403931461416b5768010000000000000000918383111561410d570990828211900360c01b910360401c1790565b60646040517f08c379a000000000000000000000000000000000000000000000000000000000815260206004820152601560248201527f4d6174683a206d756c446976206f766572666c6f7700000000000000000000006044820152fd5b50505060401c90565b7fffffffffffffffffffffffffffffffffffffffffffffffffffffffffffffffff82820990828102928380841093039280840393146141d7576c01000000000000000000000000918383111561410d570990828211900360a01b910360601c1790565b50505060601c90565b907fffffffffffffffffffffffffffffffffffffffffffffffffffffffffffffffff8183098183029182808310920391808303921461425d576305f5e100908282111561410d577facbe0e98f503f8881186e60dbb7f727bf36b7213ee9f5a78c767074b22e90e21940990828211900360f81b910360081c170290565b50506305f5e10091500490565b9068010000000000000000907fffffffffffffffffffffffffffffffffffffffffffffffffffffffffffffffff828409928060401b9283808610950394808603951461430a578483111561410d578291096001821901821680920460028082600302188083028203028083028203028083028203028083028203028083028203028092029003029360018380600003040190848311900302920304170290565b505080925015614318570490565b7f4e487b7100000000000000000000000000000000000000000000000000000000600052601260045260246000fd5b917fffffffffffffffffffffffffffffffffffffffffffffffffffffffffffffffff828409928281029283808610950394808603951461430a578483111561410d578291096001821901821680920460028082600302188083028203028083028203028083028203028083028203028083028203028092029003029360018380600003040190848311900302920304170290565b9192901561445657508151156143ef575090565b3b156143f85790565b60646040517f08c379a000000000000000000000000000000000000000000000000000000000815260206004820152601d60248201527f416464726573733a2063616c6c20746f206e6f6e2d636f6e74726163740000006044820152fd5b8251909150156144695750805190602001fd5b604051907f08c379a000000000000000000000000000000000000000000000000000000000825281602080600483015282519283602484015260005b8481106144e6575050507fffffffffffffffffffffffffffffffffffffffffffffffffffffffffffffffe0601f836000604480968601015201168101030190fd5b8181018301518682016044015285935082016144a556fea26469706673582212201d24dc4f14c02b8f66afab26d5a222fb3dc93b0ac8a4e6c7c94e020bbd0036ac64736f6c63430008180033",
  "linkReferences": {},
  "deployedLinkReferences": {}
}