{
  "_format": "hh-sol-artifact-1",
  "contractName": "MockPositionManager",
  "sourceName": "contracts/test/MockPositionManager.sol",
  "abi": [
    {
      "inputs": [
        {
          "internalType": "address",
          "name": "_EQU",
          "type": "address"
        },
        {
          "internalType": "address",
          "name": "_WETH",
          "type": "address"
        }
      ],
      "stateMutability": "nonpayable",
      "type": "constructor"
    },
    {
      "anonymous": false,
      "inputs": [
        {
          "indexed": true,
          "internalType": "address",
          "name": "owner",
          "type": "address"
        },
        {
          "indexed": true,
          "internalType": "address",
          "name": "approved",
          "type": "address"
        },
        {
          "indexed": true,
          "internalType": "uint256",
          "name": "tokenId",
          "type": "uint256"
        }
      ],
      "name": "Approval",
      "type": "event"
    },
    {
      "anonymous": false,
      "inputs": [
        {
          "indexed": true,
          "internalType": "address",
          "name": "owner",
          "type": "address"
        },
        {
          "indexed": true,
          "internalType": "address",
          "name": "operator",
          "type": "address"
        },
        {
          "indexed": false,
          "internalType": "bool",
          "name": "approved",
          "type": "bool"
        }
      ],
      "name": "ApprovalForAll",
      "type": "event"
    },
    {
      "anonymous": false,
      "inputs": [
        {
          "indexed": true,
          "internalType": "address",
          "name": "from",
          "type": "address"
        },
        {
          "indexed": true,
          "internalType": "address",
          "name": "to",
          "type": "address"
        },
        {
          "indexed": true,
          "internalType": "uint256",
          "name": "tokenId",
          "type": "uint256"
        }
      ],
      "name": "Transfer",
      "type": "event"
    },
    {
      "inputs": [],
      "name": "EQU",
      "outputs": [
        {
          "internalType": "address",
          "name": "",
          "type": "address"
        }
      ],
      "stateMutability": "view",
      "type": "function"
    },
    {
      "inputs": [],
      "name": "WETH",
      "outputs": [
        {
          "internalType": "address",
          "name": "",
          "type": "address"
        }
      ],
      "stateMutability": "view",
      "type": "function"
    },
    {
      "inputs": [
        {
          "internalType": "address",
          "name": "to",
          "type": "address"
        },
        {
          "internalType": "uint256",
          "name": "tokenId",
          "type": "uint256"
        }
      ],
      "name": "approve",
      "outputs": [],
      "stateMutability": "nonpayable",
      "type": "function"
    },
    {
      "inputs": [
        {
          "internalType": "address",
          "name": "owner",
          "type": "address"
        }
      ],
      "name": "balanceOf",
      "outputs": [
        {
          "internalType": "uint256",
          "name": "",
          "type": "uint256"
        }
      ],
      "stateMutability": "view",
      "type": "function"
    },
    {
      "inputs": [],
      "name": "fee",
      "outputs": [
        {
          "internalType": "uint24",
          "name": "",
          "type": "uint24"
        }
      ],
      "stateMutability": "view",
      "type": "function"
    },
    {
      "inputs": [
        {
          "internalType": "uint256",
          "name": "tokenId",
          "type": "uint256"
        }
      ],
      "name": "getApproved",
      "outputs": [
        {
          "internalType": "address",
          "name": "",
          "type": "address"
        }
      ],
      "stateMutability": "view",
      "type": "function"
    },
    {
      "inputs": [
        {
          "internalType": "address",
          "name": "owner",
          "type": "address"
        },
        {
          "internalType": "address",
          "name": "operator",
          "type": "address"
        }
      ],
      "name": "isApprovedForAll",
      "outputs": [
        {
          "internalType": "bool",
          "name": "",
          "type": "bool"
        }
      ],
      "stateMutability": "view",
      "type": "function"
    },
    {
      "inputs": [
        {
          "internalType": "address",
          "name": "_recipient",
          "type": "address"
        }
      ],
      "name": "mint",
      "outputs": [
        {
          "internalType": "uint256",
          "name": "id",
          "type": "uint256"
        }
      ],
      "stateMutability": "nonpayable",
      "type": "function"
    },
    {
      "inputs": [],
      "name": "name",
      "outputs": [
        {
          "internalType": "string",
          "name": "",
          "type": "string"
        }
      ],
      "stateMutability": "view",
      "type": "function"
    },
    {
      "inputs": [
        {
          "internalType": "uint256",
          "name": "tokenId",
          "type": "uint256"
        }
      ],
      "name": "ownerOf",
      "outputs": [
        {
          "internalType": "address",
          "name": "",
          "type": "address"
        }
      ],
      "stateMutability": "view",
      "type": "function"
    },
    {
      "inputs": [
        {
          "internalType": "uint256",
          "name": "",
          "type": "uint256"
        }
      ],
      "name": "positions",
      "outputs": [
        {
          "internalType": "uint96",
          "name": "nonce",
          "type": "uint96"
        },
        {
          "internalType": "address",
          "name": "operator",
          "type": "address"
        },
        {
          "internalType": "address",
          "name": "token0",
          "type": "address"
        },
        {
          "internalType": "address",
          "name": "token1",
          "type": "address"
        },
        {
          "internalType": "uint24",
          "name": "_fee",
          "type": "uint24"
        },
        {
          "internalType": "int24",
          "name": "tickLower",
          "type": "int24"
        },
        {
          "internalType": "int24",
          "name": "tickUpper",
          "type": "int24"
        },
        {
          "internalType": "uint128",
          "name": "liquidity",
          "type": "uint128"
        },
        {
          "internalType": "uint256",
          "name": "feeGrowthInside0LastX128",
          "type": "uint256"
        },
        {
          "internalType": "uint256",
          "name": "feeGrowthInside1LastX128",
          "type": "uint256"
        },
        {
          "internalType": "uint128",
          "name": "tokensOwed0",
          "type": "uint128"
        },
        {
          "internalType": "uint128",
          "name": "tokensOwed1",
          "type": "uint128"
        }
      ],
      "stateMutability": "view",
      "type": "function"
    },
    {
      "inputs": [
        {
          "internalType": "address",
          "name": "from",
          "type": "address"
        },
        {
          "internalType": "address",
          "name": "to",
          "type": "address"
        },
        {
          "internalType": "uint256",
          "name": "tokenId",
          "type": "uint256"
        }
      ],
      "name": "safeTransferFrom",
      "outputs": [],
      "stateMutability": "nonpayable",
      "type": "function"
    },
    {
      "inputs": [
        {
          "internalType": "address",
          "name": "from",
          "type": "address"
        },
        {
          "internalType": "address",
          "name": "to",
          "type": "address"
        },
        {
          "internalType": "uint256",
          "name": "tokenId",
          "type": "uint256"
        },
        {
          "internalType": "bytes",
          "name": "data",
          "type": "bytes"
        }
      ],
      "name": "safeTransferFrom",
      "outputs": [],
      "stateMutability": "nonpayable",
      "type": "function"
    },
    {
      "inputs": [
        {
          "internalType": "address",
          "name": "operator",
          "type": "address"
        },
        {
          "internalType": "bool",
          "name": "approved",
          "type": "bool"
        }
      ],
      "name": "setApprovalForAll",
      "outputs": [],
      "stateMutability": "nonpayable",
      "type": "function"
    },
    {
      "inputs": [
        {
          "internalType": "uint24",
          "name": "_fee",
          "type": "uint24"
        }
      ],
      "name": "setFee",
      "outputs": [],
      "stateMutability": "nonpayable",
      "type": "function"
    },
    {
      "inputs": [
        {
          "internalType": "bytes4",
          "name": "interfaceId",
          "type": "bytes4"
        }
      ],
      "name": "supportsInterface",
      "outputs": [
        {
          "internalType": "bool",
          "name": "",
          "type": "bool"
        }
      ],
      "stateMutability": "view",
      "type": "function"
    },
    {
      "inputs": [],
      "name": "symbol",
      "outputs": [
        {
          "internalType": "string",
          "name": "",
          "type": "string"
        }
      ],
      "stateMutability": "view",
      "type": "function"
    },
    {
      "inputs": [
        {
          "internalType": "uint256",
          "name": "tokenId",
          "type": "uint256"
        }
      ],
      "name": "tokenURI",
      "outputs": [
        {
          "internalType": "string",
          "name": "",
          "type": "string"
        }
      ],
      "stateMutability": "view",
      "type": "function"
    },
    {
      "inputs": [
        {
          "internalType": "address",
          "name": "from",
          "type": "address"
        },
        {
          "internalType": "address",
          "name": "to",
          "type": "address"
        },
        {
          "internalType": "uint256",
          "name": "tokenId",
          "type": "uint256"
        }
      ],
      "name": "transferFrom",
      "outputs": [],
      "stateMutability": "nonpayable",
      "type": "function"
    }
  ],
  "bytecode": "0x6080346200039d576001600160401b03601f601f1962001bb83881900383810183168601919085831187841017620003875780879260409485528339810103126200039d576200004f84620003c2565b926200005f6020809601620003c2565b926200006a620003a2565b926011845270135bd8dad58cd41bdcda5d1a5bdb939195607a1b8785015262000092620003a2565b90600a825269158ccb5413d4cb53919560b21b8883015284519084821162000387576000918254966001978881811c911680156200037c575b8c8210146200036857908b828885941162000312575b50508b90878311600114620002ad578592620002a1575b5050600019600383901b1c191690871b1782555b82519485116200028d5785548681811c9116801562000282575b8a8210146200026e5784811162000226575b5088938511600114620001c0575083949596975092620001b4575b5050600019600383901b1c191690821b1790555b6009805462ffffff1916610bb8179055600680546001600160a01b03199081166001600160a01b039485161790915560078054909116919092161790556040516117e09081620003d88239f35b01519050388062000153565b8493929193169785845280842093905b8982106200020e575050838596979810620001f4575b505050811b01905562000167565b015160001960f88460031b161c19169055388080620001e6565b808785968294968601518155019501930190620001d0565b8683528983208580880160051c8201928c891062000264575b0160051c019087905b8281106200025857505062000138565b84815501879062000248565b925081926200023f565b634e487b7160e01b83526022600452602483fd5b90607f169062000126565b634e487b7160e01b82526041600452602482fd5b015190503880620000f8565b908c91858b95168780528388209388905b828210620002f85750508411620002de575b505050811b0182556200010c565b015160001960f88460031b161c19169055388080620002d0565b8484015186558d97909501949384019390810190620002be565b90919250858052878287209181860160051c83019386106200035e575b918b91869594930160051c01915b8281106200034f57508d9150620000e1565b8781558594508b91016200033d565b925081926200032f565b634e487b7160e01b85526022600452602485fd5b90607f1690620000cb565b634e487b7160e01b600052604160045260246000fd5b600080fd5b60408051919082016001600160401b038111838210176200038757604052565b51906001600160a01b03821682036200039d5756fe60806040908082526004908136101561001757600080fd5b600092833560e01c91826301ffc9a714610df35750816306fdde0314610d07578163081812fc14610cb3578163095ea7b314610ab357816323b872dd14610a8957816342842e0e14610a605781636352211e14610a045781636a6278421461086e57816370a082311461078057816395d89b411461060d57816399fbab881461053e578163a22cb4651461040c578163ad5c4648146103b9578163b88d4fde1461030e578163c2aa99a5146102bb578163c87b56dd1461021f578163ddca3f43146101dd578163e985e9c514610164575063eabb5622146100f757600080fd5b346101605760207ffffffffffffffffffffffffffffffffffffffffffffffffffffffffffffffffc360112610160573562ffffff8116809103610160577fffffffffffffffffffffffffffffffffffffffffffffffffffffffffff000000600954161760095580f35b5080fd5b83903461016057807ffffffffffffffffffffffffffffffffffffffffffffffffffffffffffffffffc3601126101605760ff816020936101a2610f3f565b6101aa610f67565b73ffffffffffffffffffffffffffffffffffffffff91821683526005875283832091168252855220549151911615158152f35b83903461016057817ffffffffffffffffffffffffffffffffffffffffffffffffffffffffffffffffc3601126101605760209062ffffff600954169051908152f35b839150346101605760207ffffffffffffffffffffffffffffffffffffffffffffffffffffffffffffffffc3601126101605761028a6102856102b79435600052600260205273ffffffffffffffffffffffffffffffffffffffff60406000205416151590565b611192565b81815161029681610fea565b528051916102a383610fea565b825251918291602083526020830190610ee1565b0390f35b83903461016057817ffffffffffffffffffffffffffffffffffffffffffffffffffffffffffffffffc3601126101605760209073ffffffffffffffffffffffffffffffffffffffff600654169051908152f35b9050346103b55760807ffffffffffffffffffffffffffffffffffffffffffffffffffffffffffffffffc3601126103b557610347610f3f565b61034f610f67565b846064359467ffffffffffffffff86116101605736602387011215610160578501359461038761037e87611076565b95519586611035565b858552366024878301011161016057856103b296602460209301838801378501015260443591611229565b80f35b8280fd5b83903461016057817ffffffffffffffffffffffffffffffffffffffffffffffffffffffffffffffffc3601126101605760209073ffffffffffffffffffffffffffffffffffffffff600754169051908152f35b9050346103b557807ffffffffffffffffffffffffffffffffffffffffffffffffffffffffffffffffc3601126103b557610444610f3f565b906024359182151580930361053a5773ffffffffffffffffffffffffffffffffffffffff16928333146104de575033845260056020528084208385526020528084207fffffffffffffffffffffffffffffffffffffffffffffffffffffffffffffff0081541660ff8416179055519081527f17307eab39ab6107e8899845ad3d59bd9653f200f220920489ca2b5937696c3160203392a380f35b602060649251917f08c379a0000000000000000000000000000000000000000000000000000000008352820152601960248201527f4552433732313a20617070726f766520746f2063616c6c6572000000000000006044820152fd5b8480fd5b8390346101605760207ffffffffffffffffffffffffffffffffffffffffffffffffffffffffffffffffc360112610160576101809173ffffffffffffffffffffffffffffffffffffffff8060065416906007541662ffffff6009541691845194848652846020870152850152606084015260808301527ffffffffffffffffffffffffffffffffffffffffffffffffffffffffffff2764c60a0830152620d89b460c08301526623867f0e4b496a60e0830152806101008301528061012083015280610140830152610160820152f35b9050823461077d57807ffffffffffffffffffffffffffffffffffffffffffffffffffffffffffffffffc36011261077d5781519181600192600154938460011c9160018616958615610773575b6020968785108114610747578899509688969785829a5291826000146107025750506001146106a6575b5050506102b79291610697910385611035565b51928284938452830190610ee1565b9190869350600183527fb10e2d527612073b26eecdfd717e6a320cf44b4afac2b0732d9fcbe2b7fa0cf65b8284106106ea57505050820101816106976102b7610684565b8054848a0186015288955087949093019281016106d1565b7fffffffffffffffffffffffffffffffffffffffffffffffffffffffffffffff00168782015293151560051b8601909301935084925061069791506102b79050610684565b60248360228c7f4e487b7100000000000000000000000000000000000000000000000000000000835252fd5b92607f169261065a565b80fd5b8383346101605760207ffffffffffffffffffffffffffffffffffffffffffffffffffffffffffffffffc3601126101605773ffffffffffffffffffffffffffffffffffffffff6107ce610f3f565b169081156107eb5760208480858581526003845220549051908152f35b60849060208551917f08c379a0000000000000000000000000000000000000000000000000000000008352820152602960248201527f4552433732313a2061646472657373207a65726f206973206e6f74206120766160448201527f6c6964206f776e657200000000000000000000000000000000000000000000006064820152fd5b8391503461016057602092837ffffffffffffffffffffffffffffffffffffffffffffffffffffffffffffffffc3601126103b5576108aa610f3f565b9173ffffffffffffffffffffffffffffffffffffffff6001600854019384600855169182156109aa575090829161090d61090784600052600260205273ffffffffffffffffffffffffffffffffffffffff60406000205416151590565b15611563565b61093d61090784600052600260205273ffffffffffffffffffffffffffffffffffffffff60406000205416151590565b818552600386528085206001815401905582855260028652808520827fffffffffffffffffffffffff000000000000000000000000000000000000000082541617905551937fddf252ad1be2c89b69c2b068fc378daa952ba7f163c4a11628f55a4df523b3ef8180a48152f35b858060649351927f08c379a000000000000000000000000000000000000000000000000000000000845283015260248201527f4552433732313a206d696e7420746f20746865207a65726f20616464726573736044820152fd5b9050823461077d5760207ffffffffffffffffffffffffffffffffffffffffffffffffffffffffffffffffc36011261077d575073ffffffffffffffffffffffffffffffffffffffff610a58602093356111f7565b915191168152f35b839034610160576103b290610a7436610f8a565b91925192610a8184610fea565b858452611229565b833461077d576103b2610a9b36610f8a565b91610aae610aa984336112d9565b611107565b6113df565b919050346103b557817ffffffffffffffffffffffffffffffffffffffffffffffffffffffffffffffffc3601126103b557610aec610f3f565b906024359273ffffffffffffffffffffffffffffffffffffffff918280610b12876111f7565b16941693808514610c3057803314908115610c11575b5015610b8f578486526020528420827fffffffffffffffffffffffff0000000000000000000000000000000000000000825416179055610b67836111f7565b167f8c5be1e5ebec7d5bd14f71427d1e84f3dd0314c0f7b2291e5b200ac8c7c3b9258480a480f35b602060849251917f08c379a0000000000000000000000000000000000000000000000000000000008352820152603d60248201527f4552433732313a20617070726f76652063616c6c6572206973206e6f7420746f60448201527f6b656e206f776e6572206f7220617070726f76656420666f7220616c6c0000006064820152fd5b90508652600560205281862033875260205260ff828720541638610b28565b50602060849251917f08c379a0000000000000000000000000000000000000000000000000000000008352820152602160248201527f4552433732313a20617070726f76616c20746f2063757272656e74206f776e6560448201527f72000000000000000000000000000000000000000000000000000000000000006064820152fd5b9050823461077d5760207ffffffffffffffffffffffffffffffffffffffffffffffffffffffffffffffffc36011261077d575073ffffffffffffffffffffffffffffffffffffffff610a58602093356110b0565b9050823461077d57807ffffffffffffffffffffffffffffffffffffffffffffffffffffffffffffffffc36011261077d578151918182549260018460011c9160018616958615610de9575b6020968785108114610747578899509688969785829a529182600014610702575050600114610d8e575050506102b79291610697910385611035565b91908693508280527f290decd9548b62a8d60345a988386fc84ba6bc95484008f6362f93160ef3e5635b828410610dd157505050820101816106976102b7610684565b8054848a018601528895508794909301928101610db8565b92607f1692610d52565b849084346103b55760207ffffffffffffffffffffffffffffffffffffffffffffffffffffffffffffffffc3601126103b557357fffffffff0000000000000000000000000000000000000000000000000000000081168091036103b557602092507f80ac58cd000000000000000000000000000000000000000000000000000000008114908115610eb7575b8115610e8d575b5015158152f35b7f01ffc9a70000000000000000000000000000000000000000000000000000000091501483610e86565b7f5b5e139f0000000000000000000000000000000000000000000000000000000081149150610e7f565b919082519283825260005b848110610f2b5750507fffffffffffffffffffffffffffffffffffffffffffffffffffffffffffffffe0601f8460006020809697860101520116010190565b602081830181015184830182015201610eec565b6004359073ffffffffffffffffffffffffffffffffffffffff82168203610f6257565b600080fd5b6024359073ffffffffffffffffffffffffffffffffffffffff82168203610f6257565b7ffffffffffffffffffffffffffffffffffffffffffffffffffffffffffffffffc6060910112610f625773ffffffffffffffffffffffffffffffffffffffff906004358281168103610f6257916024359081168103610f62579060443590565b6020810190811067ffffffffffffffff82111761100657604052565b7f4e487b7100000000000000000000000000000000000000000000000000000000600052604160045260246000fd5b90601f7fffffffffffffffffffffffffffffffffffffffffffffffffffffffffffffffe0910116810190811067ffffffffffffffff82111761100657604052565b67ffffffffffffffff811161100657601f017fffffffffffffffffffffffffffffffffffffffffffffffffffffffffffffffe01660200190565b6110e061028582600052600260205273ffffffffffffffffffffffffffffffffffffffff60406000205416151590565b600052600460205273ffffffffffffffffffffffffffffffffffffffff6040600020541690565b1561110e57565b60846040517f08c379a000000000000000000000000000000000000000000000000000000000815260206004820152602d60248201527f4552433732313a2063616c6c6572206973206e6f7420746f6b656e206f776e6560448201527f72206f7220617070726f766564000000000000000000000000000000000000006064820152fd5b1561119957565b60646040517f08c379a000000000000000000000000000000000000000000000000000000000815260206004820152601860248201527f4552433732313a20696e76616c696420746f6b656e20494400000000000000006044820152fd5b600052600260205273ffffffffffffffffffffffffffffffffffffffff60406000205416611226811515611192565b90565b9061124d93929161123d610aa984336112d9565b6112488383836113df565b6115c8565b1561125457565b6040517f08c379a000000000000000000000000000000000000000000000000000000000815260206004820152603260248201527f4552433732313a207472616e7366657220746f206e6f6e20455243373231526560448201527f63656976657220696d706c656d656e74657200000000000000000000000000006064820152608490fd5b9073ffffffffffffffffffffffffffffffffffffffff80806112fa846111f7565b1693169183831493841561132d575b508315611317575b50505090565b611323919293506110b0565b1614388080611311565b909350600052600560205260406000208260005260205260ff604060002054169238611309565b1561135b57565b60846040517f08c379a000000000000000000000000000000000000000000000000000000000815260206004820152602560248201527f4552433732313a207472616e736665722066726f6d20696e636f72726563742060448201527f6f776e65720000000000000000000000000000000000000000000000000000006064820152fd5b90611414916113ed846111f7565b9173ffffffffffffffffffffffffffffffffffffffff938493848094169485911614611354565b169182156114e057816114319161142a866111f7565b1614611354565b7fddf252ad1be2c89b69c2b068fc378daa952ba7f163c4a11628f55a4df523b3ef60008481526004602052604081207fffffffffffffffffffffffff0000000000000000000000000000000000000000908181541690558382526003602052604082207fffffffffffffffffffffffffffffffffffffffffffffffffffffffffffffffff81540190558482526040822060018154019055858252600260205284604083209182541617905580a4565b60846040517f08c379a0000000000000000000000000000000000000000000000000000000008152602060048201526024808201527f4552433732313a207472616e7366657220746f20746865207a65726f2061646460448201527f72657373000000000000000000000000000000000000000000000000000000006064820152fd5b1561156a57565b60646040517f08c379a000000000000000000000000000000000000000000000000000000000815260206004820152601c60248201527f4552433732313a20746f6b656e20616c7265616479206d696e746564000000006044820152fd5b9293919290803b156117a0576116439473ffffffffffffffffffffffffffffffffffffffff94604051928391877f150b7a02000000000000000000000000000000000000000000000000000000009687855233600486015216602484015260448301526080606483015281806020998a956084830190610ee1565b03916000988991165af1849181611748575b5061171f575050503d600014611717573d61166f81611076565b9061167d6040519283611035565b81528091833d92013e5b80519182611714576040517f08c379a000000000000000000000000000000000000000000000000000000000815260206004820152603260248201527f4552433732313a207472616e7366657220746f206e6f6e20455243373231526560448201527f63656976657220696d706c656d656e74657200000000000000000000000000006064820152608490fd5b01fd5b506060611687565b7fffffffff00000000000000000000000000000000000000000000000000000000161492509050565b9091508581813d8311611799575b6117608183611035565b8101031261053a57517fffffffff000000000000000000000000000000000000000000000000000000008116810361053a579038611655565b503d611756565b505091505060019056fea2646970667358221220051f783e7aa08880065ed92bab9946512dca6cdbb0f920a03a973c7a6117c7f964736f6c63430008180033",
  "linkReferences": {},
  "deployedLinkReferences": {}
}