{
  "_format": "hh-sol-artifact-1",
  "contractName": "EFCGovernor",
  "sourceName": "contracts/governance/EFCGovernor.sol",
  "abi": [
    {
      "inputs": [
        {
          "internalType": "contract IVotes",
          "name": "_token",
          "type": "address"
        },
        {
          "internalType": "contract IEQUGovernor",
          "name": "_EQUGovernor",
          "type": "address"
        },
        {
          "internalType": "contract TimelockController",
          "name": "_timelock",
          "type": "address"
        }
      ],
      "stateMutability": "nonpayable",
      "type": "constructor"
    },
    {
      "inputs": [],
      "name": "EQUProposalNotSucceeded",
      "type": "error"
    },
    {
      "inputs": [],
      "name": "Empty",
      "type": "error"
    },
    {
      "inputs": [],
      "name": "HashProposalNotTheSame",
      "type": "error"
    },
    {
      "inputs": [],
      "name": "InvalidShortString",
      "type": "error"
    },
    {
      "inputs": [
        {
          "internalType": "string",
          "name": "str",
          "type": "string"
        }
      ],
      "name": "StringTooLong",
      "type": "error"
    },
    {
      "anonymous": false,
      "inputs": [],
      "name": "EIP712DomainChanged",
      "type": "event"
    },
    {
      "anonymous": false,
      "inputs": [
        {
          "indexed": false,
          "internalType": "uint256",
          "name": "proposalId",
          "type": "uint256"
        }
      ],
      "name": "ProposalCanceled",
      "type": "event"
    },
    {
      "anonymous": false,
      "inputs": [
        {
          "indexed": false,
          "internalType": "uint256",
          "name": "proposalId",
          "type": "uint256"
        },
        {
          "indexed": false,
          "internalType": "address",
          "name": "proposer",
          "type": "address"
        },
        {
          "indexed": false,
          "internalType": "address[]",
          "name": "targets",
          "type": "address[]"
        },
        {
          "indexed": false,
          "internalType": "uint256[]",
          "name": "values",
          "type": "uint256[]"
        },
        {
          "indexed": false,
          "internalType": "string[]",
          "name": "signatures",
          "type": "string[]"
        },
        {
          "indexed": false,
          "internalType": "bytes[]",
          "name": "calldatas",
          "type": "bytes[]"
        },
        {
          "indexed": false,
          "internalType": "uint256",
          "name": "voteStart",
          "type": "uint256"
        },
        {
          "indexed": false,
          "internalType": "uint256",
          "name": "voteEnd",
          "type": "uint256"
        },
        {
          "indexed": false,
          "internalType": "string",
          "name": "description",
          "type": "string"
        }
      ],
      "name": "ProposalCreated",
      "type": "event"
    },
    {
      "anonymous": false,
      "inputs": [
        {
          "indexed": false,
          "internalType": "uint256",
          "name": "proposalId",
          "type": "uint256"
        }
      ],
      "name": "ProposalExecuted",
      "type": "event"
    },
    {
      "anonymous": false,
      "inputs": [
        {
          "indexed": false,
          "internalType": "uint256",
          "name": "proposalId",
          "type": "uint256"
        },
        {
          "indexed": false,
          "internalType": "uint256",
          "name": "eta",
          "type": "uint256"
        }
      ],
      "name": "ProposalQueued",
      "type": "event"
    },
    {
      "anonymous": false,
      "inputs": [
        {
          "indexed": false,
          "internalType": "uint256",
          "name": "oldProposalThreshold",
          "type": "uint256"
        },
        {
          "indexed": false,
          "internalType": "uint256",
          "name": "newProposalThreshold",
          "type": "uint256"
        }
      ],
      "name": "ProposalThresholdSet",
      "type": "event"
    },
    {
      "anonymous": false,
      "inputs": [
        {
          "indexed": false,
          "internalType": "uint256",
          "name": "oldQuorumNumerator",
          "type": "uint256"
        },
        {
          "indexed": false,
          "internalType": "uint256",
          "name": "newQuorumNumerator",
          "type": "uint256"
        }
      ],
      "name": "QuorumNumeratorUpdated",
      "type": "event"
    },
    {
      "anonymous": false,
      "inputs": [
        {
          "indexed": false,
          "internalType": "address",
          "name": "oldTimelock",
          "type": "address"
        },
        {
          "indexed": false,
          "internalType": "address",
          "name": "newTimelock",
          "type": "address"
        }
      ],
      "name": "TimelockChange",
      "type": "event"
    },
    {
      "anonymous": false,
      "inputs": [
        {
          "indexed": true,
          "internalType": "address",
          "name": "voter",
          "type": "address"
        },
        {
          "indexed": false,
          "internalType": "uint256",
          "name": "proposalId",
          "type": "uint256"
        },
        {
          "indexed": false,
          "internalType": "uint8",
          "name": "support",
          "type": "uint8"
        },
        {
          "indexed": false,
          "internalType": "uint256",
          "name": "weight",
          "type": "uint256"
        },
        {
          "indexed": false,
          "internalType": "string",
          "name": "reason",
          "type": "string"
        }
      ],
      "name": "VoteCast",
      "type": "event"
    },
    {
      "anonymous": false,
      "inputs": [
        {
          "indexed": true,
          "internalType": "address",
          "name": "voter",
          "type": "address"
        },
        {
          "indexed": false,
          "internalType": "uint256",
          "name": "proposalId",
          "type": "uint256"
        },
        {
          "indexed": false,
          "internalType": "uint8",
          "name": "support",
          "type": "uint8"
        },
        {
          "indexed": false,
          "internalType": "uint256",
          "name": "weight",
          "type": "uint256"
        },
        {
          "indexed": false,
          "internalType": "string",
          "name": "reason",
          "type": "string"
        },
        {
          "indexed": false,
          "internalType": "bytes",
          "name": "params",
          "type": "bytes"
        }
      ],
      "name": "VoteCastWithParams",
      "type": "event"
    },
    {
      "anonymous": false,
      "inputs": [
        {
          "indexed": false,
          "internalType": "uint256",
          "name": "oldVotingDelay",
          "type": "uint256"
        },
        {
          "indexed": false,
          "internalType": "uint256",
          "name": "newVotingDelay",
          "type": "uint256"
        }
      ],
      "name": "VotingDelaySet",
      "type": "event"
    },
    {
      "anonymous": false,
      "inputs": [
        {
          "indexed": false,
          "internalType": "uint256",
          "name": "oldVotingPeriod",
          "type": "uint256"
        },
        {
          "indexed": false,
          "internalType": "uint256",
          "name": "newVotingPeriod",
          "type": "uint256"
        }
      ],
      "name": "VotingPeriodSet",
      "type": "event"
    },
    {
      "inputs": [],
      "name": "BALLOT_TYPEHASH",
      "outputs": [
        {
          "internalType": "bytes32",
          "name": "",
          "type": "bytes32"
        }
      ],
      "stateMutability": "view",
      "type": "function"
    },
    {
      "inputs": [],
      "name": "CLOCK_MODE",
      "outputs": [
        {
          "internalType": "string",
          "name": "",
          "type": "string"
        }
      ],
      "stateMutability": "view",
      "type": "function"
    },
    {
      "inputs": [],
      "name": "COUNTING_MODE",
      "outputs": [
        {
          "internalType": "string",
          "name": "",
          "type": "string"
        }
      ],
      "stateMutability": "pure",
      "type": "function"
    },
    {
      "inputs": [],
      "name": "EQUGovernor",
      "outputs": [
        {
          "internalType": "contract IEQUGovernor",
          "name": "",
          "type": "address"
        }
      ],
      "stateMutability": "view",
      "type": "function"
    },
    {
      "inputs": [],
      "name": "EXTENDED_BALLOT_TYPEHASH",
      "outputs": [
        {
          "internalType": "bytes32",
          "name": "",
          "type": "bytes32"
        }
      ],
      "stateMutability": "view",
      "type": "function"
    },
    {
      "inputs": [
        {
          "internalType": "address[]",
          "name": "targets",
          "type": "address[]"
        },
        {
          "internalType": "uint256[]",
          "name": "values",
          "type": "uint256[]"
        },
        {
          "internalType": "bytes[]",
          "name": "calldatas",
          "type": "bytes[]"
        },
        {
          "internalType": "bytes32",
          "name": "descriptionHash",
          "type": "bytes32"
        }
      ],
      "name": "cancel",
      "outputs": [
        {
          "internalType": "uint256",
          "name": "",
          "type": "uint256"
        }
      ],
      "stateMutability": "nonpayable",
      "type": "function"
    },
    {
      "inputs": [
        {
          "internalType": "uint256",
          "name": "proposalId",
          "type": "uint256"
        },
        {
          "internalType": "uint8",
          "name": "support",
          "type": "uint8"
        }
      ],
      "name": "castVote",
      "outputs": [
        {
          "internalType": "uint256",
          "name": "",
          "type": "uint256"
        }
      ],
      "stateMutability": "nonpayable",
      "type": "function"
    },
    {
      "inputs": [
        {
          "internalType": "uint256",
          "name": "proposalId",
          "type": "uint256"
        },
        {
          "internalType": "uint8",
          "name": "support",
          "type": "uint8"
        },
        {
          "internalType": "uint8",
          "name": "v",
          "type": "uint8"
        },
        {
          "internalType": "bytes32",
          "name": "r",
          "type": "bytes32"
        },
        {
          "internalType": "bytes32",
          "name": "s",
          "type": "bytes32"
        }
      ],
      "name": "castVoteBySig",
      "outputs": [
        {
          "internalType": "uint256",
          "name": "",
          "type": "uint256"
        }
      ],
      "stateMutability": "nonpayable",
      "type": "function"
    },
    {
      "inputs": [
        {
          "internalType": "uint256",
          "name": "proposalId",
          "type": "uint256"
        },
        {
          "internalType": "uint8",
          "name": "support",
          "type": "uint8"
        },
        {
          "internalType": "string",
          "name": "reason",
          "type": "string"
        }
      ],
      "name": "castVoteWithReason",
      "outputs": [
        {
          "internalType": "uint256",
          "name": "",
          "type": "uint256"
        }
      ],
      "stateMutability": "nonpayable",
      "type": "function"
    },
    {
      "inputs": [
        {
          "internalType": "uint256",
          "name": "proposalId",
          "type": "uint256"
        },
        {
          "internalType": "uint8",
          "name": "support",
          "type": "uint8"
        },
        {
          "internalType": "string",
          "name": "reason",
          "type": "string"
        },
        {
          "internalType": "bytes",
          "name": "params",
          "type": "bytes"
        }
      ],
      "name": "castVoteWithReasonAndParams",
      "outputs": [
        {
          "internalType": "uint256",
          "name": "",
          "type": "uint256"
        }
      ],
      "stateMutability": "nonpayable",
      "type": "function"
    },
    {
      "inputs": [
        {
          "internalType": "uint256",
          "name": "proposalId",
          "type": "uint256"
        },
        {
          "internalType": "uint8",
          "name": "support",
          "type": "uint8"
        },
        {
          "internalType": "string",
          "name": "reason",
          "type": "string"
        },
        {
          "internalType": "bytes",
          "name": "params",
          "type": "bytes"
        },
        {
          "internalType": "uint8",
          "name": "v",
          "type": "uint8"
        },
        {
          "internalType": "bytes32",
          "name": "r",
          "type": "bytes32"
        },
        {
          "internalType": "bytes32",
          "name": "s",
          "type": "bytes32"
        }
      ],
      "name": "castVoteWithReasonAndParamsBySig",
      "outputs": [
        {
          "internalType": "uint256",
          "name": "",
          "type": "uint256"
        }
      ],
      "stateMutability": "nonpayable",
      "type": "function"
    },
    {
      "inputs": [],
      "name": "clock",
      "outputs": [
        {
          "internalType": "uint48",
          "name": "",
          "type": "uint48"
        }
      ],
      "stateMutability": "view",
      "type": "function"
    },
    {
      "inputs": [],
      "name": "eip712Domain",
      "outputs": [
        {
          "internalType": "bytes1",
          "name": "fields",
          "type": "bytes1"
        },
        {
          "internalType": "string",
          "name": "name",
          "type": "string"
        },
        {
          "internalType": "string",
          "name": "version",
          "type": "string"
        },
        {
          "internalType": "uint256",
          "name": "chainId",
          "type": "uint256"
        },
        {
          "internalType": "address",
          "name": "verifyingContract",
          "type": "address"
        },
        {
          "internalType": "bytes32",
          "name": "salt",
          "type": "bytes32"
        },
        {
          "internalType": "uint256[]",
          "name": "extensions",
          "type": "uint256[]"
        }
      ],
      "stateMutability": "view",
      "type": "function"
    },
    {
      "inputs": [
        {
          "internalType": "address[]",
          "name": "targets",
          "type": "address[]"
        },
        {
          "internalType": "uint256[]",
          "name": "values",
          "type": "uint256[]"
        },
        {
          "internalType": "bytes[]",
          "name": "calldatas",
          "type": "bytes[]"
        },
        {
          "internalType": "bytes32",
          "name": "descriptionHash",
          "type": "bytes32"
        }
      ],
      "name": "execute",
      "outputs": [
        {
          "internalType": "uint256",
          "name": "",
          "type": "uint256"
        }
      ],
      "stateMutability": "payable",
      "type": "function"
    },
    {
      "inputs": [],
      "name": "executor",
      "outputs": [
        {
          "internalType": "address",
          "name": "",
          "type": "address"
        }
      ],
      "stateMutability": "view",
      "type": "function"
    },
    {
      "inputs": [
        {
          "internalType": "address",
          "name": "account",
          "type": "address"
        },
        {
          "internalType": "uint256",
          "name": "timepoint",
          "type": "uint256"
        }
      ],
      "name": "getVotes",
      "outputs": [
        {
          "internalType": "uint256",
          "name": "",
          "type": "uint256"
        }
      ],
      "stateMutability": "view",
      "type": "function"
    },
    {
      "inputs": [
        {
          "internalType": "address",
          "name": "account",
          "type": "address"
        },
        {
          "internalType": "uint256",
          "name": "timepoint",
          "type": "uint256"
        },
        {
          "internalType": "bytes",
          "name": "params",
          "type": "bytes"
        }
      ],
      "name": "getVotesWithParams",
      "outputs": [
        {
          "internalType": "uint256",
          "name": "",
          "type": "uint256"
        }
      ],
      "stateMutability": "view",
      "type": "function"
    },
    {
      "inputs": [
        {
          "internalType": "uint256",
          "name": "proposalId",
          "type": "uint256"
        },
        {
          "internalType": "address",
          "name": "account",
          "type": "address"
        }
      ],
      "name": "hasVoted",
      "outputs": [
        {
          "internalType": "bool",
          "name": "",
          "type": "bool"
        }
      ],
      "stateMutability": "view",
      "type": "function"
    },
    {
      "inputs": [
        {
          "internalType": "address[]",
          "name": "targets",
          "type": "address[]"
        },
        {
          "internalType": "uint256[]",
          "name": "values",
          "type": "uint256[]"
        },
        {
          "internalType": "bytes[]",
          "name": "calldatas",
          "type": "bytes[]"
        },
        {
          "internalType": "bytes32",
          "name": "descriptionHash",
          "type": "bytes32"
        }
      ],
      "name": "hashProposal",
      "outputs": [
        {
          "internalType": "uint256",
          "name": "",
          "type": "uint256"
        }
      ],
      "stateMutability": "pure",
      "type": "function"
    },
    {
      "inputs": [],
      "name": "name",
      "outputs": [
        {
          "internalType": "string",
          "name": "",
          "type": "string"
        }
      ],
      "stateMutability": "view",
      "type": "function"
    },
    {
      "inputs": [
        {
          "internalType": "address",
          "name": "",
          "type": "address"
        },
        {
          "internalType": "address",
          "name": "",
          "type": "address"
        },
        {
          "internalType": "uint256[]",
          "name": "",
          "type": "uint256[]"
        },
        {
          "internalType": "uint256[]",
          "name": "",
          "type": "uint256[]"
        },
        {
          "internalType": "bytes",
          "name": "",
          "type": "bytes"
        }
      ],
      "name": "onERC1155BatchReceived",
      "outputs": [
        {
          "internalType": "bytes4",
          "name": "",
          "type": "bytes4"
        }
      ],
      "stateMutability": "nonpayable",
      "type": "function"
    },
    {
      "inputs": [
        {
          "internalType": "address",
          "name": "",
          "type": "address"
        },
        {
          "internalType": "address",
          "name": "",
          "type": "address"
        },
        {
          "internalType": "uint256",
          "name": "",
          "type": "uint256"
        },
        {
          "internalType": "uint256",
          "name": "",
          "type": "uint256"
        },
        {
          "internalType": "bytes",
          "name": "",
          "type": "bytes"
        }
      ],
      "name": "onERC1155Received",
      "outputs": [
        {
          "internalType": "bytes4",
          "name": "",
          "type": "bytes4"
        }
      ],
      "stateMutability": "nonpayable",
      "type": "function"
    },
    {
      "inputs": [
        {
          "internalType": "address",
          "name": "",
          "type": "address"
        },
        {
          "internalType": "address",
          "name": "",
          "type": "address"
        },
        {
          "internalType": "uint256",
          "name": "",
          "type": "uint256"
        },
        {
          "internalType": "bytes",
          "name": "",
          "type": "bytes"
        }
      ],
      "name": "onERC721Received",
      "outputs": [
        {
          "internalType": "bytes4",
          "name": "",
          "type": "bytes4"
        }
      ],
      "stateMutability": "nonpayable",
      "type": "function"
    },
    {
      "inputs": [
        {
          "internalType": "uint256",
          "name": "proposalId",
          "type": "uint256"
        }
      ],
      "name": "proposalDeadline",
      "outputs": [
        {
          "internalType": "uint256",
          "name": "",
          "type": "uint256"
        }
      ],
      "stateMutability": "view",
      "type": "function"
    },
    {
      "inputs": [
        {
          "internalType": "uint256",
          "name": "proposalId",
          "type": "uint256"
        }
      ],
      "name": "proposalEta",
      "outputs": [
        {
          "internalType": "uint256",
          "name": "",
          "type": "uint256"
        }
      ],
      "stateMutability": "view",
      "type": "function"
    },
    {
      "inputs": [
        {
          "internalType": "uint256",
          "name": "proposalId",
          "type": "uint256"
        }
      ],
      "name": "proposalProposer",
      "outputs": [
        {
          "internalType": "address",
          "name": "",
          "type": "address"
        }
      ],
      "stateMutability": "view",
      "type": "function"
    },
    {
      "inputs": [
        {
          "internalType": "uint256",
          "name": "proposalId",
          "type": "uint256"
        }
      ],
      "name": "proposalSnapshot",
      "outputs": [
        {
          "internalType": "uint256",
          "name": "",
          "type": "uint256"
        }
      ],
      "stateMutability": "view",
      "type": "function"
    },
    {
      "inputs": [],
      "name": "proposalThreshold",
      "outputs": [
        {
          "internalType": "uint256",
          "name": "",
          "type": "uint256"
        }
      ],
      "stateMutability": "view",
      "type": "function"
    },
    {
      "inputs": [
        {
          "internalType": "uint256",
          "name": "proposalId",
          "type": "uint256"
        }
      ],
      "name": "proposalVotes",
      "outputs": [
        {
          "internalType": "uint256",
          "name": "againstVotes",
          "type": "uint256"
        },
        {
          "internalType": "uint256",
          "name": "forVotes",
          "type": "uint256"
        },
        {
          "internalType": "uint256",
          "name": "abstainVotes",
          "type": "uint256"
        }
      ],
      "stateMutability": "view",
      "type": "function"
    },
    {
      "inputs": [
        {
          "internalType": "address[]",
          "name": "targets",
          "type": "address[]"
        },
        {
          "internalType": "uint256[]",
          "name": "values",
          "type": "uint256[]"
        },
        {
          "internalType": "bytes[]",
          "name": "calldatas",
          "type": "bytes[]"
        },
        {
          "internalType": "string",
          "name": "description",
          "type": "string"
        }
      ],
      "name": "propose",
      "outputs": [
        {
          "internalType": "uint256",
          "name": "",
          "type": "uint256"
        }
      ],
      "stateMutability": "nonpayable",
      "type": "function"
    },
    {
      "inputs": [
        {
          "internalType": "address[]",
          "name": "targets",
          "type": "address[]"
        },
        {
          "internalType": "uint256[]",
          "name": "values",
          "type": "uint256[]"
        },
        {
          "internalType": "bytes[]",
          "name": "calldatas",
          "type": "bytes[]"
        },
        {
          "internalType": "bytes32",
          "name": "descriptionHash",
          "type": "bytes32"
        }
      ],
      "name": "queue",
      "outputs": [
        {
          "internalType": "uint256",
          "name": "",
          "type": "uint256"
        }
      ],
      "stateMutability": "nonpayable",
      "type": "function"
    },
    {
      "inputs": [
        {
          "internalType": "uint256",
          "name": "blockNumber",
          "type": "uint256"
        }
      ],
      "name": "quorum",
      "outputs": [
        {
          "internalType": "uint256",
          "name": "",
          "type": "uint256"
        }
      ],
      "stateMutability": "view",
      "type": "function"
    },
    {
      "inputs": [],
      "name": "quorumDenominator",
      "outputs": [
        {
          "internalType": "uint256",
          "name": "",
          "type": "uint256"
        }
      ],
      "stateMutability": "view",
      "type": "function"
    },
    {
      "inputs": [
        {
          "internalType": "uint256",
          "name": "timepoint",
          "type": "uint256"
        }
      ],
      "name": "quorumNumerator",
      "outputs": [
        {
          "internalType": "uint256",
          "name": "",
          "type": "uint256"
        }
      ],
      "stateMutability": "view",
      "type": "function"
    },
    {
      "inputs": [],
      "name": "quorumNumerator",
      "outputs": [
        {
          "internalType": "uint256",
          "name": "",
          "type": "uint256"
        }
      ],
      "stateMutability": "view",
      "type": "function"
    },
    {
      "inputs": [
        {
          "internalType": "address",
          "name": "target",
          "type": "address"
        },
        {
          "internalType": "uint256",
          "name": "value",
          "type": "uint256"
        },
        {
          "internalType": "bytes",
          "name": "data",
          "type": "bytes"
        }
      ],
      "name": "relay",
      "outputs": [],
      "stateMutability": "payable",
      "type": "function"
    },
    {
      "inputs": [
        {
          "internalType": "address[]",
          "name": "targets",
          "type": "address[]"
        },
        {
          "internalType": "uint256[]",
          "name": "values",
          "type": "uint256[]"
        },
        {
          "internalType": "bytes[]",
          "name": "calldatas",
          "type": "bytes[]"
        },
        {
          "internalType": "string",
          "name": "description",
          "type": "string"
        }
      ],
      "name": "routinePropose",
      "outputs": [
        {
          "internalType": "uint256",
          "name": "",
          "type": "uint256"
        }
      ],
      "stateMutability": "nonpayable",
      "type": "function"
    },
    {
      "inputs": [
        {
          "internalType": "uint256",
          "name": "newProposalThreshold",
          "type": "uint256"
        }
      ],
      "name": "setProposalThreshold",
      "outputs": [],
      "stateMutability": "nonpayable",
      "type": "function"
    },
    {
      "inputs": [
        {
          "internalType": "uint256",
          "name": "newVotingDelay",
          "type": "uint256"
        }
      ],
      "name": "setVotingDelay",
      "outputs": [],
      "stateMutability": "nonpayable",
      "type": "function"
    },
    {
      "inputs": [
        {
          "internalType": "uint256",
          "name": "newVotingPeriod",
          "type": "uint256"
        }
      ],
      "name": "setVotingPeriod",
      "outputs": [],
      "stateMutability": "nonpayable",
      "type": "function"
    },
    {
      "inputs": [
        {
          "internalType": "uint256",
          "name": "proposalId",
          "type": "uint256"
        }
      ],
      "name": "state",
      "outputs": [
        {
          "internalType": "enum IGovernor.ProposalState",
          "name": "",
          "type": "uint8"
        }
      ],
      "stateMutability": "view",
      "type": "function"
    },
    {
      "inputs": [
        {
          "internalType": "bytes4",
          "name": "interfaceId",
          "type": "bytes4"
        }
      ],
      "name": "supportsInterface",
      "outputs": [
        {
          "internalType": "bool",
          "name": "",
          "type": "bool"
        }
      ],
      "stateMutability": "view",
      "type": "function"
    },
    {
      "inputs": [],
      "name": "timelock",
      "outputs": [
        {
          "internalType": "address",
          "name": "",
          "type": "address"
        }
      ],
      "stateMutability": "view",
      "type": "function"
    },
    {
      "inputs": [],
      "name": "token",
      "outputs": [
        {
          "internalType": "contract IERC5805",
          "name": "",
          "type": "address"
        }
      ],
      "stateMutability": "view",
      "type": "function"
    },
    {
      "inputs": [
        {
          "internalType": "uint256",
          "name": "newQuorumNumerator",
          "type": "uint256"
        }
      ],
      "name": "updateQuorumNumerator",
      "outputs": [],
      "stateMutability": "nonpayable",
      "type": "function"
    },
    {
      "inputs": [
        {
          "internalType": "contract TimelockController",
          "name": "newTimelock",
          "type": "address"
        }
      ],
      "name": "updateTimelock",
      "outputs": [],
      "stateMutability": "nonpayable",
      "type": "function"
    },
    {
      "inputs": [],
      "name": "version",
      "outputs": [
        {
          "internalType": "string",
          "name": "",
          "type": "string"
        }
      ],
      "stateMutability": "view",
      "type": "function"
    },
    {
      "inputs": [],
      "name": "votingDelay",
      "outputs": [
        {
          "internalType": "uint256",
          "name": "",
          "type": "uint256"
        }
      ],
      "stateMutability": "view",
      "type": "function"
    },
    {
      "inputs": [],
      "name": "votingPeriod",
      "outputs": [
        {
          "internalType": "uint256",
          "name": "",
          "type": "uint256"
        }
      ],
      "stateMutability": "view",
      "type": "function"
    },
    {
      "stateMutability": "payable",
      "type": "receive"
    }
  ],
  "bytecode": "0x6101a060405234620000fd5762000020620000196200019d565b9162000224565b604051615c84908162000e75823960805181614ae1015260a05181614b96015260c05181614ab2015260e05181614b3001526101005181614b5601526101205181611b7101526101405181611b9d015261016051818181611d750152818161263d015281816128a30152818161297301528181612d290152818161317801528181613352015281816149d00152615790015261018051818181610f59015281816110f20152818161150d015281816115bf01528181611a50015281816124320152818161327201528181613ad401528181613bc1015261548c0152f35b600080fd5b634e487b7160e01b600052604160045260246000fd5b604081019081106001600160401b038211176200013457604052565b62000102565b60c081019081106001600160401b038211176200013457604052565b601f909101601f19168101906001600160401b038211908210176200013457604052565b60405190620001898262000118565b565b6001600160a01b03811603620000fd57565b62006b199060608238039283604051948592620001bb828562000156565b833981010312620000fd57815190620001d4826200018b565b6040602084015193620001e7856200018b565b015191620001f5836200018b565b929190565b60405190620002098262000118565b600b8252565b604051906200021e8262000118565b60018252565b91620003349192620002f962000239620001fa565b602081016a22a321a3b7bb32b93737b960a91b8152620002586200020f565b906020820190603160f81b825262000270846200082e565b610120526200027f836200093d565b6101405283519020918260e05251902080610100524660a0526040519060208201927f8b73c3c69bb8fe3d512ecc4cf759cc79239f7b179b0ffacaa9a75d522b39400f8452604083015260608201524660808201523060a082015260a08152620002e9816200013a565b5190206080523060c0526200048b565b6200030362000774565b6200030d620007ae565b62000317620007ea565b6001600160a01b0316610160526200032e62000639565b62000586565b61018052565b90600182811c921680156200036c575b60208310146200035657565b634e487b7160e01b600052602260045260246000fd5b91607f16916200034a565b601f811162000384575050565b60009060026000526020600020906020601f850160051c83019410620003c7575b601f0160051c01915b828110620003bb57505050565b818155600101620003ae565b9092508290620003a5565b601f8111620003df575050565b600090600080526020600020906020601f850160051c8301941062000421575b601f0160051c01915b8281106200041557505050565b81815560010162000408565b9092508290620003ff565b90601f82116200043a575050565b60019160009060016000526020600020906020601f850160051c8301941062000480575b601f0160051c01915b828110620004755750505050565b818155830162000467565b90925082906200045e565b80519091906001600160401b0381116200013457620004b781620004b16002546200033a565b62000377565b602080601f8311600114620004fe57508190620004ed9394600092620004f2575b50508160011b916000199060031b1c19161790565b600255565b015190503880620004d8565b6002600052601f198316949091907f405787fa12a823e0f2b7631cc41b3ba8828b3321ca811111fa75cd3aa3bb5ace926000905b8782106200056d57505083600195961062000553575b505050811b01600255565b015160001960f88460031b161c1916905538808062000548565b8060018596829496860151815501950193019062000532565b600c547f08f74ea46ef7894f65eabfb5e6e695de773a000b47c529ab559178069b226401604060018060a01b038094169381519084168152846020820152a16001600160a01b03191617600c55565b600b546801000000000000000081101562000134576001810180600b558110156200062357600b6000526020600020019063ffffffff81511690602063ffffffff1991015160201b16179055565b634e487b7160e01b600052603260045260246000fd5b600b5480159060009082156200070a575050620006bd60008051602062006af983398151915291600a54905b811515908162000701575b50620006c2575b620006a46200069e620006986200068d62000a93565b65ffffffffffff1690565b62000b27565b62000d3e565b5050604080519182526005602083015290918291820190565b0390a1565b620006fb620006d18262000a29565b620006f5620006df6200017a565b600081526001600160e01b039092166020830152565b620005d5565b62000677565b90503862000670565b6000199181838101116200076057600b9052017f0175b7a638427703f0dbe7bb9bbf987a2551717b34e79f33b5b1008d1fa01db9015460008051602062006af983398151915291620006bd9160201c9062000665565b634e487b7160e01b81526011600452602490fd5b7fc565b045403dc03c2eea82b81a0465edad9e2e7fc4d97e11421c209da93d7a936040600654815190815260016020820152a16001600655565b6007546040519081527f7e3f7f0708a84de9203036abaa450dccc85ad5ff52f78c170f3edb55cf5e8828604061c4e092836020820152a1600755565b6008546040519081527fccb45da8d5717e6c4544694297c4ba5cf151d455c9bb0ed4fc7a38411bc05461604069021e19e0c9bab240000092836020820152a1600855565b9081516020906020811060001462000851575050906200084e9062000bb1565b90565b6001600160401b03811162000134576000916200087a826200087485546200033a565b620003d2565b602090601f8311600114620008b657508190839495620008af9492620004f25750508160011b916000199060031b1c19161790565b905560ff90565b60008052601f198316957f290decd9548b62a8d60345a988386fc84ba6bc95484008f6362f93160ef3e563929185905b88821062000924575050836001959697106200090a575b505050811b01905560ff90565b015160001960f88460031b161c19169055388080620008fd565b80600185968294968601518155019501930190620008e6565b908151602090602081106000146200095d575050906200084e9062000bb1565b6001600160401b038111620001345760019162000986826200098085546200033a565b6200042c565b602090601f8311600114620009bc57508190620008af939495600092620004f25750508160011b916000199060031b1c19161790565b6001600052601f198316959091907fb10e2d527612073b26eecdfd717e6a320cf44b4afac2b0732d9fcbe2b7fa0cf6926000905b88821062000a1157505083859697106200090a57505050811b01905560ff90565b808785968294968601518155019501930190620009f0565b6001600160e01b039081811162000a3e571690565b60405162461bcd60e51b815260206004820152602760248201527f53616665436173743a2076616c756520646f65736e27742066697420696e20326044820152663234206269747360c81b6064820152608490fd5b610160516040516324776b7d60e21b815290602090829060049082906001600160a01b03165afa809160009162000ad8575b50906200084e57506200084e4362000c54565b6020813d60201162000b1e575b8162000af46020938362000156565b8101031262000b1a57519065ffffffffffff8216820362000b1757503862000ac5565b80fd5b5080fd5b3d915062000ae5565b63ffffffff9081811162000b39571690565b60405162461bcd60e51b815260206004820152602660248201527f53616665436173743a2076616c756520646f65736e27742066697420696e203360448201526532206269747360d01b6064820152608490fd5b60208151910151906020811062000ba2575090565b6000199060200360031b1b1690565b601f81511162000bcc5762000bc68162000b8d565b90511790565b6040519063305a27a960e01b82528160208060048301528251908160248401526000935b82851062000c14575050604492506000838284010152601f80199101168101030190fd5b848101820151868601604401529381019385935062000bf0565b60001981019190821162000c3e57565b634e487b7160e01b600052601160045260246000fd5b65ffffffffffff9081811162000c68571690565b60405162461bcd60e51b815260206004820152602660248201527f53616665436173743a2076616c756520646f65736e27742066697420696e203460448201526538206269747360d01b6064820152608490fd5b604080519192919081016001600160401b038111828210176200013457604052602081935463ffffffff81168352811c910152565b1562000cf957565b60405162461bcd60e51b815260206004820152601b60248201527f436865636b706f696e743a2064656372656173696e67206b65797300000000006044820152606490fd5b600b54801562000e4b5762000e13918162000d9362000d8d62000d6360209562000c2e565b600b6000527f0175b7a638427703f0dbe7bb9bbf987a2551717b34e79f33b5b1008d1fa01db90190565b62000cbc565b9162000da3835163ffffffff1690565b62000dbc63ffffffff9182841692839116111562000cf1565b62000dd862000dcf855163ffffffff1690565b63ffffffff1690565b0362000e19575062000df262000d6362000e059262000c2e565b64050000000063ffffffff825416179055565b01516001600160e01b031690565b90600590565b62000e45915062000e3962000e2d6200017a565b63ffffffff9092168252565b600581850152620005d5565b62000e05565b5062000e6c9062000e5f62000e2d6200017a565b60056020820152620005d5565b60009060059056fe60806040526004361015610023575b361561001957600080fd5b61002161339f565b005b60003560e01c806301ffc9a71461032e57806302a251a314610329578063034201811461032457806306f3f9e61461031f57806306fdde031461031a578063143489d014610315578063150b7a0214610310578063160cbed71461030b5780632656227d146103065780632d63f693146103015780632fe3e261146102fc5780633932abb1146102f75780633bccf4fd146102f25780633e4f49e6146102ed57806343859632146102e8578063452115d6146102e35780634bf5d7e9146102de578063544ffc9c146102d957806354fd4d50146102d457806356781388146102cf5780635f398a14146102ca57806360c4247f146102c557806370b0f660146102c05780637b3c71d3146102bb5780637d5e81e2146102b657806384b0196e146102b157806391ddadf4146102ac57806397c3d334146102a75780639a802a6d146102a2578063a7713a701461029d578063a890c91014610298578063ab58fb8e14610293578063b58131b01461028e578063bc197c8114610289578063c01f9e3714610284578063c28bc2fa1461027f578063c34c08e514610275578063c59057e41461027a578063d33219b414610275578063dd4e2ba514610270578063deaaa7cc1461026b578063e197337f14610266578063ea0217cf14610261578063eb9019d41461025c578063ece40cc114610257578063f23a6e6114610252578063f80276421461024d578063f8ce560a146102485763fc0c546a0361000e57612928565b612827565b6127cd565b61273d565b612681565b61259c565b612456565b6123e7565b61238e565b612312565b6122a4565b6122f6565b612144565b6120ed565b612029565b611ff0565b611f01565b611e12565b611dd9565b611cc1565b611c87565b611c3e565b611b3a565b611a1d565b611906565b61184a565b61180e565b611780565b611712565b611696565b611635565b6115e7565b611467565b6113e2565b611395565b611291565b611255565b6111fc565b6111a8565b610fe7565b610e9c565b610c29565b610ba8565b610a87565b610809565b610762565b6104d0565b346104c05760207ffffffffffffffffffffffffffffffffffffffffffffffffffffffffffffffffc3601126104c0576004357fffffffff0000000000000000000000000000000000000000000000000000000081168091036104c057807f6e665ced000000000000000000000000000000000000000000000000000000006103cc92149081156103d0575b5060405190151581529081906020820190565b0390f35b7fbf26d89700000000000000000000000000000000000000000000000000000000811491508115610496575b811561046c575b8115610442575b8115610418575b50386103b9565b7f01ffc9a70000000000000000000000000000000000000000000000000000000091501438610411565b7f4e2312e0000000000000000000000000000000000000000000000000000000008114915061040a565b7f51159c060000000000000000000000000000000000000000000000000000000081149150610403565b7f79dd796f00000000000000000000000000000000000000000000000000000000811491506103fc565b600080fd5b60009103126104c057565b346104c05760007ffffffffffffffffffffffffffffffffffffffffffffffffffffffffffffffffc3601126104c0576020600754604051908152f35b6024359060ff821682036104c057565b6044359060ff821682036104c057565b9181601f840112156104c05782359167ffffffffffffffff83116104c057602083818601950101116104c057565b7f4e487b7100000000000000000000000000000000000000000000000000000000600052604160045260246000fd5b67ffffffffffffffff811161059d57604052565b61055a565b6040810190811067ffffffffffffffff82111761059d57604052565b6080810190811067ffffffffffffffff82111761059d57604052565b6020810190811067ffffffffffffffff82111761059d57604052565b6060810190811067ffffffffffffffff82111761059d57604052565b60c0810190811067ffffffffffffffff82111761059d57604052565b90601f7fffffffffffffffffffffffffffffffffffffffffffffffffffffffffffffffe0910116810190811067ffffffffffffffff82111761059d57604052565b6040519061067c826105a2565b565b6040519060e0820182811067ffffffffffffffff82111761059d57604052565b67ffffffffffffffff811161059d57601f017fffffffffffffffffffffffffffffffffffffffffffffffffffffffffffffffe01660200190565b9190916106e48161069e565b6106f1604051918261062e565b809382825282116104c057818160009384602080950137010152565b9291926107198261069e565b91610727604051938461062e565b8294818452818301116104c0578281602093846000960137010152565b9080601f830112156104c05781602061075f9335910161070d565b90565b346104c05760e07ffffffffffffffffffffffffffffffffffffffffffffffffffffffffffffffffc3601126104c05761079961050c565b67ffffffffffffffff6044358181116104c0576107ba90369060040161052c565b916064359081116104c0576107d3903690600401610744565b9260843560ff811681036104c0576103cc946107f99460c4359460a43594600435612997565b6040519081529081906020820190565b346104c05760207ffffffffffffffffffffffffffffffffffffffffffffffffffffffffffffffffc3601126104c05760043573ffffffffffffffffffffffffffffffffffffffff600c541661085f813314612a32565b30036109ea575b60648111610940577f0553476bf02ef2726e8ce5ced78d63e26e602e4a2257b1f559418e24b4633997906108986131f5565b80151580610936575b6108ea575b6108d66108c76108c26108b7613135565b65ffffffffffff1690565b613f27565b6108d084614fde565b906155c0565b5050604080519182526020820192909252a1005b6109316108f682614fde565b61092c61090161066f565b600081527bffffffffffffffffffffffffffffffffffffffffffffffffffffffff9092166020830152565b6136e1565b6108a6565b50600b54156108a1565b60a46040517f08c379a000000000000000000000000000000000000000000000000000000000815260206004820152604360248201527f476f7665726e6f72566f74657351756f72756d4672616374696f6e3a2071756f60448201527f72756d4e756d657261746f72206f7665722071756f72756d44656e6f6d696e6160648201527f746f7200000000000000000000000000000000000000000000000000000000006084820152fd5b6109f436366106d8565b602081519101205b80610a0561364b565b036109fc5750610866565b60005b838110610a235750506000910152565b8181015183820152602001610a13565b907fffffffffffffffffffffffffffffffffffffffffffffffffffffffffffffffe0601f602093610a6f81518092818752878088019101610a10565b0116010190565b90602061075f928181520190610a33565b346104c0576000807ffffffffffffffffffffffffffffffffffffffffffffffffffffffffffffffffc360112610ba557604051908060025490610ac982612a97565b80855291602091600191828116908115610b5a5750600114610b02575b6103cc86610af68188038261062e565b60405191829182610a76565b9350600284527f405787fa12a823e0f2b7631cc41b3ba8828b3321ca811111fa75cd3aa3bb5ace5b838510610b4757505050508101602001610af6826103cc38610ae6565b8054868601840152938201938101610b2a565b8796506103cc97945060209350610af69592507fffffffffffffffffffffffffffffffffffffffffffffffffffffffffffffff0091501682840152151560051b820101929338610ae6565b80fd5b346104c05760207ffffffffffffffffffffffffffffffffffffffffffffffffffffffffffffffffc3601126104c0576004356000526003602052602073ffffffffffffffffffffffffffffffffffffffff60406000205460401c16604051908152f35b73ffffffffffffffffffffffffffffffffffffffff8116036104c057565b346104c05760807ffffffffffffffffffffffffffffffffffffffffffffffffffffffffffffffffc3601126104c057610c63600435610c0b565b610c6e602435610c0b565b60643567ffffffffffffffff81116104c057610c8e903690600401610744565b5060206040517f150b7a02000000000000000000000000000000000000000000000000000000008152f35b67ffffffffffffffff811161059d5760051b60200190565b9080601f830112156104c0576020908235610ceb81610cb9565b93610cf9604051958661062e565b81855260208086019260051b8201019283116104c057602001905b828210610d22575050505090565b8380918335610d3081610c0b565b815201910190610d14565b9080601f830112156104c0576020908235610d5581610cb9565b93610d63604051958661062e565b81855260208086019260051b8201019283116104c057602001905b828210610d8c575050505090565b81358152908301908301610d7e565b81601f820112156104c057803591602091610db584610cb9565b93610dc3604051958661062e565b808552838086019160051b830101928084116104c057848301915b848310610dee5750505050505090565b823567ffffffffffffffff81116104c0578691610e1084848094890101610744565b815201920191610dde565b60807ffffffffffffffffffffffffffffffffffffffffffffffffffffffffffffffffc8201126104c05767ffffffffffffffff916004358381116104c05782610e6691600401610cd1565b926024358181116104c05783610e7e91600401610d3b565b926044359182116104c057610e9591600401610d9b565b9060643590565b346104c057610eaa36610e1b565b90610eb98282858796976132a3565b610ede610eda610ed383600052600e602052604060002090565b5460ff1690565b1590565b9081610f21575b50610ef7576103cc936107f9936137fb565b60046040517fcbcc27e3000000000000000000000000000000000000000000000000000000008152fd5b6040517f3e4f49e6000000000000000000000000000000000000000000000000000000008152600481019190915290506020816024817f000000000000000000000000000000000000000000000000000000000000000073ffffffffffffffffffffffffffffffffffffffff165afa8015610fe257600491600091610fb3575b50610fab8161138b565b141538610ee5565b610fd5915060203d602011610fdb575b610fcd818361062e565b810190612aea565b38610fa1565b503d610fc3565b612b02565b610ff036610e1b565b909291610fff828583866132a3565b9261100984613c88565b60088110156111a357806004611028921490811561118f575b50612b0e565b61106d6002611041866000526003602052604060002090565b0160017fffffffffffffffffffffffffffffffffffffffffffffffffffffffffffffff00825416179055565b7f712ae1383f79ac853f8d882153778e0260ef8f03b504e2866e0593e04d2b291f6020604051868152a16000848152600e60205260ff604082205416156110d7575b50936107f99291856110c4836103cc9861509f565b6110d1848484848a613a68565b85613b4d565b73ffffffffffffffffffffffffffffffffffffffff939291937f000000000000000000000000000000000000000000000000000000000000000016803b1561118b576040517f688254fd0000000000000000000000000000000000000000000000000000000081529692919087908183816111598989898d8f60048701613a27565b03925af1938415610fe2576103cc966107f99561117c575b5091955091926110af565b61118590610589565b38611171565b5080fd5b6005915061119c8161138b565b1438611022565b61135c565b346104c05760207ffffffffffffffffffffffffffffffffffffffffffffffffffffffffffffffffc3601126104c0576004356000526003602052602067ffffffffffffffff60406000205416604051908152f35b346104c05760007ffffffffffffffffffffffffffffffffffffffffffffffffffffffffffffffffc3601126104c05760206040517fb3b3f3b703cd84ce352197dcff232b1b5d3cfb2025ce47cf04742d0651f1af888152f35b346104c05760007ffffffffffffffffffffffffffffffffffffffffffffffffffffffffffffffffc3601126104c0576020600654604051908152f35b346104c05760a07ffffffffffffffffffffffffffffffffffffffffffffffffffffffffffffffffc3601126104c0576103cc6107f96004356112d161050c565b61134661133e6112df61051c565b60405160208101917f150214d74d59b7d1e90c73fc22ef3d991dd0a76b046543d4d80ab92d2a50328f835286604083015260ff8616606083015260608252611326826105be565b611339608435936064359351902061341e565b614bbc565b919091614c55565b60405192611353846105da565b60008452613c54565b7f4e487b7100000000000000000000000000000000000000000000000000000000600052602160045260246000fd5b600811156111a357565b346104c05760207ffffffffffffffffffffffffffffffffffffffffffffffffffffffffffffffffc3601126104c0576113cf600435613c88565b60405160088210156111a3576020918152f35b346104c05760407ffffffffffffffffffffffffffffffffffffffffffffffffffffffffffffffffc3601126104c057602060ff61145b60243561142481610c0b565b6004356000526009845260036040600020019073ffffffffffffffffffffffffffffffffffffffff16600052602052604060002090565b54166040519015158152f35b346104c05761147536610e1b565b9261148584838584969596613de3565b936114a0610eda610ed387600052600e602052604060002090565b806115a7575b6114b6575b604051858152602090f35b906114f26020939260405195869485947f452115d600000000000000000000000000000000000000000000000000000000865260048601612c6d565b0381600073ffffffffffffffffffffffffffffffffffffffff7f0000000000000000000000000000000000000000000000000000000000000000165af1908115610fe257600091611578575b50810361154e57388080806114ab565b60046040517f716a4cbb000000000000000000000000000000000000000000000000000000008152fd5b61159a915060203d6020116115a0575b611592818361062e565b810190612b99565b3861153e565b503d611588565b5073ffffffffffffffffffffffffffffffffffffffff7f0000000000000000000000000000000000000000000000000000000000000000163314156114a6565b346104c05760007ffffffffffffffffffffffffffffffffffffffffffffffffffffffffffffffffc3601126104c0576103cc611621612ce5565b604051918291602083526020830190610a33565b346104c05760207ffffffffffffffffffffffffffffffffffffffffffffffffffffffffffffffffc3601126104c057600435600052600960205260606040600020805490600260018201549101549060405192835260208301526040820152f35b346104c05760007ffffffffffffffffffffffffffffffffffffffffffffffffffffffffffffffffc3601126104c0576103cc6040516116d4816105a2565b600181527f31000000000000000000000000000000000000000000000000000000000000006020820152604051918291602083526020830190610a33565b346104c05760407ffffffffffffffffffffffffffffffffffffffffffffffffffffffffffffffffc3601126104c057602061177861174e61050c565b60405161175a816105da565b600081526040519161176b836105da565b60008352336004356134bf565b604051908152f35b346104c05760807ffffffffffffffffffffffffffffffffffffffffffffffffffffffffffffffffc3601126104c0576117b761050c565b67ffffffffffffffff906044358281116104c0576117d990369060040161052c565b90916064359384116104c057611804611778936117fc6020963690600401610744565b93369161070d565b90336004356134bf565b346104c05760207ffffffffffffffffffffffffffffffffffffffffffffffffffffffffffffffffc3601126104c0576020611778600435612ed2565b346104c05760207ffffffffffffffffffffffffffffffffffffffffffffffffffffffffffffffffc3601126104c05760043573ffffffffffffffffffffffffffffffffffffffff600c54166118a0813314612a32565b30036118e0575b60065460408051918252602082018390527fc565b045403dc03c2eea82b81a0465edad9e2e7fc4d97e11421c209da93d7a9391a1600655005b6118ea36366106d8565b602081519101205b806118fb61364b565b036118f257506118a7565b346104c05760607ffffffffffffffffffffffffffffffffffffffffffffffffffffffffffffffffc3601126104c05761193d61050c565b60443567ffffffffffffffff81116104c05760209161196d61196661177893369060040161052c565b369161070d565b6040519161176b836105da565b60807ffffffffffffffffffffffffffffffffffffffffffffffffffffffffffffffffc8201126104c05767ffffffffffffffff906004358281116104c057816119c591600401610cd1565b926024358381116104c057826119dd91600401610d3b565b926044358181116104c057836119f591600401610d9b565b926064359182116104c057806023830112156104c05781602461075f9360040135910161070d565b346104c057611a2b3661197a565b90611a3882828587614563565b9273ffffffffffffffffffffffffffffffffffffffff7f00000000000000000000000000000000000000000000000000000000000000001690813303611a8357604051858152602090f35b60006020949596611ac3604051978896879586947f7d5e81e2000000000000000000000000000000000000000000000000000000008652600486016130ed565b03925af18015610fe2578291600091611ae7575b500361154e5780388080806114ab565b611b00915060203d6020116115a057611592818361062e565b38611ad7565b90815180825260208080930193019160005b828110611b26575050505090565b835185529381019392810192600101611b18565b346104c05760007ffffffffffffffffffffffffffffffffffffffffffffffffffffffffffffffffc3601126104c057611c0f611b957f00000000000000000000000000000000000000000000000000000000000000006146ec565b6103cc611bc17f0000000000000000000000000000000000000000000000000000000000000000614824565b611c1d60405191611bd1836105da565b600083526040519586957f0f00000000000000000000000000000000000000000000000000000000000000875260e0602088015260e0870190610a33565b908582036040870152610a33565b90466060850152306080850152600060a085015283820360c0850152611b06565b346104c05760007ffffffffffffffffffffffffffffffffffffffffffffffffffffffffffffffffc3601126104c0576020611c77613135565b65ffffffffffff60405191168152f35b346104c05760007ffffffffffffffffffffffffffffffffffffffffffffffffffffffffffffffffc3601126104c057602060405160648152f35b346104c05760607ffffffffffffffffffffffffffffffffffffffffffffffffffffffffffffffffc3601126104c057600435611cfc81610c0b565b60443567ffffffffffffffff81116104c057604491611d216020923690600401610744565b5073ffffffffffffffffffffffffffffffffffffffff92839160405194859384927f3a46b1a800000000000000000000000000000000000000000000000000000000845216600483015260243560248301527f0000000000000000000000000000000000000000000000000000000000000000165afa8015610fe2576103cc91600091611dba575b506040519081529081906020820190565b611dd3915060203d6020116115a057611592818361062e565b38611da9565b346104c05760007ffffffffffffffffffffffffffffffffffffffffffffffffffffffffffffffffc3601126104c05760206117786131f5565b346104c05760207ffffffffffffffffffffffffffffffffffffffffffffffffffffffffffffffffc3601126104c057600435611e4d81610c0b565b73ffffffffffffffffffffffffffffffffffffffff9081600c5416611e73813314612a32565b3003611edb575b7fffffffffffffffffffffffff0000000000000000000000000000000000000000907f08f74ea46ef7894f65eabfb5e6e695de773a000b47c529ab559178069b226401604084600c5493169481519084168152856020820152a11617600c55005b611ee536366106d8565b602081519101205b80611ef661364b565b03611eed5750611e7a565b346104c05760207ffffffffffffffffffffffffffffffffffffffffffffffffffffffffffffffffc3601126104c057611f9f602073ffffffffffffffffffffffffffffffffffffffff600c5416611f64600435600052600d602052604060002090565b549060405180809581947fd45c4435000000000000000000000000000000000000000000000000000000008352600483019190602083019252565b03915afa908115610fe257600091611fd1575b5060018103611fc8575060405160008152602090f35b6103cc906107f9565b611fea915060203d6020116115a057611592818361062e565b38611fb2565b346104c05760007ffffffffffffffffffffffffffffffffffffffffffffffffffffffffffffffffc3601126104c057602061177861325b565b346104c05760a07ffffffffffffffffffffffffffffffffffffffffffffffffffffffffffffffffc3601126104c057612063600435610c0b565b61206e602435610c0b565b67ffffffffffffffff6044358181116104c05761208f903690600401610d3b565b506064358181116104c0576120a8903690600401610d3b565b506084359081116104c0576120c1903690600401610744565b506040517fbc197c81000000000000000000000000000000000000000000000000000000008152602090f35b346104c05760207ffffffffffffffffffffffffffffffffffffffffffffffffffffffffffffffffc3601126104c0576004356000526003602052602067ffffffffffffffff60016040600020015416604051908152f35b60607ffffffffffffffffffffffffffffffffffffffffffffffffffffffffffffffffc3601126104c05760043561217a81610c0b565b60443567ffffffffffffffff81116104c05761219a90369060040161052c565b919073ffffffffffffffffffffffffffffffffffffffff600c54166121c0813314612a32565b300361227e575b61227391836040519485938437820190600094859383858095520391602435905af13d15612277573d6121f98161069e565b90612207604051928361062e565b81523d84602083013e5b6040519161221e836105f6565b602883527f476f7665726e6f723a2072656c617920726576657274656420776974686f757460208401527f206d6573736167650000000000000000000000000000000000000000000000006040840152614a04565b5080f35b6060612211565b61228836366106d8565b602081519101205b8061229961364b565b0361229057506121c7565b346104c05760007ffffffffffffffffffffffffffffffffffffffffffffffffffffffffffffffffc3601126104c057602073ffffffffffffffffffffffffffffffffffffffff600c5416604051908152f35b346104c057602061177861230936610e1b565b929190916132a3565b346104c05760007ffffffffffffffffffffffffffffffffffffffffffffffffffffffffffffffffc3601126104c0576103cc604051612350816105a2565b602081527f737570706f72743d627261766f2671756f72756d3d666f722c6162737461696e6020820152604051918291602083526020830190610a33565b346104c05760007ffffffffffffffffffffffffffffffffffffffffffffffffffffffffffffffffc3601126104c05760206040517f150214d74d59b7d1e90c73fc22ef3d991dd0a76b046543d4d80ab92d2a50328f8152f35b346104c05760007ffffffffffffffffffffffffffffffffffffffffffffffffffffffffffffffffc3601126104c057602060405173ffffffffffffffffffffffffffffffffffffffff7f0000000000000000000000000000000000000000000000000000000000000000168152f35b346104c05760207ffffffffffffffffffffffffffffffffffffffffffffffffffffffffffffffffc3601126104c05760043573ffffffffffffffffffffffffffffffffffffffff600c54166124ac813314612a32565b3003612576575b80156124f25760075460408051918252602082018390527f7e3f7f0708a84de9203036abaa450dccc85ad5ff52f78c170f3edb55cf5e882891a1600755005b60846040517f08c379a000000000000000000000000000000000000000000000000000000000815260206004820152602760248201527f476f7665726e6f7253657474696e67733a20766f74696e6720706572696f642060448201527f746f6f206c6f77000000000000000000000000000000000000000000000000006064820152fd5b61258036366106d8565b602081519101205b8061259161364b565b0361258857506124b3565b346104c05760407ffffffffffffffffffffffffffffffffffffffffffffffffffffffffffffffffc3601126104c057604460206004356125db81610c0b565b60006040516125e9816105da565b5273ffffffffffffffffffffffffffffffffffffffff92839160405194859384927f3a46b1a800000000000000000000000000000000000000000000000000000000845216600483015260243560248301527f0000000000000000000000000000000000000000000000000000000000000000165afa8015610fe2576103cc91600091611dba57506040519081529081906020820190565b346104c05760207ffffffffffffffffffffffffffffffffffffffffffffffffffffffffffffffffc3601126104c05760043573ffffffffffffffffffffffffffffffffffffffff600c54166126d7813314612a32565b3003612717575b60085460408051918252602082018390527fccb45da8d5717e6c4544694297c4ba5cf151d455c9bb0ed4fc7a38411bc0546191a1600855005b61272136366106d8565b602081519101205b8061273261364b565b0361272957506126de565b346104c05760a07ffffffffffffffffffffffffffffffffffffffffffffffffffffffffffffffffc3601126104c057612777600435610c0b565b612782602435610c0b565b60843567ffffffffffffffff81116104c0576127a2903690600401610744565b5060206040517ff23a6e61000000000000000000000000000000000000000000000000000000008152f35b346104c05760206127e96127e03661197a565b92919091614563565b80600052600e8252604060002060017fffffffffffffffffffffffffffffffffffffffffffffffffffffffffffffff00825416179055604051908152f35b346104c05760207ffffffffffffffffffffffffffffffffffffffffffffffffffffffffffffffffc3601126104c057600435604051907f8e539e8c00000000000000000000000000000000000000000000000000000000825280600483015260208260248173ffffffffffffffffffffffffffffffffffffffff7f0000000000000000000000000000000000000000000000000000000000000000165afa918215610fe257600092612903575b506128de90612ed2565b908181029181830414901517156128fe5760405160649091048152602090f35b612de7565b6128de9192506129219060203d6020116115a057611592818361062e565b91906128d4565b346104c05760007ffffffffffffffffffffffffffffffffffffffffffffffffffffffffffffffffc3601126104c057602060405173ffffffffffffffffffffffffffffffffffffffff7f0000000000000000000000000000000000000000000000000000000000000000168152f35b9492612a2461075f98612a2c94939698611966966113398a8a8d6129bc368a8c61070d565b6020815191012090602081519101209060ff6040519360208501957fb3b3f3b703cd84ce352197dcff232b1b5d3cfb2025ce47cf04742d0651f1af8887526040860152166060840152608083015260a082015260a08152612a1c81610612565b51902061341e565b949094614c55565b926134bf565b15612a3957565b60646040517f08c379a000000000000000000000000000000000000000000000000000000000815260206004820152601860248201527f476f7665726e6f723a206f6e6c79476f7665726e616e636500000000000000006044820152fd5b90600182811c92168015612ae0575b6020831014612ab157565b7f4e487b7100000000000000000000000000000000000000000000000000000000600052602260045260246000fd5b91607f1691612aa6565b908160209103126104c0575160088110156104c05790565b6040513d6000823e3d90fd5b15612b1557565b60846040517f08c379a000000000000000000000000000000000000000000000000000000000815260206004820152602160248201527f476f7665726e6f723a2070726f706f73616c206e6f742073756363657373667560448201527f6c000000000000000000000000000000000000000000000000000000000000006064820152fd5b908160209103126104c0575190565b90815180825260208080930193019160005b828110612bc8575050505090565b835173ffffffffffffffffffffffffffffffffffffffff1685529381019392810192600101612bba565b90808251908181526020809101926020808460051b8301019501936000915b848310612c215750505050505090565b9091929394958480612c5d837fffffffffffffffffffffffffffffffffffffffffffffffffffffffffffffffe086600196030187528a51610a33565b9801930193019194939290612c11565b949392612c99606093612c8b612ca79460808a5260808a0190612ba8565b9088820360208a0152611b06565b908682036040880152612bf2565b930152565b60405190612cb9826105a2565b601d82527f6d6f64653d626c6f636b6e756d6265722666726f6d3d64656661756c740000006020830152565b6040517f4bf5d7e90000000000000000000000000000000000000000000000000000000081526000808260048173ffffffffffffffffffffffffffffffffffffffff7f0000000000000000000000000000000000000000000000000000000000000000165afa90918282612d63575b505061075f575061075f612cac565b909192503d8082843e612d76818461062e565b82019160208184031261118b5780519067ffffffffffffffff8211612de3570182601f8201121561118b57805191612dad8361069e565b93612dbb604051958661062e565b83855260208484010111610ba5575090612ddb9160208085019101610a10565b903880612d54565b8280fd5b7f4e487b7100000000000000000000000000000000000000000000000000000000600052601160045260246000fd5b907fffffffffffffffffffffffffffffffffffffffffffffffffffffffffffffffff82019182116128fe57565b907fffffffffffffffffffffffffffffffffffffffffffffffffffffffffffffffd882019182116128fe57565b7f4e487b7100000000000000000000000000000000000000000000000000000000600052603260045260246000fd5b906040516040810181811067ffffffffffffffff82111761059d57604052602081935463ffffffff81168352811c910152565b90600b805480156130e4577fffffffffffffffffffffffffffffffffffffffffffffffffffffffffffffffff81018181116128fe578111156130df57600091600b8352612f407f0175b7a638427703f0dbe7bb9bbf987a2551717b34e79f33b5b1008d1fa01db88301612e9f565b9463ffffffff95818782511611156130b55750612f5c90613f27565b948084938060058111613052575b50939616905b838710612fee575050507bffffffffffffffffffffffffffffffffffffffffffffffffffffffff9293508015600014612fa857501690565b612fea9150612fb9612fe391612e16565b600b6000527f0175b7a638427703f0dbe7bb9bbf987a2551717b34e79f33b5b1008d1fa01db90190565b5460201c90565b1690565b9091928087169080881860011c82018092116128fe578486528383837f0175b7a638427703f0dbe7bb9bbf987a2551717b34e79f33b5b1008d1fa01db9015416116000146130405750925b9190612f70565b93965061304c906137e0565b95613039565b915061305d82615334565b82039182116128fe57600b86527f0175b7a638427703f0dbe7bb9bbf987a2551717b34e79f33b5b1008d1fa01db9820154831688841610156130a3575081905b38612f6a565b93506130af82916137e0565b9361309d565b602001517bffffffffffffffffffffffffffffffffffffffffffffffffffffffff16955050505050565b612e70565b5050600a549150565b9261311961075f959361310b61312794608088526080880190612ba8565b908682036020880152611b06565b908482036040860152612bf2565b916060818403910152610a33565b6040517f91ddadf400000000000000000000000000000000000000000000000000000000815260208160048173ffffffffffffffffffffffffffffffffffffffff7f0000000000000000000000000000000000000000000000000000000000000000165afa80916000916131b4575b509061075f575061075f436148e5565b6020813d6020116131ed575b816131cd6020938361062e565b8101031261118b57519065ffffffffffff82168203610ba55750386131a4565b3d91506131c0565b600b54806132045750600a5490565b807fffffffffffffffffffffffffffffffffffffffffffffffffffffffffffffffff8101116128fe57600b6000527f0175b7a638427703f0dbe7bb9bbf987a2551717b34e79f33b5b1008d1fa01db8015460201c90565b73ffffffffffffffffffffffffffffffffffffffff7f000000000000000000000000000000000000000000000000000000000000000016331461329e5760085490565b600090565b92906132bd6132e992604051948593602085019788612c6d565b037fffffffffffffffffffffffffffffffffffffffffffffffffffffffffffffffe0810183528261062e565b51902090565b6020906000604051613300816105da565b52604473ffffffffffffffffffffffffffffffffffffffff918260405195869485937f3a46b1a800000000000000000000000000000000000000000000000000000000855216600484015260248301527f0000000000000000000000000000000000000000000000000000000000000000165afa908115610fe257600091613386575090565b61075f915060203d6020116115a057611592818361062e565b73ffffffffffffffffffffffffffffffffffffffff600c541630036133c057565b60646040517f08c379a000000000000000000000000000000000000000000000000000000000815260206004820152601f60248201527f476f7665726e6f723a206d7573742073656e6420746f206578656375746f72006044820152fd5b604290613429614a9b565b90604051917f19010000000000000000000000000000000000000000000000000000000000008352600283015260228201522090565b93909260ff61348b9361075f97958752166020860152604085015260a0606085015260a0840190610a33565b916080818403910152610a33565b909260ff60809361075f9695845216602083015260408201528160608201520190610a33565b92909193836000526003602052604060002060016134dc86613c88565b6134e58161138b565b036135c75761350f613502613515925467ffffffffffffffff1690565b67ffffffffffffffff1690565b8461497c565b94859161352483838789614e69565b805161357c575073ffffffffffffffffffffffffffffffffffffffff927fb8e138887d0aa13bab447e82de9d5c1777041ecd21ca36ba824ff1e6c07ddda4949261357692604051958695169785613499565b0390a290565b73ffffffffffffffffffffffffffffffffffffffff937fe2babfbac5889a709b63bb7f598b324e08bc5a4fb9ec647fb3cbc9ec07eb871295936135769360405196879616988661345f565b60846040517f08c379a000000000000000000000000000000000000000000000000000000000815260206004820152602360248201527f476f7665726e6f723a20766f7465206e6f742063757272656e746c792061637460448201527f69766500000000000000000000000000000000000000000000000000000000006064820152fd5b6004549081600f0b809260801d600f0b13156136b75781600052600560205260406000209160008354935560017fffffffffffffffffffffffffffffffff000000000000000000000000000000006004541691016fffffffffffffffffffffffffffffffff1617600455565b60046040517f3db2a12a000000000000000000000000000000000000000000000000000000008152fd5b600b54906801000000000000000082101561059d576001820180600b558210156130df57600b600052805160209182015190911b7fffffffffffffffffffffffffffffffffffffffffffffffffffffffff000000001663ffffffff91909116177f0175b7a638427703f0dbe7bb9bbf987a2551717b34e79f33b5b1008d1fa01db990910155565b949392612c99608093612c8b6137869460a08a5260a08a0190612ba8565b93600060608201520152565b91926137c160a0946137b36137cf949998979960c0875260c0870190612ba8565b908582036020870152611b06565b908382036040850152612bf2565b946000606083015260808201520152565b90600182018092116128fe57565b919082018092116128fe57565b9290919261380b828585846132a3565b93613829600461381a87613c88565b6138238161138b565b14612b0e565b61386461384b600c5473ffffffffffffffffffffffffffffffffffffffff1690565b73ffffffffffffffffffffffffffffffffffffffff1690565b93604051947ff27a0c920000000000000000000000000000000000000000000000000000000086526020908187600481845afa968715610fe257600097613a08575b508160405180927fb1c5f42700000000000000000000000000000000000000000000000000000000825281806138e28b8a8a8d60048601613768565b03915afa918215610fe2576000926139eb575b505061390b87600052600d602052604060002090565b5561392e61384b600c5473ffffffffffffffffffffffffffffffffffffffff1690565b90813b156104c0576000809461397488604051988997889687957f8f2a0bb000000000000000000000000000000000000000000000000000000000875260048701613792565b03925af18015610fe2577f9a2e42fd6722813d69113e7d0079d3d940171428df7373df9c7f7617cfda2892926139cc926139b4926139d2575b50426137ee565b60408051858152602081019290925290918291820190565b0390a190565b806139df6139e592610589565b806104c5565b386139ad565b613a019250803d106115a057611592818361062e565b38806138f5565b613a20919750823d84116115a057611592818361062e565b95386138a6565b95949390608093613a4c612ca794613a5a938a5260a060208b015260a08a0190612ba8565b9088820360408a0152611b06565b908682036060880152612bf2565b9392919093613a87610eda610ed383600052600e602052604060002090565b9081613a9c575b50610ef75761067c93615175565b6040517f3e4f49e6000000000000000000000000000000000000000000000000000000008152600481019190915290506020816024817f000000000000000000000000000000000000000000000000000000000000000073ffffffffffffffffffffffffffffffffffffffff165afa8015610fe257600491600091613b2e575b50613b268161138b565b141538613a8e565b613b47915060203d602011610fdb57610fcd818361062e565b38613b1c565b9390600094808652600e60205260ff60408720541615613baa575b505050505073ffffffffffffffffffffffffffffffffffffffff600c54163003613b8f5750565b60045480600f0b9060801d600f0b13613ba55750565b600455565b73ffffffffffffffffffffffffffffffffffffffff7f00000000000000000000000000000000000000000000000000000000000000001692833b15613c50578694939291613c298692604051988997889687957feab4926900000000000000000000000000000000000000000000000000000000875260048701613a27565b03925af18015610fe257613c41575b80808080613b68565b613c4a90610589565b38613c38565b8680fd5b9161075f939160405193613c67856105da565b600085526134bf565b908160209103126104c0575180151581036104c05790565b613c91816151f0565b90613c9b8261138b565b60048203613ddf57613cb790600052600d602052604060002090565b5480613cc1575090565b9050613ce561384b600c5473ffffffffffffffffffffffffffffffffffffffff1690565b6040517f2ab0f5290000000000000000000000000000000000000000000000000000000081526004810183905260209291908381602481855afa908115610fe257600091613dc2575b5015613d3c57505050600790565b6040517f584b153e00000000000000000000000000000000000000000000000000000000815260048101929092528290829060249082905afa918215610fe257600092613d95575b505015613d9057600590565b600290565b613db49250803d10613dbb575b613dac818361062e565b810190613c70565b3880613d84565b503d613da2565b613dd99150843d8611613dbb57613dac818361062e565b38613d2e565b5090565b929190613df2838383876132a3565b613dfb81613c88565b60088110156111a357613ec957613e3173ffffffffffffffffffffffffffffffffffffffff916000526003602052604060002090565b5460401c163303613e455761075f9361581e565b60846040517f08c379a000000000000000000000000000000000000000000000000000000000815260206004820152602260248201527f476f7665726e6f723a206f6e6c792070726f706f7365722063616e2063616e6360448201527f656c0000000000000000000000000000000000000000000000000000000000006064820152fd5b60646040517f08c379a000000000000000000000000000000000000000000000000000000000815260206004820152601c60248201527f476f7665726e6f723a20746f6f206c61746520746f2063616e63656c000000006044820152fd5b63ffffffff90818111613f38571690565b60846040517f08c379a000000000000000000000000000000000000000000000000000000000815260206004820152602660248201527f53616665436173743a2076616c756520646f65736e27742066697420696e203360448201527f32206269747300000000000000000000000000000000000000000000000000006064820152fd5b15613fc357565b60646040517f08c379a000000000000000000000000000000000000000000000000000000000815260206004820152601d60248201527f476f7665726e6f723a2070726f706f73657220726573747269637465640000006044820152fd5b1561402857565b60846040517f08c379a000000000000000000000000000000000000000000000000000000000815260206004820152603160248201527f476f7665726e6f723a2070726f706f73657220766f7465732062656c6f77207060448201527f726f706f73616c207468726573686f6c640000000000000000000000000000006064820152fd5b156140b357565b60846040517f08c379a000000000000000000000000000000000000000000000000000000000815260206004820152602160248201527f476f7665726e6f723a20696e76616c69642070726f706f73616c206c656e677460448201527f68000000000000000000000000000000000000000000000000000000000000006064820152fd5b1561413e57565b60646040517f08c379a000000000000000000000000000000000000000000000000000000000815260206004820152601860248201527f476f7665726e6f723a20656d7074792070726f706f73616c00000000000000006044820152fd5b156141a357565b60846040517f08c379a000000000000000000000000000000000000000000000000000000000815260206004820152602160248201527f476f7665726e6f723a2070726f706f73616c20616c726561647920657869737460448201527f73000000000000000000000000000000000000000000000000000000000000006064820152fd5b906143cf60c0600261067c9467ffffffffffffffff61427881875116839067ffffffffffffffff167fffffffffffffffffffffffffffffffffffffffffffffffff0000000000000000825416179055565b6020860151907bffffffffffffffffffffffffffffffffffffffff000000000000000083549260401b1690817fffffffff0000000000000000000000000000000000000000ffffffffffffffff84161784557fffffffff000000000000000000000000000000000000000000000000000000006040890151169216171781556143856001820161434b614316606089015167ffffffffffffffff1690565b829067ffffffffffffffff167fffffffffffffffffffffffffffffffffffffffffffffffff0000000000000000825416179055565b6080870151815467ffffffffffffffff167fffffffffffffffffffffffffffffffffffffffffffffffff0000000000000000909116179055565b01926143c861439760a0830151151590565b859060ff7fffffffffffffffffffffffffffffffffffffffffffffffffffffffffffffff0083541691151516179055565b0151151590565b81547fffffffffffffffffffffffffffffffffffffffffffffffffffffffffffff00ff1690151560081b61ff0016179055565b9061440c82610cb9565b614419604051918261062e565b8281527fffffffffffffffffffffffffffffffffffffffffffffffffffffffffffffffe06144478294610cb9565b019060005b82811061445857505050565b80606060208093850101520161444c565b95926144ab906144b9939b9a989996959261012090895273ffffffffffffffffffffffffffffffffffffffff60209d168d8a01528060408a0152880190612ba8565b908682036060880152611b06565b9784890360808601528251808a52818a019180808360051b8d01019501926000905b83821061451857505050505061075f969750906144ff9184820360a0860152612bf2565b9360c083015260e0820152610100818403910152610a33565b909192939583806145548f937fffffffffffffffffffffffffffffffffffffffffffffffffffffffffffffffe060019582030186528a51610a33565b980192019201909392916144db565b6139cc7f7d84a6263ae0d98d3329bd7b46bb4e8d6f98cd35a7adb45c274c8b7fd5ebd5e0939461459b6145968233615474565b613fbc565b6145a66108b7613135565b956145cb6145bc6145b689612e16565b336132ef565b6145c461325b565b1115614021565b6146486145e0835160208501208388886132a3565b976145ee86518851146140ac565b6145fb86518451146140ac565b61460786511515614137565b61463f67ffffffffffffffff61463861462a8c6000526003602052604060002090565b5467ffffffffffffffff1690565b161561419c565b600654906137ee565b614654600754826137ee565b916146d4614661836154c2565b6146a661466d866154c2565b61468861467861067e565b67ffffffffffffffff9094168452565b3360208401526000604084015267ffffffffffffffff166060830152565b60006080820152600060a0820152600060c08201526146cf8b6000526003602052604060002090565b614227565b6146de8651614402565b604051978897338c8a614469565b60ff81146147425760ff811690601f8211614718576040519161470e836105a2565b8252602082015290565b60046040517fb3512b0c000000000000000000000000000000000000000000000000000000008152fd5b506040516000816000549161475683612a97565b808352926020906001908181169081156147e15750600114614781575b505061075f9250038261062e565b915092600080527f290decd9548b62a8d60345a988386fc84ba6bc95484008f6362f93160ef3e563936000925b8284106147c9575061075f9450505081016020013880614773565b855487850183015294850194869450928101926147ae565b90506020935061075f9592507fffffffffffffffffffffffffffffffffffffffffffffffffffffffffffffff0091501682840152151560051b8201013880614773565b60ff81146148465760ff811690601f8211614718576040519161470e836105a2565b5060405160008160019160015461485c81612a97565b80845293602091600181169081156147e1575060011461488457505061075f9250038261062e565b91509260016000527fb10e2d527612073b26eecdfd717e6a320cf44b4afac2b0732d9fcbe2b7fa0cf6936000925b8284106148cd575061075f9450505081016020013880614773565b855487850183015294850194869450928101926148b2565b65ffffffffffff908181116148f8571690565b60846040517f08c379a000000000000000000000000000000000000000000000000000000000815260206004820152602660248201527f53616665436173743a2076616c756520646f65736e27742066697420696e203460448201527f38206269747300000000000000000000000000000000000000000000000000006064820152fd5b602090604473ffffffffffffffffffffffffffffffffffffffff918260405195869485937f3a46b1a800000000000000000000000000000000000000000000000000000000855216600484015260248301527f0000000000000000000000000000000000000000000000000000000000000000165afa908115610fe257600091613386575090565b90919015614a10575090565b815115614a205750805190602001fd5b614a5e906040519182917f08c379a0000000000000000000000000000000000000000000000000000000008352602060048401526024830190610a33565b0390fd5b8115614a6c570490565b7f4e487b7100000000000000000000000000000000000000000000000000000000600052601260045260246000fd5b73ffffffffffffffffffffffffffffffffffffffff7f000000000000000000000000000000000000000000000000000000000000000016301480614b93575b15614b03577f000000000000000000000000000000000000000000000000000000000000000090565b60405160208101907f8b73c3c69bb8fe3d512ecc4cf759cc79239f7b179b0ffacaa9a75d522b39400f82527f000000000000000000000000000000000000000000000000000000000000000060408201527f000000000000000000000000000000000000000000000000000000000000000060608201524660808201523060a082015260a081526132e981610612565b507f00000000000000000000000000000000000000000000000000000000000000004614614ada565b9291907f7fffffffffffffffffffffffffffffff5d576e7357a4501ddfe92f46681b20a08311614c3f5791608094939160ff602094604051948552168484015260408301526060820152600093849182805260015afa15610fe257815173ffffffffffffffffffffffffffffffffffffffff811615614c39579190565b50600190565b50505050600090600390565b600511156111a357565b614c5e81614c4b565b80614c665750565b614c6f81614c4b565b60018103614cd6576040517f08c379a000000000000000000000000000000000000000000000000000000000815260206004820152601860248201527f45434453413a20696e76616c6964207369676e617475726500000000000000006044820152606490fd5b614cdf81614c4b565b60028103614d46576040517f08c379a000000000000000000000000000000000000000000000000000000000815260206004820152601f60248201527f45434453413a20696e76616c6964207369676e6174757265206c656e677468006044820152606490fd5b80614d52600392614c4b565b14614d5957565b6040517f08c379a000000000000000000000000000000000000000000000000000000000815260206004820152602260248201527f45434453413a20696e76616c6964207369676e6174757265202773272076616c60448201527f75650000000000000000000000000000000000000000000000000000000000006064820152608490fd5b15614de557565b60846040517f08c379a000000000000000000000000000000000000000000000000000000000815260206004820152602760248201527f476f7665726e6f72566f74696e6753696d706c653a20766f746520616c72656160448201527f64792063617374000000000000000000000000000000000000000000000000006064820152fd5b91614f14614ee9614e8760ff94956000526009602052604060002090565b9460038601614ec4614ebf610eda610ed385859073ffffffffffffffffffffffffffffffffffffffff16600052602052604060002090565b614dde565b9073ffffffffffffffffffffffffffffffffffffffff16600052602052604060002090565b60017fffffffffffffffffffffffffffffffffffffffffffffffffffffffffffffff00825416179055565b1680614f2b575090614f279082546137ee565b9055565b60018103614f4357506001614f2791019182546137ee565b600203614f59576002614f2791019182546137ee565b6040517f08c379a000000000000000000000000000000000000000000000000000000000815260206004820152603560248201527f476f7665726e6f72566f74696e6753696d706c653a20696e76616c696420766160448201527f6c756520666f7220656e756d20566f74655479706500000000000000000000006064820152608490fd5b7bffffffffffffffffffffffffffffffffffffffffffffffffffffffff90818111615007571690565b60846040517f08c379a000000000000000000000000000000000000000000000000000000000815260206004820152602760248201527f53616665436173743a2076616c756520646f65736e27742066697420696e203260448201527f32342062697473000000000000000000000000000000000000000000000000006064820152fd5b80518210156130df5760209160051b010190565b919073ffffffffffffffffffffffffffffffffffffffff9081600c541630036150c9575b50509050565b60009160005b85518110156151675760019030836150e7838a61508b565b5116146150f5575b016150cf565b6150ff818561508b565b518051602080920120906fffffffffffffffffffffffffffffffff7fffffffffffffffffffffffffffffffff000000000000000000000000000000006004938454906005608092831d9586600f0b8d525260408b20558685549401901b1691161790556150ef565b5050505090508038806150c3565b919073ffffffffffffffffffffffffffffffffffffffff600c541690813b156104c0576000936151d4604051968795869485947fe38335e500000000000000000000000000000000000000000000000000000000865260048601613768565b039134905af18015610fe2576151e75750565b61067c90610589565b6002615206826000526003602052604060002090565b015460ff811661532d5760081c60ff166153275761523461350261462a836000526003602052604060002090565b80156152c8576152456108b7613135565b809110156152c1576152786135026001615269856000526003602052604060002090565b015467ffffffffffffffff1690565b1015614c395761528781615723565b908161529e575b501561529957600490565b600390565b6152bb915060005260096020526040600020600181015490541090565b3861528e565b5050600090565b6040517f08c379a000000000000000000000000000000000000000000000000000000000815260206004820152601d60248201527f476f7665726e6f723a20756e6b6e6f776e2070726f706f73616c2069640000006044820152606490fd5b50600290565b5050600790565b801561546e57806154076154006153f66153ec6153e26153d86153ce6153c4600161075f9a6000908b60801c80615462575b508060401c80615455575b508060201c80615448575b508060101c8061543b575b508060081c8061542e575b508060041c80615421575b508060021c80615414575b50821c61540d575b811c1b6153bd818b614a62565b0160011c90565b6153bd818a614a62565b6153bd8189614a62565b6153bd8188614a62565b6153bd8187614a62565b6153bd8186614a62565b6153bd8185614a62565b8092614a62565b906159bd565b81016153b0565b60029150910190386153a8565b600491509101903861539d565b6008915091019038615392565b6010915091019038615387565b602091509101903861537c565b6040915091019038615371565b91505060809038615366565b50600090565b9073ffffffffffffffffffffffffffffffffffffffff7f00000000000000000000000000000000000000000000000000000000000000001633146154bb5761075f916159e0565b5050600190565b67ffffffffffffffff908181116154d7571690565b60846040517f08c379a000000000000000000000000000000000000000000000000000000000815260206004820152602660248201527f53616665436173743a2076616c756520646f65736e27742066697420696e203660448201527f34206269747300000000000000000000000000000000000000000000000000006064820152fd5b1561556257565b60646040517f08c379a000000000000000000000000000000000000000000000000000000000815260206004820152601b60248201527f436865636b706f696e743a2064656372656173696e67206b65797300000000006044820152fd5b600b5491929180156156e4576156959181856155e86155e3612fb9602096612e16565b612e9f565b926155f7845163ffffffff1690565b61560e63ffffffff9182841692839116111561555b565b61562861561f865163ffffffff1690565b63ffffffff1690565b03615699575061563d612fb961567293612e16565b9063ffffffff7fffffffffffffffffffffffffffffffffffffffffffffffffffffffff0000000083549260201b169116179055565b01517bffffffffffffffffffffffffffffffffffffffffffffffffffffffff1690565b9190565b90506156df91506156b76156ab61066f565b63ffffffff9092168252565b7bffffffffffffffffffffffffffffffffffffffffffffffffffffffff8716818501526136e1565b615672565b5061571d906156f46156ab61066f565b7bffffffffffffffffffffffffffffffffffffffffffffffffffffffff841660208201526136e1565b60009190565b60005260096020526040600020600360205267ffffffffffffffff6040600020541690604051917f8e539e8c00000000000000000000000000000000000000000000000000000000835280600484015260208360248173ffffffffffffffffffffffffffffffffffffffff7f0000000000000000000000000000000000000000000000000000000000000000165afa928315610fe2576000936157f9575b506157cb90612ed2565b918281029281840414901517156128fe576157f281600260016064940154910154906137ee565b9104111590565b6157cb9193506158179060203d6020116115a057611592818361062e565b92906157c1565b9061582a9392916132a3565b61583381613c88565b60088110156111a35780600261585892141590816159a7575b81615992575b50615b11565b61589e6002615871836000526003602052604060002090565b016101007fffffffffffffffffffffffffffffffffffffffffffffffffffffffffffff00ff825416179055565b6040518181527f789cf55be980739dad1d0699b93b58e806b51c9d96619bfa8fe0a28abaa7b30c90602090a16158de81600052600d602052604060002090565b546158e65790565b61590861384b600c5473ffffffffffffffffffffffffffffffffffffffff1690565b61591c82600052600d602052604060002090565b5490803b156104c0576040517fc4d252f500000000000000000000000000000000000000000000000000000000815260048101929092526000908290602490829084905af18015610fe25761597f575b506000818152600d602052604081205590565b806139df61598c92610589565b3861596c565b6007915061599f8161138b565b141538615852565b90506159b28161138b565b60068114159061584c565b90808210156159ca575090565b905090565b9081518110156130df570160200190565b815160348110615b09577f2370726f706f7365723d307800000000000000000000000000000000000000007fffffffffffffffffffffffff00000000000000000000000000000000000000007fffffffffffffffffffffffffffffffffffffffffffffffffffffffffffffffec83860101511603615b095791600092615a6581612e43565b915b818310615a8f5750505073ffffffffffffffffffffffffffffffffffffffff80911691161490565b909193615acd615ac8615aa287856159cf565b517fff000000000000000000000000000000000000000000000000000000000000001690565b615b76565b919015615afe5773fffffffffffffffffffffffffffffffffffffff060ff600193169160041b161794019190615a67565b505050505050600190565b505050600190565b15615b1857565b60646040517f08c379a000000000000000000000000000000000000000000000000000000000815260206004820152601d60248201527f476f7665726e6f723a2070726f706f73616c206e6f74206163746976650000006044820152fd5b60f81c9081602f1080615c44575b15615bb45760ff7fffffffffffffffffffffffffffffffffffffffffffffffffffffffffffffffd0600193011690565b8160401080615c3a575b15615bee5760ff7fffffffffffffffffffffffffffffffffffffffffffffffffffffffffffffffc9600193011690565b8160601080615c30575b15615c285760ff7fffffffffffffffffffffffffffffffffffffffffffffffffffffffffffffffa9600193011690565b600091508190565b5060678210615bf8565b5060478210615bbe565b50603a8210615b8456fea26469706673582212205c6714bc547f2c806346c17847d22e715b23afcbf637cc72315aff22d7b13a7464736f6c634300081800330553476bf02ef2726e8ce5ced78d63e26e602e4a2257b1f559418e24b4633997",
  "linkReferences": {},
  "deployedLinkReferences": {}
}