{
  "_format": "hh-sol-artifact-1",
  "contractName": "Router",
  "sourceName": "contracts/plugins/Router.sol",
  "abi": [
    {
      "inputs": [
        {
          "internalType": "contract IEFC",
          "name": "_EFC",
          "type": "address"
        },
        {
          "internalType": "contract IRewardFarm",
          "name": "_rewardFarm",
          "type": "address"
        },
        {
          "internalType": "contract IFeeDistributor",
          "name": "_feeDistributor",
          "type": "address"
        }
      ],
      "stateMutability": "nonpayable",
      "type": "constructor"
    },
    {
      "inputs": [],
      "name": "CallerUnauthorized",
      "type": "error"
    },
    {
      "inputs": [],
      "name": "Forbidden",
      "type": "error"
    },
    {
      "inputs": [
        {
          "internalType": "address",
          "name": "liquidator",
          "type": "address"
        }
      ],
      "name": "LiquidatorAlreadyRegistered",
      "type": "error"
    },
    {
      "inputs": [
        {
          "internalType": "address",
          "name": "owner",
          "type": "address"
        },
        {
          "internalType": "address",
          "name": "expectedOwner",
          "type": "address"
        }
      ],
      "name": "OwnerMismatch",
      "type": "error"
    },
    {
      "inputs": [
        {
          "internalType": "address",
          "name": "sender",
          "type": "address"
        },
        {
          "internalType": "address",
          "name": "plugin",
          "type": "address"
        }
      ],
      "name": "PluginAlreadyApproved",
      "type": "error"
    },
    {
      "inputs": [
        {
          "internalType": "address",
          "name": "plugin",
          "type": "address"
        }
      ],
      "name": "PluginAlreadyRegistered",
      "type": "error"
    },
    {
      "inputs": [
        {
          "internalType": "address",
          "name": "sender",
          "type": "address"
        },
        {
          "internalType": "address",
          "name": "plugin",
          "type": "address"
        }
      ],
      "name": "PluginNotApproved",
      "type": "error"
    },
    {
      "inputs": [
        {
          "internalType": "address",
          "name": "plugin",
          "type": "address"
        }
      ],
      "name": "PluginNotRegistered",
      "type": "error"
    },
    {
      "inputs": [
        {
          "internalType": "address",
          "name": "token",
          "type": "address"
        }
      ],
      "name": "SafeERC20FailedOperation",
      "type": "error"
    },
    {
      "anonymous": false,
      "inputs": [
        {
          "indexed": true,
          "internalType": "address",
          "name": "previousGov",
          "type": "address"
        },
        {
          "indexed": true,
          "internalType": "address",
          "name": "newGov",
          "type": "address"
        }
      ],
      "name": "ChangeGovStarted",
      "type": "event"
    },
    {
      "anonymous": false,
      "inputs": [
        {
          "indexed": true,
          "internalType": "address",
          "name": "previousGov",
          "type": "address"
        },
        {
          "indexed": true,
          "internalType": "address",
          "name": "newGov",
          "type": "address"
        }
      ],
      "name": "GovChanged",
      "type": "event"
    },
    {
      "anonymous": false,
      "inputs": [
        {
          "indexed": true,
          "internalType": "address",
          "name": "liquidator",
          "type": "address"
        }
      ],
      "name": "LiquidatorRegistered",
      "type": "event"
    },
    {
      "anonymous": false,
      "inputs": [
        {
          "indexed": true,
          "internalType": "address",
          "name": "account",
          "type": "address"
        },
        {
          "indexed": true,
          "internalType": "address",
          "name": "plugin",
          "type": "address"
        }
      ],
      "name": "PluginApproved",
      "type": "event"
    },
    {
      "anonymous": false,
      "inputs": [
        {
          "indexed": true,
          "internalType": "address",
          "name": "plugin",
          "type": "address"
        }
      ],
      "name": "PluginRegistered",
      "type": "event"
    },
    {
      "anonymous": false,
      "inputs": [
        {
          "indexed": true,
          "internalType": "address",
          "name": "account",
          "type": "address"
        },
        {
          "indexed": true,
          "internalType": "address",
          "name": "plugin",
          "type": "address"
        }
      ],
      "name": "PluginRevoked",
      "type": "event"
    },
    {
      "inputs": [],
      "name": "EFC",
      "outputs": [
        {
          "internalType": "contract IEFC",
          "name": "",
          "type": "address"
        }
      ],
      "stateMutability": "view",
      "type": "function"
    },
    {
      "inputs": [],
      "name": "acceptGov",
      "outputs": [],
      "stateMutability": "nonpayable",
      "type": "function"
    },
    {
      "inputs": [
        {
          "internalType": "address",
          "name": "_plugin",
          "type": "address"
        }
      ],
      "name": "approvePlugin",
      "outputs": [],
      "stateMutability": "nonpayable",
      "type": "function"
    },
    {
      "inputs": [
        {
          "internalType": "address",
          "name": "_newGov",
          "type": "address"
        }
      ],
      "name": "changeGov",
      "outputs": [],
      "stateMutability": "nonpayable",
      "type": "function"
    },
    {
      "inputs": [],
      "name": "feeDistributor",
      "outputs": [
        {
          "internalType": "contract IFeeDistributor",
          "name": "",
          "type": "address"
        }
      ],
      "stateMutability": "view",
      "type": "function"
    },
    {
      "inputs": [],
      "name": "gov",
      "outputs": [
        {
          "internalType": "address",
          "name": "",
          "type": "address"
        }
      ],
      "stateMutability": "view",
      "type": "function"
    },
    {
      "inputs": [
        {
          "internalType": "address",
          "name": "_account",
          "type": "address"
        },
        {
          "internalType": "address",
          "name": "_plugin",
          "type": "address"
        }
      ],
      "name": "isPluginApproved",
      "outputs": [
        {
          "internalType": "bool",
          "name": "",
          "type": "bool"
        }
      ],
      "stateMutability": "view",
      "type": "function"
    },
    {
      "inputs": [
        {
          "internalType": "address",
          "name": "_liquidator",
          "type": "address"
        }
      ],
      "name": "isRegisteredLiquidator",
      "outputs": [
        {
          "internalType": "bool",
          "name": "",
          "type": "bool"
        }
      ],
      "stateMutability": "view",
      "type": "function"
    },
    {
      "inputs": [],
      "name": "pendingGov",
      "outputs": [
        {
          "internalType": "address",
          "name": "",
          "type": "address"
        }
      ],
      "stateMutability": "view",
      "type": "function"
    },
    {
      "inputs": [
        {
          "internalType": "contract IPool",
          "name": "_pool",
          "type": "address"
        },
        {
          "internalType": "uint96",
          "name": "_positionID",
          "type": "uint96"
        },
        {
          "internalType": "int128",
          "name": "_marginDelta",
          "type": "int128"
        },
        {
          "internalType": "address",
          "name": "_receiver",
          "type": "address"
        }
      ],
      "name": "pluginAdjustLiquidityPositionMargin",
      "outputs": [],
      "stateMutability": "nonpayable",
      "type": "function"
    },
    {
      "inputs": [
        {
          "internalType": "contract IPool",
          "name": "_pool",
          "type": "address"
        },
        {
          "internalType": "uint96",
          "name": "_positionID",
          "type": "uint96"
        },
        {
          "internalType": "address",
          "name": "_receiver",
          "type": "address"
        }
      ],
      "name": "pluginCloseLiquidityPosition",
      "outputs": [],
      "stateMutability": "nonpayable",
      "type": "function"
    },
    {
      "inputs": [
        {
          "internalType": "contract IPool",
          "name": "_pool",
          "type": "address"
        },
        {
          "internalType": "address",
          "name": "_account",
          "type": "address"
        },
        {
          "internalType": "Side",
          "name": "_side",
          "type": "uint8"
        },
        {
          "internalType": "uint128",
          "name": "_sizeDelta",
          "type": "uint128"
        },
        {
          "internalType": "address",
          "name": "_receiver",
          "type": "address"
        }
      ],
      "name": "pluginClosePositionByLiquidator",
      "outputs": [],
      "stateMutability": "nonpayable",
      "type": "function"
    },
    {
      "inputs": [
        {
          "internalType": "address",
          "name": "_receiver",
          "type": "address"
        },
        {
          "internalType": "uint256[]",
          "name": "_tokenIDs",
          "type": "uint256[]"
        }
      ],
      "name": "pluginCollectArchitectRewardBatch",
      "outputs": [
        {
          "internalType": "uint256",
          "name": "rewardDebt",
          "type": "uint256"
        }
      ],
      "stateMutability": "nonpayable",
      "type": "function"
    },
    {
      "inputs": [
        {
          "internalType": "contract IPool[]",
          "name": "_pools",
          "type": "address[]"
        },
        {
          "internalType": "address",
          "name": "_owner",
          "type": "address"
        },
        {
          "internalType": "address",
          "name": "_receiver",
          "type": "address"
        }
      ],
      "name": "pluginCollectFarmLiquidityRewardBatch",
      "outputs": [
        {
          "internalType": "uint256",
          "name": "rewardDebt",
          "type": "uint256"
        }
      ],
      "stateMutability": "nonpayable",
      "type": "function"
    },
    {
      "inputs": [
        {
          "internalType": "contract IPool[]",
          "name": "_pools",
          "type": "address[]"
        },
        {
          "internalType": "uint256[]",
          "name": "_referralTokens",
          "type": "uint256[]"
        },
        {
          "internalType": "address",
          "name": "_receiver",
          "type": "address"
        }
      ],
      "name": "pluginCollectFarmReferralRewardBatch",
      "outputs": [
        {
          "internalType": "uint256",
          "name": "rewardDebt",
          "type": "uint256"
        }
      ],
      "stateMutability": "nonpayable",
      "type": "function"
    },
    {
      "inputs": [
        {
          "internalType": "contract IPool[]",
          "name": "_pools",
          "type": "address[]"
        },
        {
          "internalType": "address",
          "name": "_owner",
          "type": "address"
        },
        {
          "internalType": "address",
          "name": "_receiver",
          "type": "address"
        }
      ],
      "name": "pluginCollectFarmRiskBufferFundRewardBatch",
      "outputs": [
        {
          "internalType": "uint256",
          "name": "rewardDebt",
          "type": "uint256"
        }
      ],
      "stateMutability": "nonpayable",
      "type": "function"
    },
    {
      "inputs": [
        {
          "internalType": "contract IPool",
          "name": "_pool",
          "type": "address"
        },
        {
          "internalType": "uint256",
          "name": "_referralToken",
          "type": "uint256"
        },
        {
          "internalType": "address",
          "name": "_receiver",
          "type": "address"
        }
      ],
      "name": "pluginCollectReferralFee",
      "outputs": [
        {
          "internalType": "uint256",
          "name": "",
          "type": "uint256"
        }
      ],
      "stateMutability": "nonpayable",
      "type": "function"
    },
    {
      "inputs": [
        {
          "internalType": "address",
          "name": "_owner",
          "type": "address"
        },
        {
          "internalType": "address",
          "name": "_receiver",
          "type": "address"
        },
        {
          "internalType": "uint256[]",
          "name": "_ids",
          "type": "uint256[]"
        }
      ],
      "name": "pluginCollectStakingRewardBatch",
      "outputs": [
        {
          "internalType": "uint256",
          "name": "rewardDebt",
          "type": "uint256"
        }
      ],
      "stateMutability": "nonpayable",
      "type": "function"
    },
    {
      "inputs": [
        {
          "internalType": "address",
          "name": "_owner",
          "type": "address"
        },
        {
          "internalType": "address",
          "name": "_receiver",
          "type": "address"
        },
        {
          "internalType": "uint256[]",
          "name": "_ids",
          "type": "uint256[]"
        }
      ],
      "name": "pluginCollectV3PosStakingRewardBatch",
      "outputs": [
        {
          "internalType": "uint256",
          "name": "rewardDebt",
          "type": "uint256"
        }
      ],
      "stateMutability": "nonpayable",
      "type": "function"
    },
    {
      "inputs": [
        {
          "internalType": "contract IPool",
          "name": "_pool",
          "type": "address"
        },
        {
          "internalType": "address",
          "name": "_account",
          "type": "address"
        },
        {
          "internalType": "Side",
          "name": "_side",
          "type": "uint8"
        },
        {
          "internalType": "uint128",
          "name": "_marginDelta",
          "type": "uint128"
        },
        {
          "internalType": "uint128",
          "name": "_sizeDelta",
          "type": "uint128"
        },
        {
          "internalType": "address",
          "name": "_receiver",
          "type": "address"
        }
      ],
      "name": "pluginDecreasePosition",
      "outputs": [
        {
          "internalType": "uint160",
          "name": "tradePriceX96",
          "type": "uint160"
        }
      ],
      "stateMutability": "nonpayable",
      "type": "function"
    },
    {
      "inputs": [
        {
          "internalType": "contract IPool",
          "name": "_pool",
          "type": "address"
        },
        {
          "internalType": "address",
          "name": "_account",
          "type": "address"
        },
        {
          "internalType": "uint128",
          "name": "_liquidityDelta",
          "type": "uint128"
        },
        {
          "internalType": "address",
          "name": "_receiver",
          "type": "address"
        }
      ],
      "name": "pluginDecreaseRiskBufferFundPosition",
      "outputs": [],
      "stateMutability": "nonpayable",
      "type": "function"
    },
    {
      "inputs": [
        {
          "internalType": "contract IPool",
          "name": "_pool",
          "type": "address"
        },
        {
          "internalType": "address",
          "name": "_account",
          "type": "address"
        },
        {
          "internalType": "Side",
          "name": "_side",
          "type": "uint8"
        },
        {
          "internalType": "uint128",
          "name": "_marginDelta",
          "type": "uint128"
        },
        {
          "internalType": "uint128",
          "name": "_sizeDelta",
          "type": "uint128"
        }
      ],
      "name": "pluginIncreasePosition",
      "outputs": [
        {
          "internalType": "uint160",
          "name": "tradePriceX96",
          "type": "uint160"
        }
      ],
      "stateMutability": "nonpayable",
      "type": "function"
    },
    {
      "inputs": [
        {
          "internalType": "contract IPool",
          "name": "_pool",
          "type": "address"
        },
        {
          "internalType": "address",
          "name": "_account",
          "type": "address"
        },
        {
          "internalType": "uint128",
          "name": "_liquidityDelta",
          "type": "uint128"
        }
      ],
      "name": "pluginIncreaseRiskBufferFundPosition",
      "outputs": [],
      "stateMutability": "nonpayable",
      "type": "function"
    },
    {
      "inputs": [
        {
          "internalType": "contract IPool",
          "name": "_pool",
          "type": "address"
        },
        {
          "internalType": "address",
          "name": "_account",
          "type": "address"
        },
        {
          "internalType": "uint128",
          "name": "_margin",
          "type": "uint128"
        },
        {
          "internalType": "uint128",
          "name": "_liquidity",
          "type": "uint128"
        }
      ],
      "name": "pluginOpenLiquidityPosition",
      "outputs": [
        {
          "internalType": "uint96",
          "name": "positionID",
          "type": "uint96"
        }
      ],
      "stateMutability": "nonpayable",
      "type": "function"
    },
    {
      "inputs": [
        {
          "internalType": "contract IERC20",
          "name": "_token",
          "type": "address"
        },
        {
          "internalType": "address",
          "name": "_from",
          "type": "address"
        },
        {
          "internalType": "address",
          "name": "_to",
          "type": "address"
        },
        {
          "internalType": "uint256",
          "name": "_amount",
          "type": "uint256"
        }
      ],
      "name": "pluginTransfer",
      "outputs": [],
      "stateMutability": "nonpayable",
      "type": "function"
    },
    {
      "inputs": [
        {
          "internalType": "contract IERC721",
          "name": "_token",
          "type": "address"
        },
        {
          "internalType": "address",
          "name": "_from",
          "type": "address"
        },
        {
          "internalType": "address",
          "name": "_to",
          "type": "address"
        },
        {
          "internalType": "uint256",
          "name": "_tokenId",
          "type": "uint256"
        }
      ],
      "name": "pluginTransferNFT",
      "outputs": [],
      "stateMutability": "nonpayable",
      "type": "function"
    },
    {
      "inputs": [
        {
          "internalType": "address",
          "name": "_liquidator",
          "type": "address"
        }
      ],
      "name": "registerLiquidator",
      "outputs": [],
      "stateMutability": "nonpayable",
      "type": "function"
    },
    {
      "inputs": [
        {
          "internalType": "address",
          "name": "_plugin",
          "type": "address"
        }
      ],
      "name": "registerPlugin",
      "outputs": [],
      "stateMutability": "nonpayable",
      "type": "function"
    },
    {
      "inputs": [
        {
          "internalType": "address",
          "name": "",
          "type": "address"
        }
      ],
      "name": "registeredPlugins",
      "outputs": [
        {
          "internalType": "bool",
          "name": "",
          "type": "bool"
        }
      ],
      "stateMutability": "view",
      "type": "function"
    },
    {
      "inputs": [
        {
          "internalType": "address",
          "name": "_plugin",
          "type": "address"
        }
      ],
      "name": "revokePlugin",
      "outputs": [],
      "stateMutability": "nonpayable",
      "type": "function"
    },
    {
      "inputs": [],
      "name": "rewardFarm",
      "outputs": [
        {
          "internalType": "contract IRewardFarm",
          "name": "",
          "type": "address"
        }
      ],
      "stateMutability": "view",
      "type": "function"
    }
  ],
  "bytecode": "0x60e0346200012357601f6200289f38819003918201601f19168301916001600160401b038311848410176200012857808492606094604052833981010312620001235780516001600160a01b0391828216820362000123576020810151908382168203620001235760400151838116810362000123576000543360018060a01b0319821617600055604051943391167f3d1e4c3a68fed9f4f8315582b7297cf8fa264bc8e6704287603ba8c72bf05ac2600080a360c05260a05260805261276090816200013f8239608051818181610d3501528181611a5b01528181611cbe01528181611e5c0152818161201601526120c4015260a0518181816110f0015281816111dc0152611f50015260c051818181610de0015281816110120152611c080152f35b600080fd5b634e487b7160e01b600052604160045260246000fdfe608080604052600436101561001357600080fd5b600090813560e01c90816303dbee4d14611d98575080630cfe364214611c2c5780630d43e8ad14611bbd57806310e8667b14611ad057806312d43a5114611a7f5780631420f80214611a1057806318602c7b146119b95780631b827878146117945780632524081014611742578063292b33fc146116da5780632a5a2cca146115e357806338c74dd91461147657806345b274071461134e57806351a4b38e14611257578063525c865614611200578063534593911461119157806360f6f14b1461112957806364fdd23c1461107f578063724fa77114610fa1578063786bccf214610c875780637bc6729b14610bb25780638c96742e14610ae3578063a962ef1e14610a36578063ae39e59c14610903578063afbb383114610883578063bb0c5f951461079c578063c171f0b014610655578063c67f1a3514610508578063d3d0d99914610411578063f5d01c53146102c55763f86786f11461017657600080fd5b346102c25760c07ffffffffffffffffffffffffffffffffffffffffffffffffffffffffffffffffc3601126102c2576101ad61223e565b6101b56121f8565b906101be61233b565b916101c7612280565b916101d061229f565b9160a4359073ffffffffffffffffffffffffffffffffffffffff948583168093036102bd5785809460a4948a93602098610209876125ad565b60ff6040519c8d9a8b997f1844c32c000000000000000000000000000000000000000000000000000000008b521660048a01521660248801526fffffffffffffffffffffffffffffffff80921660448801521660648601526084850152165af19182156102b25760209392610283575b5060405191168152f35b6102a4919250833d85116102ab575b61029c8183612436565b810190612477565b9038610279565b503d610292565b6040513d85823e3d90fd5b600080fd5b80fd5b50346102c25760807ffffffffffffffffffffffffffffffffffffffffffffffffffffffffffffffffc3601126102c2576102fd61223e565b60206103076121f8565b916064610312612261565b938561031c612280565b95610326836125ad565b6040517f76dc71af00000000000000000000000000000000000000000000000000000000815273ffffffffffffffffffffffffffffffffffffffff93841660048201526fffffffffffffffffffffffffffffffff91821660248201529616604487015285938492165af19081156104065782916103b7575b6020826bffffffffffffffffffffffff60405191168152f35b90506020813d6020116103fe575b816103d260209383612436565b810103126103fa57516bffffffffffffffffffffffff811681036103fa57602091503861039e565b5080fd5b3d91506103c5565b6040513d84823e3d90fd5b50346102c25760207ffffffffffffffffffffffffffffffffffffffffffffffffffffffffffffffffc3601126102c25773ffffffffffffffffffffffffffffffffffffffff61045e61223e565b6104666125e7565b16808252600360205260ff6040832054166104d75780825260036020526040822060017fffffffffffffffffffffffffffffffffffffffffffffffffffffffffffffff008254161790557f147270b607bb55cce19da6ecd1569d5d71e9638c59dc52ae16f6c456a255d5998280a280f35b602490604051907f651e96690000000000000000000000000000000000000000000000000000000082526004820152fd5b50346102c25760607ffffffffffffffffffffffffffffffffffffffffffffffffffffffffffffffffc3601126102c2578061054161223e565b6105496123c8565b6105516121d5565b73ffffffffffffffffffffffffffffffffffffffff8093166bffffffffffffffffffffffff604051937f5186d6d20000000000000000000000000000000000000000000000000000000085521692836004820152602081602481855afa801561064a576105c591879161062b575b506125ad565b803b156106275784928360449260405196879586947f2c4d382600000000000000000000000000000000000000000000000000000000865260048601521660248401525af18015610406576106175750f35b61062090612422565b6102c25780f35b8480fd5b610644915060203d6020116102ab5761029c8183612436565b386105bf565b6040513d88823e3d90fd5b50346102c25760a07ffffffffffffffffffffffffffffffffffffffffffffffffffffffffffffffffc3601126102c25761068d61223e565b6106956121f8565b9061069e61233b565b916106a7612280565b916084359173ffffffffffffffffffffffffffffffffffffffff928381168091036102bd57338752600360205260ff60408820541615610772578360a49388926fffffffffffffffffffffffffffffffff60209860ff6040519b8c9a8b997f1844c32c000000000000000000000000000000000000000000000000000000008b521660048a01521660248801528560448801521660648601526084850152165af1801561040657610756575080f35b61076e9060203d6020116102ab5761029c8183612436565b5080f35b60046040517f2b6dd476000000000000000000000000000000000000000000000000000000008152fd5b50346102c25760807ffffffffffffffffffffffffffffffffffffffffffffffffffffffffffffffffc3601126102c2578060043573ffffffffffffffffffffffffffffffffffffffff8116809103610880576107f66121f8565b6107fe6121d5565b90610808816125ad565b823b1561087b576040517f42842e0e00000000000000000000000000000000000000000000000000000000815273ffffffffffffffffffffffffffffffffffffffff918216600482015291166024820152606480356044830152909183918391829084905af18015610406576106175750f35b505050fd5b50fd5b50346102c25760407ffffffffffffffffffffffffffffffffffffffffffffffffffffffffffffffffc3601126102c2576108bb61223e565b60406108c56121f8565b9273ffffffffffffffffffffffffffffffffffffffff80931681526004602052209116600052602052602060ff604060002054166040519015158152f35b50346102c25760807ffffffffffffffffffffffffffffffffffffffffffffffffffffffffffffffffc3601126102c2578061093c61223e565b6109446123c8565b9060443580600f0b80910361087b5761095b61221b565b9273ffffffffffffffffffffffffffffffffffffffff809316906bffffffffffffffffffffffff604051917f5186d6d20000000000000000000000000000000000000000000000000000000083521690816004820152602081602481865afa8015610a2b576109d091889161062b57506125ad565b813b15610a275785606492819560405197889687957f8584075f000000000000000000000000000000000000000000000000000000008752600487015260248601521660448401525af18015610406576106175750f35b8580fd5b6040513d89823e3d90fd5b50346102c25760207ffffffffffffffffffffffffffffffffffffffffffffffffffffffffffffffffc3601126102c257610a6e61223e565b610a766125e7565b73ffffffffffffffffffffffffffffffffffffffff80911690817fffffffffffffffffffffffff000000000000000000000000000000000000000060015416176001558254167fb9911e2099e372c216862258dc462bb65da46a2c854536c8b1acae619d0d62ed8380a380f35b50346102c25760607ffffffffffffffffffffffffffffffffffffffffffffffffffffffffffffffffc3601126102c25780610b1c61223e565b610b246121f8565b610b2c612261565b91610b36826125ad565b73ffffffffffffffffffffffffffffffffffffffff809116803b15610627578492836044926fffffffffffffffffffffffffffffffff60405197889687957f578cb6ca0000000000000000000000000000000000000000000000000000000087521660048601521660248401525af18015610406576106175750f35b50346102c257807ffffffffffffffffffffffffffffffffffffffffffffffffffffffffffffffffc3601126102c25760015473ffffffffffffffffffffffffffffffffffffffff8082163303610c5d577fffffffffffffffffffffffff0000000000000000000000000000000000000000809216600155825491339083161783553391167f3d1e4c3a68fed9f4f8315582b7297cf8fa264bc8e6704287603ba8c72bf05ac28380a380f35b60046040517fee90c468000000000000000000000000000000000000000000000000000000008152fd5b50346102c25760407ffffffffffffffffffffffffffffffffffffffffffffffffffffffffffffffffc3601126102c257610cbf61223e565b9060249160243567ffffffffffffffff8111610f9d57610ce39036906004016121a4565b90918115610f99576040517f6352211e000000000000000000000000000000000000000000000000000000008082528435600483015260209673ffffffffffffffffffffffffffffffffffffffff93927f000000000000000000000000000000000000000000000000000000000000000085168982602481845afa918215610f8e578992610f6f575b5091818a97969593610d7f8b96946125ad565b60019360015b898110610e5157505050505050908291610ddc604051978896879586947f53ec31d10000000000000000000000000000000000000000000000000000000086521660048501526040602485015260448401916124fa565b03927f0000000000000000000000000000000000000000000000000000000000000000165af1918215610e455791610e18575b50604051908152f35b90508181813d8311610e3e575b610e2f8183612436565b810103126102bd575138610e0f565b503d610e25565b604051903d90823e3d90fd5b8981939597999a9b50610e6892949698508c6123e3565b356040519083825260048201528c818781875afa908115610f64578c91610f47575b5088808616911603610ea8578501918a9593918c9998979593610d85565b8b918b9495610eb984938c8e6123e3565b35916040519586938492835260048301525afa928315610e455792610f2a575b50506040517f4ecf968e00000000000000000000000000000000000000000000000000000000815273ffffffffffffffffffffffffffffffffffffffff918216600482015291166024820152604490fd5b610f409250803d106102ab5761029c8183612436565b8280610ed9565b610f5e91508d803d106102ab5761029c8183612436565b38610e8a565b6040513d8e823e3d90fd5b610f879192508a3d8c116102ab5761029c8183612436565b9038610d6c565b6040513d8b823e3d90fd5b8380fd5b8280fd5b50346102c257610ff8906020610fb6366122be565b610fc48493949792976125ad565b60405196879485947f1d56eed000000000000000000000000000000000000000000000000000000000865260048601612537565b03818473ffffffffffffffffffffffffffffffffffffffff7f0000000000000000000000000000000000000000000000000000000000000000165af1908115610e45579061104c575b602090604051908152f35b506020813d602011611077575b8161106660209383612436565b810103126102bd5760209051611041565b3d9150611059565b50346102c2576110d69060206110943661234b565b6110a28297929493946125ad565b60405196879485947f563f23330000000000000000000000000000000000000000000000000000000086526004860161256f565b03818473ffffffffffffffffffffffffffffffffffffffff7f0000000000000000000000000000000000000000000000000000000000000000165af1908115610e45579061104c57602090604051908152f35b50346102c25760207ffffffffffffffffffffffffffffffffffffffffffffffffffffffffffffffffc3601126102c25760ff604060209273ffffffffffffffffffffffffffffffffffffffff61117d61223e565b168152600384522054166040519015158152f35b50346102c257807ffffffffffffffffffffffffffffffffffffffffffffffffffffffffffffffffc3601126102c257602060405173ffffffffffffffffffffffffffffffffffffffff7f0000000000000000000000000000000000000000000000000000000000000000168152f35b50346102c2576110d69060206112153661234b565b6112238297929493946125ad565b60405196879485947f2af44d040000000000000000000000000000000000000000000000000000000086526004860161256f565b50346102c25760207ffffffffffffffffffffffffffffffffffffffffffffffffffffffffffffffffc3601126102c25773ffffffffffffffffffffffffffffffffffffffff6112a461223e565b6112ac6125e7565b16808252600260205260ff60408320541661131d5780825260026020526040822060017fffffffffffffffffffffffffffffffffffffffffffffffffffffffffffffff008254161790557f03cab74d2fa2a557ffeb0fd712180cfbea66cb894cf67fcf8a25b38b9ec5ad968280a280f35b602490604051907f5a473fa10000000000000000000000000000000000000000000000000000000082526004820152fd5b50346102c25760207ffffffffffffffffffffffffffffffffffffffffffffffffffffffffffffffffc3601126102c25761138661223e565b3382526004602052604082209073ffffffffffffffffffffffffffffffffffffffff8116918260005260205260ff604060002054161561142757503382526004602052604082208160005260205260406000207fffffffffffffffffffffffffffffffffffffffffffffffffffffffffffffff008154169055337f15bb2b66587c2cebf2c9db7dc18211188c4c21b135dee66e2e66309c2e696d518380a380f35b6040517ffb96919d00000000000000000000000000000000000000000000000000000000815233600482015273ffffffffffffffffffffffffffffffffffffffff919091166024820152604490fd5b50346102c2576020807ffffffffffffffffffffffffffffffffffffffffffffffffffffffffffffffffc3601126103fa576114af61223e565b9033835260048152604083209173ffffffffffffffffffffffffffffffffffffffff81169283600052825260ff6040600020541661159457508183526002815260ff60408420541615611563573383526004815260408320908260005252604060002060017fffffffffffffffffffffffffffffffffffffffffffffffffffffffffffffff00825416179055337f66075e2684e8cbbd5dd40f4ecfa3cb7e9903d1b492d8484496b579070dd080b48380a380f35b602482604051907f697116290000000000000000000000000000000000000000000000000000000082526004820152fd5b6040517fa7ed43a100000000000000000000000000000000000000000000000000000000815233600482015273ffffffffffffffffffffffffffffffffffffffff919091166024820152604490fd5b50346102c25760a07ffffffffffffffffffffffffffffffffffffffffffffffffffffffffffffffffc3601126102c25761161b61223e565b6116236121f8565b90602061162e61233b565b926084611639612280565b918661164361229f565b61164c836125ad565b73ffffffffffffffffffffffffffffffffffffffff968795869260ff6040519b8c998a987f89e10817000000000000000000000000000000000000000000000000000000008a521660048901521660248701526fffffffffffffffffffffffffffffffff8092166044870152166064850152165af19182156102b25760209392610283575060405191168152f35b50346102c25760207ffffffffffffffffffffffffffffffffffffffffffffffffffffffffffffffffc3601126102c25760ff604060209273ffffffffffffffffffffffffffffffffffffffff61172e61223e565b168152600284522054166040519015158152f35b50346102c257807ffffffffffffffffffffffffffffffffffffffffffffffffffffffffffffffffc3601126102c257602073ffffffffffffffffffffffffffffffffffffffff60015416604051908152f35b50346102c25760807ffffffffffffffffffffffffffffffffffffffffffffffffffffffffffffffffc3601126102c25760043573ffffffffffffffffffffffffffffffffffffffff81168091036103fa576117ed6121f8565b6117f56121d5565b6117fe826125ad565b6040517f23b872dd00000000000000000000000000000000000000000000000000000000602080830191825273ffffffffffffffffffffffffffffffffffffffff9485166024840152929093166044820152606480358183015281529091907fffffffffffffffffffffffffffffffffffffffffffffffffffffffffffffffe0611889608483612436565b604051916040830167ffffffffffffffff948482108683111761197c5788928392604052601e86527f416464726573733a206c6f772d6c6576656c2063616c6c206661696c6564000088870152519082895af13d156119ab573d93841161197c57611911936119028660405194601f8401160184612436565b82523d878684013e5b85612608565b805191821515918261195b575b5050905061192a575080f35b602490604051907f5274afe70000000000000000000000000000000000000000000000000000000082526004820152fd5b809250819381010312610f99570151801590811503610f9d5780388061191e565b7f4e487b7100000000000000000000000000000000000000000000000000000000600052604160045260246000fd5b61191193506060915061190b565b50346102c257610ff89060206119ce366122be565b6119dc8493949792976125ad565b60405196879485947f24cf567100000000000000000000000000000000000000000000000000000000865260048601612537565b50346102c257807ffffffffffffffffffffffffffffffffffffffffffffffffffffffffffffffffc3601126102c257602060405173ffffffffffffffffffffffffffffffffffffffff7f0000000000000000000000000000000000000000000000000000000000000000168152f35b50346102c257807ffffffffffffffffffffffffffffffffffffffffffffffffffffffffffffffffc3601126102c25773ffffffffffffffffffffffffffffffffffffffff6020915416604051908152f35b50346102c25760807ffffffffffffffffffffffffffffffffffffffffffffffffffffffffffffffffc3601126102c257611b0861223e565b81611b116121f8565b91611b1a612261565b92611b2361221b565b90611b2d816125ad565b73ffffffffffffffffffffffffffffffffffffffff80931691823b15610627576064928486926fffffffffffffffffffffffffffffffff604051998a9889977f8abcc9fb0000000000000000000000000000000000000000000000000000000089521660048801521660248601521660448401525af1801561040657611bb1575080f35b611bba90612422565b80f35b50346102c257807ffffffffffffffffffffffffffffffffffffffffffffffffffffffffffffffffc3601126102c257602060405173ffffffffffffffffffffffffffffffffffffffff7f0000000000000000000000000000000000000000000000000000000000000000168152f35b50346102c25760607ffffffffffffffffffffffffffffffffffffffffffffffffffffffffffffffffc3601126102c257611c6461223e565b90602435611c706121d5565b73ffffffffffffffffffffffffffffffffffffffff91604051947f6352211e0000000000000000000000000000000000000000000000000000000086528160048701526020958681602481887f0000000000000000000000000000000000000000000000000000000000000000165afa90811561064a5785604493611d008a9796948a948591611d8157506125ad565b60405197889687957fd125865f0000000000000000000000000000000000000000000000000000000087526004870152166024850152165af1918215610e45578092611d51575b5050604051908152f35b9091508282813d8311611d7a575b611d698183612436565b810103126102c25750513880611d47565b503d611d5f565b6106449150893d8b116102ab5761029c8183612436565b9050346103fa5760607ffffffffffffffffffffffffffffffffffffffffffffffffffffffffffffffffc3601126103fa5767ffffffffffffffff90600435828111610f9957611deb9036906004016121a4565b91909260243590811161062757611e069036906004016121a4565b611e0e6121d5565b9281156121a0577f6352211e0000000000000000000000000000000000000000000000000000000081528235600482015260208160248173ffffffffffffffffffffffffffffffffffffffff7f0000000000000000000000000000000000000000000000000000000000000000165afa908115610a2b578791612181575b50611e96816125ad565b60015b828110611fc15787611eff602089898973ffffffffffffffffffffffffffffffffffffffff611f2f8b8b60405198899788977f0de759e8000000000000000000000000000000000000000000000000000000008952606060048a015260648901916124a3565b917ffffffffffffffffffffffffffffffffffffffffffffffffffffffffffffffffc8784030160248801526124fa565b9116604483015203818573ffffffffffffffffffffffffffffffffffffffff7f0000000000000000000000000000000000000000000000000000000000000000165af1908115610406578291611f8b575b602082604051908152f35b90506020813d602011611fb9575b81611fa660209383612436565b810103126103fa57602091505182611f80565b3d9150611f99565b611fcc8184866123e3565b35604051907f6352211e000000000000000000000000000000000000000000000000000000008252600482015260208160248173ffffffffffffffffffffffffffffffffffffffff7f0000000000000000000000000000000000000000000000000000000000000000165afa908115610f8e578991612162575b5073ffffffffffffffffffffffffffffffffffffffff80841691160361206e57600101611e99565b879261207a92946123e3565b35604051907f6352211e000000000000000000000000000000000000000000000000000000008252600482015260208160248173ffffffffffffffffffffffffffffffffffffffff7f0000000000000000000000000000000000000000000000000000000000000000165afa918215610e455791612143575b506040517f4ecf968e00000000000000000000000000000000000000000000000000000000815273ffffffffffffffffffffffffffffffffffffffff918216600482015291166024820152604490fd5b61215c915060203d6020116102ab5761029c8183612436565b826120f3565b61217b915060203d6020116102ab5761029c8183612436565b38612046565b61219a915060203d6020116102ab5761029c8183612436565b38611e8c565b8680fd5b9181601f840112156102bd5782359167ffffffffffffffff83116102bd576020808501948460051b0101116102bd57565b6044359073ffffffffffffffffffffffffffffffffffffffff821682036102bd57565b6024359073ffffffffffffffffffffffffffffffffffffffff821682036102bd57565b6064359073ffffffffffffffffffffffffffffffffffffffff821682036102bd57565b6004359073ffffffffffffffffffffffffffffffffffffffff821682036102bd57565b604435906fffffffffffffffffffffffffffffffff821682036102bd57565b606435906fffffffffffffffffffffffffffffffff821682036102bd57565b608435906fffffffffffffffffffffffffffffffff821682036102bd57565b60607ffffffffffffffffffffffffffffffffffffffffffffffffffffffffffffffffc8201126102bd5773ffffffffffffffffffffffffffffffffffffffff9160043583811681036102bd579260243590811681036102bd57916044359067ffffffffffffffff82116102bd57612337916004016121a4565b9091565b6044359060ff821682036102bd57565b60607ffffffffffffffffffffffffffffffffffffffffffffffffffffffffffffffffc8201126102bd576004359067ffffffffffffffff82116102bd57612394916004016121a4565b909173ffffffffffffffffffffffffffffffffffffffff9060243582811681036102bd579160443590811681036102bd5790565b602435906bffffffffffffffffffffffff821682036102bd57565b91908110156123f35760051b0190565b7f4e487b7100000000000000000000000000000000000000000000000000000000600052603260045260246000fd5b67ffffffffffffffff811161197c57604052565b90601f7fffffffffffffffffffffffffffffffffffffffffffffffffffffffffffffffe0910116810190811067ffffffffffffffff82111761197c57604052565b908160209103126102bd575173ffffffffffffffffffffffffffffffffffffffff811681036102bd5790565b9190808252602080920192916000805b8382106124c257505050505090565b9091929394853573ffffffffffffffffffffffffffffffffffffffff8116809103610f9d5781528301948301939291600101906124b3565b90918281527f07ffffffffffffffffffffffffffffffffffffffffffffffffffffffffffffff83116102bd5760209260051b809284830137010190565b60609161256c959373ffffffffffffffffffffffffffffffffffffffff809216835216602082015281604082015201916124fa565b90565b9290612589906040939695966060865260608601916124a3565b9473ffffffffffffffffffffffffffffffffffffffff809216602085015216910152565b73ffffffffffffffffffffffffffffffffffffffff16600052600460205260406000203360005260205260ff604060002054161561077257565b73ffffffffffffffffffffffffffffffffffffffff600054163303610c5d57565b91929015612683575081511561261c575090565b3b156126255790565b60646040517f08c379a000000000000000000000000000000000000000000000000000000000815260206004820152601d60248201527f416464726573733a2063616c6c20746f206e6f6e2d636f6e74726163740000006044820152fd5b8251909150156126965750805190602001fd5b604051907f08c379a000000000000000000000000000000000000000000000000000000000825281602080600483015282519283602484015260005b848110612713575050507fffffffffffffffffffffffffffffffffffffffffffffffffffffffffffffffe0601f836000604480968601015201168101030190fd5b8181018301518682016044015285935082016126d256fea2646970667358221220e28caf3a0775647bfd0032ee37af547f5a70bff6e7d7e11b71fd24b002c98c8564736f6c63430008180033",
  "linkReferences": {},
  "deployedLinkReferences": {}
}