{
  "_format": "hh-sol-artifact-1",
  "contractName": "PositionFarmRewardDistributor",
  "sourceName": "contracts/farming/PositionFarmRewardDistributor.sol",
  "abi": [
    {
      "inputs": [
        {
          "internalType": "address",
          "name": "_signer",
          "type": "address"
        },
        {
          "internalType": "contract IERC20",
          "name": "_token",
          "type": "address"
        }
      ],
      "stateMutability": "nonpayable",
      "type": "constructor"
    },
    {
      "inputs": [
        {
          "internalType": "address",
          "name": "caller",
          "type": "address"
        }
      ],
      "name": "CallerUnauthorized",
      "type": "error"
    },
    {
      "inputs": [],
      "name": "Forbidden",
      "type": "error"
    },
    {
      "inputs": [
        {
          "internalType": "uint32",
          "name": "nonce",
          "type": "uint32"
        }
      ],
      "name": "InvalidNonce",
      "type": "error"
    },
    {
      "inputs": [],
      "name": "InvalidSignature",
      "type": "error"
    },
    {
      "inputs": [],
      "name": "ZeroAddress",
      "type": "error"
    },
    {
      "anonymous": false,
      "inputs": [
        {
          "indexed": true,
          "internalType": "address",
          "name": "previousGov",
          "type": "address"
        },
        {
          "indexed": true,
          "internalType": "address",
          "name": "newGov",
          "type": "address"
        }
      ],
      "name": "ChangeGovStarted",
      "type": "event"
    },
    {
      "anonymous": false,
      "inputs": [
        {
          "indexed": true,
          "internalType": "address",
          "name": "previousGov",
          "type": "address"
        },
        {
          "indexed": true,
          "internalType": "address",
          "name": "newGov",
          "type": "address"
        }
      ],
      "name": "GovChanged",
      "type": "event"
    },
    {
      "anonymous": false,
      "inputs": [
        {
          "indexed": true,
          "internalType": "address",
          "name": "pool",
          "type": "address"
        },
        {
          "indexed": true,
          "internalType": "address",
          "name": "account",
          "type": "address"
        },
        {
          "indexed": true,
          "internalType": "uint32",
          "name": "nonce",
          "type": "uint32"
        },
        {
          "indexed": false,
          "internalType": "address",
          "name": "receiver",
          "type": "address"
        },
        {
          "indexed": false,
          "internalType": "uint256",
          "name": "amount",
          "type": "uint256"
        }
      ],
      "name": "PositionFarmRewardCollected",
      "type": "event"
    },
    {
      "inputs": [],
      "name": "acceptGov",
      "outputs": [],
      "stateMutability": "nonpayable",
      "type": "function"
    },
    {
      "inputs": [
        {
          "internalType": "address",
          "name": "_newGov",
          "type": "address"
        }
      ],
      "name": "changeGov",
      "outputs": [],
      "stateMutability": "nonpayable",
      "type": "function"
    },
    {
      "inputs": [
        {
          "internalType": "uint32",
          "name": "_nonce",
          "type": "uint32"
        },
        {
          "components": [
            {
              "internalType": "address",
              "name": "pool",
              "type": "address"
            },
            {
              "internalType": "uint256",
              "name": "totalReward",
              "type": "uint256"
            }
          ],
          "internalType": "struct PositionFarmRewardDistributor.PoolTotalReward[]",
          "name": "_poolTotalRewards",
          "type": "tuple[]"
        },
        {
          "internalType": "bytes",
          "name": "_signature",
          "type": "bytes"
        },
        {
          "internalType": "address",
          "name": "_receiver",
          "type": "address"
        }
      ],
      "name": "collectPositionFarmRewardBatch",
      "outputs": [],
      "stateMutability": "nonpayable",
      "type": "function"
    },
    {
      "inputs": [
        {
          "internalType": "address",
          "name": "_account",
          "type": "address"
        },
        {
          "internalType": "uint32",
          "name": "_nonce",
          "type": "uint32"
        },
        {
          "components": [
            {
              "internalType": "address",
              "name": "pool",
              "type": "address"
            },
            {
              "internalType": "uint256",
              "name": "totalReward",
              "type": "uint256"
            }
          ],
          "internalType": "struct PositionFarmRewardDistributor.PoolTotalReward[]",
          "name": "_poolTotalRewards",
          "type": "tuple[]"
        },
        {
          "internalType": "bytes",
          "name": "_signature",
          "type": "bytes"
        },
        {
          "internalType": "address",
          "name": "_receiver",
          "type": "address"
        }
      ],
      "name": "collectPositionFarmRewardBatchByCollector",
      "outputs": [],
      "stateMutability": "nonpayable",
      "type": "function"
    },
    {
      "inputs": [
        {
          "internalType": "address",
          "name": "",
          "type": "address"
        },
        {
          "internalType": "address",
          "name": "",
          "type": "address"
        }
      ],
      "name": "collectedRewards",
      "outputs": [
        {
          "internalType": "uint256",
          "name": "",
          "type": "uint256"
        }
      ],
      "stateMutability": "view",
      "type": "function"
    },
    {
      "inputs": [
        {
          "internalType": "address",
          "name": "",
          "type": "address"
        }
      ],
      "name": "collectors",
      "outputs": [
        {
          "internalType": "bool",
          "name": "",
          "type": "bool"
        }
      ],
      "stateMutability": "view",
      "type": "function"
    },
    {
      "inputs": [],
      "name": "gov",
      "outputs": [
        {
          "internalType": "address",
          "name": "",
          "type": "address"
        }
      ],
      "stateMutability": "view",
      "type": "function"
    },
    {
      "inputs": [
        {
          "internalType": "address",
          "name": "",
          "type": "address"
        }
      ],
      "name": "nonces",
      "outputs": [
        {
          "internalType": "uint32",
          "name": "",
          "type": "uint32"
        }
      ],
      "stateMutability": "view",
      "type": "function"
    },
    {
      "inputs": [],
      "name": "pendingGov",
      "outputs": [
        {
          "internalType": "address",
          "name": "",
          "type": "address"
        }
      ],
      "stateMutability": "view",
      "type": "function"
    },
    {
      "inputs": [
        {
          "internalType": "address",
          "name": "_collector",
          "type": "address"
        },
        {
          "internalType": "bool",
          "name": "_enabled",
          "type": "bool"
        }
      ],
      "name": "setCollector",
      "outputs": [],
      "stateMutability": "nonpayable",
      "type": "function"
    },
    {
      "inputs": [],
      "name": "signer",
      "outputs": [
        {
          "internalType": "address",
          "name": "",
          "type": "address"
        }
      ],
      "stateMutability": "view",
      "type": "function"
    },
    {
      "inputs": [],
      "name": "token",
      "outputs": [
        {
          "internalType": "contract IERC20",
          "name": "",
          "type": "address"
        }
      ],
      "stateMutability": "view",
      "type": "function"
    }
  ],
  "bytecode": "0x60c0346100fb57601f61130038819003918201601f19168301916001600160401b038311848410176101005780849260409485528339810103126100fb5780516001600160a01b03808216928383036100fb576020015192818416908185036100fb576000543360018060a01b0319821617600055604051933391167f3d1e4c3a68fed9f4f8315582b7297cf8fa264bc8e6704287603ba8c72bf05ac2600080a3159081156100f2575b506100e3575060805260a0526040516111e9908161011782396080518181816106f50152610a0a015260a05181818160f20152610aaf0152f35b63d92e233d60e01b8152600490fd5b905015386100a9565b600080fd5b634e487b7160e01b600052604160045260246000fdfe608060408181526004918236101561001657600080fd5b600092833560e01c91826312d43a511461071957508163238ac933146106aa5781632524081014610657578163263747f7146105dd5781633077c01c146104da5781637bc6729b146104035781637ecebe001461039b5781639593b52314610334578163a962ef1e14610284578163db096b88146101bb57508063df2cc13f1461011a5763fc0c546a146100a957600080fd5b3461011657817ffffffffffffffffffffffffffffffffffffffffffffffffffffffffffffffffc360112610116576020905173ffffffffffffffffffffffffffffffffffffffff7f0000000000000000000000000000000000000000000000000000000000000000168152f35b5080fd5b503461011657807ffffffffffffffffffffffffffffffffffffffffffffffffffffffffffffffffc36011261011657610151610767565b90602435918215158093036101b75773ffffffffffffffffffffffffffffffffffffffff9061017e610dd9565b168352600260205282209060ff7fffffffffffffffffffffffffffffffffffffffffffffffffffffffffffffff00835416911617905580f35b8380fd5b8390346101165760807ffffffffffffffffffffffffffffffffffffffffffffffffffffffffffffffffc36011261011657803563ffffffff811681036102805767ffffffffffffffff60243581811161027c5761021b903690850161078f565b919093604435918211610278576102349136910161086a565b906064359373ffffffffffffffffffffffffffffffffffffffff8516938486036102745761026995941561026c575b336108f0565b80f35b339450610263565b8680fd5b8580fd5b8480fd5b8280fd5b83346103315760207ffffffffffffffffffffffffffffffffffffffffffffffffffffffffffffffffc360112610331576102bc610767565b6102c4610dd9565b73ffffffffffffffffffffffffffffffffffffffff80911690817fffffffffffffffffffffffff000000000000000000000000000000000000000060015416176001558254167fb9911e2099e372c216862258dc462bb65da46a2c854536c8b1acae619d0d62ed8380a380f35b80fd5b5050346101165760207ffffffffffffffffffffffffffffffffffffffffffffffffffffffffffffffffc3601126101165760ff8160209373ffffffffffffffffffffffffffffffffffffffff610388610767565b1681526002855220541690519015158152f35b5050346101165760207ffffffffffffffffffffffffffffffffffffffffffffffffffffffffffffffffc3601126101165763ffffffff8160209373ffffffffffffffffffffffffffffffffffffffff6103f2610767565b168152600385522054169051908152f35b9190503461028057827ffffffffffffffffffffffffffffffffffffffffffffffffffffffffffffffffc360112610280576001549173ffffffffffffffffffffffffffffffffffffffff9182841633036104b45750507fffffffffffffffffffffffff0000000000000000000000000000000000000000809216600155825491339083161783553391167f3d1e4c3a68fed9f4f8315582b7297cf8fa264bc8e6704287603ba8c72bf05ac28380a380f35b517fee90c468000000000000000000000000000000000000000000000000000000008152fd5b839150346101165760a07ffffffffffffffffffffffffffffffffffffffffffffffffffffffffffffffffc36011261011657610514610767565b60243563ffffffff811681036101b75767ffffffffffffffff60443581811161027857610544903690860161078f565b9290916064359081116102745761055e903690870161086a565b9360843573ffffffffffffffffffffffffffffffffffffffff8116968782036105d957338952600260205260ff8a8a205416156105a95750610269979850956108f0573395506108f0565b6024908a51907f379671180000000000000000000000000000000000000000000000000000000082523390820152fd5b8880fd5b90503461028057817ffffffffffffffffffffffffffffffffffffffffffffffffffffffffffffffffc36011261028057610615610767565b906024359173ffffffffffffffffffffffffffffffffffffffff9081841680940361027857168452602090815282842091845290815291819020549051908152f35b50503461011657817ffffffffffffffffffffffffffffffffffffffffffffffffffffffffffffffffc3601126101165760209073ffffffffffffffffffffffffffffffffffffffff600154169051908152f35b50503461011657817ffffffffffffffffffffffffffffffffffffffffffffffffffffffffffffffffc360112610116576020905173ffffffffffffffffffffffffffffffffffffffff7f0000000000000000000000000000000000000000000000000000000000000000168152f35b84903461011657817ffffffffffffffffffffffffffffffffffffffffffffffffffffffffffffffffc3601126101165773ffffffffffffffffffffffffffffffffffffffff60209254168152f35b6004359073ffffffffffffffffffffffffffffffffffffffff8216820361078a57565b600080fd5b9181601f8401121561078a5782359167ffffffffffffffff831161078a576020808501948460061b01011161078a57565b90601f7fffffffffffffffffffffffffffffffffffffffffffffffffffffffffffffffe0910116810190811067ffffffffffffffff82111761080157604052565b7f4e487b7100000000000000000000000000000000000000000000000000000000600052604160045260246000fd5b67ffffffffffffffff811161080157601f017fffffffffffffffffffffffffffffffffffffffffffffffffffffffffffffffe01660200190565b81601f8201121561078a5780359061088182610830565b9261088f60405194856107c0565b8284526020838301011161078a57816000926020809301838601378301015290565b91908110156108c15760061b0190565b7f4e487b7100000000000000000000000000000000000000000000000000000000600052603260045260246000fd5b959493909173ffffffffffffffffffffffffffffffffffffffff8716600052600360205263ffffffff916001836040600020541601838111610d0d57831683851603610da6576040516020810190866080820173ffffffffffffffffffffffffffffffffffffffff8c16845286881660408401526060808401525260a081018460005b898110610d6657505091816109b66109f295936109ea95037fffffffffffffffffffffffffffffffffffffffffffffffffffffffffffffffe081018352826107c0565b5190207f19457468657265756d205369676e6564204d6573736167653a0a333200000000600052601c52603c600020610e24565b919091610e5c565b73ffffffffffffffffffffffffffffffffffffffff807f000000000000000000000000000000000000000000000000000000000000000016911603610d3c57926000936000915b808310610be55750505073ffffffffffffffffffffffffffffffffffffffff610b2a949596166000526003602052604060002091167fffffffffffffffffffffffffffffffffffffffffffffffffffffffff00000000825416179055610b5673ffffffffffffffffffffffffffffffffffffffff7f0000000000000000000000000000000000000000000000000000000000000000169160405193849160208301967f40c10f19000000000000000000000000000000000000000000000000000000008852602484016020909392919373ffffffffffffffffffffffffffffffffffffffff60408201951681520152565b037fffffffffffffffffffffffffffffffffffffffffffffffffffffffffffffffe081018452836107c0565b604051916040830183811067ffffffffffffffff82111761080157604052601e83527f416464726573733a206c6f772d6c6576656c2063616c6c206661696c65640000602084015251610bda93600091829182855af13d15610bdd573d91610bbd83610830565b92610bcb60405194856107c0565b83523d6000602085013e611091565b50565b606091611091565b909194610bf38683856108b1565b3573ffffffffffffffffffffffffffffffffffffffff8116810361078a576020610c1e8885876108b1565b013573ffffffffffffffffffffffffffffffffffffffff82166000526004602052604060002073ffffffffffffffffffffffffffffffffffffffff8c16600052602052604060002054810391818311610d0d576040805173ffffffffffffffffffffffffffffffffffffffff8c811682526020820186905292918a8a16918f851691848616917f033f45fbc8b071dc6a5b6030bf421774137cf6d38ace202ffa756442234bb8b59190a4166000526004602052604060002073ffffffffffffffffffffffffffffffffffffffff8c166000526020526040600020558101809111610d0d57946001019190610a39565b7f4e487b7100000000000000000000000000000000000000000000000000000000600052601160045260246000fd5b60046040517f8baa579f000000000000000000000000000000000000000000000000000000008152fd5b909182359073ffffffffffffffffffffffffffffffffffffffff821680920361078a57604081600193829352602086013560208201520193019101610973565b60248484604051917f1adf4e26000000000000000000000000000000000000000000000000000000008352166004820152fd5b73ffffffffffffffffffffffffffffffffffffffff600054163303610dfa57565b60046040517fee90c468000000000000000000000000000000000000000000000000000000008152fd5b906041815114600014610e5257610e4e916020820151906060604084015193015160001a90610ff5565b9091565b5050600090600290565b6005811015610fc65780610e6d5750565b60018103610ed35760646040517f08c379a000000000000000000000000000000000000000000000000000000000815260206004820152601860248201527f45434453413a20696e76616c6964207369676e617475726500000000000000006044820152fd5b60028103610f395760646040517f08c379a000000000000000000000000000000000000000000000000000000000815260206004820152601f60248201527f45434453413a20696e76616c6964207369676e6174757265206c656e677468006044820152fd5b600314610f4257565b60846040517f08c379a000000000000000000000000000000000000000000000000000000000815260206004820152602260248201527f45434453413a20696e76616c6964207369676e6174757265202773272076616c60448201527f75650000000000000000000000000000000000000000000000000000000000006064820152fd5b7f4e487b7100000000000000000000000000000000000000000000000000000000600052602160045260246000fd5b9291907f7fffffffffffffffffffffffffffffff5d576e7357a4501ddfe92f46681b20a083116110855791608094939160ff602094604051948552168484015260408301526060820152600093849182805260015afa1561107857815173ffffffffffffffffffffffffffffffffffffffff811615611072579190565b50600190565b50604051903d90823e3d90fd5b50505050600090600390565b9192901561110c57508151156110a5575090565b3b156110ae5790565b60646040517f08c379a000000000000000000000000000000000000000000000000000000000815260206004820152601d60248201527f416464726573733a2063616c6c20746f206e6f6e2d636f6e74726163740000006044820152fd5b82519091501561111f5750805190602001fd5b604051907f08c379a000000000000000000000000000000000000000000000000000000000825281602080600483015282519283602484015260005b84811061119c575050507fffffffffffffffffffffffffffffffffffffffffffffffffffffffffffffffe0601f836000604480968601015201168101030190fd5b81810183015186820160440152859350820161115b56fea264697066735822122073da938e62cfe8f7d85e2b6d018c73d32ae548e845476ef8da0ef6eaf12de70c64736f6c63430008180033",
  "linkReferences": {},
  "deployedLinkReferences": {}
}