{
  "_format": "hh-sol-artifact-1",
  "contractName": "PoolIndexer",
  "sourceName": "contracts/core/PoolIndexer.sol",
  "abi": [
    {
      "inputs": [
        {
          "internalType": "contract IPoolFactory",
          "name": "_poolFactory",
          "type": "address"
        }
      ],
      "stateMutability": "nonpayable",
      "type": "constructor"
    },
    {
      "inputs": [
        {
          "internalType": "contract IPool",
          "name": "pool",
          "type": "address"
        }
      ],
      "name": "InvalidPool",
      "type": "error"
    },
    {
      "inputs": [
        {
          "internalType": "contract IPool",
          "name": "pool",
          "type": "address"
        }
      ],
      "name": "PoolIndexAlreadyAssigned",
      "type": "error"
    },
    {
      "anonymous": false,
      "inputs": [
        {
          "indexed": true,
          "internalType": "contract IPool",
          "name": "pool",
          "type": "address"
        },
        {
          "indexed": true,
          "internalType": "contract IERC20",
          "name": "token",
          "type": "address"
        },
        {
          "indexed": true,
          "internalType": "uint24",
          "name": "index",
          "type": "uint24"
        }
      ],
      "name": "PoolIndexAssigned",
      "type": "event"
    },
    {
      "inputs": [
        {
          "internalType": "contract IPool",
          "name": "_pool",
          "type": "address"
        }
      ],
      "name": "assignPoolIndex",
      "outputs": [
        {
          "internalType": "uint24",
          "name": "index",
          "type": "uint24"
        }
      ],
      "stateMutability": "nonpayable",
      "type": "function"
    },
    {
      "inputs": [
        {
          "internalType": "uint24",
          "name": "",
          "type": "uint24"
        }
      ],
      "name": "indexPools",
      "outputs": [
        {
          "internalType": "contract IPool",
          "name": "",
          "type": "address"
        }
      ],
      "stateMutability": "view",
      "type": "function"
    },
    {
      "inputs": [
        {
          "internalType": "uint24",
          "name": "_index",
          "type": "uint24"
        }
      ],
      "name": "indexToken",
      "outputs": [
        {
          "internalType": "contract IERC20",
          "name": "token",
          "type": "address"
        }
      ],
      "stateMutability": "view",
      "type": "function"
    },
    {
      "inputs": [],
      "name": "poolFactory",
      "outputs": [
        {
          "internalType": "contract IPoolFactory",
          "name": "",
          "type": "address"
        }
      ],
      "stateMutability": "view",
      "type": "function"
    },
    {
      "inputs": [],
      "name": "poolIndex",
      "outputs": [
        {
          "internalType": "uint24",
          "name": "",
          "type": "uint24"
        }
      ],
      "stateMutability": "view",
      "type": "function"
    },
    {
      "inputs": [
        {
          "internalType": "contract IPool",
          "name": "",
          "type": "address"
        }
      ],
      "name": "poolIndexes",
      "outputs": [
        {
          "internalType": "uint24",
          "name": "",
          "type": "uint24"
        }
      ],
      "stateMutability": "view",
      "type": "function"
    },
    {
      "inputs": [
        {
          "internalType": "contract IERC20",
          "name": "_token",
          "type": "address"
        }
      ],
      "name": "tokenIndexes",
      "outputs": [
        {
          "internalType": "uint24",
          "name": "index",
          "type": "uint24"
        }
      ],
      "stateMutability": "view",
      "type": "function"
    }
  ],
  "bytecode": "0x60a03461007857601f61084238819003918201601f19168301916001600160401b0383118484101761007d5780849260209460405283398101031261007857516001600160a01b0381168103610078576080526040516107ae9081610094823960805181818161010c0152818161053301526106440152f35b600080fd5b634e487b7160e01b600052604160045260246000fdfe6080604081815260048036101561001557600080fd5b600092833560e01c90816304bc3b1c146105bf575080631f62c921146105575780634219dc40146104e85780634ce272ee146104a8578063661cd5fc1461044057806386337ef9146103605763f97d858b1461007057600080fd5b3461035c57602092837ffffffffffffffffffffffffffffffffffffffffffffffffffffffffffffffffc3601126103595781359073ffffffffffffffffffffffffffffffffffffffff91828116809103610355578082526001865262ffffff928386842054166103265785517f5b16ebb700000000000000000000000000000000000000000000000000000000815282868201528781602481857f0000000000000000000000000000000000000000000000000000000000000000165afa90811561031c5784916102e2575b50156102b357825493808516818114610287576001011693847fffffffffffffffffffffffffffffffffffffffffffffffffffffffffff00000080921617845582845260018852848785209182541617905583835260028752858320827fffffffffffffffffffffffff000000000000000000000000000000000000000082541617905586865180967ffc0c546a00000000000000000000000000000000000000000000000000000000825281855afa94851561027d57839561022a575b507fe191863272344ebab4cf2c04b61742af9e424617278dcef94d04ce2622570767908495965196169280a48152f35b8495509061026e7fe191863272344ebab4cf2c04b61742af9e424617278dcef94d04ce262257076792893d8b11610276575b61026681836106d7565b810190610747565b9550906101fa565b503d61025c565b86513d85823e3d90fd5b6024856011897f4e487b7100000000000000000000000000000000000000000000000000000000835252fd5b602485838851917f3d325c6c000000000000000000000000000000000000000000000000000000008352820152fd5b90508781813d8311610315575b6102f981836106d7565b8101031261031157518015158103610311573861013c565b8380fd5b503d6102ef565b87513d86823e3d90fd5b602485838851917f765018be000000000000000000000000000000000000000000000000000000008352820152fd5b5080fd5b80fd5b8280fd5b503461035c57602092837ffffffffffffffffffffffffffffffffffffffffffffffffffffffffffffffffc36011261035957813562ffffff81168091036103555781526002845273ffffffffffffffffffffffffffffffffffffffff918483858420541680156000146103d957505050915b5191168152f35b8551928380927ffc0c546a0000000000000000000000000000000000000000000000000000000082525afa9182156104355791610418575b50916103d2565b61042f9150843d86116102765761026681836106d7565b38610411565b8451903d90823e3d90fd5b503461035c5760207ffffffffffffffffffffffffffffffffffffffffffffffffffffffffffffffffc36011261035c573573ffffffffffffffffffffffffffffffffffffffff811680910361035c57818362ffffff9260209552600185522054169051908152f35b50503461035557817ffffffffffffffffffffffffffffffffffffffffffffffffffffffffffffffffc3601126103555762ffffff60209254169051908152f35b50503461035557817ffffffffffffffffffffffffffffffffffffffffffffffffffffffffffffffffc360112610355576020905173ffffffffffffffffffffffffffffffffffffffff7f0000000000000000000000000000000000000000000000000000000000000000168152f35b503461035c5760207ffffffffffffffffffffffffffffffffffffffffffffffffffffffffffffffffc36011261035c573562ffffff811680910361035c57818373ffffffffffffffffffffffffffffffffffffffff9260209552600285522054169051908152f35b919390503461035957602093847ffffffffffffffffffffffffffffffffffffffffffffffffffffffffffffffffc36011261035557803573ffffffffffffffffffffffffffffffffffffffff91828216809203610311577fa4063dbc0000000000000000000000000000000000000000000000000000000085528401528483602481847f0000000000000000000000000000000000000000000000000000000000000000165afa80156106cd5790829185939061068e575b62ffffff9450168152600185522054169051908152f35b509150918481813d83116106c6575b6106a781836106d7565b8101031261035c5751818116810361035c5791839162ffffff93610677565b503d61069d565b84513d84823e3d90fd5b90601f7fffffffffffffffffffffffffffffffffffffffffffffffffffffffffffffffe0910116810190811067ffffffffffffffff82111761071857604052565b7f4e487b7100000000000000000000000000000000000000000000000000000000600052604160045260246000fd5b90816020910312610773575173ffffffffffffffffffffffffffffffffffffffff811681036107735790565b600080fdfea264697066735822122015a8e2cb8d51701a6ab6b0a515097f03d7c37e3cd9ff472ff9574e950942b00364736f6c63430008180033",
  "linkReferences": {},
  "deployedLinkReferences": {}
}