{
  "_format": "hh-sol-artifact-1",
  "contractName": "PositionUtilTest",
  "sourceName": "contracts/test/PositionUtilTest.sol",
  "abi": [
    {
      "inputs": [
        {
          "internalType": "uint8",
          "name": "bits",
          "type": "uint8"
        },
        {
          "internalType": "uint256",
          "name": "value",
          "type": "uint256"
        }
      ],
      "name": "SafeCastOverflowedUintDowncast",
      "type": "error"
    },
    {
      "inputs": [
        {
          "internalType": "uint256",
          "name": "value",
          "type": "uint256"
        }
      ],
      "name": "SafeCastOverflowedUintToInt",
      "type": "error"
    },
    {
      "inputs": [
        {
          "internalType": "int192",
          "name": "_globalFundingRateGrowthX96",
          "type": "int192"
        },
        {
          "internalType": "int192",
          "name": "_positionFundingRateGrowthX96",
          "type": "int192"
        },
        {
          "internalType": "uint128",
          "name": "_positionSize",
          "type": "uint128"
        }
      ],
      "name": "calculateFundingFee",
      "outputs": [
        {
          "internalType": "int256",
          "name": "fundingFee",
          "type": "int256"
        }
      ],
      "stateMutability": "pure",
      "type": "function"
    },
    {
      "inputs": [
        {
          "internalType": "uint128",
          "name": "_size",
          "type": "uint128"
        },
        {
          "internalType": "uint160",
          "name": "_entryPriceX96",
          "type": "uint160"
        },
        {
          "internalType": "uint32",
          "name": "_liquidationFeeRate",
          "type": "uint32"
        }
      ],
      "name": "calculateLiquidationFee",
      "outputs": [
        {
          "internalType": "uint128",
          "name": "liquidationFee",
          "type": "uint128"
        }
      ],
      "stateMutability": "pure",
      "type": "function"
    },
    {
      "inputs": [
        {
          "components": [
            {
              "internalType": "uint128",
              "name": "margin",
              "type": "uint128"
            },
            {
              "internalType": "uint128",
              "name": "size",
              "type": "uint128"
            },
            {
              "internalType": "uint160",
              "name": "entryPriceX96",
              "type": "uint160"
            },
            {
              "internalType": "int192",
              "name": "entryFundingRateGrowthX96",
              "type": "int192"
            }
          ],
          "internalType": "struct IPoolPosition.Position",
          "name": "_positionCache",
          "type": "tuple"
        },
        {
          "internalType": "Side",
          "name": "_side",
          "type": "uint8"
        },
        {
          "internalType": "int256",
          "name": "_fundingFee",
          "type": "int256"
        },
        {
          "internalType": "uint32",
          "name": "_liquidationFeeRate",
          "type": "uint32"
        },
        {
          "internalType": "uint32",
          "name": "_tradingFeeRate",
          "type": "uint32"
        },
        {
          "internalType": "uint64",
          "name": "_liquidationExecutionFee",
          "type": "uint64"
        }
      ],
      "name": "calculateLiquidationPriceX96",
      "outputs": [
        {
          "internalType": "uint160",
          "name": "liquidationPriceX96",
          "type": "uint160"
        },
        {
          "internalType": "int256",
          "name": "adjustedFundingFee",
          "type": "int256"
        }
      ],
      "stateMutability": "view",
      "type": "function"
    },
    {
      "inputs": [
        {
          "internalType": "uint128",
          "name": "_size",
          "type": "uint128"
        },
        {
          "internalType": "uint128",
          "name": "_priceX96",
          "type": "uint128"
        }
      ],
      "name": "calculateLiquidity",
      "outputs": [
        {
          "internalType": "uint128",
          "name": "",
          "type": "uint128"
        }
      ],
      "stateMutability": "pure",
      "type": "function"
    },
    {
      "inputs": [
        {
          "internalType": "uint128",
          "name": "_size",
          "type": "uint128"
        },
        {
          "internalType": "uint160",
          "name": "_entryPriceX96",
          "type": "uint160"
        },
        {
          "internalType": "uint160",
          "name": "_indexPriceX96",
          "type": "uint160"
        },
        {
          "internalType": "uint32",
          "name": "_liquidationFeeRate",
          "type": "uint32"
        },
        {
          "internalType": "uint32",
          "name": "_tradingFeeRate",
          "type": "uint32"
        },
        {
          "internalType": "uint64",
          "name": "_liquidationExecutionFee",
          "type": "uint64"
        }
      ],
      "name": "calculateMaintenanceMargin",
      "outputs": [
        {
          "internalType": "uint256",
          "name": "maintenanceMargin",
          "type": "uint256"
        }
      ],
      "stateMutability": "pure",
      "type": "function"
    },
    {
      "inputs": [
        {
          "internalType": "Side",
          "name": "_side",
          "type": "uint8"
        },
        {
          "internalType": "uint128",
          "name": "_sizeBefore",
          "type": "uint128"
        },
        {
          "internalType": "uint160",
          "name": "_entryPriceBeforeX96",
          "type": "uint160"
        },
        {
          "internalType": "uint128",
          "name": "_sizeDelta",
          "type": "uint128"
        },
        {
          "internalType": "uint160",
          "name": "_tradePriceX96",
          "type": "uint160"
        }
      ],
      "name": "calculateNextEntryPriceX96",
      "outputs": [
        {
          "internalType": "uint160",
          "name": "nextEntryPriceX96",
          "type": "uint160"
        }
      ],
      "stateMutability": "pure",
      "type": "function"
    },
    {
      "inputs": [
        {
          "internalType": "uint128",
          "name": "_size",
          "type": "uint128"
        },
        {
          "internalType": "uint160",
          "name": "_tradePriceX96",
          "type": "uint160"
        },
        {
          "internalType": "uint32",
          "name": "_tradingFeeRate",
          "type": "uint32"
        }
      ],
      "name": "calculateTradingFee",
      "outputs": [
        {
          "internalType": "uint128",
          "name": "tradingFee",
          "type": "uint128"
        }
      ],
      "stateMutability": "pure",
      "type": "function"
    },
    {
      "inputs": [
        {
          "internalType": "Side",
          "name": "_side",
          "type": "uint8"
        },
        {
          "internalType": "uint128",
          "name": "_size",
          "type": "uint128"
        },
        {
          "internalType": "uint160",
          "name": "_entryPriceX96",
          "type": "uint160"
        },
        {
          "internalType": "uint160",
          "name": "_priceX96",
          "type": "uint160"
        }
      ],
      "name": "calculateUnrealizedPnL",
      "outputs": [
        {
          "internalType": "int256",
          "name": "unrealizedPnL",
          "type": "int256"
        }
      ],
      "stateMutability": "pure",
      "type": "function"
    },
    {
      "inputs": [
        {
          "internalType": "Side",
          "name": "_side",
          "type": "uint8"
        }
      ],
      "name": "chooseFundingRateGrowthX96",
      "outputs": [
        {
          "internalType": "int192",
          "name": "",
          "type": "int192"
        }
      ],
      "stateMutability": "view",
      "type": "function"
    },
    {
      "inputs": [
        {
          "components": [
            {
              "internalType": "uint128",
              "name": "margin",
              "type": "uint128"
            },
            {
              "internalType": "uint128",
              "name": "size",
              "type": "uint128"
            },
            {
              "internalType": "uint160",
              "name": "entryPriceX96",
              "type": "uint160"
            },
            {
              "internalType": "int192",
              "name": "entryFundingRateGrowthX96",
              "type": "int192"
            }
          ],
          "internalType": "struct IPoolPosition.Position",
          "name": "_positionCache",
          "type": "tuple"
        },
        {
          "internalType": "Side",
          "name": "_side",
          "type": "uint8"
        },
        {
          "internalType": "int256",
          "name": "_fundingFee",
          "type": "int256"
        },
        {
          "internalType": "uint32",
          "name": "_liquidationFeeRate",
          "type": "uint32"
        },
        {
          "internalType": "uint32",
          "name": "_tradingFeeRate",
          "type": "uint32"
        },
        {
          "internalType": "uint64",
          "name": "_liquidationExecutionFee",
          "type": "uint64"
        }
      ],
      "name": "getGasCostCalculateLiquidationPriceX96",
      "outputs": [
        {
          "internalType": "uint256",
          "name": "gasCost",
          "type": "uint256"
        }
      ],
      "stateMutability": "view",
      "type": "function"
    },
    {
      "inputs": [
        {
          "internalType": "uint128",
          "name": "_liquidity",
          "type": "uint128"
        },
        {
          "internalType": "uint128",
          "name": "_size",
          "type": "uint128"
        },
        {
          "internalType": "uint160",
          "name": "_indexPriceX96",
          "type": "uint160"
        },
        {
          "internalType": "uint32",
          "name": "_liquidationFeeRate",
          "type": "uint32"
        },
        {
          "internalType": "uint32",
          "name": "_tradingFeeRate",
          "type": "uint32"
        },
        {
          "internalType": "uint64",
          "name": "_liquidationExecutionFee",
          "type": "uint64"
        }
      ],
      "name": "getGasCostCalculateMaintenanceMargin",
      "outputs": [
        {
          "internalType": "uint256",
          "name": "gasCost",
          "type": "uint256"
        }
      ],
      "stateMutability": "view",
      "type": "function"
    },
    {
      "inputs": [
        {
          "internalType": "Side",
          "name": "_side",
          "type": "uint8"
        },
        {
          "internalType": "uint128",
          "name": "_size",
          "type": "uint128"
        },
        {
          "internalType": "uint160",
          "name": "_entryPriceX96",
          "type": "uint160"
        },
        {
          "internalType": "uint160",
          "name": "_priceX96",
          "type": "uint160"
        }
      ],
      "name": "getGasCostCalculateUnrealizedPnL",
      "outputs": [
        {
          "internalType": "uint256",
          "name": "gasCost",
          "type": "uint256"
        }
      ],
      "stateMutability": "view",
      "type": "function"
    },
    {
      "inputs": [],
      "name": "globalLiquidityPosition",
      "outputs": [
        {
          "internalType": "uint128",
          "name": "netSize",
          "type": "uint128"
        },
        {
          "internalType": "uint128",
          "name": "liquidationBufferNetSize",
          "type": "uint128"
        },
        {
          "internalType": "uint160",
          "name": "entryPriceX96",
          "type": "uint160"
        },
        {
          "internalType": "Side",
          "name": "side",
          "type": "uint8"
        },
        {
          "internalType": "uint128",
          "name": "liquidity",
          "type": "uint128"
        },
        {
          "internalType": "uint256",
          "name": "realizedProfitGrowthX64",
          "type": "uint256"
        }
      ],
      "stateMutability": "view",
      "type": "function"
    },
    {
      "inputs": [],
      "name": "globalPosition",
      "outputs": [
        {
          "internalType": "uint128",
          "name": "longSize",
          "type": "uint128"
        },
        {
          "internalType": "uint128",
          "name": "shortSize",
          "type": "uint128"
        },
        {
          "internalType": "int192",
          "name": "longFundingRateGrowthX96",
          "type": "int192"
        },
        {
          "internalType": "int192",
          "name": "shortFundingRateGrowthX96",
          "type": "int192"
        }
      ],
      "stateMutability": "view",
      "type": "function"
    },
    {
      "inputs": [],
      "name": "previousGlobalFundingRate",
      "outputs": [
        {
          "internalType": "int192",
          "name": "longFundingRateGrowthX96",
          "type": "int192"
        },
        {
          "internalType": "int192",
          "name": "shortFundingRateGrowthX96",
          "type": "int192"
        }
      ],
      "stateMutability": "view",
      "type": "function"
    },
    {
      "inputs": [
        {
          "internalType": "uint128",
          "name": "_liquidity",
          "type": "uint128"
        },
        {
          "internalType": "uint128",
          "name": "_netSize",
          "type": "uint128"
        },
        {
          "internalType": "uint128",
          "name": "_entryPriceX96",
          "type": "uint128"
        },
        {
          "internalType": "Side",
          "name": "_side",
          "type": "uint8"
        },
        {
          "internalType": "uint256",
          "name": "_realizedProfitGrowthX64",
          "type": "uint256"
        }
      ],
      "name": "setGlobalLiquidityPosition",
      "outputs": [],
      "stateMutability": "nonpayable",
      "type": "function"
    },
    {
      "inputs": [
        {
          "internalType": "uint128",
          "name": "_longSize",
          "type": "uint128"
        },
        {
          "internalType": "uint128",
          "name": "_shortSize",
          "type": "uint128"
        },
        {
          "internalType": "int192",
          "name": "_longFundingRateGrowthX96",
          "type": "int192"
        },
        {
          "internalType": "int192",
          "name": "_shortFundingRateGrowthX96",
          "type": "int192"
        }
      ],
      "name": "setGlobalPosition",
      "outputs": [],
      "stateMutability": "nonpayable",
      "type": "function"
    },
    {
      "inputs": [
        {
          "internalType": "int192",
          "name": "_longFundingRateGrowthX96",
          "type": "int192"
        },
        {
          "internalType": "int192",
          "name": "_shortFundingRateGrowthX96",
          "type": "int192"
        }
      ],
      "name": "setPreviousGlobalFundingRate",
      "outputs": [],
      "stateMutability": "nonpayable",
      "type": "function"
    }
  ],
  "bytecode": "0x60808060405234610016576114e5908161001c8239f35b600080fdfe60406080815260048036101561001457600080fd5b600091823560e01c80630b24958214610aa35780631a06d791146109b45780631c9e1efd1461096c5780631d5e71d3146108325780634040af99146106d05780634ad933eb146106ac57806377579c671461057a5780637d6717ff1461050d57806386abc9b91461047e5780639e24261e14610418578063a00bc3c1146101a2578063a2f6da131461031e578063a85fc2a914610288578063ae588a0914610216578063b187148e146101a7578063c91403ae146101a2578063d39e86561461017c5763e56de888146100e657600080fd5b34610178577ffffffffffffffffffffffffffffffffffffffffffffffffffffffffffffffffc3601126101745761011b610d16565b610123610d26565b7fffffffffffffffff000000000000000000000000000000000000000000000000806003541677ffffffffffffffffffffffffffffffffffffffffffffffff93841617600355835416911617905580f35b5080fd5b8280fd5b8382346101745760209061019b61019236610edf565b929190916110b8565b9051908152f35b610f66565b8382346101745760c07ffffffffffffffffffffffffffffffffffffffffffffffffffffffffffffffffc3601126101745760209061019b6101e6610c92565b6101ee610cf3565b6101f6610cd0565b6101fe610da6565b90610207610db9565b92610210610dcc565b946111a0565b83823461017457807ffffffffffffffffffffffffffffffffffffffffffffffffffffffffffffffffc36011261017457602090610251610c92565b61028061027b6fffffffffffffffffffffffffffffffff928380610273610c73565b169116611461565b6112a0565b915191168152f35b83823461017457817ffffffffffffffffffffffffffffffffffffffffffffffffffffffffffffffffc3601126101745760c0906005546fffffffffffffffffffffffffffffffff9160ff600654846007541692600854948151968116875260801c602087015273ffffffffffffffffffffffffffffffffffffffff82169086015260a01c166060840152608083015260a0820152f35b83346104155760a07ffffffffffffffffffffffffffffffffffffffffffffffffffffffffffffffffc36011261041557610356610c92565b61035e610c73565b610366610cb1565b916064359160ff83168303610411577fffffffffffffffffffffff000000000000000000000000000000000000000000916fffffffffffffffffffffffffffffffff8092817fffffffffffffffffffffffffffffffff0000000000000000000000000000000093168360075416176007551690600554161760055574ff00000000000000000000000000000000000000006006549360a01b1693169116171760065560843560085580f35b8480fd5b80fd5b8382346101745760207ffffffffffffffffffffffffffffffffffffffffffffffffffffffffffffffffc36011261017457602091600160ff610458610c5e565b16141590506104725760015460170b905b519060170b8152f35b60025460170b90610469565b8382346101745760c07ffffffffffffffffffffffffffffffffffffffffffffffffffffffffffffffffc3601126101745760209061019b6104bd610c92565b6105056104c8610c73565b916104d1610cd0565b6104d9610da6565b6104e1610db9565b916104ea610dcc565b936fffffffffffffffffffffffffffffffff5a9716906111a0565b505a90611030565b83823461017457817ffffffffffffffffffffffffffffffffffffffffffffffffffffffffffffffffc3601126101745760809154906001549060025460170b918151936fffffffffffffffffffffffffffffffff81168552851c602085015260170b908301526060820152f35b5082346104155760607ffffffffffffffffffffffffffffffffffffffffffffffffffffffffffffffffc360112610415576105b3610d16565b6105bb610d26565b906105c4610cb1565b9160170b9060170b03777fffffffffffffffffffffffffffffffffffffffffffffff81137fffffffffffffffff800000000000000000000000000000000000000000000000821217610680576020945060170b9182126106495761019b916fffffffffffffffffffffffffffffffff61063e9216906112f5565b611245565b51908152f35b61063e610675916fffffffffffffffffffffffffffffffff61066d61067a95611173565b911690611461565b611173565b90610643565b6024836011877f4e487b7100000000000000000000000000000000000000000000000000000000835252fd5b8382346101745760209061019b6105056106c536610edf565b919392935a946110b8565b5091903461017457826107af6106e536610de3565b928798959694989291925198899788977f9d31789300000000000000000000000000000000000000000000000000000000895288019467ffffffffffffffff9360ff610120969399989460606101408a019b6fffffffffffffffffffffffffffffffff808251168c5260208201511660208c015273ffffffffffffffffffffffffffffffffffffffff60408201511660408c0152015160170b60608a0152600360808a01521660a088015260c087015263ffffffff80921660e08701521661010085015216910152565b038173__$29ff11a0abbb7351a00da9a0441525d706$__5af49081156108285782916107f9575b5073ffffffffffffffffffffffffffffffffffffffff8351921682526020820152f35b905061081b9150823d8411610821575b6108138183610d36565b810190610ffc565b386107d6565b503d610809565b83513d84823e3d90fd5b50823461041557610910908261084736610de3565b9199939792995a9a8751998a9788977f9d31789300000000000000000000000000000000000000000000000000000000895288019467ffffffffffffffff9360ff610120969399989460606101408a019b6fffffffffffffffffffffffffffffffff808251168c5260208201511660208c015273ffffffffffffffffffffffffffffffffffffffff60408201511660408c0152015160170b60608a0152600360808a01521660a088015260c087015263ffffffff80921660e08701521661010085015216910152565b038173__$29ff11a0abbb7351a00da9a0441525d706$__5af490811561096157509261019b9160209461094557505a90611030565b61095b90843d8611610821576108138183610d36565b50610505565b8351903d90823e3d90fd5b50913461041557807ffffffffffffffffffffffffffffffffffffffffffffffffffffffffffffffffc3601126104155750600354905460170b82519160170b82526020820152f35b83346104155760807ffffffffffffffffffffffffffffffffffffffffffffffffffffffffffffffffc360112610415576109ec610c92565b6109f4610c73565b604435918260170b8303610a9f57606435918260170b8303610411577fffffffffffffffffffffffffffffffff000000000000000000000000000000006fffffffffffffffffffffffffffffffff9160801b1691161783557fffffffffffffffff000000000000000000000000000000000000000000000000806001541677ffffffffffffffffffffffffffffffffffffffffffffffff938416176001556002541691161760025580f35b8380fd5b5090346101785760a07ffffffffffffffffffffffffffffffffffffffffffffffffffffffffffffffffc36011261017857610adc610c5e565b92610ae5610c73565b91610aee610cd0565b606435916fffffffffffffffffffffffffffffffff9283811697888203610c5a576084359473ffffffffffffffffffffffffffffffffffffffff9788871693848803610c565781178216610b50575050505050505060209350915b5191168152f35b96929394959616988915600014610b71575050505050506020935091610b49565b80929496509890929496979815600014610b945750505050505090602092610b49565b909192939495610ba988610bb092168361106c565b958361106c565b8501809511610c2a5701915060ff16600103610c1b57610bcf916111f7565b905b828211610be657509080602093921691610b49565b60449160a08551927f6dfcc6500000000000000000000000000000000000000000000000000000000084528301526024820152fd5b610c249161107f565b90610bd1565b6024846011887f4e487b7100000000000000000000000000000000000000000000000000000000835252fd5b8880fd5b8580fd5b6004359060ff82168203610c6e57565b600080fd5b602435906fffffffffffffffffffffffffffffffff82168203610c6e57565b600435906fffffffffffffffffffffffffffffffff82168203610c6e57565b604435906fffffffffffffffffffffffffffffffff82168203610c6e57565b6044359073ffffffffffffffffffffffffffffffffffffffff82168203610c6e57565b6024359073ffffffffffffffffffffffffffffffffffffffff82168203610c6e57565b600435908160170b8203610c6e57565b602435908160170b8203610c6e57565b90601f7fffffffffffffffffffffffffffffffffffffffffffffffffffffffffffffffe0910116810190811067ffffffffffffffff821117610d7757604052565b7f4e487b7100000000000000000000000000000000000000000000000000000000600052604160045260246000fd5b6064359063ffffffff82168203610c6e57565b6084359063ffffffff82168203610c6e57565b60a4359067ffffffffffffffff82168203610c6e57565b7ffffffffffffffffffffffffffffffffffffffffffffffffffffffffffffffffc016101208112610c6e57608013610c6e5760405167ffffffffffffffff91906080810183811182821017610d77576040526fffffffffffffffffffffffffffffffff6004358181168103610c6e5782526024359081168103610c6e57602082015260443573ffffffffffffffffffffffffffffffffffffffff81168103610c6e5760408201526064358060170b8103610c6e5760608201529160843560ff81168103610c6e579160a4359163ffffffff9160c4358381168103610c6e579260e4359081168103610c6e5791610104359081168103610c6e5790565b7ffffffffffffffffffffffffffffffffffffffffffffffffffffffffffffffffc6080910112610c6e5760043560ff81168103610c6e57906024356fffffffffffffffffffffffffffffffff81168103610c6e579073ffffffffffffffffffffffffffffffffffffffff906044358281168103610c6e57916064359081168103610c6e5790565b34610c6e5760607ffffffffffffffffffffffffffffffffffffffffffffffffffffffffffffffffc360112610c6e57610f9d610c92565b610fa5610cf3565b9060443563ffffffff8116809103610c6e576020926fffffffffffffffffffffffffffffffff92610ff39261027b9273ffffffffffffffffffffffffffffffffffffffff1691851602611492565b60405191168152f35b9190826040910312610c6e57815173ffffffffffffffffffffffffffffffffffffffff81168103610c6e5760209092015190565b9190820391821161103d57565b7f4e487b7100000000000000000000000000000000000000000000000000000000600052601160045260246000fd5b8181029291811591840414171561103d57565b8115611089570490565b7f4e487b7100000000000000000000000000000000000000000000000000000000600052601260045260246000fd5b9192909160ff166001036111305773ffffffffffffffffffffffffffffffffffffffff92818416818516111561110e57926fffffffffffffffffffffffffffffffff916111089403169116611461565b60000390565b61112d93910316906fffffffffffffffffffffffffffffffff166112f5565b90565b73ffffffffffffffffffffffffffffffffffffffff9290838116848316101561110e57926fffffffffffffffffffffffffffffffff916111089403169116611461565b7f8000000000000000000000000000000000000000000000000000000000000000811461103d5760000390565b91926fffffffffffffffffffffffffffffffff916111f19467ffffffffffffffff9673ffffffffffffffffffffffffffffffffffffffff918263ffffffff8093169116029316911602019116611492565b91160190565b811561123b5780611209575050600090565b6001917fffffffffffffffffffffffffffffffffffffffffffffffffffffffffffffffff611237920161107f565b0190565b9061112d9161107f565b7f7fffffffffffffffffffffffffffffffffffffffffffffffffffffffffffffff811161126f5790565b602490604051907f24775e060000000000000000000000000000000000000000000000000000000082526004820152fd5b6fffffffffffffffffffffffffffffffff908181116112bd571690565b604490604051907f6dfcc650000000000000000000000000000000000000000000000000000000008252608060048301526024820152fd5b7fffffffffffffffffffffffffffffffffffffffffffffffffffffffffffffffff82820990828102928380841093039280840393146113b6576c010000000000000000000000009183831115611358570990828211900360a01b910360601c1790565b60646040517f08c379a000000000000000000000000000000000000000000000000000000000815260206004820152601560248201527f4d6174683a206d756c446976206f766572666c6f7700000000000000000000006044820152fd5b50505060601c90565b907fffffffffffffffffffffffffffffffffffffffffffffffffffffffffffffffff81830981830291828083109203918083039214611448576f05f5e1000000000000000000000000009082821115611358577facbe0e98f503f8881186e60dbb7f727bf36b7213ee9f5a78c767074b22e90e21940990828211900360981b910360681c170290565b50506f05f5e10000000000000000000000000091500490565b906c010000000000000000000000009061147b81846112f5565b92096114845790565b6001810180911161103d5790565b906f05f5e1000000000000000000000000009061147b81846113bf56fea2646970667358221220aca1e12d70a06b94ea755bb3411000c502fec48a04cb34bc30212e6277f399a164736f6c63430008180033",
  "linkReferences": {
    "contracts/libraries/PositionUtil.sol": {
      "PositionUtil": [
        {
          "length": 20,
          "start": 1999
        },
        {
          "length": 20,
          "start": 2352
        }
      ]
    }
  },
  "deployedLinkReferences": {
    "contracts/libraries/PositionUtil.sol": {
      "PositionUtil": [
        {
          "length": 20,
          "start": 1971
        },
        {
          "length": 20,
          "start": 2324
        }
      ]
    }
  }
}