{
  "_format": "hh-sol-artifact-1",
  "contractName": "EQU",
  "sourceName": "contracts/tokens/EQU.sol",
  "abi": [
    {
      "inputs": [],
      "stateMutability": "nonpayable",
      "type": "constructor"
    },
    {
      "inputs": [],
      "name": "Forbidden",
      "type": "error"
    },
    {
      "inputs": [],
      "name": "InvalidShortString",
      "type": "error"
    },
    {
      "inputs": [],
      "name": "NotMinter",
      "type": "error"
    },
    {
      "inputs": [
        {
          "internalType": "string",
          "name": "str",
          "type": "string"
        }
      ],
      "name": "StringTooLong",
      "type": "error"
    },
    {
      "anonymous": false,
      "inputs": [
        {
          "indexed": true,
          "internalType": "address",
          "name": "owner",
          "type": "address"
        },
        {
          "indexed": true,
          "internalType": "address",
          "name": "spender",
          "type": "address"
        },
        {
          "indexed": false,
          "internalType": "uint256",
          "name": "value",
          "type": "uint256"
        }
      ],
      "name": "Approval",
      "type": "event"
    },
    {
      "anonymous": false,
      "inputs": [
        {
          "indexed": true,
          "internalType": "address",
          "name": "previousGov",
          "type": "address"
        },
        {
          "indexed": true,
          "internalType": "address",
          "name": "newGov",
          "type": "address"
        }
      ],
      "name": "ChangeGovStarted",
      "type": "event"
    },
    {
      "anonymous": false,
      "inputs": [],
      "name": "EIP712DomainChanged",
      "type": "event"
    },
    {
      "anonymous": false,
      "inputs": [
        {
          "indexed": true,
          "internalType": "address",
          "name": "previousGov",
          "type": "address"
        },
        {
          "indexed": true,
          "internalType": "address",
          "name": "newGov",
          "type": "address"
        }
      ],
      "name": "GovChanged",
      "type": "event"
    },
    {
      "anonymous": false,
      "inputs": [
        {
          "indexed": true,
          "internalType": "address",
          "name": "from",
          "type": "address"
        },
        {
          "indexed": true,
          "internalType": "address",
          "name": "to",
          "type": "address"
        },
        {
          "indexed": false,
          "internalType": "uint256",
          "name": "value",
          "type": "uint256"
        }
      ],
      "name": "Transfer",
      "type": "event"
    },
    {
      "inputs": [],
      "name": "DOMAIN_SEPARATOR",
      "outputs": [
        {
          "internalType": "bytes32",
          "name": "",
          "type": "bytes32"
        }
      ],
      "stateMutability": "view",
      "type": "function"
    },
    {
      "inputs": [],
      "name": "acceptGov",
      "outputs": [],
      "stateMutability": "nonpayable",
      "type": "function"
    },
    {
      "inputs": [
        {
          "internalType": "address",
          "name": "owner",
          "type": "address"
        },
        {
          "internalType": "address",
          "name": "spender",
          "type": "address"
        }
      ],
      "name": "allowance",
      "outputs": [
        {
          "internalType": "uint256",
          "name": "",
          "type": "uint256"
        }
      ],
      "stateMutability": "view",
      "type": "function"
    },
    {
      "inputs": [
        {
          "internalType": "address",
          "name": "spender",
          "type": "address"
        },
        {
          "internalType": "uint256",
          "name": "amount",
          "type": "uint256"
        }
      ],
      "name": "approve",
      "outputs": [
        {
          "internalType": "bool",
          "name": "",
          "type": "bool"
        }
      ],
      "stateMutability": "nonpayable",
      "type": "function"
    },
    {
      "inputs": [
        {
          "internalType": "address",
          "name": "account",
          "type": "address"
        }
      ],
      "name": "balanceOf",
      "outputs": [
        {
          "internalType": "uint256",
          "name": "",
          "type": "uint256"
        }
      ],
      "stateMutability": "view",
      "type": "function"
    },
    {
      "inputs": [],
      "name": "cap",
      "outputs": [
        {
          "internalType": "uint256",
          "name": "",
          "type": "uint256"
        }
      ],
      "stateMutability": "view",
      "type": "function"
    },
    {
      "inputs": [
        {
          "internalType": "address",
          "name": "_newGov",
          "type": "address"
        }
      ],
      "name": "changeGov",
      "outputs": [],
      "stateMutability": "nonpayable",
      "type": "function"
    },
    {
      "inputs": [],
      "name": "decimals",
      "outputs": [
        {
          "internalType": "uint8",
          "name": "",
          "type": "uint8"
        }
      ],
      "stateMutability": "view",
      "type": "function"
    },
    {
      "inputs": [
        {
          "internalType": "address",
          "name": "spender",
          "type": "address"
        },
        {
          "internalType": "uint256",
          "name": "subtractedValue",
          "type": "uint256"
        }
      ],
      "name": "decreaseAllowance",
      "outputs": [
        {
          "internalType": "bool",
          "name": "",
          "type": "bool"
        }
      ],
      "stateMutability": "nonpayable",
      "type": "function"
    },
    {
      "inputs": [],
      "name": "eip712Domain",
      "outputs": [
        {
          "internalType": "bytes1",
          "name": "fields",
          "type": "bytes1"
        },
        {
          "internalType": "string",
          "name": "name",
          "type": "string"
        },
        {
          "internalType": "string",
          "name": "version",
          "type": "string"
        },
        {
          "internalType": "uint256",
          "name": "chainId",
          "type": "uint256"
        },
        {
          "internalType": "address",
          "name": "verifyingContract",
          "type": "address"
        },
        {
          "internalType": "bytes32",
          "name": "salt",
          "type": "bytes32"
        },
        {
          "internalType": "uint256[]",
          "name": "extensions",
          "type": "uint256[]"
        }
      ],
      "stateMutability": "view",
      "type": "function"
    },
    {
      "inputs": [],
      "name": "gov",
      "outputs": [
        {
          "internalType": "address",
          "name": "",
          "type": "address"
        }
      ],
      "stateMutability": "view",
      "type": "function"
    },
    {
      "inputs": [
        {
          "internalType": "address",
          "name": "spender",
          "type": "address"
        },
        {
          "internalType": "uint256",
          "name": "addedValue",
          "type": "uint256"
        }
      ],
      "name": "increaseAllowance",
      "outputs": [
        {
          "internalType": "bool",
          "name": "",
          "type": "bool"
        }
      ],
      "stateMutability": "nonpayable",
      "type": "function"
    },
    {
      "inputs": [
        {
          "internalType": "address",
          "name": "account",
          "type": "address"
        },
        {
          "internalType": "uint256",
          "name": "amount",
          "type": "uint256"
        }
      ],
      "name": "mint",
      "outputs": [],
      "stateMutability": "nonpayable",
      "type": "function"
    },
    {
      "inputs": [
        {
          "internalType": "address",
          "name": "",
          "type": "address"
        }
      ],
      "name": "minters",
      "outputs": [
        {
          "internalType": "bool",
          "name": "",
          "type": "bool"
        }
      ],
      "stateMutability": "view",
      "type": "function"
    },
    {
      "inputs": [],
      "name": "name",
      "outputs": [
        {
          "internalType": "string",
          "name": "",
          "type": "string"
        }
      ],
      "stateMutability": "view",
      "type": "function"
    },
    {
      "inputs": [
        {
          "internalType": "address",
          "name": "owner",
          "type": "address"
        }
      ],
      "name": "nonces",
      "outputs": [
        {
          "internalType": "uint256",
          "name": "",
          "type": "uint256"
        }
      ],
      "stateMutability": "view",
      "type": "function"
    },
    {
      "inputs": [],
      "name": "pendingGov",
      "outputs": [
        {
          "internalType": "address",
          "name": "",
          "type": "address"
        }
      ],
      "stateMutability": "view",
      "type": "function"
    },
    {
      "inputs": [
        {
          "internalType": "address",
          "name": "owner",
          "type": "address"
        },
        {
          "internalType": "address",
          "name": "spender",
          "type": "address"
        },
        {
          "internalType": "uint256",
          "name": "value",
          "type": "uint256"
        },
        {
          "internalType": "uint256",
          "name": "deadline",
          "type": "uint256"
        },
        {
          "internalType": "uint8",
          "name": "v",
          "type": "uint8"
        },
        {
          "internalType": "bytes32",
          "name": "r",
          "type": "bytes32"
        },
        {
          "internalType": "bytes32",
          "name": "s",
          "type": "bytes32"
        }
      ],
      "name": "permit",
      "outputs": [],
      "stateMutability": "nonpayable",
      "type": "function"
    },
    {
      "inputs": [
        {
          "internalType": "address",
          "name": "_minter",
          "type": "address"
        },
        {
          "internalType": "bool",
          "name": "_enabled",
          "type": "bool"
        }
      ],
      "name": "setMinter",
      "outputs": [],
      "stateMutability": "nonpayable",
      "type": "function"
    },
    {
      "inputs": [],
      "name": "symbol",
      "outputs": [
        {
          "internalType": "string",
          "name": "",
          "type": "string"
        }
      ],
      "stateMutability": "view",
      "type": "function"
    },
    {
      "inputs": [],
      "name": "totalSupply",
      "outputs": [
        {
          "internalType": "uint256",
          "name": "",
          "type": "uint256"
        }
      ],
      "stateMutability": "view",
      "type": "function"
    },
    {
      "inputs": [
        {
          "internalType": "address",
          "name": "to",
          "type": "address"
        },
        {
          "internalType": "uint256",
          "name": "amount",
          "type": "uint256"
        }
      ],
      "name": "transfer",
      "outputs": [
        {
          "internalType": "bool",
          "name": "",
          "type": "bool"
        }
      ],
      "stateMutability": "nonpayable",
      "type": "function"
    },
    {
      "inputs": [
        {
          "internalType": "address",
          "name": "from",
          "type": "address"
        },
        {
          "internalType": "address",
          "name": "to",
          "type": "address"
        },
        {
          "internalType": "uint256",
          "name": "amount",
          "type": "uint256"
        }
      ],
      "name": "transferFrom",
      "outputs": [
        {
          "internalType": "bool",
          "name": "",
          "type": "bool"
        }
      ],
      "stateMutability": "nonpayable",
      "type": "function"
    }
  ],
  "bytecode": "0x61018060409080825234620004985762000019816200049d565b6011815260209081810170115c5d585d1a5bdb88141c9bdd1bd8dbdb607a1b8152835162000047816200049d565b600881526722b8bab0ba34b7b760c11b8482015284519062000069826200049d565b6003948583526245515560e81b8184015286519662000088886200049d565b6001808952603160f81b838a0190815284516001600160401b0399919591908a811162000398578154928484811c941680156200048d575b8785101462000477578190601f9485811162000421575b508790858311600114620003ba57600092620003ae575b505060001982841b1c191690841b1781555b8651918a8311620003985760049788548581811c911680156200038d575b8882101462000378578281116200032d575b5086918411600114620002c257938394918492600095620002b6575b50501b92600019911b1c19161784555b6a084595161401484a0000006080526200017686620004b9565b9461014095865262000188896200067d565b966101609788525190209261010098848a5251902093610120948086524660c0528251938401947f8b73c3c69bb8fe3d512ecc4cf759cc79239f7b179b0ffacaa9a75d522b39400f86528385015260608401524660808401523060a084015260a0835260c083019783891090891117620002a1575086905251902060a0523060e05260098054336001600160a01b0319821681179092556001600160a01b03167f3d1e4c3a68fed9f4f8315582b7297cf8fa264bc8e6704287603ba8c72bf05ac2600080a3611cec9485620008368639608051858181610b910152610df1015260a05185611749015260c05185611815015260e0518561171a01525184611798015251836117be01525182610856015251816108800152f35b604190634e487b7160e01b6000525260246000fd5b0151935038806200014c565b9190601f198416928960005284886000209460005b8a89838310620003155750505010620002fa575b50505050811b0184556200015c565b01519060f884600019921b161c1916905538808080620002eb565b868601518955909701969485019488935001620002d7565b89600052876000208380870160051c8201928a88106200036e575b0160051c019086905b8281106200036157505062000130565b6000815501869062000351565b9250819262000348565b60228a634e487b7160e01b6000525260246000fd5b90607f16906200011e565b634e487b7160e01b600052604160045260246000fd5b015190503880620000ee565b90869350601f1983169185600052896000209260005b8b8282106200040a5750508411620003f1575b505050811b01815562000100565b015160001983861b60f8161c19169055388080620003e3565b8385015186558a97909501949384019301620003d0565b90915083600052876000208580850160051c8201928a86106200046d575b918891869594930160051c01915b8281106200045d575050620000d7565b600081558594508891016200044d565b925081926200043f565b634e487b7160e01b600052602260045260246000fd5b93607f1693620000c0565b600080fd5b604081019081106001600160401b038211176200039857604052565b8051602091908281101562000558575090601f825111620004f75780825192015190808310620004e857501790565b82600019910360031b1b161790565b90604051809263305a27a960e01b82528060048301528251908160248401526000935b8285106200053e575050604492506000838284010152601f80199101168101030190fd5b84810182015186860160440152938101938593506200051a565b6001600160401b03811162000398576005928354926001938481811c9116801562000672575b838210146200047757601f81116200063b575b5081601f8411600114620005d15750928293918392600094620005c5575b50501b916000199060031b1c191617905560ff90565b015192503880620005af565b919083601f1981168760005284600020946000905b8883831062000620575050501062000606575b505050811b01905560ff90565b015160001960f88460031b161c19169055388080620005f9565b858701518855909601959485019487935090810190620005e6565b8560005284601f846000209201871c820191601f8601881c015b8281106200066557505062000591565b6000815501859062000655565b90607f16906200057e565b8051602090818110156200070b5750601f825111620006aa5780825192015190808310620004e857501790565b90604051809263305a27a960e01b82528060048301528251908160248401526000935b828510620006f1575050604492506000838284010152601f80199101168101030190fd5b8481018201518686016044015293810193859350620006cd565b906001600160401b0382116200039857600654926001938481811c911680156200082a575b838210146200047757601f8111620007f0575b5081601f841160011462000784575092829391839260009462000778575b50501b916000199060031b1c19161760065560ff90565b01519250388062000761565b919083601f198116600660005284600020946000905b88838310620007d55750505010620007bb575b505050811b0160065560ff90565b015160001960f88460031b161c19169055388080620007ad565b8587015188559096019594850194879350908101906200079a565b600660005284601f84600020920160051c820191601f860160051c015b8281106200081d57505062000743565b600081550185906200080d565b90607f16906200073056fe608060408181526004918236101561001657600080fd5b600092833560e01c91826306fdde03146110a757508163095ea7b31461105f57816312d43a511461100c57816318160ddd14610fcf57816323b872dd14610ea15781632524081014610e4e578163313ce56714610e14578163355274ea14610dbb5781633644e51514610d795781633950935114610cff57816340c10f1914610b2f57816370a0823114610ace5781637bc6729b146109f55781637ecebe001461099357816384b0196e1461082057816395d89b41146106f0578163a457c2d7146105ed578163a9059cbb1461059e578163a962ef1e146104ed578163cf456ae71461044b578163d505accf146101fe57508063dd62ed3e1461018b5763f46eccc41461012257600080fd5b346101875760207ffffffffffffffffffffffffffffffffffffffffffffffffffffffffffffffffc3601126101875760ff8160209373ffffffffffffffffffffffffffffffffffffffff610174611219565b168152600b855220541690519015158152f35b5080fd5b503461018757807ffffffffffffffffffffffffffffffffffffffffffffffffffffffffffffffffc36011261018757806020926101c6611219565b6101ce611241565b73ffffffffffffffffffffffffffffffffffffffff91821683526001865283832091168252845220549051908152f35b839150346101875760e07ffffffffffffffffffffffffffffffffffffffffffffffffffffffffffffffffc36011261018757610238611219565b610240611241565b906044359260643560843560ff81168103610447578142116103ea5773ffffffffffffffffffffffffffffffffffffffff90818516928389526007602052898920908154916001830190558a519060208201927f6e71edae12b1b97f4d1f60370fef10105fa2faae0126114a169c64845d6126c98452868d840152858a1660608401528a608084015260a083015260c082015260c0815260e0810181811067ffffffffffffffff8211176103be578b5251902061034c9161034491610303611703565b908c51917f190100000000000000000000000000000000000000000000000000000000000083526002830152602282015260c43591604260a4359220611a81565b919091611b1d565b1603610361575061035e93945061137f565b80f35b60649060208751917f08c379a0000000000000000000000000000000000000000000000000000000008352820152601e60248201527f45524332305065726d69743a20696e76616c6964207369676e617475726500006044820152fd5b60248b6041897f4e487b7100000000000000000000000000000000000000000000000000000000835252fd5b60648360208a51917f08c379a0000000000000000000000000000000000000000000000000000000008352820152601d60248201527f45524332305065726d69743a206578706972656420646561646c696e650000006044820152fd5b8680fd5b50503461018757807ffffffffffffffffffffffffffffffffffffffffffffffffffffffffffffffffc36011261018757610483611219565b90602435918215158093036104e95773ffffffffffffffffffffffffffffffffffffffff906104b0611a36565b168352600b60205282209060ff7fffffffffffffffffffffffffffffffffffffffffffffffffffffffffffffff00835416911617905580f35b8380fd5b833461059b5760207ffffffffffffffffffffffffffffffffffffffffffffffffffffffffffffffffc36011261059b57610525611219565b61052d611a36565b73ffffffffffffffffffffffffffffffffffffffff80911690817fffffffffffffffffffffffff0000000000000000000000000000000000000000600a541617600a55600954167fb9911e2099e372c216862258dc462bb65da46a2c854536c8b1acae619d0d62ed8380a380f35b80fd5b50503461018757807ffffffffffffffffffffffffffffffffffffffffffffffffffffffffffffffffc360112610187576020906105e66105dc611219565b60243590336114f4565b5160018152f35b9050823461059b57827ffffffffffffffffffffffffffffffffffffffffffffffffffffffffffffffffc36011261059b57610626611219565b918360243592338152600160205281812073ffffffffffffffffffffffffffffffffffffffff8616825260205220549082821061066d576020856105e6858503873361137f565b60849060208651917f08c379a0000000000000000000000000000000000000000000000000000000008352820152602560248201527f45524332303a2064656372656173656420616c6c6f77616e63652062656c6f7760448201527f207a65726f0000000000000000000000000000000000000000000000000000006064820152fd5b9190503461081c57827ffffffffffffffffffffffffffffffffffffffffffffffffffffffffffffffffc36011261081c57805183819490845461073281611264565b91828552602096600192886001821691826000146107d4575050600114610779575b858861077589610766848a0385611302565b519282849384528301906111bb565b0390f35b815286935091907f8a35acfbc15ff81a39ae7d344fd709f28e8600b4aa8c65c6b64bfe7fe36bd19b5b8284106107bc575050508201018161076661077538610754565b8054848a0186015288955087949093019281016107a2565b7fffffffffffffffffffffffffffffffffffffffffffffffffffffffffffffff00168882015294151560051b8701909401945085935061076692506107759150389050610754565b8280fd5b9190503461081c57827ffffffffffffffffffffffffffffffffffffffffffffffffffffffffffffffffc36011261081c5761087a7f000000000000000000000000000000000000000000000000000000000000000061183b565b926108a47f0000000000000000000000000000000000000000000000000000000000000000611976565b90825192602092602085019585871067ffffffffffffffff881117610967575092602061091d838896610910998b9996528686528151998a997f0f000000000000000000000000000000000000000000000000000000000000008b5260e0868c015260e08b01906111bb565b91898303908a01526111bb565b924660608801523060808801528460a088015286840360c088015251928381520193925b82811061095057505050500390f35b835185528695509381019392810192600101610941565b8360416024927f4e487b7100000000000000000000000000000000000000000000000000000000835252fd5b5050346101875760207ffffffffffffffffffffffffffffffffffffffffffffffffffffffffffffffffc360112610187578060209273ffffffffffffffffffffffffffffffffffffffff6109e5611219565b1681526007845220549051908152f35b9190503461081c57827ffffffffffffffffffffffffffffffffffffffffffffffffffffffffffffffffc36011261081c57600a549173ffffffffffffffffffffffffffffffffffffffff918284163303610aa85750507fffffffffffffffffffffffff0000000000000000000000000000000000000000809216600a556009549133908316176009553391167f3d1e4c3a68fed9f4f8315582b7297cf8fa264bc8e6704287603ba8c72bf05ac28380a380f35b517fee90c468000000000000000000000000000000000000000000000000000000008152fd5b5050346101875760207ffffffffffffffffffffffffffffffffffffffffffffffffffffffffffffffffc360112610187578060209273ffffffffffffffffffffffffffffffffffffffff610b20611219565b16815280845220549051908152f35b9190503461081c57807ffffffffffffffffffffffffffffffffffffffffffffffffffffffffffffffffc36011261081c57610b68611219565b9060243591338552600b60205260ff828620541615610cd75760025490610b8f8483611343565b7f000000000000000000000000000000000000000000000000000000000000000010610c7a5773ffffffffffffffffffffffffffffffffffffffff16938415610c1d5750827fddf252ad1be2c89b69c2b068fc378daa952ba7f163c4a11628f55a4df523b3ef92610c038795602094611343565b60025585855284835280852082815401905551908152a380f35b60649060208451917f08c379a0000000000000000000000000000000000000000000000000000000008352820152601f60248201527f45524332303a206d696e7420746f20746865207a65726f2061646472657373006044820152fd5b60648560208551917f08c379a0000000000000000000000000000000000000000000000000000000008352820152601960248201527f45524332304361707065643a20636170206578636565646564000000000000006044820152fd5b8382517ff8d2906c000000000000000000000000000000000000000000000000000000008152fd5b50503461018757807ffffffffffffffffffffffffffffffffffffffffffffffffffffffffffffffffc360112610187576105e6602092610d72610d40611219565b913381526001865284812073ffffffffffffffffffffffffffffffffffffffff84168252865284602435912054611343565b903361137f565b50503461018757817ffffffffffffffffffffffffffffffffffffffffffffffffffffffffffffffffc36011261018757602090610db4611703565b9051908152f35b50503461018757817ffffffffffffffffffffffffffffffffffffffffffffffffffffffffffffffffc36011261018757602090517f00000000000000000000000000000000000000000000000000000000000000008152f35b50503461018757817ffffffffffffffffffffffffffffffffffffffffffffffffffffffffffffffffc360112610187576020905160128152f35b50503461018757817ffffffffffffffffffffffffffffffffffffffffffffffffffffffffffffffffc3601126101875760209073ffffffffffffffffffffffffffffffffffffffff600a54169051908152f35b839150346101875760607ffffffffffffffffffffffffffffffffffffffffffffffffffffffffffffffffc36011261018757610edb611219565b610ee3611241565b91846044359473ffffffffffffffffffffffffffffffffffffffff8416815260016020528181203382526020522054907fffffffffffffffffffffffffffffffffffffffffffffffffffffffffffffffff8203610f49575b6020866105e68787876114f4565b848210610f725750918391610f67602096956105e69503338361137f565b919394819350610f3b565b60649060208751917f08c379a0000000000000000000000000000000000000000000000000000000008352820152601d60248201527f45524332303a20696e73756666696369656e7420616c6c6f77616e63650000006044820152fd5b50503461018757817ffffffffffffffffffffffffffffffffffffffffffffffffffffffffffffffffc360112610187576020906002549051908152f35b50503461018757817ffffffffffffffffffffffffffffffffffffffffffffffffffffffffffffffffc3601126101875760209073ffffffffffffffffffffffffffffffffffffffff600954169051908152f35b50503461018757807ffffffffffffffffffffffffffffffffffffffffffffffffffffffffffffffffc360112610187576020906105e661109d611219565b602435903361137f565b84843461018757817ffffffffffffffffffffffffffffffffffffffffffffffffffffffffffffffffc3601126101875782826003546110e581611264565b908184526020956001918760018216918260001461117657505060011461111a575b5050506107759291610766910385611302565b9190869350600383527fc2575a0e9e593c00f959f8c92f12db2869c3395a3b0502d05e2516446f71f85b5b82841061115e5750505082010181610766610775611107565b8054848a018601528895508794909301928101611145565b7fffffffffffffffffffffffffffffffffffffffffffffffffffffffffffffff00168782015293151560051b8601909301935084925061076691506107759050611107565b919082519283825260005b8481106112055750507fffffffffffffffffffffffffffffffffffffffffffffffffffffffffffffffe0601f8460006020809697860101520116010190565b6020818301810151848301820152016111c6565b6004359073ffffffffffffffffffffffffffffffffffffffff8216820361123c57565b600080fd5b6024359073ffffffffffffffffffffffffffffffffffffffff8216820361123c57565b90600182811c921680156112ad575b602083101461127e57565b7f4e487b7100000000000000000000000000000000000000000000000000000000600052602260045260246000fd5b91607f1691611273565b6040810190811067ffffffffffffffff8211176112d357604052565b7f4e487b7100000000000000000000000000000000000000000000000000000000600052604160045260246000fd5b90601f7fffffffffffffffffffffffffffffffffffffffffffffffffffffffffffffffe0910116810190811067ffffffffffffffff8211176112d357604052565b9190820180921161135057565b7f4e487b7100000000000000000000000000000000000000000000000000000000600052601160045260246000fd5b73ffffffffffffffffffffffffffffffffffffffff80911691821561147157169182156113ed5760207f8c5be1e5ebec7d5bd14f71427d1e84f3dd0314c0f7b2291e5b200ac8c7c3b925918360005260018252604060002085600052825280604060002055604051908152a3565b60846040517f08c379a000000000000000000000000000000000000000000000000000000000815260206004820152602260248201527f45524332303a20617070726f766520746f20746865207a65726f20616464726560448201527f73730000000000000000000000000000000000000000000000000000000000006064820152fd5b60846040517f08c379a0000000000000000000000000000000000000000000000000000000008152602060048201526024808201527f45524332303a20617070726f76652066726f6d20746865207a65726f2061646460448201527f72657373000000000000000000000000000000000000000000000000000000006064820152fd5b73ffffffffffffffffffffffffffffffffffffffff80911691821561167f57169182156115fb5760008281528060205260408120549180831061157757604082827fddf252ad1be2c89b69c2b068fc378daa952ba7f163c4a11628f55a4df523b3ef958760209652828652038282205586815220818154019055604051908152a3565b60846040517f08c379a000000000000000000000000000000000000000000000000000000000815260206004820152602660248201527f45524332303a207472616e7366657220616d6f756e742065786365656473206260448201527f616c616e636500000000000000000000000000000000000000000000000000006064820152fd5b60846040517f08c379a000000000000000000000000000000000000000000000000000000000815260206004820152602360248201527f45524332303a207472616e7366657220746f20746865207a65726f206164647260448201527f65737300000000000000000000000000000000000000000000000000000000006064820152fd5b60846040517f08c379a000000000000000000000000000000000000000000000000000000000815260206004820152602560248201527f45524332303a207472616e736665722066726f6d20746865207a65726f20616460448201527f64726573730000000000000000000000000000000000000000000000000000006064820152fd5b73ffffffffffffffffffffffffffffffffffffffff7f000000000000000000000000000000000000000000000000000000000000000016301480611812575b1561176b577f000000000000000000000000000000000000000000000000000000000000000090565b60405160208101907f8b73c3c69bb8fe3d512ecc4cf759cc79239f7b179b0ffacaa9a75d522b39400f82527f000000000000000000000000000000000000000000000000000000000000000060408201527f000000000000000000000000000000000000000000000000000000000000000060608201524660808201523060a082015260a0815260c0810181811067ffffffffffffffff8211176112d35760405251902090565b507f00000000000000000000000000000000000000000000000000000000000000004614611742565b60ff81146118915760ff811690601f8211611867576040519161185d836112b7565b8252602082015290565b60046040517fb3512b0c000000000000000000000000000000000000000000000000000000008152fd5b506040516005548160006118a483611264565b8083529260209060019081811690811561193357506001146118d2575b50506118cf92500382611302565b90565b91509260056000527f036b6384b5eca791c62761152d0c79bb0604c104a5fb6f4eb0703f3154bb3db0936000925b82841061191b57506118cf94505050810160200138806118c1565b85548785018301529485019486945092810192611900565b9050602093506118cf9592507fffffffffffffffffffffffffffffffffffffffffffffffffffffffffffffff0091501682840152151560051b82010138806118c1565b60ff81146119985760ff811690601f8211611867576040519161185d836112b7565b506040516006548160006119ab83611264565b8083529260209060019081811690811561193357506001146119d55750506118cf92500382611302565b91509260066000527ff652222313e28459528d920b65115c16c04f3efc82aaedc97be59f3f377c0d3f936000925b828410611a1e57506118cf94505050810160200138806118c1565b85548785018301529485019486945092810192611a03565b73ffffffffffffffffffffffffffffffffffffffff600954163303611a5757565b60046040517fee90c468000000000000000000000000000000000000000000000000000000008152fd5b9291907f7fffffffffffffffffffffffffffffff5d576e7357a4501ddfe92f46681b20a08311611b115791608094939160ff602094604051948552168484015260408301526060820152600093849182805260015afa15611b0457815173ffffffffffffffffffffffffffffffffffffffff811615611afe579190565b50600190565b50604051903d90823e3d90fd5b50505050600090600390565b6005811015611c875780611b2e5750565b60018103611b945760646040517f08c379a000000000000000000000000000000000000000000000000000000000815260206004820152601860248201527f45434453413a20696e76616c6964207369676e617475726500000000000000006044820152fd5b60028103611bfa5760646040517f08c379a000000000000000000000000000000000000000000000000000000000815260206004820152601f60248201527f45434453413a20696e76616c6964207369676e6174757265206c656e677468006044820152fd5b600314611c0357565b60846040517f08c379a000000000000000000000000000000000000000000000000000000000815260206004820152602260248201527f45434453413a20696e76616c6964207369676e6174757265202773272076616c60448201527f75650000000000000000000000000000000000000000000000000000000000006064820152fd5b7f4e487b7100000000000000000000000000000000000000000000000000000000600052602160045260246000fdfea264697066735822122024b56d1eea67c841814d589e8cb2240d23bdf8a12f99fed57778bcfe3259a79064736f6c63430008180033",
  "linkReferences": {},
  "deployedLinkReferences": {}
}