{
  "_format": "hh-sol-artifact-1",
  "contractName": "MockPriceFeed",
  "sourceName": "contracts/test/MockPriceFeed.sol",
  "abi": [
    {
      "inputs": [
        {
          "internalType": "contract IERC20",
          "name": "_token",
          "type": "address"
        }
      ],
      "name": "getMaxPriceX96",
      "outputs": [
        {
          "internalType": "uint160",
          "name": "priceX96",
          "type": "uint160"
        }
      ],
      "stateMutability": "view",
      "type": "function"
    },
    {
      "inputs": [
        {
          "internalType": "contract IERC20",
          "name": "_token",
          "type": "address"
        }
      ],
      "name": "getMinPriceX96",
      "outputs": [
        {
          "internalType": "uint160",
          "name": "priceX96",
          "type": "uint160"
        }
      ],
      "stateMutability": "view",
      "type": "function"
    },
    {
      "inputs": [
        {
          "internalType": "contract IERC20",
          "name": "",
          "type": "address"
        }
      ],
      "name": "maxPriceX96s",
      "outputs": [
        {
          "internalType": "uint160",
          "name": "",
          "type": "uint160"
        }
      ],
      "stateMutability": "view",
      "type": "function"
    },
    {
      "inputs": [
        {
          "internalType": "contract IERC20",
          "name": "",
          "type": "address"
        }
      ],
      "name": "minPriceX96s",
      "outputs": [
        {
          "internalType": "uint160",
          "name": "",
          "type": "uint160"
        }
      ],
      "stateMutability": "view",
      "type": "function"
    },
    {
      "inputs": [
        {
          "internalType": "contract IERC20",
          "name": "_token",
          "type": "address"
        },
        {
          "internalType": "uint160",
          "name": "_priceX96",
          "type": "uint160"
        }
      ],
      "name": "setMaxPriceX96",
      "outputs": [],
      "stateMutability": "nonpayable",
      "type": "function"
    },
    {
      "inputs": [
        {
          "internalType": "contract IERC20",
          "name": "_token",
          "type": "address"
        },
        {
          "internalType": "uint160",
          "name": "_priceX96",
          "type": "uint160"
        }
      ],
      "name": "setMinPriceX96",
      "outputs": [],
      "stateMutability": "nonpayable",
      "type": "function"
    }
  ],
  "bytecode": "0x6080806040523461001657610307908161001c8239f35b600080fdfe60806040818152600436101561001457600080fd5b600091823560e01c9081633619c603146101e75750806377236aa1146100c457806377c2fdc2146101845780638c48e6fb146101285780639fae7541146100c45763da59e4fb1461006457600080fd5b346100c05761007236610275565b9173ffffffffffffffffffffffffffffffffffffffff80921684526001602052832091167fffffffffffffffffffffffff000000000000000000000000000000000000000082541617905580f35b5080fd5b50346100c05760207ffffffffffffffffffffffffffffffffffffffffffffffffffffffffffffffffc3601126100c0576020918173ffffffffffffffffffffffffffffffffffffffff918261011761024d565b168152600185522054169051908152f35b50346100c05761013736610275565b9173ffffffffffffffffffffffffffffffffffffffff809216845283602052832091167fffffffffffffffffffffffff000000000000000000000000000000000000000082541617905580f35b50346100c05760207ffffffffffffffffffffffffffffffffffffffffffffffffffffffffffffffffc3601126100c0576020918173ffffffffffffffffffffffffffffffffffffffff91826101d761024d565b1681528085522054169051908152f35b919050346102495760207ffffffffffffffffffffffffffffffffffffffffffffffffffffffffffffffffc360112610249579160209273ffffffffffffffffffffffffffffffffffffffff918261023c61024d565b1681528085522054168152f35b8280fd5b6004359073ffffffffffffffffffffffffffffffffffffffff8216820361027057565b600080fd5b7ffffffffffffffffffffffffffffffffffffffffffffffffffffffffffffffffc60409101126102705773ffffffffffffffffffffffffffffffffffffffff90600435828116810361027057916024359081168103610270579056fea264697066735822122083377599b89103f5d0df82645e6c16849a64df85f404b417d9202f342f843d8864736f6c63430008180033",
  "linkReferences": {},
  "deployedLinkReferences": {}
}