{
  "_format": "hh-sol-artifact-1",
  "contractName": "FeeDistributorTestHelper",
  "sourceName": "contracts/test/FeeDistributorTestHelper.sol",
  "abi": [
    {
      "inputs": [
        {
          "internalType": "contract IEFC",
          "name": "_EFC",
          "type": "address"
        },
        {
          "internalType": "contract IERC20",
          "name": "_EQU",
          "type": "address"
        },
        {
          "internalType": "contract IERC20",
          "name": "_WETH",
          "type": "address"
        },
        {
          "internalType": "contract IERC20",
          "name": "_veEQU",
          "type": "address"
        },
        {
          "internalType": "contract IERC20",
          "name": "_feeToken",
          "type": "address"
        },
        {
          "internalType": "contract Router",
          "name": "_router",
          "type": "address"
        },
        {
          "internalType": "contract IUniswapV3PoolFactoryMinimum",
          "name": "_v3PoolFactory",
          "type": "address"
        },
        {
          "internalType": "contract IPositionManagerMinimum",
          "name": "_v3PositionManager",
          "type": "address"
        },
        {
          "internalType": "uint16",
          "name": "_withdrawalPeriod",
          "type": "uint16"
        },
        {
          "internalType": "address",
          "name": "_v3PoolAddress",
          "type": "address"
        }
      ],
      "stateMutability": "nonpayable",
      "type": "constructor"
    },
    {
      "inputs": [
        {
          "internalType": "uint256",
          "name": "depositAmount",
          "type": "uint256"
        },
        {
          "internalType": "uint256",
          "name": "balance",
          "type": "uint256"
        }
      ],
      "name": "DepositAmountIsGreaterThanTheTransfer",
      "type": "error"
    },
    {
      "inputs": [],
      "name": "DepositConditionNotMet",
      "type": "error"
    },
    {
      "inputs": [],
      "name": "ExchangeableEQUAmountIsZero",
      "type": "error"
    },
    {
      "inputs": [],
      "name": "Forbidden",
      "type": "error"
    },
    {
      "inputs": [
        {
          "internalType": "address",
          "name": "caller",
          "type": "address"
        }
      ],
      "name": "InvalidCaller",
      "type": "error"
    },
    {
      "inputs": [
        {
          "internalType": "uint16",
          "name": "period",
          "type": "uint16"
        }
      ],
      "name": "InvalidLockupPeriod",
      "type": "error"
    },
    {
      "inputs": [
        {
          "internalType": "address",
          "name": "owner",
          "type": "address"
        },
        {
          "internalType": "uint256",
          "name": "tokenID",
          "type": "uint256"
        }
      ],
      "name": "InvalidNFTOwner",
      "type": "error"
    },
    {
      "inputs": [
        {
          "internalType": "uint256",
          "name": "id",
          "type": "uint256"
        }
      ],
      "name": "InvalidStakeID",
      "type": "error"
    },
    {
      "inputs": [],
      "name": "InvalidTick",
      "type": "error"
    },
    {
      "inputs": [
        {
          "internalType": "uint24",
          "name": "fee",
          "type": "uint24"
        }
      ],
      "name": "InvalidUniswapV3Fee",
      "type": "error"
    },
    {
      "inputs": [
        {
          "internalType": "address",
          "name": "token0",
          "type": "address"
        },
        {
          "internalType": "address",
          "name": "token1",
          "type": "address"
        }
      ],
      "name": "InvalidUniswapV3PositionNFT",
      "type": "error"
    },
    {
      "inputs": [
        {
          "internalType": "uint256",
          "name": "id",
          "type": "uint256"
        }
      ],
      "name": "NotYetReachedTheUnlockingTime",
      "type": "error"
    },
    {
      "inputs": [],
      "name": "ReentrancyGuardReentrantCall",
      "type": "error"
    },
    {
      "inputs": [
        {
          "internalType": "int24",
          "name": "tickLower",
          "type": "int24"
        },
        {
          "internalType": "int24",
          "name": "tickUpper",
          "type": "int24"
        },
        {
          "internalType": "int24",
          "name": "tickSpacing",
          "type": "int24"
        }
      ],
      "name": "RequireFullRangePosition",
      "type": "error"
    },
    {
      "inputs": [
        {
          "internalType": "uint8",
          "name": "bits",
          "type": "uint8"
        },
        {
          "internalType": "int256",
          "name": "value",
          "type": "int256"
        }
      ],
      "name": "SafeCastOverflowedIntDowncast",
      "type": "error"
    },
    {
      "inputs": [
        {
          "internalType": "uint8",
          "name": "bits",
          "type": "uint8"
        },
        {
          "internalType": "uint256",
          "name": "value",
          "type": "uint256"
        }
      ],
      "name": "SafeCastOverflowedUintDowncast",
      "type": "error"
    },
    {
      "inputs": [
        {
          "internalType": "address",
          "name": "token",
          "type": "address"
        }
      ],
      "name": "SafeERC20FailedOperation",
      "type": "error"
    },
    {
      "anonymous": false,
      "inputs": [
        {
          "indexed": true,
          "internalType": "address",
          "name": "receiver",
          "type": "address"
        },
        {
          "indexed": true,
          "internalType": "uint256",
          "name": "tokenID",
          "type": "uint256"
        },
        {
          "indexed": false,
          "internalType": "uint256",
          "name": "amount",
          "type": "uint256"
        }
      ],
      "name": "ArchitectCollected",
      "type": "event"
    },
    {
      "anonymous": false,
      "inputs": [
        {
          "indexed": true,
          "internalType": "address",
          "name": "previousGov",
          "type": "address"
        },
        {
          "indexed": true,
          "internalType": "address",
          "name": "newGov",
          "type": "address"
        }
      ],
      "name": "ChangeGovStarted",
      "type": "event"
    },
    {
      "anonymous": false,
      "inputs": [
        {
          "indexed": true,
          "internalType": "address",
          "name": "owner",
          "type": "address"
        },
        {
          "indexed": true,
          "internalType": "address",
          "name": "receiver",
          "type": "address"
        },
        {
          "indexed": true,
          "internalType": "uint256",
          "name": "id",
          "type": "uint256"
        },
        {
          "indexed": false,
          "internalType": "uint256",
          "name": "amount",
          "type": "uint256"
        }
      ],
      "name": "Collected",
      "type": "event"
    },
    {
      "anonymous": false,
      "inputs": [
        {
          "indexed": false,
          "internalType": "uint256",
          "name": "amount",
          "type": "uint256"
        },
        {
          "indexed": false,
          "internalType": "uint256",
          "name": "equFeeAmount",
          "type": "uint256"
        },
        {
          "indexed": false,
          "internalType": "uint256",
          "name": "architectFeeAmount",
          "type": "uint256"
        },
        {
          "indexed": false,
          "internalType": "uint160",
          "name": "perShareGrowthAfterX64",
          "type": "uint160"
        },
        {
          "indexed": false,
          "internalType": "uint160",
          "name": "architectPerShareGrowthAfterX64",
          "type": "uint160"
        }
      ],
      "name": "FeeDeposited",
      "type": "event"
    },
    {
      "anonymous": false,
      "inputs": [
        {
          "indexed": true,
          "internalType": "address",
          "name": "previousGov",
          "type": "address"
        },
        {
          "indexed": true,
          "internalType": "address",
          "name": "newGov",
          "type": "address"
        }
      ],
      "name": "GovChanged",
      "type": "event"
    },
    {
      "anonymous": false,
      "inputs": [
        {
          "components": [
            {
              "internalType": "uint16",
              "name": "period",
              "type": "uint16"
            },
            {
              "internalType": "uint16",
              "name": "multiplier",
              "type": "uint16"
            }
          ],
          "indexed": false,
          "internalType": "struct IFeeDistributor.LockupRewardMultiplierParameter[]",
          "name": "lockupRewardMultiplierParameters",
          "type": "tuple[]"
        }
      ],
      "name": "LockupRewardMultipliersSet",
      "type": "event"
    },
    {
      "anonymous": false,
      "inputs": [
        {
          "indexed": true,
          "internalType": "address",
          "name": "sender",
          "type": "address"
        },
        {
          "indexed": true,
          "internalType": "address",
          "name": "account",
          "type": "address"
        },
        {
          "indexed": true,
          "internalType": "uint256",
          "name": "id",
          "type": "uint256"
        },
        {
          "indexed": false,
          "internalType": "uint256",
          "name": "amount",
          "type": "uint256"
        },
        {
          "indexed": false,
          "internalType": "uint16",
          "name": "period",
          "type": "uint16"
        }
      ],
      "name": "Staked",
      "type": "event"
    },
    {
      "anonymous": false,
      "inputs": [
        {
          "indexed": true,
          "internalType": "address",
          "name": "owner",
          "type": "address"
        },
        {
          "indexed": true,
          "internalType": "address",
          "name": "receiver",
          "type": "address"
        },
        {
          "indexed": true,
          "internalType": "uint256",
          "name": "id",
          "type": "uint256"
        },
        {
          "indexed": false,
          "internalType": "uint256",
          "name": "amount0",
          "type": "uint256"
        },
        {
          "indexed": false,
          "internalType": "uint256",
          "name": "amount1",
          "type": "uint256"
        }
      ],
      "name": "Unstaked",
      "type": "event"
    },
    {
      "anonymous": false,
      "inputs": [
        {
          "indexed": true,
          "internalType": "address",
          "name": "owner",
          "type": "address"
        },
        {
          "indexed": true,
          "internalType": "address",
          "name": "receiver",
          "type": "address"
        },
        {
          "indexed": true,
          "internalType": "uint256",
          "name": "id",
          "type": "uint256"
        },
        {
          "indexed": false,
          "internalType": "uint256",
          "name": "amount",
          "type": "uint256"
        }
      ],
      "name": "V3PosCollected",
      "type": "event"
    },
    {
      "anonymous": false,
      "inputs": [
        {
          "indexed": true,
          "internalType": "address",
          "name": "sender",
          "type": "address"
        },
        {
          "indexed": true,
          "internalType": "address",
          "name": "account",
          "type": "address"
        },
        {
          "indexed": true,
          "internalType": "uint256",
          "name": "id",
          "type": "uint256"
        },
        {
          "indexed": false,
          "internalType": "uint256",
          "name": "amount",
          "type": "uint256"
        },
        {
          "indexed": false,
          "internalType": "uint16",
          "name": "period",
          "type": "uint16"
        }
      ],
      "name": "V3PosStaked",
      "type": "event"
    },
    {
      "anonymous": false,
      "inputs": [
        {
          "indexed": true,
          "internalType": "address",
          "name": "owner",
          "type": "address"
        },
        {
          "indexed": true,
          "internalType": "address",
          "name": "receiver",
          "type": "address"
        },
        {
          "indexed": true,
          "internalType": "uint256",
          "name": "id",
          "type": "uint256"
        },
        {
          "indexed": false,
          "internalType": "uint256",
          "name": "amount0",
          "type": "uint256"
        },
        {
          "indexed": false,
          "internalType": "uint256",
          "name": "amount1",
          "type": "uint256"
        }
      ],
      "name": "V3PosUnstaked",
      "type": "event"
    },
    {
      "inputs": [],
      "name": "acceptGov",
      "outputs": [],
      "stateMutability": "nonpayable",
      "type": "function"
    },
    {
      "inputs": [],
      "name": "architectPerShareGrowthX64",
      "outputs": [
        {
          "internalType": "uint160",
          "name": "",
          "type": "uint160"
        }
      ],
      "stateMutability": "view",
      "type": "function"
    },
    {
      "inputs": [
        {
          "internalType": "uint256",
          "name": "",
          "type": "uint256"
        }
      ],
      "name": "architectPerShareGrowthX64s",
      "outputs": [
        {
          "internalType": "uint160",
          "name": "",
          "type": "uint160"
        }
      ],
      "stateMutability": "view",
      "type": "function"
    },
    {
      "inputs": [
        {
          "internalType": "address",
          "name": "_newGov",
          "type": "address"
        }
      ],
      "name": "changeGov",
      "outputs": [],
      "stateMutability": "nonpayable",
      "type": "function"
    },
    {
      "inputs": [
        {
          "internalType": "address",
          "name": "_receiver",
          "type": "address"
        },
        {
          "internalType": "uint256[]",
          "name": "_tokenIDs",
          "type": "uint256[]"
        }
      ],
      "name": "collectArchitectBatch",
      "outputs": [
        {
          "internalType": "uint256",
          "name": "rewardAmount",
          "type": "uint256"
        }
      ],
      "stateMutability": "nonpayable",
      "type": "function"
    },
    {
      "inputs": [
        {
          "internalType": "address",
          "name": "_receiver",
          "type": "address"
        },
        {
          "internalType": "uint256[]",
          "name": "_tokenIDs",
          "type": "uint256[]"
        }
      ],
      "name": "collectArchitectBatchByRouter",
      "outputs": [
        {
          "internalType": "uint256",
          "name": "rewardAmount",
          "type": "uint256"
        }
      ],
      "stateMutability": "nonpayable",
      "type": "function"
    },
    {
      "inputs": [
        {
          "internalType": "address",
          "name": "_receiver",
          "type": "address"
        },
        {
          "internalType": "uint256[]",
          "name": "_ids",
          "type": "uint256[]"
        }
      ],
      "name": "collectBatch",
      "outputs": [
        {
          "internalType": "uint256",
          "name": "rewardAmount",
          "type": "uint256"
        }
      ],
      "stateMutability": "nonpayable",
      "type": "function"
    },
    {
      "inputs": [
        {
          "internalType": "address",
          "name": "_owner",
          "type": "address"
        },
        {
          "internalType": "address",
          "name": "_receiver",
          "type": "address"
        },
        {
          "internalType": "uint256[]",
          "name": "_ids",
          "type": "uint256[]"
        }
      ],
      "name": "collectBatchByRouter",
      "outputs": [
        {
          "internalType": "uint256",
          "name": "rewardAmount",
          "type": "uint256"
        }
      ],
      "stateMutability": "nonpayable",
      "type": "function"
    },
    {
      "inputs": [
        {
          "internalType": "address",
          "name": "_receiver",
          "type": "address"
        },
        {
          "internalType": "uint256[]",
          "name": "_ids",
          "type": "uint256[]"
        }
      ],
      "name": "collectV3PosBatch",
      "outputs": [
        {
          "internalType": "uint256",
          "name": "rewardAmount",
          "type": "uint256"
        }
      ],
      "stateMutability": "nonpayable",
      "type": "function"
    },
    {
      "inputs": [
        {
          "internalType": "address",
          "name": "_owner",
          "type": "address"
        },
        {
          "internalType": "address",
          "name": "_receiver",
          "type": "address"
        },
        {
          "internalType": "uint256[]",
          "name": "_ids",
          "type": "uint256[]"
        }
      ],
      "name": "collectV3PosBatchByRouter",
      "outputs": [
        {
          "internalType": "uint256",
          "name": "rewardAmount",
          "type": "uint256"
        }
      ],
      "stateMutability": "nonpayable",
      "type": "function"
    },
    {
      "inputs": [
        {
          "internalType": "uint256",
          "name": "_amount",
          "type": "uint256"
        }
      ],
      "name": "depositFee",
      "outputs": [],
      "stateMutability": "nonpayable",
      "type": "function"
    },
    {
      "inputs": [],
      "name": "feeBalance",
      "outputs": [
        {
          "internalType": "uint96",
          "name": "",
          "type": "uint96"
        }
      ],
      "stateMutability": "view",
      "type": "function"
    },
    {
      "inputs": [],
      "name": "feeToken",
      "outputs": [
        {
          "internalType": "contract IERC20",
          "name": "",
          "type": "address"
        }
      ],
      "stateMutability": "view",
      "type": "function"
    },
    {
      "inputs": [],
      "name": "gov",
      "outputs": [
        {
          "internalType": "address",
          "name": "",
          "type": "address"
        }
      ],
      "stateMutability": "view",
      "type": "function"
    },
    {
      "inputs": [
        {
          "internalType": "uint16",
          "name": "",
          "type": "uint16"
        }
      ],
      "name": "lockupRewardMultipliers",
      "outputs": [
        {
          "internalType": "uint16",
          "name": "",
          "type": "uint16"
        }
      ],
      "stateMutability": "view",
      "type": "function"
    },
    {
      "inputs": [],
      "name": "mintedArchitects",
      "outputs": [
        {
          "internalType": "uint16",
          "name": "",
          "type": "uint16"
        }
      ],
      "stateMutability": "view",
      "type": "function"
    },
    {
      "inputs": [
        {
          "internalType": "address",
          "name": "",
          "type": "address"
        },
        {
          "internalType": "address",
          "name": "",
          "type": "address"
        },
        {
          "internalType": "uint256",
          "name": "",
          "type": "uint256"
        },
        {
          "internalType": "bytes",
          "name": "",
          "type": "bytes"
        }
      ],
      "name": "onERC721Received",
      "outputs": [
        {
          "internalType": "bytes4",
          "name": "",
          "type": "bytes4"
        }
      ],
      "stateMutability": "nonpayable",
      "type": "function"
    },
    {
      "inputs": [
        {
          "internalType": "uint256",
          "name": "_tokenID",
          "type": "uint256"
        }
      ],
      "name": "onMintArchitect",
      "outputs": [],
      "stateMutability": "nonpayable",
      "type": "function"
    },
    {
      "inputs": [],
      "name": "pendingGov",
      "outputs": [
        {
          "internalType": "address",
          "name": "",
          "type": "address"
        }
      ],
      "stateMutability": "view",
      "type": "function"
    },
    {
      "inputs": [],
      "name": "perShareGrowthX64",
      "outputs": [
        {
          "internalType": "uint160",
          "name": "",
          "type": "uint160"
        }
      ],
      "stateMutability": "view",
      "type": "function"
    },
    {
      "inputs": [
        {
          "components": [
            {
              "internalType": "uint16",
              "name": "period",
              "type": "uint16"
            },
            {
              "internalType": "uint16",
              "name": "multiplier",
              "type": "uint16"
            }
          ],
          "internalType": "struct IFeeDistributor.LockupRewardMultiplierParameter[]",
          "name": "_lockupRewardMultiplierParameters",
          "type": "tuple[]"
        }
      ],
      "name": "setLockupRewardMultipliers",
      "outputs": [],
      "stateMutability": "nonpayable",
      "type": "function"
    },
    {
      "inputs": [
        {
          "internalType": "uint256",
          "name": "_amount",
          "type": "uint256"
        },
        {
          "internalType": "address",
          "name": "_receiver",
          "type": "address"
        },
        {
          "internalType": "uint16",
          "name": "_period",
          "type": "uint16"
        }
      ],
      "name": "stake",
      "outputs": [],
      "stateMutability": "nonpayable",
      "type": "function"
    },
    {
      "inputs": [
        {
          "internalType": "address",
          "name": "",
          "type": "address"
        },
        {
          "internalType": "uint256",
          "name": "",
          "type": "uint256"
        }
      ],
      "name": "stakeInfos",
      "outputs": [
        {
          "internalType": "uint256",
          "name": "amount",
          "type": "uint256"
        },
        {
          "internalType": "uint64",
          "name": "lockupStartTime",
          "type": "uint64"
        },
        {
          "internalType": "uint16",
          "name": "multiplier",
          "type": "uint16"
        },
        {
          "internalType": "uint16",
          "name": "period",
          "type": "uint16"
        },
        {
          "internalType": "uint160",
          "name": "perShareGrowthX64",
          "type": "uint160"
        }
      ],
      "stateMutability": "view",
      "type": "function"
    },
    {
      "inputs": [
        {
          "internalType": "uint256",
          "name": "_id",
          "type": "uint256"
        },
        {
          "internalType": "address",
          "name": "_receiver",
          "type": "address"
        },
        {
          "internalType": "uint16",
          "name": "_period",
          "type": "uint16"
        }
      ],
      "name": "stakeV3Pos",
      "outputs": [],
      "stateMutability": "nonpayable",
      "type": "function"
    },
    {
      "inputs": [],
      "name": "totalStakedWithMultiplier",
      "outputs": [
        {
          "internalType": "uint256",
          "name": "",
          "type": "uint256"
        }
      ],
      "stateMutability": "view",
      "type": "function"
    },
    {
      "inputs": [
        {
          "internalType": "uint256[]",
          "name": "_ids",
          "type": "uint256[]"
        },
        {
          "internalType": "address",
          "name": "_receiver",
          "type": "address"
        }
      ],
      "name": "unstake",
      "outputs": [
        {
          "internalType": "uint256",
          "name": "rewardAmount",
          "type": "uint256"
        }
      ],
      "stateMutability": "nonpayable",
      "type": "function"
    },
    {
      "inputs": [
        {
          "internalType": "uint256[]",
          "name": "_ids",
          "type": "uint256[]"
        },
        {
          "internalType": "address",
          "name": "_receiver",
          "type": "address"
        }
      ],
      "name": "unstakeV3Pos",
      "outputs": [
        {
          "internalType": "uint256",
          "name": "rewardAmount",
          "type": "uint256"
        }
      ],
      "stateMutability": "nonpayable",
      "type": "function"
    },
    {
      "inputs": [],
      "name": "v3PoolAddress",
      "outputs": [
        {
          "internalType": "address",
          "name": "",
          "type": "address"
        }
      ],
      "stateMutability": "view",
      "type": "function"
    },
    {
      "inputs": [
        {
          "internalType": "address",
          "name": "",
          "type": "address"
        },
        {
          "internalType": "uint256",
          "name": "",
          "type": "uint256"
        }
      ],
      "name": "v3PosStakeInfos",
      "outputs": [
        {
          "internalType": "uint256",
          "name": "amount",
          "type": "uint256"
        },
        {
          "internalType": "uint64",
          "name": "lockupStartTime",
          "type": "uint64"
        },
        {
          "internalType": "uint16",
          "name": "multiplier",
          "type": "uint16"
        },
        {
          "internalType": "uint16",
          "name": "period",
          "type": "uint16"
        },
        {
          "internalType": "uint160",
          "name": "perShareGrowthX64",
          "type": "uint160"
        }
      ],
      "stateMutability": "view",
      "type": "function"
    },
    {
      "inputs": [],
      "name": "withdrawalPeriod",
      "outputs": [
        {
          "internalType": "uint16",
          "name": "",
          "type": "uint16"
        }
      ],
      "stateMutability": "view",
      "type": "function"
    }
  ],
  "bytecode": "0x6101c0346200023d5762003e4038819003601f8101601f191683016001600160401b038111848210176200024257839282916040528339610140928391810103126200023d5780516001600160a01b03929083811681036200023d57620000696020840162000258565b91620000786040850162000258565b90620000876060860162000258565b94620000966080820162000258565b9360a08201519088821682036200023d5760c08301519689881688036200023d5760e084015199808b168b036200023d576101009a8b8601519961ffff8b168b036200023d5761012080970151958387168097036200023d5760016000556001549c8d9660018060a01b03199788339116176001556040519e863391167f3d1e4c3a68fed9f4f8315582b7297cf8fa264bc8e6704287603ba8c72bf05ac2600080a36080528560a0528a60c05260e0526101809a8b528d52865286526101a09889528061016097169116108552600a541617600a55613bd296876200026e88396080518781816119200152612017015260a0518781816106d101528181611dcd01526131df015260c05187613250015260e05187818161034a0152610933015251868181611a2f01528181612334015261239b01525185610dc0015251848181610457015281816104ef01528181610d0801528181610f3f0152610fa6015251838181610d4301528181610ed8015281816112a9015261130701525182818161186b01528181611b5c0152612ed301525181818161060d01528181610aa10152611f8a0152f35b600080fd5b634e487b7160e01b600052604160045260246000fd5b51906001600160a01b03821682036200023d5756fe608080604052600436101561001357600080fd5b600090813560e01c90816312d43a511461250157508063150b7a021461242a5780631555f10e146123d85780631d56eed01461237157806324cf56711461230a57806325240810146122b857806330998bec1461213b57806330f7a4f914611fe65780633633152114611d17578063423c485a14611a6c57806353ec31d114611a0757806354f80bb1146118d957806360b71d4e1461188f578063647846a5146118205780636abae70b146117c25780637565b8cb1461179c5780637ad4f822146117405780637bc6729b14611669578063859a2f811461162a57806390cf87cc14610ca457806398a03efb14610c65578063a82bfd8914610baf578063a962ef1e14610b01578063b8118aa714610ac5578063bca7093d14610a68578063c2d0b01314610a25578063dc8c4ffe14610669578063e0664cc314610253578063eaf9ad07146102235763fa14a50d1461016b57600080fd5b346102205760407ffffffffffffffffffffffffffffffffffffffffffffffffffffffffffffffffc3601126102205760409073ffffffffffffffffffffffffffffffffffffffff6101ba612551565b168152600660209081528282206024358352815291902080546001909101546040805192835267ffffffffffffffff82169383019390935261ffff81841c811693830193909352605081901c9092166060808301919091529190911c608082015260a090f35b80fd5b503461022057602090600161024961023a366126fc565b91610243612927565b336129fb565b9155604051908152f35b50346102205761026236612767565b61026d939193612927565b600092600094856080604051610282816125b7565b8281528260208201528260408201528260608201520152859186915b8083106103795760208760018861036f6103076103338e6102c7878e8e60035403600355612e84565b6040517f9dc29fac000000000000000000000000000000000000000000000000000000008982015233602482015260448101919091529182906064820190565b037fffffffffffffffffffffffffffffffffffffffffffffffffffffffffffffffe081018352826125d3565b73ffffffffffffffffffffffffffffffffffffffff7f000000000000000000000000000000000000000000000000000000000000000016612ef7565b5055604051908152f35b9091959296610389878385612892565b3533600052600760205260406000208160005260205260406000209860016040519a6103b48c6125b7565b80548c52015467ffffffffffffffff811660208c015261ffff8160401c1660408c015261ffff8160501c168060608d01528160601c60808d015267ffffffffffffffff8216156106385762015180809102428167ffffffffffffffff8516011092836105f0575b505050156105bf5761ffff60408b518095019b0151168302019461043f8233612de8565b9073ffffffffffffffffffffffffffffffffffffffff7f0000000000000000000000000000000000000000000000000000000000000000163b156105ba576040517f42842e0e00000000000000000000000000000000000000000000000000000000815230600482015273ffffffffffffffffffffffffffffffffffffffff891660248201526044810184905292600084806064810103818373ffffffffffffffffffffffffffffffffffffffff7f0000000000000000000000000000000000000000000000000000000000000000165af180156105ae5760019561059695839261059f575b5060405190815284602082015273ffffffffffffffffffffffffffffffffffffffff8b16907f4c97217cb109424f1d3aab3b60db383474bc12bcc95bc31b77cb3899069af98360403392a43360005260076020526040600020906000526020526000846040822082815501556128c3565b9601919061029e565b6105a890612574565b38610525565b6040513d6000823e3d90fd5b600080fd5b602482604051907fba9320a60000000000000000000000000000000000000000000000000000000082526004820152fd5b61060792935067ffffffffffffffff164203613277565b9061ffff7f00000000000000000000000000000000000000000000000000000000000000001602101538808061041b565b602484604051907fec14d0430000000000000000000000000000000000000000000000000000000082526004820152fd5b503461022057610678366127e4565b9091610682612927565b6040517f23b872dd000000000000000000000000000000000000000000000000000000006020820152336024820152306044820152606481018290526106f5906106cf8160848101610307565b7f0000000000000000000000000000000000000000000000000000000000000000612f8b565b60045469ffffffffffffffffffff808216918183146109f8577fffffffffffffffffffffffffffffffffffffffffffff0000000000000000000082600185011691161760045561ffff84169182600052600960205261ffff6040600020541680156109c75767ffffffffffffffff42116109905773ffffffffffffffffffffffffffffffffffffffff600193826108d38a848761089661ffff7f7feea83a010526530fd5783cf6104983a7d4da95200fabede981f185b9305c9d9c6109869a8f8e67ffffffffffffffff9160055497604051916107d1836125b7565b825289602083019b8542168d526040840196875260608401978852608084019a60601c8b521660005260066020528d836040600020920116600052602052604060002090518155019751167fffffffffffffffffffffffffffffffffffffffffffff0000000000000000000069ffff00000000000000008954935160401b16921617178655511684907fffffffffffffffffffffffffffffffffffffffff0000ffffffffffffffffffff6bffff0000000000000000000083549260501b169116179055565b5182546bffffffffffffffffffffffff16911660601b7fffffffffffffffffffffffffffffffffffffffff00000000000000000000000016179055565b6040517f40c10f1900000000000000000000000000000000000000000000000000000000602082015273ffffffffffffffffffffffffffffffffffffffff8b16602482015260448101899052610958906109308160648101610307565b847f000000000000000000000000000000000000000000000000000000000000000016612ef7565b50870260035401600355604051948594011697169533958390929161ffff6020916040840195845216910152565b0390a46001815580f35b60446040517f6dfcc65000000000000000000000000000000000000000000000000000000000815260406004820152426024820152fd5b602484604051907f1a497d9d0000000000000000000000000000000000000000000000000000000082526004820152fd5b6024877f4e487b710000000000000000000000000000000000000000000000000000000081526011600452fd5b503461022057807ffffffffffffffffffffffffffffffffffffffffffffffffffffffffffffffffc36011261022057602061ffff60045460501c16604051908152f35b503461022057807ffffffffffffffffffffffffffffffffffffffffffffffffffffffffffffffffc36011261022057602060405161ffff7f0000000000000000000000000000000000000000000000000000000000000000168152f35b503461022057807ffffffffffffffffffffffffffffffffffffffffffffffffffffffffffffffffc360112610220576020600354604051908152f35b50346102205760207ffffffffffffffffffffffffffffffffffffffffffffffffffffffffffffffffc36011261022057610b39612551565b610b41612a92565b73ffffffffffffffffffffffffffffffffffffffff80911690817fffffffffffffffffffffffff00000000000000000000000000000000000000006002541617600255600154167fb9911e2099e372c216862258dc462bb65da46a2c854536c8b1acae619d0d62ed8380a380f35b50346102205760407ffffffffffffffffffffffffffffffffffffffffffffffffffffffffffffffffc3601126102205760409073ffffffffffffffffffffffffffffffffffffffff610bff612551565b168152600760209081528282206024358352815291902080546001909101546040805192835267ffffffffffffffff82169383019390935261ffff81841c811693830193909352605081901c9092166060808301919091529190911c608082015260a090f35b503461022057807ffffffffffffffffffffffffffffffffffffffffffffffffffffffffffffffffc36011261022057602060055460601c604051908152f35b503461022057610cb3366127e4565b90610cbc612927565b6040517f99fbab8800000000000000000000000000000000000000000000000000000000815283600482015261018090818160248173ffffffffffffffffffffffffffffffffffffffff7f0000000000000000000000000000000000000000000000000000000000000000165afa8015611253578687889189948a968b95611564575b50507f0000000000000000000000000000000000000000000000000000000000000000156115565790610d71916131c2565b604051907f22afcccb00000000000000000000000000000000000000000000000000000000825262ffffff8116600483015260208260248173ffffffffffffffffffffffffffffffffffffffff7f0000000000000000000000000000000000000000000000000000000000000000165afa91821561154b57899261150f575b508160020b156114d95750620d89e88160020b8107900360020b808560020b129081156114c7575b506114815750600460e073ffffffffffffffffffffffffffffffffffffffff600a5416604051928380927f3850c7bd0000000000000000000000000000000000000000000000000000000082525afa91821561147657889189936113b5575b506fffffffffffffffffffffffffffffffff168080600f0b0361137d577fffffffffffffffffffffffffffffffff8000000000000000000000000000000081600f0b1461135057600f0b88039160020b8360020b81126000146112955750507f00000000000000000000000000000000000000000000000000000000000000001561128c57610f2092610f15610f0f610f1b94613281565b91613281565b906137b0565b612cd3565b905b81156112625773ffffffffffffffffffffffffffffffffffffffff7f0000000000000000000000000000000000000000000000000000000000000000163b1561125e576040517f42842e0e000000000000000000000000000000000000000000000000000000008152336004820152306024820152604481018590528581606481837f000000000000000000000000000000000000000000000000000000000000000073ffffffffffffffffffffffffffffffffffffffff165af1801561125357611240575b5061ffff831680600052600960205261ffff6040600020541691821561120f5767ffffffffffffffff4211610990577f1dca4fbba1373d979ce5c2cca691dcbb941810336f0d01870865cc4139eb5d579261118473ffffffffffffffffffffffffffffffffffffffff9360055460405191611062836125b7565b88835267ffffffffffffffff42166020840152846040840152606083015260601c608082015284841660005260076020526040600020896000526020528460806001604060002084518155019267ffffffffffffffff6020820151168454907fffffffffffffffffffffffffffffffffffffffffffff0000000000000000000069ffff0000000000000000604085015160401b1692161717845561114661ffff60608301511685907fffffffffffffffffffffffffffffffffffffffff0000ffffffffffffffffffff6bffff0000000000000000000083549260501b169116179055565b015182546bffffffffffffffffffffffff16911660601b7fffffffffffffffffffffffffffffffffffffffff00000000000000000000000016179055565b6040517f40c10f1900000000000000000000000000000000000000000000000000000000602082015273ffffffffffffffffffffffffffffffffffffffff83166024820152604481018690526111e1906109308160648101610307565b50840260035401600355610986604051928392169533958390929161ffff6020916040840195845216910152565b602482604051907f1a497d9d0000000000000000000000000000000000000000000000000000000082526004820152fd5b61124c90959195612574565b9338610fe8565b6040513d88823e3d90fd5b8480fd5b60046040517f56c705df000000000000000000000000000000000000000000000000000000008152fd5b50505083610f20565b8460029593959492940b13600014611302577f0000000000000000000000000000000000000000000000000000000000000000156112e5575091610f1b91610f156112df94613281565b90610f22565b6112fd939150916112f8610f1b93613281565b613655565b6112df565b9150917f0000000000000000000000000000000000000000000000000000000000000000600014611337575050508390610f22565b6112fd9261134a610f0f610f1b94613281565b90613655565b6024897f4e487b710000000000000000000000000000000000000000000000000000000081526011600452fd5b604490604051907f327269a7000000000000000000000000000000000000000000000000000000008252608060048301526024820152fd5b9150915060e0813d60e01161146e575b816113d260e093836125d3565b8101031261146a5780519073ffffffffffffffffffffffffffffffffffffffff821682036114665761140660208201612c8c565b9161141360408301612cb7565b5061142060608301612cb7565b5061142d60808301612cb7565b5060a082015160ff8116036114625761145960c06fffffffffffffffffffffffffffffffff9301612cc6565b50919290610e77565b8980fd5b8880fd5b8780fd5b3d91506113c5565b6040513d8a823e3d90fd5b9050606492604051927f6397c4d000000000000000000000000000000000000000000000000000000000845260020b600484015260020b602483015260020b6044820152fd5b9050880360020b8360020b1338610e18565b60249062ffffff604051917fcd38fb71000000000000000000000000000000000000000000000000000000008352166004820152fd5b9091506020813d602011611543575b8161152b602093836125d3565b810103126114665761153c90612c8c565b9038610df0565b3d915061151e565b6040513d8b823e3d90fd5b61155f916131c2565b610d71565b955095505050505081813d8311611623575b61158081836125d3565b8101031261125e5780516bffffffffffffffffffffffff81160361125e576115aa602082016128a2565b506115b7604082016128a2565b6115c3606083016128a2565b608083015162ffffff8116810361146a576115e060a08501612c8c565b906115ed60c08601612c8c565b9361161561016061160060e08901612c9a565b9761160e6101408201612c9a565b5001612c9a565b509290919394923880610d3f565b503d611576565b503461022057807ffffffffffffffffffffffffffffffffffffffffffffffffffffffffffffffffc36011261022057602060045460601c604051908152f35b503461022057807ffffffffffffffffffffffffffffffffffffffffffffffffffffffffffffffffc3601126102205760025473ffffffffffffffffffffffffffffffffffffffff8082163303611716577fffffffffffffffffffffffff00000000000000000000000000000000000000008092166002556001549133908316176001553391167f3d1e4c3a68fed9f4f8315582b7297cf8fa264bc8e6704287603ba8c72bf05ac28380a380f35b60046040517fee90c468000000000000000000000000000000000000000000000000000000008152fd5b50346102205760207ffffffffffffffffffffffffffffffffffffffffffffffffffffffffffffffffc3601126102205760043561ffff9081811680910361179857826040916020945260098452205416604051908152f35b8280fd5b50346102205760209060016102496117b3366126fc565b916117bc612927565b33612962565b50346102205760207ffffffffffffffffffffffffffffffffffffffffffffffffffffffffffffffffc3601126102205773ffffffffffffffffffffffffffffffffffffffff6040602092600435815260088452205416604051908152f35b503461022057807ffffffffffffffffffffffffffffffffffffffffffffffffffffffffffffffffc36011261022057602060405173ffffffffffffffffffffffffffffffffffffffff7f0000000000000000000000000000000000000000000000000000000000000000168152f35b503461022057807ffffffffffffffffffffffffffffffffffffffffffffffffffffffffffffffffc3601126102205760206bffffffffffffffffffffffff60055416604051908152f35b50346102205760207ffffffffffffffffffffffffffffffffffffffffffffffffffffffffffffffffc3601126102205773ffffffffffffffffffffffffffffffffffffffff7f00000000000000000000000000000000000000000000000000000000000000001633036119d75761194e612927565b60045460601c6004358252600860205260408220907fffffffffffffffffffffffff00000000000000000000000000000000000000008254161790556004547fffffffffffffffffffffffffffffffffffffffff0000ffffffffffffffffffff6bffff00000000000000000000600161ffff8460501c160160501b169116176004556001815580f35b60246040517fcbd9d2e0000000000000000000000000000000000000000000000000000000008152336004820152fd5b503461022057611a16366126fc565b929173ffffffffffffffffffffffffffffffffffffffff7f00000000000000000000000000000000000000000000000000000000000000001633036119d75760209360019261024992611a67612927565b612ad9565b5034610220576020807ffffffffffffffffffffffffffffffffffffffffffffffffffffffffffffffffc360112611d135760043590611aa9612927565b60045461ffff8160501c1680158015611d09575b611cdf57600554916bffffffffffffffffffffffff92611adf868583166128c3565b848111611ca757841691827fffffffffffffffffffffffffffffffffffffffff0000000000000000000000008093161794856005556040517f70a08231000000000000000000000000000000000000000000000000000000008152306004820152878160248173ffffffffffffffffffffffffffffffffffffffff7f0000000000000000000000000000000000000000000000000000000000000000165afa908115611c9c578a91611c6f575b50848110611c385750918795939160a09795937fe62686e5ad45b0ff019211c4674d902c58195dd244eeb37b86d9fa717e93e7139960011c92611c0b611c03611be5868c039784611bf4611bea611be56003548c61304f565b612c33565b60609d8e1c6128ff565b8c1b161798896005558861304f565b84891c6128ff565b871b1691161794856004556040519687528601526040850152811c818401521c6080820152a16001815580f35b84604491604051917f1f388b3700000000000000000000000000000000000000000000000000000000835260048301526024820152fd5b90508781813d8311611c95575b611c8681836125d3565b81010312611462575138611b8c565b503d611c7c565b6040513d8c823e3d90fd5b604490604051907f6dfcc650000000000000000000000000000000000000000000000000000000008252606060048301526024820152fd5b60046040517f3fbb6808000000000000000000000000000000000000000000000000000000008152fd5b5060035415611abd565b5080fd5b503461022057611d2636612767565b611d31939193612927565b81928294836080604051611d44816125b7565b8281528260208201528260408201528260608201520152839184915b808310611dfa57602087600188611df18c8a8a60035403600355611d848682612e84565b6040517f9dc29fac000000000000000000000000000000000000000000000000000000008882015233602482015260448101839052611dca906103338160648101610307565b507f0000000000000000000000000000000000000000000000000000000000000000612bcc565b55604051908152f35b9091959296611e0a878385612892565b3593338752600660205260408720858852602052604087209860016040519a611e328c6125b7565b80548c52015467ffffffffffffffff811660208c015261ffff8160401c1660408c015261ffff8160501c168060608d01528160601c60808d015267ffffffffffffffff821615611fb55762015180809102428167ffffffffffffffff851601109283611f6d575b50505015611f3c5791611f339160019361ffff60408d518095019d0151168302019680611ec68133612d00565b9360405190815284602082015273ffffffffffffffffffffffffffffffffffffffff8b16907f9ad65b6c7ddab48c57c60229304ab9d8a7726f680d2319c0704c705eb3f8c63560403392a4338a52600660205260408a20908a5260205288846040822082815501556128c3565b96019190611d60565b602486604051907fba9320a60000000000000000000000000000000000000000000000000000000082526004820152fd5b611f8492935067ffffffffffffffff164203613277565b9061ffff7f000000000000000000000000000000000000000000000000000000000000000016021015388080611e99565b602488604051907fec14d0430000000000000000000000000000000000000000000000000000000082526004820152fd5b503461022057611ff5366126fc565b91611ffe612927565b8373ffffffffffffffffffffffffffffffffffffffff807f000000000000000000000000000000000000000000000000000000000000000016915b858110612050576020876001610249898989612ad9565b61205b818787612892565b35604051907f6352211e00000000000000000000000000000000000000000000000000000000825260048201526020908181602481885afa90811561154b5784928a92612103575b50501633036120b457600101612039565b6120c26120ff918787612892565b6040517f848efb8b000000000000000000000000000000000000000000000000000000008152336004820152903560248201529081906044820190565b0390fd5b8193508092503d8311612134575b61211b81836125d3565b8101031261146a5761212d83916128a2565b38806120a3565b503d612111565b5034610220576020807ffffffffffffffffffffffffffffffffffffffffffffffffffffffffffffffffc360112611d135760043567ffffffffffffffff8082116122b457366023830112156122b45781600401359081116122b4576024820191602436918360061b0101116122b457916121b3612927565b6121bb612a92565b835b838110612245575060405192808285018386525260408401929185905b82821061220f57867f9feca5fd86c6db4660bbded0f398728f61d0e3e159c375d54aad00c89094b4c187870388a16001815580f35b9091929360408060019261ffff806122268a6127d5565b168252612234868a016127d5565b1681860152019501939201906121da565b806122608361225a6001948888999799612844565b01612883565b61ffff8061227761227285888a612844565b612883565b168852600987526040882091167fffffffffffffffffffffffffffffffffffffffffffffffffffffffffffff0000825416179055019290926121bd565b8380fd5b503461022057807ffffffffffffffffffffffffffffffffffffffffffffffffffffffffffffffffc36011261022057602073ffffffffffffffffffffffffffffffffffffffff60025416604051908152f35b5034610220576123193661267f565b73ffffffffffffffffffffffffffffffffffffffff949391947f00000000000000000000000000000000000000000000000000000000000000001633036119d7576020946001936102499361236c612927565b6129fb565b5034610220576123803661267f565b73ffffffffffffffffffffffffffffffffffffffff949391947f00000000000000000000000000000000000000000000000000000000000000001633036119d757602094600193610249936123d3612927565b612962565b503461022057807ffffffffffffffffffffffffffffffffffffffffffffffffffffffffffffffffc36011261022057602073ffffffffffffffffffffffffffffffffffffffff600a5416604051908152f35b50346102205760807ffffffffffffffffffffffffffffffffffffffffffffffffffffffffffffffffc36011261022057612462612551565b5060243573ffffffffffffffffffffffffffffffffffffffff8116036102205760643567ffffffffffffffff8111611d135736602382011215611d135780600401356124ad81612614565b6124ba60405191826125d3565b81815236602483850101116122b457816024602094018483013701015260206040517f150b7a02000000000000000000000000000000000000000000000000000000008152f35b905034611d1357817ffffffffffffffffffffffffffffffffffffffffffffffffffffffffffffffffc360112611d135760209073ffffffffffffffffffffffffffffffffffffffff600154168152f35b6004359073ffffffffffffffffffffffffffffffffffffffff821682036105ba57565b67ffffffffffffffff811161258857604052565b7f4e487b7100000000000000000000000000000000000000000000000000000000600052604160045260246000fd5b60a0810190811067ffffffffffffffff82111761258857604052565b90601f7fffffffffffffffffffffffffffffffffffffffffffffffffffffffffffffffe0910116810190811067ffffffffffffffff82111761258857604052565b67ffffffffffffffff811161258857601f017fffffffffffffffffffffffffffffffffffffffffffffffffffffffffffffffe01660200190565b9181601f840112156105ba5782359167ffffffffffffffff83116105ba576020808501948460051b0101116105ba57565b60607ffffffffffffffffffffffffffffffffffffffffffffffffffffffffffffffffc8201126105ba5773ffffffffffffffffffffffffffffffffffffffff9160043583811681036105ba579260243590811681036105ba57916044359067ffffffffffffffff82116105ba576126f89160040161264e565b9091565b9060407ffffffffffffffffffffffffffffffffffffffffffffffffffffffffffffffffc8301126105ba5760043573ffffffffffffffffffffffffffffffffffffffff811681036105ba57916024359067ffffffffffffffff82116105ba576126f89160040161264e565b60407ffffffffffffffffffffffffffffffffffffffffffffffffffffffffffffffffc8201126105ba576004359067ffffffffffffffff82116105ba576127b09160040161264e565b909160243573ffffffffffffffffffffffffffffffffffffffff811681036105ba5790565b359061ffff821682036105ba57565b7ffffffffffffffffffffffffffffffffffffffffffffffffffffffffffffffffc60609101126105ba576004359060243573ffffffffffffffffffffffffffffffffffffffff811681036105ba579060443561ffff811681036105ba5790565b91908110156128545760061b0190565b7f4e487b7100000000000000000000000000000000000000000000000000000000600052603260045260246000fd5b3561ffff811681036105ba5790565b91908110156128545760051b0190565b519073ffffffffffffffffffffffffffffffffffffffff821682036105ba57565b919082018092116128d057565b7f4e487b7100000000000000000000000000000000000000000000000000000000600052601160045260246000fd5b91909173ffffffffffffffffffffffffffffffffffffffff808094169116019182116128d057565b600260005414612938576002600055565b60046040517f3ee5aeb5000000000000000000000000000000000000000000000000000000008152fd5b939290916000946000925b80841061298457505050508261298291612e84565b565b909192956129f1600191612999898588612892565b35906129a58287612d00565b9173ffffffffffffffffffffffffffffffffffffffff6040518481527fdcdcaef5de7ddddb7ef392b97e6b32c1c43fd5f5ed468fd987baaa3c5252f5f56020838d16938b1692a46128c3565b960192919061296d565b939290916000946000925b808410612a1b57505050508261298291612e84565b90919295612a88600191612a30898588612892565b3590612a3c8287612de8565b9173ffffffffffffffffffffffffffffffffffffffff6040518481527f9f7e5453b9d8b4e9619738de7cebd5091617fb2b055252f69720cf573aa825316020838d16938b1692a46128c3565b9601929190612a06565b73ffffffffffffffffffffffffffffffffffffffff60015416330361171657565b73ffffffffffffffffffffffffffffffffffffffff91821690821603919082116128d057565b909291600093849160009060045460601c9060005b818110612b0357505050505061298291612e84565b909192939450612b14818387612892565b35808552600860209080825273ffffffffffffffffffffffffffffffffffffffff60409b818d8a205416612b489089612ab3565b8d1c6bffffffffffffffffffffffff1692858a528452828d8a208981547fffffffffffffffffffffffff000000000000000000000000000000000000000016179055612b93916128c3565b9b519182528916917f67d2b0656e15e567a194797ee82ae085f2dad6cf0da46e6f1683dded0d1f8ae391a3600101908794939291612aee565b6040517fa9059cbb00000000000000000000000000000000000000000000000000000000602082015273ffffffffffffffffffffffffffffffffffffffff92909216602483015260448083019390935291815261298291612c2e6064836125d3565b612f8b565b73ffffffffffffffffffffffffffffffffffffffff90818111612c54571690565b604490604051907f6dfcc65000000000000000000000000000000000000000000000000000000000825260a060048301526024820152fd5b51908160020b82036105ba57565b51906fffffffffffffffffffffffffffffffff821682036105ba57565b519061ffff821682036105ba57565b519081151582036105ba57565b7f800000000000000000000000000000000000000000000000000000000000000081146128d05760000390565b61298290929192600173ffffffffffffffffffffffffffffffffffffffff8092169460008681526006602052604091828220818352602052612d986080848420968551612d4c816125b7565b878954998a835201549067ffffffffffffffff8216602082015261ffff9182818a1c1692838a8401528160501c16606083015260601c938491015260055460601c98029188031661315a565b97825260066020528282209082526020522001906bffffffffffffffffffffffff7fffffffffffffffffffffffffffffffffffffffff00000000000000000000000083549260601b169116179055565b61298290929192600173ffffffffffffffffffffffffffffffffffffffff8092169460008681526007602052604091828220818352602052612e346080848420968551612d4c816125b7565b97825260076020528282209082526020522001906bffffffffffffffffffffffff7fffffffffffffffffffffffffffffffffffffffff00000000000000000000000083549260601b169116179055565b90600554916bffffffffffffffffffffffff928381168381039081116128d057612982947fffffffffffffffffffffffffffffffffffffffff00000000000000000000000091169116176005557f0000000000000000000000000000000000000000000000000000000000000000612bcc565b60405190604082019282841067ffffffffffffffff8511176125885760008091612f8095604052601e85527f416464726573733a206c6f772d6c6576656c2063616c6c206661696c65640000602086015260208151910182855af13d15612f83573d91612f6383612614565b92612f7160405194856125d3565b83523d6000602085013e613970565b90565b606091613970565b73ffffffffffffffffffffffffffffffffffffffff612fac91169182612ef7565b8051908115159182612ff3575b5050612fc25750565b602490604051907f5274afe70000000000000000000000000000000000000000000000000000000082526004820152fd5b81925090602091810103126105ba57602061300e9101612cc6565b153880612fb9565b8115613020570490565b7f4e487b7100000000000000000000000000000000000000000000000000000000600052601260045260246000fd5b9068010000000000000000907fffffffffffffffffffffffffffffffffffffffffffffffffffffffffffffffff828409928060401b9283808610950394808603951461314d57848311156130ef578291096001821901821680920460028082600302188083028203028083028203028083028203028083028203028083028203028092029003029360018380600003040190848311900302920304170290565b60646040517f08c379a000000000000000000000000000000000000000000000000000000000815260206004820152601560248201527f4d6174683a206d756c446976206f766572666c6f7700000000000000000000006044820152fd5b505090612f809250613016565b7fffffffffffffffffffffffffffffffffffffffffffffffffffffffffffffffff82820990828102928380841093039280840393146131b9576801000000000000000091838311156130ef570990828211900360c01b910360401c1790565b50505060401c90565b73ffffffffffffffffffffffffffffffffffffffff8091169182827f00000000000000000000000000000000000000000000000000000000000000001614801590613249575b61321157505050565b60449350604051927f63dfcf920000000000000000000000000000000000000000000000000000000084526004840152166024820152fd5b50818116827f0000000000000000000000000000000000000000000000000000000000000000161415613208565b8115613020570690565b60020b600081121561364f5780600003905b620d89e882116136255760018216156135fc5770ffffffffffffffffffffffffffffffffff6ffffcb933bd6fad37aa2d162d1a5940015b1691600281166135e0575b600481166135c4575b600881166135a8575b6010811661358c575b60208116613570575b60408116613554575b608090818116613539575b610100811661351e575b6102008116613503575b61040081166134e8575b61080081166134cd575b61100081166134b2575b6120008116613497575b614000811661347c575b6180008116613461575b620100008116613446575b62020000811661342c575b620400008116613412575b62080000166133f7575b506000126133ca575b73ffffffffffffffffffffffffffffffffffffffff9063ffffffff81166133c15760ff60005b169060201c011690565b60ff60016133b7565b8015613020577fffffffffffffffffffffffffffffffffffffffffffffffffffffffffffffffff04613391565b6b048a170391f7dc42444e8fa26000929302901c9190613388565b6d2216e584f5fa1ea926041bedfe98909302811c9261337e565b926e5d6af8dedb81196699c329225ee60402811c92613373565b926f09aa508b5b7a84e1c677de54f3e99bc902811c92613368565b926f31be135f97d08fd981231505542fcfa602811c9261335d565b926f70d869a156d2a1b890bb3df62baf32f702811c92613353565b926fa9f746462d870fdf8a65dc1f90e061e502811c92613349565b926fd097f3bdfd2022b8845ad8f792aa582502811c9261333f565b926fe7159475a2c29b7443b29c7fa6e889d902811c92613335565b926ff3392b0822b70005940c7a398e4b70f302811c9261332b565b926ff987a7253ac413176f2b074cf7815e5402811c92613321565b926ffcbe86c7900a88aedcffc83b479aa3a402811c92613317565b926ffe5dee046a99a2a811c461f1969c305302811c9261330d565b916fff2ea16466c96a3843ec78b326b528610260801c91613302565b916fff973b41fa98c081472e6896dfb254c00260801c916132f9565b916fffcb9843d60f6159c9db58835c9266440260801c916132f0565b916fffe5caca7e10e4e61c3624eaa0941cd00260801c916132e7565b916ffff2e50f5f656932ef12357cf3c7fdcc0260801c916132de565b916ffff97272373d413259a46990580e213a0260801c916132d5565b70ffffffffffffffffffffffffffffffffff7001000000000000000000000000000000006132ca565b60046040517fce8ef7fc000000000000000000000000000000000000000000000000000000008152fd5b80613293565b91909160008083600f0b126000146136ef575061369b836136b794839173ffffffffffffffffffffffffffffffffffffffff94858216868216116136e4575b5050612ab3565b16906000036fffffffffffffffffffffffffffffffff16613a92565b7f7fffffffffffffffffffffffffffffffffffffffffffffffffffffffffffffff81116105ba5760000390565b915091503880613694565b91906137416c01000000000000000000000000926fffffffffffffffffffffffffffffffff169480839173ffffffffffffffffffffffffffffffffffffffff94858216868216116136e4575050612ab3565b1661374c8185613a92565b930961377e575b7f7fffffffffffffffffffffffffffffffffffffffffffffffffffffffffffffff8211610220575090565b907fffffffffffffffffffffffffffffffffffffffffffffffffffffffffffffffff811015611d135760010190613753565b91909160008083600f0b1260001461383c575082819373ffffffffffffffffffffffffffffffffffffffff9283821684821611613831575b50508184169283156105ba577bffffffffffffffffffffffffffffffff000000000000000000000000836136b79661382c9585169403169160000360601b16613b00565b613016565b9150935038806137e8565b9273ffffffffffffffffffffffffffffffffffffffff92909190828285821686821611613949575b50507bffffffffffffffffffffffffffffffff0000000000000000000000009060601b169280808385031692169283156139455716906138a5828286613b00565b93821561391857096138e6575b8082061515910401907f7fffffffffffffffffffffffffffffffffffffffffffffffffffffffffffffff8211610220575090565b907fffffffffffffffffffffffffffffffffffffffffffffffffffffffffffffffff81101561179857600101906138b2565b6024867f4e487b710000000000000000000000000000000000000000000000000000000081526012600452fd5b8580fd5b935091507bffffffffffffffffffffffffffffffff00000000000000000000000038613864565b919290156139eb5750815115613984575090565b3b1561398d5790565b60646040517f08c379a000000000000000000000000000000000000000000000000000000000815260206004820152601d60248201527f416464726573733a2063616c6c20746f206e6f6e2d636f6e74726163740000006044820152fd5b8251909150156139fe5750805190602001fd5b604051907f08c379a000000000000000000000000000000000000000000000000000000000825281602080600483015282519283602484015260005b848110613a7b575050507fffffffffffffffffffffffffffffffffffffffffffffffffffffffffffffffe0601f836000604480968601015201168101030190fd5b818101830151868201604401528593508201613a3a565b90808202917fffffffffffffffffffffffffffffffffffffffffffffffffffffffffffffffff8282099183808410930391838303936c0100000000000000000000000093858511156105ba5714613af6570990828211900360a01b910360601c1790565b5050505060601c90565b91818302917fffffffffffffffffffffffffffffffffffffffffffffffffffffffffffffffff818509938380861095039480860395868511156105ba5714613b94579082910981806000031680920460028082600302188083028203028083028203028083028203028083028203028083028203028092029003029360018380600003040190848311900302920304170290565b50509150049056fea2646970667358221220459a3be1eb29ca0ea32a0d1073da6c1fd27b95c8e7a6339a4722d4bdcfd2ba5264736f6c63430008180033",
  "linkReferences": {},
  "deployedLinkReferences": {}
}