{
  "_format": "hh-sol-artifact-1",
  "contractName": "EQUGovernor",
  "sourceName": "contracts/governance/EQUGovernor.sol",
  "abi": [
    {
      "inputs": [
        {
          "internalType": "contract IVotes",
          "name": "_token",
          "type": "address"
        },
        {
          "internalType": "contract IEFCGovernor",
          "name": "_EFCGovernor",
          "type": "address"
        }
      ],
      "stateMutability": "nonpayable",
      "type": "constructor"
    },
    {
      "inputs": [],
      "name": "CallerIsNotEFCGovernor",
      "type": "error"
    },
    {
      "inputs": [],
      "name": "Empty",
      "type": "error"
    },
    {
      "inputs": [],
      "name": "HashProposalNotTheSame",
      "type": "error"
    },
    {
      "inputs": [],
      "name": "InvalidShortString",
      "type": "error"
    },
    {
      "inputs": [
        {
          "internalType": "string",
          "name": "str",
          "type": "string"
        }
      ],
      "name": "StringTooLong",
      "type": "error"
    },
    {
      "anonymous": false,
      "inputs": [],
      "name": "EIP712DomainChanged",
      "type": "event"
    },
    {
      "anonymous": false,
      "inputs": [
        {
          "indexed": false,
          "internalType": "uint256",
          "name": "proposalId",
          "type": "uint256"
        }
      ],
      "name": "ProposalCanceled",
      "type": "event"
    },
    {
      "anonymous": false,
      "inputs": [
        {
          "indexed": false,
          "internalType": "uint256",
          "name": "proposalId",
          "type": "uint256"
        },
        {
          "indexed": false,
          "internalType": "address",
          "name": "proposer",
          "type": "address"
        },
        {
          "indexed": false,
          "internalType": "address[]",
          "name": "targets",
          "type": "address[]"
        },
        {
          "indexed": false,
          "internalType": "uint256[]",
          "name": "values",
          "type": "uint256[]"
        },
        {
          "indexed": false,
          "internalType": "string[]",
          "name": "signatures",
          "type": "string[]"
        },
        {
          "indexed": false,
          "internalType": "bytes[]",
          "name": "calldatas",
          "type": "bytes[]"
        },
        {
          "indexed": false,
          "internalType": "uint256",
          "name": "voteStart",
          "type": "uint256"
        },
        {
          "indexed": false,
          "internalType": "uint256",
          "name": "voteEnd",
          "type": "uint256"
        },
        {
          "indexed": false,
          "internalType": "string",
          "name": "description",
          "type": "string"
        }
      ],
      "name": "ProposalCreated",
      "type": "event"
    },
    {
      "anonymous": false,
      "inputs": [
        {
          "indexed": false,
          "internalType": "uint256",
          "name": "proposalId",
          "type": "uint256"
        }
      ],
      "name": "ProposalExecuted",
      "type": "event"
    },
    {
      "anonymous": false,
      "inputs": [
        {
          "indexed": false,
          "internalType": "uint256",
          "name": "oldProposalThreshold",
          "type": "uint256"
        },
        {
          "indexed": false,
          "internalType": "uint256",
          "name": "newProposalThreshold",
          "type": "uint256"
        }
      ],
      "name": "ProposalThresholdSet",
      "type": "event"
    },
    {
      "anonymous": false,
      "inputs": [
        {
          "indexed": false,
          "internalType": "uint256",
          "name": "oldQuorumNumerator",
          "type": "uint256"
        },
        {
          "indexed": false,
          "internalType": "uint256",
          "name": "newQuorumNumerator",
          "type": "uint256"
        }
      ],
      "name": "QuorumNumeratorUpdated",
      "type": "event"
    },
    {
      "anonymous": false,
      "inputs": [
        {
          "indexed": true,
          "internalType": "address",
          "name": "voter",
          "type": "address"
        },
        {
          "indexed": false,
          "internalType": "uint256",
          "name": "proposalId",
          "type": "uint256"
        },
        {
          "indexed": false,
          "internalType": "uint8",
          "name": "support",
          "type": "uint8"
        },
        {
          "indexed": false,
          "internalType": "uint256",
          "name": "weight",
          "type": "uint256"
        },
        {
          "indexed": false,
          "internalType": "string",
          "name": "reason",
          "type": "string"
        }
      ],
      "name": "VoteCast",
      "type": "event"
    },
    {
      "anonymous": false,
      "inputs": [
        {
          "indexed": true,
          "internalType": "address",
          "name": "voter",
          "type": "address"
        },
        {
          "indexed": false,
          "internalType": "uint256",
          "name": "proposalId",
          "type": "uint256"
        },
        {
          "indexed": false,
          "internalType": "uint8",
          "name": "support",
          "type": "uint8"
        },
        {
          "indexed": false,
          "internalType": "uint256",
          "name": "weight",
          "type": "uint256"
        },
        {
          "indexed": false,
          "internalType": "string",
          "name": "reason",
          "type": "string"
        },
        {
          "indexed": false,
          "internalType": "bytes",
          "name": "params",
          "type": "bytes"
        }
      ],
      "name": "VoteCastWithParams",
      "type": "event"
    },
    {
      "anonymous": false,
      "inputs": [
        {
          "indexed": false,
          "internalType": "uint256",
          "name": "oldVotingDelay",
          "type": "uint256"
        },
        {
          "indexed": false,
          "internalType": "uint256",
          "name": "newVotingDelay",
          "type": "uint256"
        }
      ],
      "name": "VotingDelaySet",
      "type": "event"
    },
    {
      "anonymous": false,
      "inputs": [
        {
          "indexed": false,
          "internalType": "uint256",
          "name": "oldVotingPeriod",
          "type": "uint256"
        },
        {
          "indexed": false,
          "internalType": "uint256",
          "name": "newVotingPeriod",
          "type": "uint256"
        }
      ],
      "name": "VotingPeriodSet",
      "type": "event"
    },
    {
      "inputs": [],
      "name": "BALLOT_TYPEHASH",
      "outputs": [
        {
          "internalType": "bytes32",
          "name": "",
          "type": "bytes32"
        }
      ],
      "stateMutability": "view",
      "type": "function"
    },
    {
      "inputs": [],
      "name": "CLOCK_MODE",
      "outputs": [
        {
          "internalType": "string",
          "name": "",
          "type": "string"
        }
      ],
      "stateMutability": "view",
      "type": "function"
    },
    {
      "inputs": [],
      "name": "COUNTING_MODE",
      "outputs": [
        {
          "internalType": "string",
          "name": "",
          "type": "string"
        }
      ],
      "stateMutability": "pure",
      "type": "function"
    },
    {
      "inputs": [],
      "name": "EFCGovernor",
      "outputs": [
        {
          "internalType": "contract IEFCGovernor",
          "name": "",
          "type": "address"
        }
      ],
      "stateMutability": "view",
      "type": "function"
    },
    {
      "inputs": [],
      "name": "EXTENDED_BALLOT_TYPEHASH",
      "outputs": [
        {
          "internalType": "bytes32",
          "name": "",
          "type": "bytes32"
        }
      ],
      "stateMutability": "view",
      "type": "function"
    },
    {
      "inputs": [
        {
          "internalType": "uint256",
          "name": "proposalId",
          "type": "uint256"
        },
        {
          "internalType": "address[]",
          "name": "targets",
          "type": "address[]"
        },
        {
          "internalType": "uint256[]",
          "name": "values",
          "type": "uint256[]"
        },
        {
          "internalType": "bytes[]",
          "name": "calldatas",
          "type": "bytes[]"
        },
        {
          "internalType": "bytes32",
          "name": "descriptionHash",
          "type": "bytes32"
        }
      ],
      "name": "afterExecute",
      "outputs": [],
      "stateMutability": "nonpayable",
      "type": "function"
    },
    {
      "inputs": [
        {
          "internalType": "uint256",
          "name": "proposalId",
          "type": "uint256"
        },
        {
          "internalType": "address[]",
          "name": "targets",
          "type": "address[]"
        },
        {
          "internalType": "uint256[]",
          "name": "values",
          "type": "uint256[]"
        },
        {
          "internalType": "bytes[]",
          "name": "calldatas",
          "type": "bytes[]"
        },
        {
          "internalType": "bytes32",
          "name": "descriptionHash",
          "type": "bytes32"
        }
      ],
      "name": "beforeExecute",
      "outputs": [],
      "stateMutability": "nonpayable",
      "type": "function"
    },
    {
      "inputs": [
        {
          "internalType": "address[]",
          "name": "targets",
          "type": "address[]"
        },
        {
          "internalType": "uint256[]",
          "name": "values",
          "type": "uint256[]"
        },
        {
          "internalType": "bytes[]",
          "name": "calldatas",
          "type": "bytes[]"
        },
        {
          "internalType": "bytes32",
          "name": "descriptionHash",
          "type": "bytes32"
        }
      ],
      "name": "cancel",
      "outputs": [
        {
          "internalType": "uint256",
          "name": "",
          "type": "uint256"
        }
      ],
      "stateMutability": "nonpayable",
      "type": "function"
    },
    {
      "inputs": [
        {
          "internalType": "uint256",
          "name": "proposalId",
          "type": "uint256"
        },
        {
          "internalType": "uint8",
          "name": "support",
          "type": "uint8"
        }
      ],
      "name": "castVote",
      "outputs": [
        {
          "internalType": "uint256",
          "name": "",
          "type": "uint256"
        }
      ],
      "stateMutability": "nonpayable",
      "type": "function"
    },
    {
      "inputs": [
        {
          "internalType": "uint256",
          "name": "proposalId",
          "type": "uint256"
        },
        {
          "internalType": "uint8",
          "name": "support",
          "type": "uint8"
        },
        {
          "internalType": "uint8",
          "name": "v",
          "type": "uint8"
        },
        {
          "internalType": "bytes32",
          "name": "r",
          "type": "bytes32"
        },
        {
          "internalType": "bytes32",
          "name": "s",
          "type": "bytes32"
        }
      ],
      "name": "castVoteBySig",
      "outputs": [
        {
          "internalType": "uint256",
          "name": "",
          "type": "uint256"
        }
      ],
      "stateMutability": "nonpayable",
      "type": "function"
    },
    {
      "inputs": [
        {
          "internalType": "uint256",
          "name": "proposalId",
          "type": "uint256"
        },
        {
          "internalType": "uint8",
          "name": "support",
          "type": "uint8"
        },
        {
          "internalType": "string",
          "name": "reason",
          "type": "string"
        }
      ],
      "name": "castVoteWithReason",
      "outputs": [
        {
          "internalType": "uint256",
          "name": "",
          "type": "uint256"
        }
      ],
      "stateMutability": "nonpayable",
      "type": "function"
    },
    {
      "inputs": [
        {
          "internalType": "uint256",
          "name": "proposalId",
          "type": "uint256"
        },
        {
          "internalType": "uint8",
          "name": "support",
          "type": "uint8"
        },
        {
          "internalType": "string",
          "name": "reason",
          "type": "string"
        },
        {
          "internalType": "bytes",
          "name": "params",
          "type": "bytes"
        }
      ],
      "name": "castVoteWithReasonAndParams",
      "outputs": [
        {
          "internalType": "uint256",
          "name": "",
          "type": "uint256"
        }
      ],
      "stateMutability": "nonpayable",
      "type": "function"
    },
    {
      "inputs": [
        {
          "internalType": "uint256",
          "name": "proposalId",
          "type": "uint256"
        },
        {
          "internalType": "uint8",
          "name": "support",
          "type": "uint8"
        },
        {
          "internalType": "string",
          "name": "reason",
          "type": "string"
        },
        {
          "internalType": "bytes",
          "name": "params",
          "type": "bytes"
        },
        {
          "internalType": "uint8",
          "name": "v",
          "type": "uint8"
        },
        {
          "internalType": "bytes32",
          "name": "r",
          "type": "bytes32"
        },
        {
          "internalType": "bytes32",
          "name": "s",
          "type": "bytes32"
        }
      ],
      "name": "castVoteWithReasonAndParamsBySig",
      "outputs": [
        {
          "internalType": "uint256",
          "name": "",
          "type": "uint256"
        }
      ],
      "stateMutability": "nonpayable",
      "type": "function"
    },
    {
      "inputs": [],
      "name": "clock",
      "outputs": [
        {
          "internalType": "uint48",
          "name": "",
          "type": "uint48"
        }
      ],
      "stateMutability": "view",
      "type": "function"
    },
    {
      "inputs": [],
      "name": "eip712Domain",
      "outputs": [
        {
          "internalType": "bytes1",
          "name": "fields",
          "type": "bytes1"
        },
        {
          "internalType": "string",
          "name": "name",
          "type": "string"
        },
        {
          "internalType": "string",
          "name": "version",
          "type": "string"
        },
        {
          "internalType": "uint256",
          "name": "chainId",
          "type": "uint256"
        },
        {
          "internalType": "address",
          "name": "verifyingContract",
          "type": "address"
        },
        {
          "internalType": "bytes32",
          "name": "salt",
          "type": "bytes32"
        },
        {
          "internalType": "uint256[]",
          "name": "extensions",
          "type": "uint256[]"
        }
      ],
      "stateMutability": "view",
      "type": "function"
    },
    {
      "inputs": [
        {
          "internalType": "address[]",
          "name": "targets",
          "type": "address[]"
        },
        {
          "internalType": "uint256[]",
          "name": "values",
          "type": "uint256[]"
        },
        {
          "internalType": "bytes[]",
          "name": "calldatas",
          "type": "bytes[]"
        },
        {
          "internalType": "bytes32",
          "name": "descriptionHash",
          "type": "bytes32"
        }
      ],
      "name": "execute",
      "outputs": [
        {
          "internalType": "uint256",
          "name": "",
          "type": "uint256"
        }
      ],
      "stateMutability": "payable",
      "type": "function"
    },
    {
      "inputs": [
        {
          "internalType": "address",
          "name": "account",
          "type": "address"
        },
        {
          "internalType": "uint256",
          "name": "timepoint",
          "type": "uint256"
        }
      ],
      "name": "getVotes",
      "outputs": [
        {
          "internalType": "uint256",
          "name": "",
          "type": "uint256"
        }
      ],
      "stateMutability": "view",
      "type": "function"
    },
    {
      "inputs": [
        {
          "internalType": "address",
          "name": "account",
          "type": "address"
        },
        {
          "internalType": "uint256",
          "name": "timepoint",
          "type": "uint256"
        },
        {
          "internalType": "bytes",
          "name": "params",
          "type": "bytes"
        }
      ],
      "name": "getVotesWithParams",
      "outputs": [
        {
          "internalType": "uint256",
          "name": "",
          "type": "uint256"
        }
      ],
      "stateMutability": "view",
      "type": "function"
    },
    {
      "inputs": [
        {
          "internalType": "uint256",
          "name": "proposalId",
          "type": "uint256"
        },
        {
          "internalType": "address",
          "name": "account",
          "type": "address"
        }
      ],
      "name": "hasVoted",
      "outputs": [
        {
          "internalType": "bool",
          "name": "",
          "type": "bool"
        }
      ],
      "stateMutability": "view",
      "type": "function"
    },
    {
      "inputs": [
        {
          "internalType": "address[]",
          "name": "targets",
          "type": "address[]"
        },
        {
          "internalType": "uint256[]",
          "name": "values",
          "type": "uint256[]"
        },
        {
          "internalType": "bytes[]",
          "name": "calldatas",
          "type": "bytes[]"
        },
        {
          "internalType": "bytes32",
          "name": "descriptionHash",
          "type": "bytes32"
        }
      ],
      "name": "hashProposal",
      "outputs": [
        {
          "internalType": "uint256",
          "name": "",
          "type": "uint256"
        }
      ],
      "stateMutability": "pure",
      "type": "function"
    },
    {
      "inputs": [],
      "name": "name",
      "outputs": [
        {
          "internalType": "string",
          "name": "",
          "type": "string"
        }
      ],
      "stateMutability": "view",
      "type": "function"
    },
    {
      "inputs": [
        {
          "internalType": "address",
          "name": "",
          "type": "address"
        },
        {
          "internalType": "address",
          "name": "",
          "type": "address"
        },
        {
          "internalType": "uint256[]",
          "name": "",
          "type": "uint256[]"
        },
        {
          "internalType": "uint256[]",
          "name": "",
          "type": "uint256[]"
        },
        {
          "internalType": "bytes",
          "name": "",
          "type": "bytes"
        }
      ],
      "name": "onERC1155BatchReceived",
      "outputs": [
        {
          "internalType": "bytes4",
          "name": "",
          "type": "bytes4"
        }
      ],
      "stateMutability": "nonpayable",
      "type": "function"
    },
    {
      "inputs": [
        {
          "internalType": "address",
          "name": "",
          "type": "address"
        },
        {
          "internalType": "address",
          "name": "",
          "type": "address"
        },
        {
          "internalType": "uint256",
          "name": "",
          "type": "uint256"
        },
        {
          "internalType": "uint256",
          "name": "",
          "type": "uint256"
        },
        {
          "internalType": "bytes",
          "name": "",
          "type": "bytes"
        }
      ],
      "name": "onERC1155Received",
      "outputs": [
        {
          "internalType": "bytes4",
          "name": "",
          "type": "bytes4"
        }
      ],
      "stateMutability": "nonpayable",
      "type": "function"
    },
    {
      "inputs": [
        {
          "internalType": "address",
          "name": "",
          "type": "address"
        },
        {
          "internalType": "address",
          "name": "",
          "type": "address"
        },
        {
          "internalType": "uint256",
          "name": "",
          "type": "uint256"
        },
        {
          "internalType": "bytes",
          "name": "",
          "type": "bytes"
        }
      ],
      "name": "onERC721Received",
      "outputs": [
        {
          "internalType": "bytes4",
          "name": "",
          "type": "bytes4"
        }
      ],
      "stateMutability": "nonpayable",
      "type": "function"
    },
    {
      "inputs": [
        {
          "internalType": "uint256",
          "name": "proposalId",
          "type": "uint256"
        }
      ],
      "name": "proposalDeadline",
      "outputs": [
        {
          "internalType": "uint256",
          "name": "",
          "type": "uint256"
        }
      ],
      "stateMutability": "view",
      "type": "function"
    },
    {
      "inputs": [
        {
          "internalType": "uint256",
          "name": "proposalId",
          "type": "uint256"
        }
      ],
      "name": "proposalProposer",
      "outputs": [
        {
          "internalType": "address",
          "name": "",
          "type": "address"
        }
      ],
      "stateMutability": "view",
      "type": "function"
    },
    {
      "inputs": [
        {
          "internalType": "uint256",
          "name": "proposalId",
          "type": "uint256"
        }
      ],
      "name": "proposalSnapshot",
      "outputs": [
        {
          "internalType": "uint256",
          "name": "",
          "type": "uint256"
        }
      ],
      "stateMutability": "view",
      "type": "function"
    },
    {
      "inputs": [],
      "name": "proposalThreshold",
      "outputs": [
        {
          "internalType": "uint256",
          "name": "",
          "type": "uint256"
        }
      ],
      "stateMutability": "view",
      "type": "function"
    },
    {
      "inputs": [
        {
          "internalType": "uint256",
          "name": "proposalId",
          "type": "uint256"
        }
      ],
      "name": "proposalVotes",
      "outputs": [
        {
          "internalType": "uint256",
          "name": "againstVotes",
          "type": "uint256"
        },
        {
          "internalType": "uint256",
          "name": "forVotes",
          "type": "uint256"
        },
        {
          "internalType": "uint256",
          "name": "abstainVotes",
          "type": "uint256"
        }
      ],
      "stateMutability": "view",
      "type": "function"
    },
    {
      "inputs": [
        {
          "internalType": "address[]",
          "name": "targets",
          "type": "address[]"
        },
        {
          "internalType": "uint256[]",
          "name": "values",
          "type": "uint256[]"
        },
        {
          "internalType": "bytes[]",
          "name": "calldatas",
          "type": "bytes[]"
        },
        {
          "internalType": "string",
          "name": "description",
          "type": "string"
        }
      ],
      "name": "propose",
      "outputs": [
        {
          "internalType": "uint256",
          "name": "",
          "type": "uint256"
        }
      ],
      "stateMutability": "nonpayable",
      "type": "function"
    },
    {
      "inputs": [
        {
          "internalType": "uint256",
          "name": "blockNumber",
          "type": "uint256"
        }
      ],
      "name": "quorum",
      "outputs": [
        {
          "internalType": "uint256",
          "name": "",
          "type": "uint256"
        }
      ],
      "stateMutability": "view",
      "type": "function"
    },
    {
      "inputs": [],
      "name": "quorumDenominator",
      "outputs": [
        {
          "internalType": "uint256",
          "name": "",
          "type": "uint256"
        }
      ],
      "stateMutability": "view",
      "type": "function"
    },
    {
      "inputs": [
        {
          "internalType": "uint256",
          "name": "timepoint",
          "type": "uint256"
        }
      ],
      "name": "quorumNumerator",
      "outputs": [
        {
          "internalType": "uint256",
          "name": "",
          "type": "uint256"
        }
      ],
      "stateMutability": "view",
      "type": "function"
    },
    {
      "inputs": [],
      "name": "quorumNumerator",
      "outputs": [
        {
          "internalType": "uint256",
          "name": "",
          "type": "uint256"
        }
      ],
      "stateMutability": "view",
      "type": "function"
    },
    {
      "inputs": [
        {
          "internalType": "address",
          "name": "target",
          "type": "address"
        },
        {
          "internalType": "uint256",
          "name": "value",
          "type": "uint256"
        },
        {
          "internalType": "bytes",
          "name": "data",
          "type": "bytes"
        }
      ],
      "name": "relay",
      "outputs": [],
      "stateMutability": "payable",
      "type": "function"
    },
    {
      "inputs": [
        {
          "internalType": "uint256",
          "name": "newProposalThreshold",
          "type": "uint256"
        }
      ],
      "name": "setProposalThreshold",
      "outputs": [],
      "stateMutability": "nonpayable",
      "type": "function"
    },
    {
      "inputs": [
        {
          "internalType": "uint256",
          "name": "newVotingDelay",
          "type": "uint256"
        }
      ],
      "name": "setVotingDelay",
      "outputs": [],
      "stateMutability": "nonpayable",
      "type": "function"
    },
    {
      "inputs": [
        {
          "internalType": "uint256",
          "name": "newVotingPeriod",
          "type": "uint256"
        }
      ],
      "name": "setVotingPeriod",
      "outputs": [],
      "stateMutability": "nonpayable",
      "type": "function"
    },
    {
      "inputs": [
        {
          "internalType": "uint256",
          "name": "proposalId",
          "type": "uint256"
        }
      ],
      "name": "state",
      "outputs": [
        {
          "internalType": "enum IGovernor.ProposalState",
          "name": "",
          "type": "uint8"
        }
      ],
      "stateMutability": "view",
      "type": "function"
    },
    {
      "inputs": [
        {
          "internalType": "bytes4",
          "name": "interfaceId",
          "type": "bytes4"
        }
      ],
      "name": "supportsInterface",
      "outputs": [
        {
          "internalType": "bool",
          "name": "",
          "type": "bool"
        }
      ],
      "stateMutability": "view",
      "type": "function"
    },
    {
      "inputs": [],
      "name": "token",
      "outputs": [
        {
          "internalType": "contract IERC5805",
          "name": "",
          "type": "address"
        }
      ],
      "stateMutability": "view",
      "type": "function"
    },
    {
      "inputs": [
        {
          "internalType": "uint256",
          "name": "newQuorumNumerator",
          "type": "uint256"
        }
      ],
      "name": "updateQuorumNumerator",
      "outputs": [],
      "stateMutability": "nonpayable",
      "type": "function"
    },
    {
      "inputs": [],
      "name": "version",
      "outputs": [
        {
          "internalType": "string",
          "name": "",
          "type": "string"
        }
      ],
      "stateMutability": "view",
      "type": "function"
    },
    {
      "inputs": [],
      "name": "votingDelay",
      "outputs": [
        {
          "internalType": "uint256",
          "name": "",
          "type": "uint256"
        }
      ],
      "stateMutability": "view",
      "type": "function"
    },
    {
      "inputs": [],
      "name": "votingPeriod",
      "outputs": [
        {
          "internalType": "uint256",
          "name": "",
          "type": "uint256"
        }
      ],
      "stateMutability": "view",
      "type": "function"
    },
    {
      "stateMutability": "payable",
      "type": "receive"
    }
  ],
  "bytecode": "0x6101a060405234620000f657620000206200001962000196565b906200020a565b604051615163908162000dff823960805181614334015260a051816143e9015260c05181614305015260e05181614383015261010051816143a90152610120518161194701526101405181611973015261016051818181611b4b015281816122ea015281816124fd015281816125cd015281816128e001528181612f8801528181613162015281816142270152614950015261018051818181610e86015281816111eb015281816115e101528181611f0a0152818161217a01528181612e9d01528181613082015281816134a40152614c6a0152f35b600080fd5b634e487b7160e01b600052604160045260246000fd5b604081019081106001600160401b038211176200012d57604052565b620000fb565b60c081019081106001600160401b038211176200012d57604052565b601f909101601f19168101906001600160401b038211908210176200012d57604052565b60405190620001828262000111565b565b6001600160a01b03811603620000f657565b62005f8290604082380392838251948592620001b382856200014f565b833981010312620000f6576020825192620001ce8462000184565b015191620001dc8362000184565b9190565b60405190620001ef8262000111565b600b8252565b60405190620002048262000111565b60018252565b620002d862000218620001e0565b602081016a22a8aaa3b7bb32b93737b960a91b815262000237620001f5565b906020820190603160f81b82526200024f84620007b8565b610120526200025e83620008c7565b6101405283519020918260e05251902080610100524660a0526040519060208201927f8b73c3c69bb8fe3d512ecc4cf759cc79239f7b179b0ffacaa9a75d522b39400f8452604083015260608201524660808201523060a082015260a08152620002c88162000133565b5190206080523060c05262000464565b620002e2620006fe565b620002ec62000738565b620002f662000774565b6001600160a01b0316610160526200030d620005c3565b61018052565b90600182811c9216801562000345575b60208310146200032f57565b634e487b7160e01b600052602260045260246000fd5b91607f169162000323565b601f81116200035d575050565b60009060026000526020600020906020601f850160051c83019410620003a0575b601f0160051c01915b8281106200039457505050565b81815560010162000387565b90925082906200037e565b601f8111620003b8575050565b600090600080526020600020906020601f850160051c83019410620003fa575b601f0160051c01915b828110620003ee57505050565b818155600101620003e1565b9092508290620003d8565b90601f821162000413575050565b60019160009060016000526020600020906020601f850160051c8301941062000459575b601f0160051c01915b8281106200044e5750505050565b818155830162000440565b909250829062000437565b80519091906001600160401b0381116200012d5762000490816200048a60025462000313565b62000350565b602080601f8311600114620004d757508190620004c69394600092620004cb575b50508160011b916000199060031b1c19161790565b600255565b015190503880620004b1565b6002600052601f198316949091907f405787fa12a823e0f2b7631cc41b3ba8828b3321ca811111fa75cd3aa3bb5ace926000905b878210620005465750508360019596106200052c575b505050811b01600255565b015160001960f88460031b161c1916905538808062000521565b806001859682949686015181550195019301906200050b565b600b54680100000000000000008110156200012d576001810180600b55811015620005ad57600b6000526020600020019063ffffffff81511690602063ffffffff1991015160201b16179055565b634e487b7160e01b600052603260045260246000fd5b600b548015906000908215620006945750506200064760008051602062005f6283398151915291600a54905b81151590816200068b575b506200064c575b6200062e62000628620006226200061762000a1d565b65ffffffffffff1690565b62000ab1565b62000cc8565b5050604080519182526005602083015290918291820190565b0390a1565b620006856200065b82620009b3565b6200067f6200066962000173565b600081526001600160e01b039092166020830152565b6200055f565b62000601565b905038620005fa565b600019918183810111620006ea57600b9052017f0175b7a638427703f0dbe7bb9bbf987a2551717b34e79f33b5b1008d1fa01db9015460008051602062005f6283398151915291620006479160201c90620005ef565b634e487b7160e01b81526011600452602490fd5b7fc565b045403dc03c2eea82b81a0465edad9e2e7fc4d97e11421c209da93d7a936040600654815190815260016020820152a16001600655565b6007546040519081527f7e3f7f0708a84de9203036abaa450dccc85ad5ff52f78c170f3edb55cf5e8828604061c4e092836020820152a1600755565b6008546040519081527fccb45da8d5717e6c4544694297c4ba5cf151d455c9bb0ed4fc7a38411bc05461604069021e19e0c9bab240000092836020820152a1600855565b90815160209060208110600014620007db57505090620007d89062000b3b565b90565b6001600160401b0381116200012d576000916200080482620007fe855462000313565b620003ab565b602090601f83116001146200084057508190839495620008399492620004cb5750508160011b916000199060031b1c19161790565b905560ff90565b60008052601f198316957f290decd9548b62a8d60345a988386fc84ba6bc95484008f6362f93160ef3e563929185905b888210620008ae5750508360019596971062000894575b505050811b01905560ff90565b015160001960f88460031b161c1916905538808062000887565b8060018596829496860151815501950193019062000870565b90815160209060208110600014620008e757505090620007d89062000b3b565b6001600160401b0381116200012d5760019162000910826200090a855462000313565b62000405565b602090601f8311600114620009465750819062000839939495600092620004cb5750508160011b916000199060031b1c19161790565b6001600052601f198316959091907fb10e2d527612073b26eecdfd717e6a320cf44b4afac2b0732d9fcbe2b7fa0cf6926000905b8882106200099b57505083859697106200089457505050811b01905560ff90565b8087859682949686015181550195019301906200097a565b6001600160e01b0390818111620009c8571690565b60405162461bcd60e51b815260206004820152602760248201527f53616665436173743a2076616c756520646f65736e27742066697420696e20326044820152663234206269747360c81b6064820152608490fd5b610160516040516324776b7d60e21b815290602090829060049082906001600160a01b03165afa809160009162000a62575b5090620007d85750620007d84362000bde565b6020813d60201162000aa8575b8162000a7e602093836200014f565b8101031262000aa457519065ffffffffffff8216820362000aa157503862000a4f565b80fd5b5080fd5b3d915062000a6f565b63ffffffff9081811162000ac3571690565b60405162461bcd60e51b815260206004820152602660248201527f53616665436173743a2076616c756520646f65736e27742066697420696e203360448201526532206269747360d01b6064820152608490fd5b60208151910151906020811062000b2c575090565b6000199060200360031b1b1690565b601f81511162000b565762000b508162000b17565b90511790565b6040519063305a27a960e01b82528160208060048301528251908160248401526000935b82851062000b9e575050604492506000838284010152601f80199101168101030190fd5b848101820151868601604401529381019385935062000b7a565b60001981019190821162000bc857565b634e487b7160e01b600052601160045260246000fd5b65ffffffffffff9081811162000bf2571690565b60405162461bcd60e51b815260206004820152602660248201527f53616665436173743a2076616c756520646f65736e27742066697420696e203460448201526538206269747360d01b6064820152608490fd5b604080519192919081016001600160401b038111828210176200012d57604052602081935463ffffffff81168352811c910152565b1562000c8357565b60405162461bcd60e51b815260206004820152601b60248201527f436865636b706f696e743a2064656372656173696e67206b65797300000000006044820152606490fd5b600b54801562000dd55762000d9d918162000d1d62000d1762000ced60209562000bb8565b600b6000527f0175b7a638427703f0dbe7bb9bbf987a2551717b34e79f33b5b1008d1fa01db90190565b62000c46565b9162000d2d835163ffffffff1690565b62000d4663ffffffff9182841692839116111562000c7b565b62000d6262000d59855163ffffffff1690565b63ffffffff1690565b0362000da3575062000d7c62000ced62000d8f9262000bb8565b64050000000063ffffffff825416179055565b01516001600160e01b031690565b90600590565b62000dcf915062000dc362000db762000173565b63ffffffff9092168252565b6005818501526200055f565b62000d8f565b5062000df69062000de962000db762000173565b600560208201526200055f565b60009060059056fe60806040526004361015610023575b361561001957600080fd5b6100216131af565b005b60003560e01c806301ffc9a7146102f357806302a251a3146102ee57806303420181146102e957806306f3f9e6146102e457806306fdde03146102df578063143489d0146102da578063150b7a02146102d55780632656227d146102d05780632d63f693146102cb5780632fe3e261146102c65780633932abb1146102c15780633bccf4fd146102bc5780633e4f49e6146102b757806343859632146102b2578063452115d6146102ad5780634bf5d7e9146102a8578063544ffc9c146102a357806354fd4d501461029e57806356781388146102995780635f398a141461029457806360c4247f1461028f578063688254fd1461028a57806370b0f660146102855780637b3c71d3146102805780637d5e81e21461027b57806384b0196e1461027657806391ddadf41461027157806397c3d3341461026c5780639a802a6d14610267578063a7713a7014610262578063b58131b01461025d578063bc197c8114610258578063c01f9e3714610253578063c28bc2fa1461024e578063c59057e414610249578063d32160d414610244578063dd4e2ba51461023f578063deaaa7cc1461023a578063ea0217cf14610235578063eab4926914610230578063eb9019d41461022b578063ece40cc114610226578063f23a6e6114610221578063f8ce560a1461021c5763fc0c546a0361000e57612582565b612481565b6123f1565b61232e565b612249565b612150565b612003565b611faa565b611f2e565b611ebf565b611ea3565b611d3c565b611ce5565b611c21565b611be8565b611baf565b611a97565b611a5d565b611a14565b611910565b611824565b6117b0565b6116ed565b6115b5565b6114f3565b611465565b6113f7565b61137b565b61131a565b6112cc565b6111b8565b611133565b6110e6565b610fdd565b610fa1565b610f48565b610ef4565b610e26565b610bb3565b610b32565b610a11565b61077c565b6106d5565b610457565b346104525760207ffffffffffffffffffffffffffffffffffffffffffffffffffffffffffffffffc360112610452576004357fffffffff00000000000000000000000000000000000000000000000000000000811680910361045257807fbf26d897000000000000000000000000000000000000000000000000000000006103a69214908115610428575b81156103fe575b81156103d4575b81156103aa575b5060405190151581529081906020820190565b0390f35b7f01ffc9a70000000000000000000000000000000000000000000000000000000091501438610393565b7f4e2312e0000000000000000000000000000000000000000000000000000000008114915061038c565b7f51159c060000000000000000000000000000000000000000000000000000000081149150610385565b7f79dd796f000000000000000000000000000000000000000000000000000000008114915061037e565b600080fd5b346104525760007ffffffffffffffffffffffffffffffffffffffffffffffffffffffffffffffffc360112610452576020600754604051908152f35b6024359060ff8216820361045257565b6044359060ff8216820361045257565b9181601f840112156104525782359167ffffffffffffffff8311610452576020838186019501011161045257565b7f4e487b7100000000000000000000000000000000000000000000000000000000600052604160045260246000fd5b6040810190811067ffffffffffffffff82111761052c57604052565b6104e1565b6080810190811067ffffffffffffffff82111761052c57604052565b6020810190811067ffffffffffffffff82111761052c57604052565b6060810190811067ffffffffffffffff82111761052c57604052565b60c0810190811067ffffffffffffffff82111761052c57604052565b90601f7fffffffffffffffffffffffffffffffffffffffffffffffffffffffffffffffe0910116810190811067ffffffffffffffff82111761052c57604052565b604051906105ef82610510565b565b6040519060e0820182811067ffffffffffffffff82111761052c57604052565b67ffffffffffffffff811161052c57601f017fffffffffffffffffffffffffffffffffffffffffffffffffffffffffffffffe01660200190565b91909161065781610611565b61066460405191826105a1565b8093828252821161045257818160009384602080950137010152565b92919261068c82610611565b9161069a60405193846105a1565b829481845281830111610452578281602093846000960137010152565b9080601f83011215610452578160206106d293359101610680565b90565b346104525760e07ffffffffffffffffffffffffffffffffffffffffffffffffffffffffffffffffc3601126104525761070c610493565b67ffffffffffffffff6044358181116104525761072d9036906004016104b3565b91606435908111610452576107469036906004016106b7565b9260843560ff81168103610452576103a69461076c9460c4359460a435946004356125f1565b6040519081529081906020820190565b346104525760207ffffffffffffffffffffffffffffffffffffffffffffffffffffffffffffffffc3601126104525760043573ffffffffffffffffffffffffffffffffffffffff6107d7816107cf613461565b16331461268c565b6107df613461565b30911603610974575b606481116108ca577f0553476bf02ef2726e8ce5ced78d63e26e602e4a2257b1f559418e24b46339979061081a613005565b801515806108c0575b610874575b610858610849610844610839612f45565b65ffffffffffff1690565b6138d8565b61085284614836565b90614d9e565b505060408051918252602082019290925290819081015b0390a1005b6108bb61088082614836565b6108b661088b6105e2565b600081527bffffffffffffffffffffffffffffffffffffffffffffffffffffffff9092166020830152565b6135a3565b610828565b50600b5415610823565b60a46040517f08c379a000000000000000000000000000000000000000000000000000000000815260206004820152604360248201527f476f7665726e6f72566f74657351756f72756d4672616374696f6e3a2071756f60448201527f72756d4e756d657261746f72206f7665722071756f72756d44656e6f6d696e6160648201527f746f7200000000000000000000000000000000000000000000000000000000006084820152fd5b61097e363661064b565b602081519101205b8061098f61350d565b0361098657506107e8565b60005b8381106109ad5750506000910152565b818101518382015260200161099d565b907fffffffffffffffffffffffffffffffffffffffffffffffffffffffffffffffe0601f6020936109f98151809281875287808801910161099a565b0116010190565b9060206106d29281815201906109bd565b34610452576000807ffffffffffffffffffffffffffffffffffffffffffffffffffffffffffffffffc360112610b2f57604051908060025490610a53826126f1565b80855291602091600191828116908115610ae45750600114610a8c575b6103a686610a80818803826105a1565b60405191829182610a00565b9350600284527f405787fa12a823e0f2b7631cc41b3ba8828b3321ca811111fa75cd3aa3bb5ace5b838510610ad157505050508101602001610a80826103a638610a70565b8054868601840152938201938101610ab4565b8796506103a697945060209350610a809592507fffffffffffffffffffffffffffffffffffffffffffffffffffffffffffffff0091501682840152151560051b820101929338610a70565b80fd5b346104525760207ffffffffffffffffffffffffffffffffffffffffffffffffffffffffffffffffc360112610452576004356000526003602052602073ffffffffffffffffffffffffffffffffffffffff60406000205460401c16604051908152f35b73ffffffffffffffffffffffffffffffffffffffff81160361045257565b346104525760807ffffffffffffffffffffffffffffffffffffffffffffffffffffffffffffffffc36011261045257610bed600435610b95565b610bf8602435610b95565b60643567ffffffffffffffff811161045257610c189036906004016106b7565b5060206040517f150b7a02000000000000000000000000000000000000000000000000000000008152f35b67ffffffffffffffff811161052c5760051b60200190565b9080601f83011215610452576020908235610c7581610c43565b93610c8360405195866105a1565b81855260208086019260051b82010192831161045257602001905b828210610cac575050505090565b8380918335610cba81610b95565b815201910190610c9e565b9080601f83011215610452576020908235610cdf81610c43565b93610ced60405195866105a1565b81855260208086019260051b82010192831161045257602001905b828210610d16575050505090565b81358152908301908301610d08565b81601f8201121561045257803591602091610d3f84610c43565b93610d4d60405195866105a1565b808552838086019160051b8301019280841161045257848301915b848310610d785750505050505090565b823567ffffffffffffffff8111610452578691610d9a848480948901016106b7565b815201920191610d68565b60807ffffffffffffffffffffffffffffffffffffffffffffffffffffffffffffffffc8201126104525767ffffffffffffffff916004358381116104525782610df091600401610c5b565b926024358181116104525783610e0891600401610cc5565b9260443591821161045257610e1f91600401610d25565b9060643590565b610e6c6020610e3436610da5565b6040517f2656227d00000000000000000000000000000000000000000000000000000000815295869485949193919060048601612818565b03813473ffffffffffffffffffffffffffffffffffffffff7f0000000000000000000000000000000000000000000000000000000000000000165af18015610eef57602091600091610ec2575b50604051908152f35b610ee29150823d8411610ee8575b610eda81836105a1565b810190612744565b38610eb9565b503d610ed0565b612857565b346104525760207ffffffffffffffffffffffffffffffffffffffffffffffffffffffffffffffffc360112610452576004356000526003602052602067ffffffffffffffff60406000205416604051908152f35b346104525760007ffffffffffffffffffffffffffffffffffffffffffffffffffffffffffffffffc3601126104525760206040517fb3b3f3b703cd84ce352197dcff232b1b5d3cfb2025ce47cf04742d0651f1af888152f35b346104525760007ffffffffffffffffffffffffffffffffffffffffffffffffffffffffffffffffc360112610452576020600654604051908152f35b346104525760a07ffffffffffffffffffffffffffffffffffffffffffffffffffffffffffffffffc360112610452576103a661076c60043561101d610493565b61109261108a61102b6104a3565b60405160208101917f150214d74d59b7d1e90c73fc22ef3d991dd0a76b046543d4d80ab92d2a50328f835286604083015260ff861660608301526060825261107282610531565b6110856084359360643593519020613234565b61440f565b9190916144a2565b6040519261109f8461054d565b6000845261362a565b7f4e487b7100000000000000000000000000000000000000000000000000000000600052602160045260246000fd5b600811156110e157565b6110a8565b346104525760207ffffffffffffffffffffffffffffffffffffffffffffffffffffffffffffffffc36011261045257611120600435613646565b60405160088210156110e1576020918152f35b346104525760407ffffffffffffffffffffffffffffffffffffffffffffffffffffffffffffffffc36011261045257602060ff6111ac60243561117581610b95565b6004356000526009845260036040600020019073ffffffffffffffffffffffffffffffffffffffff16600052602052604060002090565b54166040519015158152f35b34610452576111c636610da5565b906111d382828587613794565b9273ffffffffffffffffffffffffffffffffffffffff7f0000000000000000000000000000000000000000000000000000000000000000169081330361121f575b604051858152602090f35b6000602094959661125f604051978896879586947f452115d600000000000000000000000000000000000000000000000000000000865260048601612818565b03925af1908115610eef576000916112ad575b508103611283578038808080611214565b60046040517f716a4cbb000000000000000000000000000000000000000000000000000000008152fd5b6112c6915060203d602011610ee857610eda81836105a1565b38611272565b346104525760007ffffffffffffffffffffffffffffffffffffffffffffffffffffffffffffffffc360112610452576103a661130661289c565b6040519182916020835260208301906109bd565b346104525760207ffffffffffffffffffffffffffffffffffffffffffffffffffffffffffffffffc36011261045257600435600052600960205260606040600020805490600260018201549101549060405192835260208301526040820152f35b346104525760007ffffffffffffffffffffffffffffffffffffffffffffffffffffffffffffffffc360112610452576103a66040516113b981610510565b600181527f310000000000000000000000000000000000000000000000000000000000000060208201526040519182916020835260208301906109bd565b346104525760407ffffffffffffffffffffffffffffffffffffffffffffffffffffffffffffffffc36011261045257602061145d611433610493565b60405161143f8161054d565b60008152604051916114508361054d565b60008352336004356132d5565b604051908152f35b346104525760807ffffffffffffffffffffffffffffffffffffffffffffffffffffffffffffffffc3601126104525761149c610493565b67ffffffffffffffff90604435828111610452576114be9036906004016104b3565b9091606435938411610452576114e961145d936114e160209636906004016106b7565b933691610680565b90336004356132d5565b346104525760207ffffffffffffffffffffffffffffffffffffffffffffffffffffffffffffffffc36011261045257602061145d600435612a8d565b9060a07ffffffffffffffffffffffffffffffffffffffffffffffffffffffffffffffffc830112610452576004359167ffffffffffffffff91602435838111610452578261157f91600401610c5b565b92604435818111610452578361159791600401610cc5565b92606435918211610452576115ae91600401610d25565b9060843590565b34610452576115c33661152f565b509192505073ffffffffffffffffffffffffffffffffffffffff90817f00000000000000000000000000000000000000000000000000000000000000001633036116c35761160f613461565b823091160361161a57005b60005b83518110156100215760019030846116358388613988565b511614611643575b0161161d565b6116be826116518386613988565b516020815191012060045460801d9061167782600f0b6000526005602052604060002090565b5501600f0b6fffffffffffffffffffffffffffffffff7fffffffffffffffffffffffffffffffff000000000000000000000000000000006004549260801b16911617600455565b61163d565b60046040517f6118561f000000000000000000000000000000000000000000000000000000008152fd5b346104525760207ffffffffffffffffffffffffffffffffffffffffffffffffffffffffffffffffc3601126104525760043573ffffffffffffffffffffffffffffffffffffffff611740816107cf613461565b611748613461565b3091160361178a575b60065460408051918252602082018390527fc565b045403dc03c2eea82b81a0465edad9e2e7fc4d97e11421c209da93d7a9391a1600655005b611794363661064b565b602081519101205b806117a561350d565b0361179c5750611751565b346104525760607ffffffffffffffffffffffffffffffffffffffffffffffffffffffffffffffffc360112610452576117e7610493565b60443567ffffffffffffffff81116104525760209161181761181061145d9336906004016104b3565b3691610680565b604051916114508361054d565b346104525760807ffffffffffffffffffffffffffffffffffffffffffffffffffffffffffffffffc3601126104525767ffffffffffffffff60043581811161045257611874903690600401610c5b565b906024358181116104525761188d903690600401610cc5565b91604435828111610452576118a6903690600401610d25565b6064359283116104525736602384011215610452576103a6936118d661076c943690602481600401359101610680565b92612cf0565b90815180825260208080930193019160005b8281106118fc575050505090565b8351855293810193928101926001016118ee565b346104525760007ffffffffffffffffffffffffffffffffffffffffffffffffffffffffffffffffc360112610452576119e561196b7f0000000000000000000000000000000000000000000000000000000000000000613f43565b6103a66119977f000000000000000000000000000000000000000000000000000000000000000061407b565b6119f3604051916119a78361054d565b600083526040519586957f0f00000000000000000000000000000000000000000000000000000000000000875260e0602088015260e08701906109bd565b9085820360408701526109bd565b90466060850152306080850152600060a085015283820360c08501526118dc565b346104525760007ffffffffffffffffffffffffffffffffffffffffffffffffffffffffffffffffc360112610452576020611a4d612f45565b65ffffffffffff60405191168152f35b346104525760007ffffffffffffffffffffffffffffffffffffffffffffffffffffffffffffffffc36011261045257602060405160648152f35b346104525760607ffffffffffffffffffffffffffffffffffffffffffffffffffffffffffffffffc36011261045257600435611ad281610b95565b60443567ffffffffffffffff811161045257604491611af760209236906004016106b7565b5073ffffffffffffffffffffffffffffffffffffffff92839160405194859384927f3a46b1a800000000000000000000000000000000000000000000000000000000845216600483015260243560248301527f0000000000000000000000000000000000000000000000000000000000000000165afa8015610eef576103a691600091611b90575b506040519081529081906020820190565b611ba9915060203d602011610ee857610eda81836105a1565b38611b7f565b346104525760007ffffffffffffffffffffffffffffffffffffffffffffffffffffffffffffffffc36011261045257602061145d613005565b346104525760007ffffffffffffffffffffffffffffffffffffffffffffffffffffffffffffffffc36011261045257602061145d61306b565b346104525760a07ffffffffffffffffffffffffffffffffffffffffffffffffffffffffffffffffc36011261045257611c5b600435610b95565b611c66602435610b95565b67ffffffffffffffff60443581811161045257611c87903690600401610cc5565b5060643581811161045257611ca0903690600401610cc5565b5060843590811161045257611cb99036906004016106b7565b506040517fbc197c81000000000000000000000000000000000000000000000000000000008152602090f35b346104525760207ffffffffffffffffffffffffffffffffffffffffffffffffffffffffffffffffc360112610452576004356000526003602052602067ffffffffffffffff60016040600020015416604051908152f35b60607ffffffffffffffffffffffffffffffffffffffffffffffffffffffffffffffffc36011261045257600435611d7281610b95565b60443567ffffffffffffffff811161045257611d929036906004016104b3565b919073ffffffffffffffffffffffffffffffffffffffff611db5816107cf613461565b611dbd613461565b30911603611e7d575b611e7291836040519485938437820190600094859383858095520391602435905af13d15611e76573d611df881610611565b90611e0660405192836105a1565b81523d84602083013e5b60405191611e1d83610569565b602883527f476f7665726e6f723a2072656c617920726576657274656420776974686f757460208401527f206d657373616765000000000000000000000000000000000000000000000000604084015261425b565b5080f35b6060611e10565b611e87363661064b565b602081519101205b80611e9861350d565b03611e8f5750611dc6565b3461045257602061145d611eb636610da5565b929190916130b3565b346104525760007ffffffffffffffffffffffffffffffffffffffffffffffffffffffffffffffffc36011261045257602060405173ffffffffffffffffffffffffffffffffffffffff7f0000000000000000000000000000000000000000000000000000000000000000168152f35b346104525760007ffffffffffffffffffffffffffffffffffffffffffffffffffffffffffffffffc360112610452576103a6604051611f6c81610510565b602081527f737570706f72743d627261766f2671756f72756d3d666f722c6162737461696e60208201526040519182916020835260208301906109bd565b346104525760007ffffffffffffffffffffffffffffffffffffffffffffffffffffffffffffffffc3601126104525760206040517f150214d74d59b7d1e90c73fc22ef3d991dd0a76b046543d4d80ab92d2a50328f8152f35b346104525760207ffffffffffffffffffffffffffffffffffffffffffffffffffffffffffffffffc3601126104525760043573ffffffffffffffffffffffffffffffffffffffff612056816107cf613461565b61205e613461565b3091160361212a575b80156120a65760075460408051918252602082018390527f7e3f7f0708a84de9203036abaa450dccc85ad5ff52f78c170f3edb55cf5e882891a1600755005b60846040517f08c379a000000000000000000000000000000000000000000000000000000000815260206004820152602760248201527f476f7665726e6f7253657474696e67733a20766f74696e6720706572696f642060448201527f746f6f206c6f77000000000000000000000000000000000000000000000000006064820152fd5b612134363661064b565b602081519101205b8061214561350d565b0361213c5750612067565b346104525761215e3661152f565b5050505073ffffffffffffffffffffffffffffffffffffffff807f00000000000000000000000000000000000000000000000000000000000000001633036116c3577f712ae1383f79ac853f8d882153778e0260ef8f03b504e2866e0593e04d2b291f9161086f916121ce613461565b309116036121e6576040519081529081906020820190565b60045480600f0b9060801d600f0b131561076c576122277fffffffffffffffffffffffffffffffff0000000000000000000000000000000060045416600455565b6122446fffffffffffffffffffffffffffffffff60045416600455565b61076c565b346104525760407ffffffffffffffffffffffffffffffffffffffffffffffffffffffffffffffffc360112610452576044602060043561228881610b95565b60006040516122968161054d565b5273ffffffffffffffffffffffffffffffffffffffff92839160405194859384927f3a46b1a800000000000000000000000000000000000000000000000000000000845216600483015260243560248301527f0000000000000000000000000000000000000000000000000000000000000000165afa8015610eef576103a691600091611b9057506040519081529081906020820190565b346104525760207ffffffffffffffffffffffffffffffffffffffffffffffffffffffffffffffffc3601126104525760043573ffffffffffffffffffffffffffffffffffffffff612381816107cf613461565b612389613461565b309116036123cb575b60085460408051918252602082018390527fccb45da8d5717e6c4544694297c4ba5cf151d455c9bb0ed4fc7a38411bc0546191a1600855005b6123d5363661064b565b602081519101205b806123e661350d565b036123dd5750612392565b346104525760a07ffffffffffffffffffffffffffffffffffffffffffffffffffffffffffffffffc3601126104525761242b600435610b95565b612436602435610b95565b60843567ffffffffffffffff8111610452576124569036906004016106b7565b5060206040517ff23a6e61000000000000000000000000000000000000000000000000000000008152f35b346104525760207ffffffffffffffffffffffffffffffffffffffffffffffffffffffffffffffffc36011261045257600435604051907f8e539e8c00000000000000000000000000000000000000000000000000000000825280600483015260208260248173ffffffffffffffffffffffffffffffffffffffff7f0000000000000000000000000000000000000000000000000000000000000000165afa918215610eef5760009261255d575b5061253890612a8d565b908181029181830414901517156125585760405160649091048152602090f35b6129a2565b61253891925061257b9060203d602011610ee857610eda81836105a1565b919061252e565b346104525760007ffffffffffffffffffffffffffffffffffffffffffffffffffffffffffffffffc36011261045257602060405173ffffffffffffffffffffffffffffffffffffffff7f0000000000000000000000000000000000000000000000000000000000000000168152f35b949261267e6106d29861268694939698611810966110858a8a8d612616368a8c610680565b6020815191012090602081519101209060ff6040519360208501957fb3b3f3b703cd84ce352197dcff232b1b5d3cfb2025ce47cf04742d0651f1af8887526040860152166060840152608083015260a082015260a0815261267681610585565b519020613234565b9490946144a2565b926132d5565b1561269357565b60646040517f08c379a000000000000000000000000000000000000000000000000000000000815260206004820152601860248201527f476f7665726e6f723a206f6e6c79476f7665726e616e636500000000000000006044820152fd5b90600182811c9216801561273a575b602083101461270b57565b7f4e487b7100000000000000000000000000000000000000000000000000000000600052602260045260246000fd5b91607f1691612700565b90816020910312610452575190565b90815180825260208080930193019160005b828110612773575050505090565b835173ffffffffffffffffffffffffffffffffffffffff1685529381019392810192600101612765565b90808251908181526020809101926020808460051b8301019501936000915b8483106127cc5750505050505090565b9091929394958480612808837fffffffffffffffffffffffffffffffffffffffffffffffffffffffffffffffe086600196030187528a516109bd565b98019301930191949392906127bc565b9493926128446060936128366128529460808a5260808a0190612753565b9088820360208a01526118dc565b90868203604088015261279d565b930152565b6040513d6000823e3d90fd5b6040519061287082610510565b601d82527f6d6f64653d626c6f636b6e756d6265722666726f6d3d64656661756c740000006020830152565b6040517f4bf5d7e90000000000000000000000000000000000000000000000000000000081526000808260048173ffffffffffffffffffffffffffffffffffffffff7f0000000000000000000000000000000000000000000000000000000000000000165afa9091828261291a575b50506106d257506106d2612863565b909192503d8082843e61292d81846105a1565b82019160208184031261299a5780519067ffffffffffffffff821161299e570182601f8201121561299a5780519161296483610611565b9361297260405195866105a1565b83855260208484010111610b2f575090612992916020808501910161099a565b90388061290b565b5080fd5b8280fd5b7f4e487b7100000000000000000000000000000000000000000000000000000000600052601160045260246000fd5b907fffffffffffffffffffffffffffffffffffffffffffffffffffffffffffffffff820191821161255857565b907fffffffffffffffffffffffffffffffffffffffffffffffffffffffffffffffd8820191821161255857565b7f4e487b7100000000000000000000000000000000000000000000000000000000600052603260045260246000fd5b906040516040810181811067ffffffffffffffff82111761052c57604052602081935463ffffffff81168352811c910152565b90600b80548015612c9f577fffffffffffffffffffffffffffffffffffffffffffffffffffffffffffffffff810181811161255857811115612c9a57600091600b8352612afb7f0175b7a638427703f0dbe7bb9bbf987a2551717b34e79f33b5b1008d1fa01db88301612a5a565b9463ffffffff9581878251161115612c705750612b17906138d8565b948084938060058111612c0d575b50939616905b838710612ba9575050507bffffffffffffffffffffffffffffffffffffffffffffffffffffffff9293508015600014612b6357501690565b612ba59150612b74612b9e916129d1565b600b6000527f0175b7a638427703f0dbe7bb9bbf987a2551717b34e79f33b5b1008d1fa01db90190565b5460201c90565b1690565b9091928087169080881860011c8201809211612558578486528383837f0175b7a638427703f0dbe7bb9bbf987a2551717b34e79f33b5b1008d1fa01db901541611600014612bfb5750925b9190612b2b565b939650612c079061396d565b95612bf4565b9150612c1882614b12565b820391821161255857600b86527f0175b7a638427703f0dbe7bb9bbf987a2551717b34e79f33b5b1008d1fa01db982015483168884161015612c5e575081905b38612b25565b9350612c6a829161396d565b93612c58565b602001517bffffffffffffffffffffffffffffffffffffffffffffffffffffffff16955050505050565b612a2b565b5050600a549150565b92612cd46106d29593612cc6612ce294608088526080880190612753565b9086820360208801526118dc565b90848203604086015261279d565b9160608184039101526109bd565b92909192612d06612d018333614c52565b61399c565b612d11610839612f45565b93612d36612d27612d21876129d1565b336130ff565b612d2f61306b565b1115613a01565b612db3612d4b845160208601208387866130b3565b95612d598451875114613a8c565b612d668451845114613a8c565b612d7284511515613b17565b612daa67ffffffffffffffff612da3612d958a6000526003602052604060002090565b5467ffffffffffffffff1690565b1615613b7c565b6006549061397b565b937f7d84a6263ae0d98d3329bd7b46bb4e8d6f98cd35a7adb45c274c8b7fd5ebd5e08387612e8387612de76007548b61397b565b612df08b614ca0565b9a612e69612dfd83614ca0565b9c612e19612e096105f1565b67ffffffffffffffff9092168252565b336020820152612e3e60009e8f6040840152606083019067ffffffffffffffff169052565b8d60808201528d60a08201528d60c0820152612e64876000526003602052604060002090565b613c07565b88612e748751613de2565b8960405198899833908a613e49565b0390a173ffffffffffffffffffffffffffffffffffffffff7f00000000000000000000000000000000000000000000000000000000000000001690813314612f3c5785602094612f02604051978896879586947f7d5e81e200000000000000000000000000000000000000000000000000000000865260048601612ca8565b03925af1918215610eef5791612f1d575b5081036112835790565b612f36915060203d602011610ee857610eda81836105a1565b38612f13565b50505050505090565b6040517f91ddadf400000000000000000000000000000000000000000000000000000000815260208160048173ffffffffffffffffffffffffffffffffffffffff7f0000000000000000000000000000000000000000000000000000000000000000165afa8091600091612fc4575b50906106d257506106d24361413c565b6020813d602011612ffd575b81612fdd602093836105a1565b8101031261299a57519065ffffffffffff82168203610b2f575038612fb4565b3d9150612fd0565b600b54806130145750600a5490565b807fffffffffffffffffffffffffffffffffffffffffffffffffffffffffffffffff81011161255857600b6000527f0175b7a638427703f0dbe7bb9bbf987a2551717b34e79f33b5b1008d1fa01db8015460201c90565b73ffffffffffffffffffffffffffffffffffffffff7f00000000000000000000000000000000000000000000000000000000000000001633146130ae5760085490565b600090565b92906130cd6130f992604051948593602085019788612818565b037fffffffffffffffffffffffffffffffffffffffffffffffffffffffffffffffe081018352826105a1565b51902090565b60209060006040516131108161054d565b52604473ffffffffffffffffffffffffffffffffffffffff918260405195869485937f3a46b1a800000000000000000000000000000000000000000000000000000000855216600484015260248301527f0000000000000000000000000000000000000000000000000000000000000000165afa908115610eef57600091613196575090565b6106d2915060203d602011610ee857610eda81836105a1565b6131b7613461565b73ffffffffffffffffffffffffffffffffffffffff309116036131d657565b60646040517f08c379a000000000000000000000000000000000000000000000000000000000815260206004820152601f60248201527f476f7665726e6f723a206d7573742073656e6420746f206578656375746f72006044820152fd5b60429061323f6142ee565b90604051917f19010000000000000000000000000000000000000000000000000000000000008352600283015260228201522090565b93909260ff6132a1936106d297958752166020860152604085015260a0606085015260a08401906109bd565b9160808184039101526109bd565b909260ff6080936106d296958452166020830152604082015281606082015201906109bd565b92909193836000526003602052604060002060016132f286613646565b6132fb816110d7565b036133dd5761332561331861332b925467ffffffffffffffff1690565b67ffffffffffffffff1690565b846141d3565b94859161333a838387896146b6565b8051613392575073ffffffffffffffffffffffffffffffffffffffff927fb8e138887d0aa13bab447e82de9d5c1777041ecd21ca36ba824ff1e6c07ddda4949261338c926040519586951697856132af565b0390a290565b73ffffffffffffffffffffffffffffffffffffffff937fe2babfbac5889a709b63bb7f598b324e08bc5a4fb9ec647fb3cbc9ec07eb8712959361338c93604051968796169886613275565b60846040517f08c379a000000000000000000000000000000000000000000000000000000000815260206004820152602360248201527f476f7665726e6f723a20766f7465206e6f742063757272656e746c792061637460448201527f69766500000000000000000000000000000000000000000000000000000000006064820152fd5b6040517fc34c08e500000000000000000000000000000000000000000000000000000000815260208160048173ffffffffffffffffffffffffffffffffffffffff7f0000000000000000000000000000000000000000000000000000000000000000165afa908115610eef576000916134d8575090565b90506020813d602011613505575b816134f3602093836105a1565b8101031261045257516106d281610b95565b3d91506134e6565b6004549081600f0b809260801d600f0b13156135795781600052600560205260406000209160008354935560017fffffffffffffffffffffffffffffffff000000000000000000000000000000006004541691016fffffffffffffffffffffffffffffffff1617600455565b60046040517f3db2a12a000000000000000000000000000000000000000000000000000000008152fd5b600b54906801000000000000000082101561052c576001820180600b55821015612c9a57600b600052805160209182015190911b7fffffffffffffffffffffffffffffffffffffffffffffffffffffffff000000001663ffffffff91909116177f0175b7a638427703f0dbe7bb9bbf987a2551717b34e79f33b5b1008d1fa01db990910155565b916106d293916040519361363d8561054d565b600085526132d5565b600261365c826000526003602052604060002090565b015460ff811661378d5760081c60ff166137875761368a613318612d95836000526003602052604060002090565b80156137245761369b610839612f45565b8091101561371d576136ce61331860016136bf856000526003602052604060002090565b015467ffffffffffffffff1690565b1015613717576136dd816148e3565b90816136f4575b50156136ef57600490565b600390565b613711915060005260096020526040600020600181015490541090565b386136e4565b50600190565b5050600090565b6040517f08c379a000000000000000000000000000000000000000000000000000000000815260206004820152601d60248201527f476f7665726e6f723a20756e6b6e6f776e2070726f706f73616c2069640000006044820152606490fd5b0390fd5b50600290565b5050600790565b9291906137a3838383876130b3565b6137ac81613646565b60088110156110e15761387a576137e273ffffffffffffffffffffffffffffffffffffffff916000526003602052604060002090565b5460401c1633036137f6576106d2936149de565b60846040517f08c379a000000000000000000000000000000000000000000000000000000000815260206004820152602260248201527f476f7665726e6f723a206f6e6c792070726f706f7365722063616e2063616e6360448201527f656c0000000000000000000000000000000000000000000000000000000000006064820152fd5b60646040517f08c379a000000000000000000000000000000000000000000000000000000000815260206004820152601c60248201527f476f7665726e6f723a20746f6f206c61746520746f2063616e63656c000000006044820152fd5b63ffffffff908181116138e9571690565b60846040517f08c379a000000000000000000000000000000000000000000000000000000000815260206004820152602660248201527f53616665436173743a2076616c756520646f65736e27742066697420696e203360448201527f32206269747300000000000000000000000000000000000000000000000000006064820152fd5b906001820180921161255857565b9190820180921161255857565b8051821015612c9a5760209160051b010190565b156139a357565b60646040517f08c379a000000000000000000000000000000000000000000000000000000000815260206004820152601d60248201527f476f7665726e6f723a2070726f706f73657220726573747269637465640000006044820152fd5b15613a0857565b60846040517f08c379a000000000000000000000000000000000000000000000000000000000815260206004820152603160248201527f476f7665726e6f723a2070726f706f73657220766f7465732062656c6f77207060448201527f726f706f73616c207468726573686f6c640000000000000000000000000000006064820152fd5b15613a9357565b60846040517f08c379a000000000000000000000000000000000000000000000000000000000815260206004820152602160248201527f476f7665726e6f723a20696e76616c69642070726f706f73616c206c656e677460448201527f68000000000000000000000000000000000000000000000000000000000000006064820152fd5b15613b1e57565b60646040517f08c379a000000000000000000000000000000000000000000000000000000000815260206004820152601860248201527f476f7665726e6f723a20656d7074792070726f706f73616c00000000000000006044820152fd5b15613b8357565b60846040517f08c379a000000000000000000000000000000000000000000000000000000000815260206004820152602160248201527f476f7665726e6f723a2070726f706f73616c20616c726561647920657869737460448201527f73000000000000000000000000000000000000000000000000000000000000006064820152fd5b90613daf60c060026105ef9467ffffffffffffffff613c5881875116839067ffffffffffffffff167fffffffffffffffffffffffffffffffffffffffffffffffff0000000000000000825416179055565b6020860151907bffffffffffffffffffffffffffffffffffffffff000000000000000083549260401b1690817fffffffff0000000000000000000000000000000000000000ffffffffffffffff84161784557fffffffff00000000000000000000000000000000000000000000000000000000604089015116921617178155613d6560018201613d2b613cf6606089015167ffffffffffffffff1690565b829067ffffffffffffffff167fffffffffffffffffffffffffffffffffffffffffffffffff0000000000000000825416179055565b6080870151815467ffffffffffffffff167fffffffffffffffffffffffffffffffffffffffffffffffff0000000000000000909116179055565b0192613da8613d7760a0830151151590565b859060ff7fffffffffffffffffffffffffffffffffffffffffffffffffffffffffffffff0083541691151516179055565b0151151590565b81547fffffffffffffffffffffffffffffffffffffffffffffffffffffffffffff00ff1690151560081b61ff0016179055565b90613dec82610c43565b613df960405191826105a1565b8281527fffffffffffffffffffffffffffffffffffffffffffffffffffffffffffffffe0613e278294610c43565b019060005b828110613e3857505050565b806060602080938501015201613e2c565b9592613e8b90613e99939b9a989996959261012090895273ffffffffffffffffffffffffffffffffffffffff60209d168d8a01528060408a0152880190612753565b9086820360608801526118dc565b9784890360808601528251808a52818a019180808360051b8d01019501926000905b838210613ef85750505050506106d296975090613edf9184820360a086015261279d565b9360c083015260e08201526101008184039101526109bd565b90919293958380613f348f937fffffffffffffffffffffffffffffffffffffffffffffffffffffffffffffffe060019582030186528a516109bd565b98019201920190939291613ebb565b60ff8114613f995760ff811690601f8211613f6f5760405191613f6583610510565b8252602082015290565b60046040517fb3512b0c000000000000000000000000000000000000000000000000000000008152fd5b5060405160008160005491613fad836126f1565b808352926020906001908181169081156140385750600114613fd8575b50506106d2925003826105a1565b915092600080527f290decd9548b62a8d60345a988386fc84ba6bc95484008f6362f93160ef3e563936000925b82841061402057506106d29450505081016020013880613fca565b85548785018301529485019486945092810192614005565b9050602093506106d29592507fffffffffffffffffffffffffffffffffffffffffffffffffffffffffffffff0091501682840152151560051b8201013880613fca565b60ff811461409d5760ff811690601f8211613f6f5760405191613f6583610510565b506040516000816001916001546140b3816126f1565b808452936020916001811690811561403857506001146140db5750506106d2925003826105a1565b91509260016000527fb10e2d527612073b26eecdfd717e6a320cf44b4afac2b0732d9fcbe2b7fa0cf6936000925b82841061412457506106d29450505081016020013880613fca565b85548785018301529485019486945092810192614109565b65ffffffffffff9081811161414f571690565b60846040517f08c379a000000000000000000000000000000000000000000000000000000000815260206004820152602660248201527f53616665436173743a2076616c756520646f65736e27742066697420696e203460448201527f38206269747300000000000000000000000000000000000000000000000000006064820152fd5b602090604473ffffffffffffffffffffffffffffffffffffffff918260405195869485937f3a46b1a800000000000000000000000000000000000000000000000000000000855216600484015260248301527f0000000000000000000000000000000000000000000000000000000000000000165afa908115610eef57600091613196575090565b90919015614267575090565b8151156142775750805190602001fd5b613783906040519182917f08c379a00000000000000000000000000000000000000000000000000000000083526020600484015260248301906109bd565b81156142bf570490565b7f4e487b7100000000000000000000000000000000000000000000000000000000600052601260045260246000fd5b73ffffffffffffffffffffffffffffffffffffffff7f0000000000000000000000000000000000000000000000000000000000000000163014806143e6575b15614356577f000000000000000000000000000000000000000000000000000000000000000090565b60405160208101907f8b73c3c69bb8fe3d512ecc4cf759cc79239f7b179b0ffacaa9a75d522b39400f82527f000000000000000000000000000000000000000000000000000000000000000060408201527f000000000000000000000000000000000000000000000000000000000000000060608201524660808201523060a082015260a081526130f981610585565b507f0000000000000000000000000000000000000000000000000000000000000000461461432d565b9291907f7fffffffffffffffffffffffffffffff5d576e7357a4501ddfe92f46681b20a0831161448c5791608094939160ff602094604051948552168484015260408301526060820152600093849182805260015afa15610eef57815173ffffffffffffffffffffffffffffffffffffffff811615613717579190565b50505050600090600390565b600511156110e157565b6144ab81614498565b806144b35750565b6144bc81614498565b60018103614523576040517f08c379a000000000000000000000000000000000000000000000000000000000815260206004820152601860248201527f45434453413a20696e76616c6964207369676e617475726500000000000000006044820152606490fd5b61452c81614498565b60028103614593576040517f08c379a000000000000000000000000000000000000000000000000000000000815260206004820152601f60248201527f45434453413a20696e76616c6964207369676e6174757265206c656e677468006044820152606490fd5b8061459f600392614498565b146145a657565b6040517f08c379a000000000000000000000000000000000000000000000000000000000815260206004820152602260248201527f45434453413a20696e76616c6964207369676e6174757265202773272076616c60448201527f75650000000000000000000000000000000000000000000000000000000000006064820152608490fd5b1561463257565b60846040517f08c379a000000000000000000000000000000000000000000000000000000000815260206004820152602760248201527f476f7665726e6f72566f74696e6753696d706c653a20766f746520616c72656160448201527f64792063617374000000000000000000000000000000000000000000000000006064820152fd5b9161476c6147416146d460ff94956000526009602052604060002090565b946003860161471c61471761471361470c85859073ffffffffffffffffffffffffffffffffffffffff16600052602052604060002090565b5460ff1690565b1590565b61462b565b9073ffffffffffffffffffffffffffffffffffffffff16600052602052604060002090565b60017fffffffffffffffffffffffffffffffffffffffffffffffffffffffffffffff00825416179055565b168061478357509061477f90825461397b565b9055565b6001810361479b5750600161477f910191825461397b565b6002036147b157600261477f910191825461397b565b6040517f08c379a000000000000000000000000000000000000000000000000000000000815260206004820152603560248201527f476f7665726e6f72566f74696e6753696d706c653a20696e76616c696420766160448201527f6c756520666f7220656e756d20566f74655479706500000000000000000000006064820152608490fd5b7bffffffffffffffffffffffffffffffffffffffffffffffffffffffff9081811161485f571690565b60846040517f08c379a000000000000000000000000000000000000000000000000000000000815260206004820152602760248201527f53616665436173743a2076616c756520646f65736e27742066697420696e203260448201527f32342062697473000000000000000000000000000000000000000000000000006064820152fd5b60005260096020526040600020600360205267ffffffffffffffff6040600020541690604051917f8e539e8c00000000000000000000000000000000000000000000000000000000835280600484015260208360248173ffffffffffffffffffffffffffffffffffffffff7f0000000000000000000000000000000000000000000000000000000000000000165afa928315610eef576000936149b9575b5061498b90612a8d565b91828102928184041490151715612558576149b2816002600160649401549101549061397b565b9104111590565b61498b9193506149d79060203d602011610ee857610eda81836105a1565b9290614981565b906149ea9392916130b3565b6149f381613646565b60088110156110e15760028114159081614afc575b81614ae7575b5015614a8957614a5a6002614a2d836000526003602052604060002090565b016101007fffffffffffffffffffffffffffffffffffffffffffffffffffffffffffff00ff825416179055565b6040518181527f789cf55be980739dad1d0699b93b58e806b51c9d96619bfa8fe0a28abaa7b30c90602090a190565b60646040517f08c379a000000000000000000000000000000000000000000000000000000000815260206004820152601d60248201527f476f7665726e6f723a2070726f706f73616c206e6f74206163746976650000006044820152fd5b60079150614af4816110d7565b141538614a0e565b9050614b07816110d7565b600681141590614a08565b8015614c4c5780614be5614bde614bd4614bca614bc0614bb6614bac614ba260016106d29a6000908b60801c80614c40575b508060401c80614c33575b508060201c80614c26575b508060101c80614c19575b508060081c80614c0c575b508060041c80614bff575b508060021c80614bf2575b50821c614beb575b811c1b614b9b818b6142b5565b0160011c90565b614b9b818a6142b5565b614b9b81896142b5565b614b9b81886142b5565b614b9b81876142b5565b614b9b81866142b5565b614b9b81856142b5565b80926142b5565b90614f01565b8101614b8e565b6002915091019038614b86565b6004915091019038614b7b565b6008915091019038614b70565b6010915091019038614b65565b6020915091019038614b5a565b6040915091019038614b4f565b91505060809038614b44565b50600090565b9073ffffffffffffffffffffffffffffffffffffffff7f0000000000000000000000000000000000000000000000000000000000000000163314614c99576106d291614f24565b5050600190565b67ffffffffffffffff90818111614cb5571690565b60846040517f08c379a000000000000000000000000000000000000000000000000000000000815260206004820152602660248201527f53616665436173743a2076616c756520646f65736e27742066697420696e203660448201527f34206269747300000000000000000000000000000000000000000000000000006064820152fd5b15614d4057565b60646040517f08c379a000000000000000000000000000000000000000000000000000000000815260206004820152601b60248201527f436865636b706f696e743a2064656372656173696e67206b65797300000000006044820152fd5b600b549192918015614ec257614e73918185614dc6614dc1612b746020966129d1565b612a5a565b92614dd5845163ffffffff1690565b614dec63ffffffff91828416928391161115614d39565b614e06614dfd865163ffffffff1690565b63ffffffff1690565b03614e775750614e1b612b74614e50936129d1565b9063ffffffff7fffffffffffffffffffffffffffffffffffffffffffffffffffffffff0000000083549260201b169116179055565b01517bffffffffffffffffffffffffffffffffffffffffffffffffffffffff1690565b9190565b9050614ebd9150614e95614e896105e2565b63ffffffff9092168252565b7bffffffffffffffffffffffffffffffffffffffffffffffffffffffff8716818501526135a3565b614e50565b50614efb90614ed2614e896105e2565b7bffffffffffffffffffffffffffffffffffffffffffffffffffffffff841660208201526135a3565b60009190565b9080821015614f0e575090565b905090565b908151811015612c9a570160200190565b81516034811061504d577f2370726f706f7365723d307800000000000000000000000000000000000000007fffffffffffffffffffffffff00000000000000000000000000000000000000007fffffffffffffffffffffffffffffffffffffffffffffffffffffffffffffffec8386010151160361504d5791600092614fa9816129fe565b915b818310614fd35750505073ffffffffffffffffffffffffffffffffffffffff80911691161490565b90919361501161500c614fe68785614f13565b517fff000000000000000000000000000000000000000000000000000000000000001690565b615055565b9190156150425773fffffffffffffffffffffffffffffffffffffff060ff600193169160041b161794019190614fab565b505050505050600190565b505050600190565b60f81c9081602f1080615123575b156150935760ff7fffffffffffffffffffffffffffffffffffffffffffffffffffffffffffffffd0600193011690565b8160401080615119575b156150cd5760ff7fffffffffffffffffffffffffffffffffffffffffffffffffffffffffffffffc9600193011690565b816060108061510f575b156151075760ff7fffffffffffffffffffffffffffffffffffffffffffffffffffffffffffffffa9600193011690565b600091508190565b50606782106150d7565b506047821061509d565b50603a821061506356fea26469706673582212205f1d56386ea23bd00933a7bf0ae403466133a7d59a93710e9c7bad8bb687365864736f6c634300081800330553476bf02ef2726e8ce5ced78d63e26e602e4a2257b1f559418e24b4633997",
  "linkReferences": {},
  "deployedLinkReferences": {}
}