{
  "_format": "hh-sol-artifact-1",
  "contractName": "FarmRewardDistributorV2",
  "sourceName": "contracts/farming/FarmRewardDistributorV2.sol",
  "abi": [
    {
      "inputs": [
        {
          "internalType": "address",
          "name": "_signer",
          "type": "address"
        },
        {
          "internalType": "contract IEFC",
          "name": "_EFC",
          "type": "address"
        },
        {
          "internalType": "contract PositionFarmRewardDistributor",
          "name": "_distributorV1",
          "type": "address"
        },
        {
          "internalType": "contract IFeeDistributor",
          "name": "_feeDistributor",
          "type": "address"
        },
        {
          "internalType": "contract PoolIndexer",
          "name": "_poolIndexer",
          "type": "address"
        }
      ],
      "stateMutability": "nonpayable",
      "type": "constructor"
    },
    {
      "inputs": [],
      "name": "Forbidden",
      "type": "error"
    },
    {
      "inputs": [
        {
          "internalType": "uint32",
          "name": "lockupFreeRate",
          "type": "uint32"
        }
      ],
      "name": "InvalidLockupFreeRate",
      "type": "error"
    },
    {
      "inputs": [
        {
          "internalType": "uint16",
          "name": "period",
          "type": "uint16"
        }
      ],
      "name": "InvalidLockupPeriod",
      "type": "error"
    },
    {
      "inputs": [
        {
          "internalType": "address",
          "name": "owner",
          "type": "address"
        },
        {
          "internalType": "uint256",
          "name": "tokenID",
          "type": "uint256"
        }
      ],
      "name": "InvalidNFTOwner",
      "type": "error"
    },
    {
      "inputs": [
        {
          "internalType": "uint32",
          "name": "nonce",
          "type": "uint32"
        }
      ],
      "name": "InvalidNonce",
      "type": "error"
    },
    {
      "inputs": [
        {
          "internalType": "contract IPool",
          "name": "pool",
          "type": "address"
        }
      ],
      "name": "InvalidPool",
      "type": "error"
    },
    {
      "inputs": [
        {
          "internalType": "uint16",
          "name": "rewardType",
          "type": "uint16"
        }
      ],
      "name": "InvalidRewardType",
      "type": "error"
    },
    {
      "inputs": [],
      "name": "InvalidSignature",
      "type": "error"
    },
    {
      "inputs": [],
      "name": "ReentrancyGuardReentrantCall",
      "type": "error"
    },
    {
      "inputs": [
        {
          "internalType": "uint8",
          "name": "bits",
          "type": "uint8"
        },
        {
          "internalType": "uint256",
          "name": "value",
          "type": "uint256"
        }
      ],
      "name": "SafeCastOverflowedUintDowncast",
      "type": "error"
    },
    {
      "inputs": [
        {
          "internalType": "address",
          "name": "token",
          "type": "address"
        }
      ],
      "name": "SafeERC20FailedOperation",
      "type": "error"
    },
    {
      "anonymous": false,
      "inputs": [
        {
          "indexed": true,
          "internalType": "address",
          "name": "previousGov",
          "type": "address"
        },
        {
          "indexed": true,
          "internalType": "address",
          "name": "newGov",
          "type": "address"
        }
      ],
      "name": "ChangeGovStarted",
      "type": "event"
    },
    {
      "anonymous": false,
      "inputs": [
        {
          "indexed": true,
          "internalType": "address",
          "name": "collector",
          "type": "address"
        },
        {
          "indexed": false,
          "internalType": "bool",
          "name": "enabled",
          "type": "bool"
        }
      ],
      "name": "CollectorUpdated",
      "type": "event"
    },
    {
      "anonymous": false,
      "inputs": [
        {
          "indexed": true,
          "internalType": "address",
          "name": "previousGov",
          "type": "address"
        },
        {
          "indexed": true,
          "internalType": "address",
          "name": "newGov",
          "type": "address"
        }
      ],
      "name": "GovChanged",
      "type": "event"
    },
    {
      "anonymous": false,
      "inputs": [
        {
          "indexed": true,
          "internalType": "uint16",
          "name": "period",
          "type": "uint16"
        },
        {
          "indexed": false,
          "internalType": "uint32",
          "name": "lockupFreeRate",
          "type": "uint32"
        }
      ],
      "name": "LockupFreeRateSet",
      "type": "event"
    },
    {
      "anonymous": false,
      "inputs": [
        {
          "indexed": false,
          "internalType": "contract IPool",
          "name": "pool",
          "type": "address"
        },
        {
          "indexed": true,
          "internalType": "address",
          "name": "account",
          "type": "address"
        },
        {
          "indexed": true,
          "internalType": "uint16",
          "name": "rewardType",
          "type": "uint16"
        },
        {
          "indexed": true,
          "internalType": "uint16",
          "name": "referralToken",
          "type": "uint16"
        },
        {
          "indexed": false,
          "internalType": "uint32",
          "name": "nonce",
          "type": "uint32"
        },
        {
          "indexed": false,
          "internalType": "address",
          "name": "receiver",
          "type": "address"
        },
        {
          "indexed": false,
          "internalType": "uint200",
          "name": "amount",
          "type": "uint200"
        }
      ],
      "name": "RewardCollected",
      "type": "event"
    },
    {
      "anonymous": false,
      "inputs": [
        {
          "indexed": true,
          "internalType": "address",
          "name": "account",
          "type": "address"
        },
        {
          "indexed": true,
          "internalType": "uint16",
          "name": "period",
          "type": "uint16"
        },
        {
          "indexed": true,
          "internalType": "address",
          "name": "receiver",
          "type": "address"
        },
        {
          "indexed": false,
          "internalType": "uint256",
          "name": "lockedOrUnlockedAmount",
          "type": "uint256"
        },
        {
          "indexed": false,
          "internalType": "uint256",
          "name": "burnedAmount",
          "type": "uint256"
        }
      ],
      "name": "RewardLockedAndBurned",
      "type": "event"
    },
    {
      "anonymous": false,
      "inputs": [
        {
          "indexed": true,
          "internalType": "uint16",
          "name": "rewardType",
          "type": "uint16"
        },
        {
          "indexed": false,
          "internalType": "string",
          "name": "description",
          "type": "string"
        }
      ],
      "name": "RewardTypeDescriptionSet",
      "type": "event"
    },
    {
      "inputs": [],
      "name": "EFC",
      "outputs": [
        {
          "internalType": "contract IEFC",
          "name": "",
          "type": "address"
        }
      ],
      "stateMutability": "view",
      "type": "function"
    },
    {
      "inputs": [],
      "name": "REWARD_TYPE_LIQUIDITY",
      "outputs": [
        {
          "internalType": "uint16",
          "name": "",
          "type": "uint16"
        }
      ],
      "stateMutability": "view",
      "type": "function"
    },
    {
      "inputs": [],
      "name": "REWARD_TYPE_POSITION",
      "outputs": [
        {
          "internalType": "uint16",
          "name": "",
          "type": "uint16"
        }
      ],
      "stateMutability": "view",
      "type": "function"
    },
    {
      "inputs": [],
      "name": "REWARD_TYPE_REFERRAL_LIQUIDITY",
      "outputs": [
        {
          "internalType": "uint16",
          "name": "",
          "type": "uint16"
        }
      ],
      "stateMutability": "view",
      "type": "function"
    },
    {
      "inputs": [],
      "name": "REWARD_TYPE_REFERRAL_POSITION",
      "outputs": [
        {
          "internalType": "uint16",
          "name": "",
          "type": "uint16"
        }
      ],
      "stateMutability": "view",
      "type": "function"
    },
    {
      "inputs": [],
      "name": "REWARD_TYPE_RISK_BUFFER_FUND",
      "outputs": [
        {
          "internalType": "uint16",
          "name": "",
          "type": "uint16"
        }
      ],
      "stateMutability": "view",
      "type": "function"
    },
    {
      "inputs": [],
      "name": "acceptGov",
      "outputs": [],
      "stateMutability": "nonpayable",
      "type": "function"
    },
    {
      "inputs": [
        {
          "internalType": "address",
          "name": "_newGov",
          "type": "address"
        }
      ],
      "name": "changeGov",
      "outputs": [],
      "stateMutability": "nonpayable",
      "type": "function"
    },
    {
      "inputs": [
        {
          "internalType": "address",
          "name": "_account",
          "type": "address"
        },
        {
          "internalType": "PackedValue",
          "name": "_nonceAndLockupPeriod",
          "type": "uint256"
        },
        {
          "internalType": "PackedValue[]",
          "name": "_packedPoolRewardValues",
          "type": "uint256[]"
        },
        {
          "internalType": "bytes",
          "name": "_signature",
          "type": "bytes"
        },
        {
          "internalType": "address",
          "name": "_receiver",
          "type": "address"
        }
      ],
      "name": "collectBatch",
      "outputs": [],
      "stateMutability": "nonpayable",
      "type": "function"
    },
    {
      "inputs": [
        {
          "internalType": "uint16",
          "name": "",
          "type": "uint16"
        },
        {
          "internalType": "contract IPool",
          "name": "",
          "type": "address"
        },
        {
          "internalType": "uint16",
          "name": "",
          "type": "uint16"
        }
      ],
      "name": "collectedReferralRewards",
      "outputs": [
        {
          "internalType": "uint200",
          "name": "",
          "type": "uint200"
        }
      ],
      "stateMutability": "view",
      "type": "function"
    },
    {
      "inputs": [
        {
          "internalType": "address",
          "name": "",
          "type": "address"
        },
        {
          "internalType": "contract IPool",
          "name": "",
          "type": "address"
        },
        {
          "internalType": "uint16",
          "name": "",
          "type": "uint16"
        }
      ],
      "name": "collectedRewards",
      "outputs": [
        {
          "internalType": "uint200",
          "name": "",
          "type": "uint200"
        }
      ],
      "stateMutability": "view",
      "type": "function"
    },
    {
      "inputs": [
        {
          "internalType": "address",
          "name": "",
          "type": "address"
        }
      ],
      "name": "collectors",
      "outputs": [
        {
          "internalType": "bool",
          "name": "",
          "type": "bool"
        }
      ],
      "stateMutability": "view",
      "type": "function"
    },
    {
      "inputs": [],
      "name": "distributorV1",
      "outputs": [
        {
          "internalType": "contract PositionFarmRewardDistributor",
          "name": "",
          "type": "address"
        }
      ],
      "stateMutability": "view",
      "type": "function"
    },
    {
      "inputs": [],
      "name": "feeDistributor",
      "outputs": [
        {
          "internalType": "contract IFeeDistributor",
          "name": "",
          "type": "address"
        }
      ],
      "stateMutability": "view",
      "type": "function"
    },
    {
      "inputs": [],
      "name": "gov",
      "outputs": [
        {
          "internalType": "address",
          "name": "",
          "type": "address"
        }
      ],
      "stateMutability": "view",
      "type": "function"
    },
    {
      "inputs": [
        {
          "internalType": "uint16",
          "name": "",
          "type": "uint16"
        }
      ],
      "name": "lockupFreeRates",
      "outputs": [
        {
          "internalType": "uint32",
          "name": "",
          "type": "uint32"
        }
      ],
      "stateMutability": "view",
      "type": "function"
    },
    {
      "inputs": [
        {
          "internalType": "address",
          "name": "",
          "type": "address"
        }
      ],
      "name": "nonces",
      "outputs": [
        {
          "internalType": "uint32",
          "name": "",
          "type": "uint32"
        }
      ],
      "stateMutability": "view",
      "type": "function"
    },
    {
      "inputs": [],
      "name": "pendingGov",
      "outputs": [
        {
          "internalType": "address",
          "name": "",
          "type": "address"
        }
      ],
      "stateMutability": "view",
      "type": "function"
    },
    {
      "inputs": [],
      "name": "poolIndexer",
      "outputs": [
        {
          "internalType": "contract PoolIndexer",
          "name": "",
          "type": "address"
        }
      ],
      "stateMutability": "view",
      "type": "function"
    },
    {
      "inputs": [
        {
          "internalType": "uint16",
          "name": "",
          "type": "uint16"
        }
      ],
      "name": "rewardTypesDescriptions",
      "outputs": [
        {
          "internalType": "string",
          "name": "",
          "type": "string"
        }
      ],
      "stateMutability": "view",
      "type": "function"
    },
    {
      "inputs": [
        {
          "internalType": "address",
          "name": "_collector",
          "type": "address"
        },
        {
          "internalType": "bool",
          "name": "_enabled",
          "type": "bool"
        }
      ],
      "name": "setCollector",
      "outputs": [],
      "stateMutability": "nonpayable",
      "type": "function"
    },
    {
      "inputs": [
        {
          "components": [
            {
              "internalType": "uint16",
              "name": "period",
              "type": "uint16"
            },
            {
              "internalType": "uint32",
              "name": "lockupFreeRate",
              "type": "uint32"
            }
          ],
          "internalType": "struct FarmRewardDistributorV2.LockupFreeRateParameter[]",
          "name": "_parameters",
          "type": "tuple[]"
        }
      ],
      "name": "setLockupFreeRates",
      "outputs": [],
      "stateMutability": "nonpayable",
      "type": "function"
    },
    {
      "inputs": [
        {
          "internalType": "uint16",
          "name": "_rewardType",
          "type": "uint16"
        },
        {
          "internalType": "string",
          "name": "_description",
          "type": "string"
        }
      ],
      "name": "setRewardType",
      "outputs": [],
      "stateMutability": "nonpayable",
      "type": "function"
    },
    {
      "inputs": [],
      "name": "signer",
      "outputs": [
        {
          "internalType": "address",
          "name": "",
          "type": "address"
        }
      ],
      "stateMutability": "view",
      "type": "function"
    },
    {
      "inputs": [],
      "name": "token",
      "outputs": [
        {
          "internalType": "contract IERC20",
          "name": "",
          "type": "address"
        }
      ],
      "stateMutability": "view",
      "type": "function"
    }
  ],
  "bytecode": "0x610140806040523462000c205760a08162003708803803809162000024828562000c9d565b83398101031262000c205780516001600160a01b0391828216820362000c2057602081015190838216820362000c20576040810151928484169384810362000c20576060830151918683169384840362000c20576080015195878716870362000c2057602092600491600054913360018060a01b031984161760005560405198899586948d3391167f3d1e4c3a68fed9f4f8315582b7297cf8fa264bc8e6704287603ba8c72bf05ac2600080a3600160025560805260c05260e052637e062a3560e11b82525afa92831562000c2e5760009362000c3a575b50906020936044928460a05261010052610120526000604051958694859363095ea7b360e01b8552600485015282196024850152165af1801562000c2e5762000bea575b506040516200014f8162000c81565b60088152672837b9b4ba34b7b760c11b60208083019190915260016000526004905280517fabd6e7cb50984ff9c2f3e18a2660c3353dadf4e3291deeb275dae2cd1e44fe05906001600160401b0381116200083e578154600181811c9116801562000bdf575b60208210146200081d57601f811162000b92575b50806020601f821160011462000b295760009162000b1d575b508160011b916000199060031b1c19161790555b604051906020825280519081602084015260005b82811062000b06576001600080516020620036e883398151915285604081876000838284010152601f80199101168101030190a26040516200024c8162000c81565b60098152684c697175696469747960b81b60208083019190915260026000526004905280517f91da3fd0782e51c6b3986e9e672fd566868e71f3dbc2d6c2cd6fbb3e361af2a7906001600160401b0381116200083e578154600181811c9116801562000afb575b60208210146200081d57601f811162000aae575b50806020601f821160011462000a455760009162000a39575b508160011b916000199060031b1c19161790555b604051906020825280519081602084015260005b82811062000a22576002600080516020620036e883398151915285604081876000838284010152601f80199101168101030190a26040516200034a8162000c81565b600e81526d149a5cdad09d5999995c919d5b9960921b60208083019190915260036000526004905280517f2e174c10e159ea99b867ce3205125c24a42d128804e4070ed6fcc8cc98166aa0906001600160401b0381116200083e578154600181811c9116801562000a17575b60208210146200081d57601f8111620009ca575b50806020601f82116001146200095e5760009162000952575b508160011b916000199060031b1c19161790555b604051906020825280519081602084015260005b8281106200093b576003600080516020620036e883398151915285604081876000838284010152601f80199101168101030190a26040516200044d8162000c81565b6011815270526566657272616c4c697175696469747960781b6020820152600460005260046020526040600020815160018060401b0381116200083e578154600181811c9116801562000930575b60208210146200081d57601f8111620008e3575b50806020601f821160011462000877576000916200086b575b508160011b916000199060031b1c19161790555b604051906020825280519081602084015260005b82811062000854576004600080516020620036e883398151915285604081876000838284010152601f80199101168101030190a2604051620005328162000c81565b601081526f2932b332b93930b62837b9b4ba34b7b760811b60208083019190915260056000526004905280517f04cde762ef08b6b6c5ded8e8c4c0b3f4e5c9ad7342c88fcc93681b4588b73f05906001600160401b0381116200083e578154600181811c9116801562000833575b60208210146200081d57601f8111620007d0575b50806020601f8211600114620007645760009162000758575b508160011b916000199060031b1c19161790555b604051906020825280519081602084015260005b82811062000741576005600080516020620036e883398151915285604081876000838284010152601f80199101168101030190a26200064f6040516200063b8162000c81565b6000815263017d7840602082015262000cc1565b62000675604051620006618162000c81565b601e81526302faf080602082015262000cc1565b6200069b604051620006878162000c81565b603c815263047868c0602082015262000cc1565b620006c1604051620006ad8162000c81565b605a81526305f5e100602082015262000cc1565b6040516128dd908162000e0b8239608051818181610a280152611f8e015260a05181818161017e0152610ac9015260c05181818161117d0152611ffd015260e0518181816115c7015281816118c001526122690152610100518181816103b701528181610d0e01526121fb0152610120518181816106050152610fcd0152f35b8060208092840101516040828701015201620005f5565b905083015184620005cd565b91508260005260206000206000925b601f1983168410620007b7576001935082601f198116106200079d575b5050811b019055620005e1565b85015160001960f88460031b161c19169055848062000790565b8581015182556020938401936001909201910162000773565b826000526020600020601f830160051c8101916020841062000812575b601f0160051c01905b818110620008055750620005b4565b60008155600101620007f6565b9091508190620007ed565b634e487b7160e01b600052602260045260246000fd5b90607f1690620005a0565b634e487b7160e01b600052604160045260246000fd5b8060208092840101516040828701015201620004f0565b905083015184620004c8565b91508260005260206000206000925b601f1983168410620008ca576001935082601f19811610620008b0575b5050811b019055620004dc565b85015160001960f88460031b161c191690558480620008a3565b8581015182556020938401936001909201910162000886565b826000526020600020601f830160051c8101916020841062000925575b601f0160051c01905b818110620009185750620004af565b6000815560010162000909565b909150819062000900565b90607f16906200049b565b80602080928401015160408287010152016200040b565b905083015184620003e3565b91508260005260206000206000925b601f1983168410620009b1576001935082601f1981161062000997575b5050811b019055620003f7565b85015160001960f88460031b161c1916905584806200098a565b858101518255602093840193600190920191016200096d565b826000526020600020601f830160051c8101916020841062000a0c575b601f0160051c01905b818110620009ff5750620003ca565b60008155600101620009f0565b9091508190620009e7565b90607f1690620003b6565b806020809284010151604082870101520162000308565b905083015184620002e0565b6000848152602081209250601f198416905b81811062000a955750908360019493921062000a7b575b5050811b019055620002f4565b85015160001960f88460031b161c19169055848062000a6e565b9192602060018192868a01518155019401920162000a57565b826000526020600020601f830160051c8101916020841062000af0575b601f0160051c01905b81811062000ae35750620002c7565b6000815560010162000ad4565b909150819062000acb565b90607f1690620002b3565b80602080928401015160408287010152016200020a565b905083015138620001e2565b6000848152602081209250601f198416905b81811062000b795750908360019493921062000b5f575b5050811b019055620001f6565b85015160001960f88460031b161c19169055388062000b52565b9192602060018192868a01518155019401920162000b3b565b826000526020600020601f830160051c8101916020841062000bd4575b601f0160051c01905b81811062000bc75750620001c9565b6000815560010162000bb8565b909150819062000baf565b90607f1690620001b5565b6020813d60201162000c25575b8162000c066020938362000c9d565b8101031262000c2057518015150362000c20573862000140565b600080fd5b3d915062000bf7565b6040513d6000823e3d90fd5b9092506020813d60201162000c78575b8162000c596020938362000c9d565b8101031262000c20575190848216820362000c205790916020620000fc565b3d915062000c4a565b604081019081106001600160401b038211176200083e57604052565b601f909101601f19168101906001600160401b038211908210176200083e57604052565b9060208083019063ffffffff808351166305f5e100811162000df2575061ffff808651168062000d40575b50839495827f7d65f4d3bc4edf6e3918cb74a23895e78fc9018ea33fd8b89c87703abd9e7d27955116828251166000526005855260406000209063ffffffff198254161790555116935116604051908152a2565b61010051604051633d6a7c1160e11b815260048101929092528490829060249082906001600160a01b03165afa801562000c2e57829160009162000da9575b50161562000d8e573862000cec565b8551604051631a497d9d60e01b815291166004820152602490fd5b9091508481813d831162000dea575b62000dc4818362000c9d565b8101031262000de6575190828216820362000de3575081903862000d7f565b80fd5b5080fd5b503d62000db8565b602490604051906331a5a1a760e01b82526004820152fdfe608080604052600436101561001357600080fd5b600090813560e01c908163019a526c1461221f575080630d43e8ad146121b05780630dfda0e31461217657806312d43a5114612125578063132b35bf146120215780631420f80214611fb2578063238ac93314611f435780632524081014611ef1578063425ac56d14611e4b5780634754c42714611be55780634bf5721614611b3e57806355a9437914611ae75780637bc6729b14611a3c5780637ecebe00146119d357806388defd9b146119995780638f1d31ec146107b25780639593b5231461074a578063a962ef1e1461069d578063b9a18c9b14610663578063babf3ac614610629578063d3433520146105ba578063df2cc13f146104ed578063e358b511146101df578063fa42d964146101a55763fc0c546a1461013457600080fd5b346101a257807ffffffffffffffffffffffffffffffffffffffffffffffffffffffffffffffffc3601126101a257602060405173ffffffffffffffffffffffffffffffffffffffff7f0000000000000000000000000000000000000000000000000000000000000000168152f35b80fd5b50346101a257807ffffffffffffffffffffffffffffffffffffffffffffffffffffffffffffffffc3601126101a257602060405160018152f35b50346101a2576020807ffffffffffffffffffffffffffffffffffffffffffffffffffffffffffffffffc3601126104e95767ffffffffffffffff6004358181116104e557366023820112156104e5578060040135918083116104e157602491600636848660061b840101116104dd576102566124bd565b865b858110610263578780f35b80821b830160407fffffffffffffffffffffffffffffffffffffffffffffffffffffffffffffffdc82360301126104d95760405160408101818110878211176104ab576040528682013561ffff9283821682036104a657604491835201359163ffffffff91828416808503610460578b82019485526305f5e1008111610476575090818c828d959451168061036a575b5091839186959360407f7d65f4d3bc4edf6e3918cb74a23895e78fc9018ea33fd8b89c87703abd9e7d279660019a995116918484511681526005875220907fffffffffffffffffffffffffffffffffffffffffffffffffffffffff000000008254161790555116935116604051908152a201610258565b909192939450604051907f7ad4f82200000000000000000000000000000000000000000000000000000000825260048201528c818c8173ffffffffffffffffffffffffffffffffffffffff7f0000000000000000000000000000000000000000000000000000000000000000165afa90811561046b5784929161042d575b5016156103fa57908a92918c386102f3565b8892505116604051907f1a497d9d0000000000000000000000000000000000000000000000000000000082526004820152fd5b8092508d8092503d8311610464575b6104468183612302565b8101031261046057518281168103610460578290386103e8565b8c80fd5b503d61043c565b6040513d84823e3d90fd5b8990604051907f31a5a1a70000000000000000000000000000000000000000000000000000000082526004820152fd5b600080fd5b877f4e487b710000000000000000000000000000000000000000000000000000000060005260416004526000fd5b8880fd5b8680fd5b8480fd5b8380fd5b5080fd5b50346101a25760407ffffffffffffffffffffffffffffffffffffffffffffffffffffffffffffffffc3601126101a2576105256123d8565b602435908115158092036105b657602073ffffffffffffffffffffffffffffffffffffffff7f949457f2c83e79cb62d2f4f8a997d128579a78f100b40b1832fc0981b22c113f926105746124bd565b169283855260038252604085207fffffffffffffffffffffffffffffffffffffffffffffffffffffffffffffff0081541660ff8316179055604051908152a280f35b8280fd5b50346101a257807ffffffffffffffffffffffffffffffffffffffffffffffffffffffffffffffffc3601126101a257602060405173ffffffffffffffffffffffffffffffffffffffff7f0000000000000000000000000000000000000000000000000000000000000000168152f35b50346101a257807ffffffffffffffffffffffffffffffffffffffffffffffffffffffffffffffffc3601126101a257602060405160038152f35b50346101a257807ffffffffffffffffffffffffffffffffffffffffffffffffffffffffffffffffc3601126101a257602060405160028152f35b50346101a25760207ffffffffffffffffffffffffffffffffffffffffffffffffffffffffffffffffc3601126101a2576106d56123d8565b6106dd6124bd565b73ffffffffffffffffffffffffffffffffffffffff80911690817fffffffffffffffffffffffff000000000000000000000000000000000000000060015416176001558254167fb9911e2099e372c216862258dc462bb65da46a2c854536c8b1acae619d0d62ed8380a380f35b50346101a25760207ffffffffffffffffffffffffffffffffffffffffffffffffffffffffffffffffc3601126101a25760ff604060209273ffffffffffffffffffffffffffffffffffffffff61079e6123d8565b168152600384522054166040519015158152f35b50346101a25760a07ffffffffffffffffffffffffffffffffffffffffffffffffffffffffffffffffc3601126101a2576107ea6123d8565b67ffffffffffffffff604435116104e9573660236044350112156104e95767ffffffffffffffff60443560040135116104e9573660246044356004013560051b6044350101116104e95760643567ffffffffffffffff81116105b65761085490369060040161241e565b73ffffffffffffffffffffffffffffffffffffffff60849392933516608435036104e557600280541461196f5760028055338452600360205260ff60408520541615611945576084359073ffffffffffffffffffffffffffffffffffffffff82161561193d575b73ffffffffffffffffffffffffffffffffffffffff83168552600660205263ffffffff6040862054168015611860575b63ffffffff600191160163ffffffff8111610f475763ffffffff1663ffffffff60243516036118295761ffff60243560201c168552600560205263ffffffff6040862054169384156117f1576040516080810173ffffffffffffffffffffffffffffffffffffffff86166020830152602435604083015260608083015260443560040135905260a08101602460443501885b6044356004013581106117db575050610a0892826109c9610a109694610a0294037fffffffffffffffffffffffffffffffffffffffffffffffffffffffffffffffe08101835282612302565b602081519101207f19457468657265756d205369676e6564204d6573736167653a0a3332000000008a52601c52603c8920923691612486565b906124de565b919091612516565b73ffffffffffffffffffffffffffffffffffffffff807f0000000000000000000000000000000000000000000000000000000000000000169116036117b15783845b604435600401358110610f74575073ffffffffffffffffffffffffffffffffffffffff8316855260066020526040852063ffffffff602435167fffffffffffffffffffffffffffffffffffffffffffffffffffffffff0000000082541617905573ffffffffffffffffffffffffffffffffffffffff7f00000000000000000000000000000000000000000000000000000000000000001693610b7d6040517f40c10f19000000000000000000000000000000000000000000000000000000006020820152610b7781610b4b8630602484016020909392919373ffffffffffffffffffffffffffffffffffffffff60408201951681520152565b037fffffffffffffffffffffffffffffffffffffffffffffffffffffffffffffffe08101835282612302565b866126af565b50808202908282041482151715610f47576305f5e10090049384820391808311610f1a578503610e26575b60243560201c61ffff16610cf5576040517fa9059cbb00000000000000000000000000000000000000000000000000000000602082015273ffffffffffffffffffffffffffffffffffffffff8416602482015260448101869052610c1990610c138160648101610b4b565b826126af565b8051908115159182610cd1575b5050610ca057509073ffffffffffffffffffffffffffffffffffffffff915b604051948552602085015216917fff48abba558412f72ae3344bb8f6d20cadc01a1da2838cdafb288ec541c6b98e604073ffffffffffffffffffffffffffffffffffffffff61ffff60243560201c16941692a4600160025580f35b602490604051907f5274afe70000000000000000000000000000000000000000000000000000000082526004820152fd5b81925090602091810103126104a657602001518015908115036104a6573880610c26565b508473ffffffffffffffffffffffffffffffffffffffff7f000000000000000000000000000000000000000000000000000000000000000016803b156104e95781906064604051809481937fdc8c4ffe0000000000000000000000000000000000000000000000000000000083528a600484015273ffffffffffffffffffffffffffffffffffffffff8916602484015261ffff60243560201c1660448401525af18015610e1b57610dbe575b509073ffffffffffffffffffffffffffffffffffffffff91610c45565b67ffffffffffffffff8196929611610dee576040529373ffffffffffffffffffffffffffffffffffffffff610da1565b6024827f4e487b710000000000000000000000000000000000000000000000000000000081526041600452fd5b6040513d88823e3d90fd5b6040517fa9059cbb00000000000000000000000000000000000000000000000000000000602082015260016024820152826044820152604481526080810181811067ffffffffffffffff821117610eed57604052610e8490826126af565b8051908115159182610ec9575b505015610ba857602490604051907f5274afe70000000000000000000000000000000000000000000000000000000082526004820152fd5b81925090602091810103126104dd57602001518015908115036104dd573880610e91565b6024887f4e487b710000000000000000000000000000000000000000000000000000000081526041600452fd5b6024877f4e487b710000000000000000000000000000000000000000000000000000000081526011600452fd5b6024867f4e487b710000000000000000000000000000000000000000000000000000000081526011600452fd5b6040517f1f62c92100000000000000000000000000000000000000000000000000000000815262ffffff60248360051b60443501013516600482015260208160248173ffffffffffffffffffffffffffffffffffffffff7f0000000000000000000000000000000000000000000000000000000000000000165afa9081156117a6578791611757575b5073ffffffffffffffffffffffffffffffffffffffff8116156117105761ffff60248360051b60443501013560181c168752600460205261104160408820546122af565b156116ce57604435600583901b016024013560281c61ffff16156114c25761ffff60248360051b60443501013560281c16875260086020526040872073ffffffffffffffffffffffffffffffffffffffff821688526020526040872061ffff60248460051b60443501013560181c16885260205278ffffffffffffffffffffffffffffffffffffffffffffffffff604088205416925b78ffffffffffffffffffffffffffffffffffffffffffffffffff80851660248560051b60443501013560381c031161134457604435600584901b016024013560281c61ffff1615611429576040517f6352211e00000000000000000000000000000000000000000000000000000000815261ffff60248560051b60443501013560281c16600482015260208160248173ffffffffffffffffffffffffffffffffffffffff7f0000000000000000000000000000000000000000000000000000000000000000165afa90811561141e5789916113cf575b5073ffffffffffffffffffffffffffffffffffffffff80881691160361137157604435600584901b0160240135602881901c61ffff9081168a52600860209081526040808c2073ffffffffffffffffffffffffffffffffffffffff87168d528252808c20601885901c9093168c52919052892080547fffffffffffffff000000000000000000000000000000000000000000000000001660389290921c9190911790555b78ffffffffffffffffffffffffffffffffffffffffffffffffff80851660248560051b60443501013560381c031681018111611344576040805173ffffffffffffffffffffffffffffffffffffffff93841681526024803563ffffffff1660208301528785169282019290925278ffffffffffffffffffffffffffffffffffffffffffffffffff958616604435600587901b0190920135603881901c92909203909516606086018190529091019360019392602883901c61ffff9081169360181c1691908816907f47824e14048b805e2a7e5c061c8db0c06c3acf330c9238476ab2bdb1a5a80bf590608090a401610a52565b6024887f4e487b710000000000000000000000000000000000000000000000000000000081526011600452fd5b60448661ffff60248673ffffffffffffffffffffffffffffffffffffffff604051947f848efb8b00000000000000000000000000000000000000000000000000000000865216600485015260051b843501013560281c166024820152fd5b90506020813d602011611416575b816113ea60209383612302565b810103126104d9575173ffffffffffffffffffffffffffffffffffffffff811681036104d957386111ad565b3d91506113dd565b6040513d8b823e3d90fd5b73ffffffffffffffffffffffffffffffffffffffff8616885260076020526040882073ffffffffffffffffffffffffffffffffffffffff831689526020526040882061ffff60248560051b60443501013560181c1689526020526040882060248460051b60443501013560381c7fffffffffffffff00000000000000000000000000000000000000000000000000825416179055611251565b73ffffffffffffffffffffffffffffffffffffffff8516875260076020526040872073ffffffffffffffffffffffffffffffffffffffff821688526020526040872061ffff60248460051b60443501013560181c16885260205278ffffffffffffffffffffffffffffffffffffffffffffffffff604088205416928315806116b2575b156110d75792506040517f263747f700000000000000000000000000000000000000000000000000000000815273ffffffffffffffffffffffffffffffffffffffff8216600482015273ffffffffffffffffffffffffffffffffffffffff8616602482015260208160448173ffffffffffffffffffffffffffffffffffffffff7f0000000000000000000000000000000000000000000000000000000000000000165afa9081156116a7578891611671575b5078ffffffffffffffffffffffffffffffffffffffffffffffffff81116116395778ffffffffffffffffffffffffffffffffffffffffffffffffff16926110d7565b604490604051907f6dfcc65000000000000000000000000000000000000000000000000000000000825260c860048301526024820152fd5b90506020813d60201161169f575b8161168c60209383612302565b8101031261169b5751386115f7565b8780fd5b3d915061167f565b6040513d8a823e3d90fd5b50600161ffff60248560051b60443501013560181c1614611545565b60248261ffff82604051927f9a47c78000000000000000000000000000000000000000000000000000000000845260051b60443501013560181c166004820152fd5b60249073ffffffffffffffffffffffffffffffffffffffff604051917f3d325c6c000000000000000000000000000000000000000000000000000000008352166004820152fd5b90506020813d60201161179e575b8161177260209383612302565b810103126104dd575173ffffffffffffffffffffffffffffffffffffffff811681036104dd5738610ffd565b3d9150611765565b6040513d89823e3d90fd5b60046040517f8baa579f000000000000000000000000000000000000000000000000000000008152fd5b909160208060019285358152019301910161097d565b60246040517f1a497d9d00000000000000000000000000000000000000000000000000000000815261ffff823560201c166004820152fd5b60246040517f1adf4e2600000000000000000000000000000000000000000000000000000000815263ffffffff8235166004820152fd5b506040517f7ecebe0000000000000000000000000000000000000000000000000000000000815273ffffffffffffffffffffffffffffffffffffffff8416600482015260208160248173ffffffffffffffffffffffffffffffffffffffff7f0000000000000000000000000000000000000000000000000000000000000000165afa908115610e1b5786916118f6575b506108eb565b90506020813d602011611935575b8161191160209383612302565b81010312611931575163ffffffff811681036119315763ffffffff6118f0565b8580fd5b3d9150611904565b3391506108bb565b60046040517fee90c468000000000000000000000000000000000000000000000000000000008152fd5b60046040517f3ee5aeb5000000000000000000000000000000000000000000000000000000008152fd5b50346101a257807ffffffffffffffffffffffffffffffffffffffffffffffffffffffffffffffffc3601126101a257602060405160058152f35b50346101a25760207ffffffffffffffffffffffffffffffffffffffffffffffffffffffffffffffffc3601126101a25763ffffffff604060209273ffffffffffffffffffffffffffffffffffffffff611a2a6123d8565b16815260068452205416604051908152f35b50346101a257807ffffffffffffffffffffffffffffffffffffffffffffffffffffffffffffffffc3601126101a25760015473ffffffffffffffffffffffffffffffffffffffff8082163303611945577fffffffffffffffffffffffff0000000000000000000000000000000000000000809216600155825491339083161783553391167f3d1e4c3a68fed9f4f8315582b7297cf8fa264bc8e6704287603ba8c72bf05ac28380a380f35b50346101a25760207ffffffffffffffffffffffffffffffffffffffffffffffffffffffffffffffffc3601126101a25763ffffffff604060209261ffff611b2c61228d565b16815260058452205416604051908152f35b50346101a25760607ffffffffffffffffffffffffffffffffffffffffffffffffffffffffffffffffc3601126101a25778ffffffffffffffffffffffffffffffffffffffffffffffffff6040602092611b9561228d565b611b9d6123fb565b90611ba661229e565b9161ffff80921684526008875273ffffffffffffffffffffffffffffffffffffffff858520911684528652838320911682528452205416604051908152f35b50346101a25760407ffffffffffffffffffffffffffffffffffffffffffffffffffffffffffffffffc3601126101a257611c1d61228d565b67ffffffffffffffff906024358281116104e557611c42611c5191369060040161241e565b611c4a6124bd565b3691612486565b90602090818351116104e15761ffff16928385526004825260408520918351918211611e1e57611c8183546122af565b601f8111611ddb575b5080601f8311600114611d16575091817fd1622041fb374671c9337a579314eb26b315d8655d47faf4b2845b32d1c9171f9492611d05948891611d0b575b507fffffffffffffffffffffffffffffffffffffffffffffffffffffffffffffffff8260011b9260031b1c19161790555b60405191829182612372565b0390a280f35b905083015138611cc8565b907fffffffffffffffffffffffffffffffffffffffffffffffffffffffffffffffe083168488528288209288905b828210611dc357505092611d059492600192827fd1622041fb374671c9337a579314eb26b315d8655d47faf4b2845b32d1c9171f989610611d8c575b5050811b019055611cf9565b8501517fffffffffffffffffffffffffffffffffffffffffffffffffffffffffffffffff60f88460031b161c191690553880611d80565b80600185968294968b01518155019501930190611d44565b838752818720601f840160051c810191838510611e14575b601f0160051c01905b818110611e095750611c8a565b878155600101611dfc565b9091508190611df3565b6024867f4e487b710000000000000000000000000000000000000000000000000000000081526041600452fd5b50346101a25760607ffffffffffffffffffffffffffffffffffffffffffffffffffffffffffffffffc3601126101a25778ffffffffffffffffffffffffffffffffffffffffffffffffff6040602092611ea26123d8565b611eaa6123fb565b611eb261229e565b9173ffffffffffffffffffffffffffffffffffffffff80911684526007875284842091168352855261ffff838320911682528452205416604051908152f35b50346101a257807ffffffffffffffffffffffffffffffffffffffffffffffffffffffffffffffffc3601126101a257602073ffffffffffffffffffffffffffffffffffffffff60015416604051908152f35b50346101a257807ffffffffffffffffffffffffffffffffffffffffffffffffffffffffffffffffc3601126101a257602060405173ffffffffffffffffffffffffffffffffffffffff7f0000000000000000000000000000000000000000000000000000000000000000168152f35b50346101a257807ffffffffffffffffffffffffffffffffffffffffffffffffffffffffffffffffc3601126101a257602060405173ffffffffffffffffffffffffffffffffffffffff7f0000000000000000000000000000000000000000000000000000000000000000168152f35b50346101a2576020807ffffffffffffffffffffffffffffffffffffffffffffffffffffffffffffffffc3601126104e95761ffff61205d61228d565b168252600481526040822090604051918381549061207a826122af565b808652926001928084169081156120e357506001146120a8575b6120a486611cf9818a0382612302565b0390f35b9080949650528483205b8284106120d057505050816120a493611cf992820101933880612094565b80548585018701529285019281016120b2565b7fffffffffffffffffffffffffffffffffffffffffffffffffffffffffffffff00168787015250505050151560051b8201019150611cf9816120a43880612094565b50346101a257807ffffffffffffffffffffffffffffffffffffffffffffffffffffffffffffffffc3601126101a25773ffffffffffffffffffffffffffffffffffffffff6020915416604051908152f35b50346101a257807ffffffffffffffffffffffffffffffffffffffffffffffffffffffffffffffffc3601126101a257602060405160048152f35b50346101a257807ffffffffffffffffffffffffffffffffffffffffffffffffffffffffffffffffc3601126101a257602060405173ffffffffffffffffffffffffffffffffffffffff7f0000000000000000000000000000000000000000000000000000000000000000168152f35b9050346104e957817ffffffffffffffffffffffffffffffffffffffffffffffffffffffffffffffffc3601126104e95760209073ffffffffffffffffffffffffffffffffffffffff7f0000000000000000000000000000000000000000000000000000000000000000168152f35b6004359061ffff821682036104a657565b6044359061ffff821682036104a657565b90600182811c921680156122f8575b60208310146122c957565b7f4e487b7100000000000000000000000000000000000000000000000000000000600052602260045260246000fd5b91607f16916122be565b90601f7fffffffffffffffffffffffffffffffffffffffffffffffffffffffffffffffe0910116810190811067ffffffffffffffff82111761234357604052565b7f4e487b7100000000000000000000000000000000000000000000000000000000600052604160045260246000fd5b60208082528251818301819052939260005b8581106123c4575050507fffffffffffffffffffffffffffffffffffffffffffffffffffffffffffffffe0601f8460006040809697860101520116010190565b818101830151848201604001528201612384565b6004359073ffffffffffffffffffffffffffffffffffffffff821682036104a657565b6024359073ffffffffffffffffffffffffffffffffffffffff821682036104a657565b9181601f840112156104a65782359167ffffffffffffffff83116104a657602083818601950101116104a657565b67ffffffffffffffff811161234357601f017fffffffffffffffffffffffffffffffffffffffffffffffffffffffffffffffe01660200190565b9291926124928261244c565b916124a06040519384612302565b8294818452818301116104a6578281602093846000960137010152565b73ffffffffffffffffffffffffffffffffffffffff60005416330361194557565b90604181511460001461250c57612508916020820151906060604084015193015160001a90612743565b9091565b5050600090600290565b600581101561268057806125275750565b6001810361258d5760646040517f08c379a000000000000000000000000000000000000000000000000000000000815260206004820152601860248201527f45434453413a20696e76616c6964207369676e617475726500000000000000006044820152fd5b600281036125f35760646040517f08c379a000000000000000000000000000000000000000000000000000000000815260206004820152601f60248201527f45434453413a20696e76616c6964207369676e6174757265206c656e677468006044820152fd5b6003146125fc57565b60846040517f08c379a000000000000000000000000000000000000000000000000000000000815260206004820152602260248201527f45434453413a20696e76616c6964207369676e6174757265202773272076616c60448201527f75650000000000000000000000000000000000000000000000000000000000006064820152fd5b7f4e487b7100000000000000000000000000000000000000000000000000000000600052602160045260246000fd5b60405190604082019282841067ffffffffffffffff851117612343576000809161273895604052601e85527f416464726573733a206c6f772d6c6576656c2063616c6c206661696c65640000602086015260208151910182855af13d1561273b573d9161271b8361244c565b926127296040519485612302565b83523d6000602085013e6127df565b90565b6060916127df565b9291907f7fffffffffffffffffffffffffffffff5d576e7357a4501ddfe92f46681b20a083116127d35791608094939160ff602094604051948552168484015260408301526060820152600093849182805260015afa156127c657815173ffffffffffffffffffffffffffffffffffffffff8116156127c0579190565b50600190565b50604051903d90823e3d90fd5b50505050600090600390565b9192901561285a57508151156127f3575090565b3b156127fc5790565b60646040517f08c379a000000000000000000000000000000000000000000000000000000000815260206004820152601d60248201527f416464726573733a2063616c6c20746f206e6f6e2d636f6e74726163740000006044820152fd5b82519091501561286d5750805190602001fd5b6128a3906040519182917f08c379a000000000000000000000000000000000000000000000000000000000835260048301612372565b0390fdfea264697066735822122062b0ddb3bbe1a2f8f9afd171c963833a8322510ed516911aa7d52652c020626564736f6c63430008180033d1622041fb374671c9337a579314eb26b315d8655d47faf4b2845b32d1c9171f",
  "linkReferences": {},
  "deployedLinkReferences": {}
}