{
  "_format": "hh-sol-artifact-1",
  "contractName": "RewardCollectorV3",
  "sourceName": "contracts/plugins/RewardCollectorV3.sol",
  "abi": [
    {
      "inputs": [
        {
          "internalType": "contract Router",
          "name": "_router",
          "type": "address"
        },
        {
          "internalType": "contract IERC20",
          "name": "_EQU",
          "type": "address"
        },
        {
          "internalType": "contract IEFC",
          "name": "_EFC",
          "type": "address"
        },
        {
          "internalType": "contract FarmRewardDistributorV2",
          "name": "_distributorV2",
          "type": "address"
        }
      ],
      "stateMutability": "nonpayable",
      "type": "constructor"
    },
    {
      "inputs": [
        {
          "internalType": "uint256",
          "name": "amount",
          "type": "uint256"
        },
        {
          "internalType": "uint256",
          "name": "requiredAmount",
          "type": "uint256"
        }
      ],
      "name": "InsufficientBalance",
      "type": "error"
    },
    {
      "inputs": [
        {
          "internalType": "address",
          "name": "caller",
          "type": "address"
        },
        {
          "internalType": "address",
          "name": "requiredCaller",
          "type": "address"
        }
      ],
      "name": "InvalidCaller",
      "type": "error"
    },
    {
      "inputs": [
        {
          "internalType": "address",
          "name": "token",
          "type": "address"
        }
      ],
      "name": "SafeERC20FailedOperation",
      "type": "error"
    },
    {
      "inputs": [],
      "name": "EFC",
      "outputs": [
        {
          "internalType": "contract IEFC",
          "name": "",
          "type": "address"
        }
      ],
      "stateMutability": "view",
      "type": "function"
    },
    {
      "inputs": [],
      "name": "EQU",
      "outputs": [
        {
          "internalType": "contract IERC20",
          "name": "",
          "type": "address"
        }
      ],
      "stateMutability": "view",
      "type": "function"
    },
    {
      "inputs": [
        {
          "internalType": "uint256[]",
          "name": "_tokenIDs",
          "type": "uint256[]"
        }
      ],
      "name": "collectArchitectRewardBatch",
      "outputs": [
        {
          "internalType": "uint256",
          "name": "rewardDebt",
          "type": "uint256"
        }
      ],
      "stateMutability": "nonpayable",
      "type": "function"
    },
    {
      "inputs": [
        {
          "internalType": "contract IPool[]",
          "name": "_pools",
          "type": "address[]"
        }
      ],
      "name": "collectFarmLiquidityRewardBatch",
      "outputs": [
        {
          "internalType": "uint256",
          "name": "rewardDebt",
          "type": "uint256"
        }
      ],
      "stateMutability": "nonpayable",
      "type": "function"
    },
    {
      "inputs": [
        {
          "internalType": "contract IPool[]",
          "name": "_pools",
          "type": "address[]"
        },
        {
          "internalType": "uint256[]",
          "name": "_referralTokens",
          "type": "uint256[]"
        }
      ],
      "name": "collectFarmReferralRewardBatch",
      "outputs": [
        {
          "internalType": "uint256",
          "name": "rewardDebt",
          "type": "uint256"
        }
      ],
      "stateMutability": "nonpayable",
      "type": "function"
    },
    {
      "inputs": [
        {
          "internalType": "PackedValue",
          "name": "_nonceAndLockupPeriod",
          "type": "uint256"
        },
        {
          "internalType": "PackedValue[]",
          "name": "_packedPoolRewardValues",
          "type": "uint256[]"
        },
        {
          "internalType": "bytes",
          "name": "_signature",
          "type": "bytes"
        },
        {
          "internalType": "address",
          "name": "_receiver",
          "type": "address"
        }
      ],
      "name": "collectFarmRewardBatch",
      "outputs": [],
      "stateMutability": "nonpayable",
      "type": "function"
    },
    {
      "inputs": [
        {
          "internalType": "contract IPool[]",
          "name": "_pools",
          "type": "address[]"
        }
      ],
      "name": "collectFarmRiskBufferFundRewardBatch",
      "outputs": [
        {
          "internalType": "uint256",
          "name": "rewardDebt",
          "type": "uint256"
        }
      ],
      "stateMutability": "nonpayable",
      "type": "function"
    },
    {
      "inputs": [
        {
          "internalType": "contract IPool[]",
          "name": "_pools",
          "type": "address[]"
        },
        {
          "internalType": "uint256[]",
          "name": "_referralTokens",
          "type": "uint256[]"
        }
      ],
      "name": "collectReferralFeeBatch",
      "outputs": [
        {
          "internalType": "uint256",
          "name": "amount",
          "type": "uint256"
        }
      ],
      "stateMutability": "nonpayable",
      "type": "function"
    },
    {
      "inputs": [
        {
          "internalType": "uint256[]",
          "name": "_ids",
          "type": "uint256[]"
        }
      ],
      "name": "collectStakingRewardBatch",
      "outputs": [
        {
          "internalType": "uint256",
          "name": "rewardDebt",
          "type": "uint256"
        }
      ],
      "stateMutability": "nonpayable",
      "type": "function"
    },
    {
      "inputs": [
        {
          "internalType": "uint256[]",
          "name": "_ids",
          "type": "uint256[]"
        }
      ],
      "name": "collectV3PosStakingRewardBatch",
      "outputs": [
        {
          "internalType": "uint256",
          "name": "rewardDebt",
          "type": "uint256"
        }
      ],
      "stateMutability": "nonpayable",
      "type": "function"
    },
    {
      "inputs": [],
      "name": "distributorV2",
      "outputs": [
        {
          "internalType": "contract FarmRewardDistributorV2",
          "name": "",
          "type": "address"
        }
      ],
      "stateMutability": "view",
      "type": "function"
    },
    {
      "inputs": [
        {
          "internalType": "bytes[]",
          "name": "data",
          "type": "bytes[]"
        }
      ],
      "name": "multicall",
      "outputs": [
        {
          "internalType": "bytes[]",
          "name": "results",
          "type": "bytes[]"
        }
      ],
      "stateMutability": "nonpayable",
      "type": "function"
    },
    {
      "inputs": [],
      "name": "router",
      "outputs": [
        {
          "internalType": "contract Router",
          "name": "",
          "type": "address"
        }
      ],
      "stateMutability": "view",
      "type": "function"
    },
    {
      "inputs": [
        {
          "internalType": "contract IERC20",
          "name": "_token",
          "type": "address"
        },
        {
          "internalType": "uint256",
          "name": "_amountMinimum",
          "type": "uint256"
        },
        {
          "internalType": "address",
          "name": "_receiver",
          "type": "address"
        }
      ],
      "name": "sweepToken",
      "outputs": [
        {
          "internalType": "uint256",
          "name": "amount",
          "type": "uint256"
        }
      ],
      "stateMutability": "nonpayable",
      "type": "function"
    }
  ],
  "bytecode": "0x610100346100e057601f61167b38819003918201601f19168301916001600160401b038311848410176100e5578084926080946040528339810103126100e05780516001600160a01b039182821682036100e05760208101519083821682036100e05760408101519084821682036100e0576060015193841684036100e05760c05260a05260805260e05260405161157f90816100fc8239608051818181610108015281816101e0015281816105e60152610dd9015260a0518161051c015260c051818181610f5c01526112df015260e051818181610a6b0152610c4d0152f35b600080fd5b634e487b7160e01b600052604160045260246000fdfe608060408181526004918236101561001657600080fd5b600092833560e01c9182631420f80214610f1257508163165d961414610d9d5781633a18428614610ba5578163422d241314610b1a5781635a4c4fa414610a8f5781637d0d9d5f14610a205781638bd19a3b14610980578163aad3131f146108f4578163ac9650d81461065a578163bb63478c14610540578163c2aa99a5146104d1578163df2ab5bb1461025e578163e161674b14610130575063f887ea40146100bf57600080fd5b3461012c57817ffffffffffffffffffffffffffffffffffffffffffffffffffffffffffffffffc36011261012c576020905173ffffffffffffffffffffffffffffffffffffffff7f0000000000000000000000000000000000000000000000000000000000000000168152f35b5080fd5b83833461012c5760206060610190946101c061014b36610fb1565b9199909261015983856112c3565b88519a8b9788977f03dbee4d000000000000000000000000000000000000000000000000000000008952880152606487019161119c565b917ffffffffffffffffffffffffffffffffffffffffffffffffffffffffffffffffc858403016024860152611127565b30604483015203818573ffffffffffffffffffffffffffffffffffffffff7f0000000000000000000000000000000000000000000000000000000000000000165af19182156102535791610219575b6020925051908152f35b90506020823d60201161024b575b81610234602093836110b7565b8101031261024657602091519061020f565b600080fd5b3d9150610227565b9051903d90823e3d90fd5b919050346104cd5760607ffffffffffffffffffffffffffffffffffffffffffffffffffffffffffffffffc3601126104cd57813573ffffffffffffffffffffffffffffffffffffffff928382168092036104c957602491823595604435958616809603610246578451957f70a08231000000000000000000000000000000000000000000000000000000008752308488015260209788888781875afa9788156104bf578398610490575b5080881061045c5750855190888201907fa9059cbb0000000000000000000000000000000000000000000000000000000082528683015287604483015260448252608082019167ffffffffffffffff8184108185111761042f5760c082019081118482101761042f57846103bc938c959382938c52601e85527f416464726573733a206c6f772d6c6576656c2063616c6c206661696c6564000060a0820152519082895af16103b5611449565b9086611479565b918251928315159283610407575b50505090506103dc5750505051908152f35b8351917f5274afe7000000000000000000000000000000000000000000000000000000008352820152fd5b91938180945001031261012c578701519081159182150361042c5750803880896103ca565b80fd5b876041887f4e487b7100000000000000000000000000000000000000000000000000000000600052526000fd5b84604491878a8a51937fcf479181000000000000000000000000000000000000000000000000000000008552840152820152fd5b9097508881813d83116104b8575b6104a881836110b7565b8101031261024657519638610308565b503d61049e565b87513d85823e3d90fd5b8480fd5b8280fd5b50503461012c57817ffffffffffffffffffffffffffffffffffffffffffffffffffffffffffffffffc36011261012c576020905173ffffffffffffffffffffffffffffffffffffffff7f0000000000000000000000000000000000000000000000000000000000000000168152f35b83833461012c57602092837ffffffffffffffffffffffffffffffffffffffffffffffffffffffffffffffffc3601126104cd57803567ffffffffffffffff811161065657610592859136908401610f80565b84517f525c865600000000000000000000000000000000000000000000000000000000815293849283926105cc92309233929186016111f3565b03818673ffffffffffffffffffffffffffffffffffffffff7f0000000000000000000000000000000000000000000000000000000000000000165af192831561064b579261061c575b5051908152f35b9091508281813d8311610644575b61063481836110b7565b8101031261024657519083610615565b503d61062a565b8251903d90823e3d90fd5b8380fd5b8391503461012c57602091827ffffffffffffffffffffffffffffffffffffffffffffffffffffffffffffffffc36011261042c5767ffffffffffffffff9180358381116104cd576106ae9036908301610f80565b9190936106ba83611231565b946106c7885196876110b7565b8386527fffffffffffffffffffffffffffffffffffffffffffffffffffffffffffffffe06106f485611231565b0187865b8281106108e457505050845b84811061078757505050505083519280840190808552835180925280868601968360051b870101940192955b82871061073d5785850386f35b909192938280610777837fffffffffffffffffffffffffffffffffffffffffffffffffffffffffffffffc08a60019603018652885161101a565b9601920196019592919092610730565b8060051b8201357fffffffffffffffffffffffffffffffffffffffffffffffffffffffffffffffe1833603018112156108e05782018035908482116108dc578981019180360383136108d8576107dc81611249565b926107e98d5194856110b7565b8184528b8401928c8336920101116108d457818a928d928537840101528a519160608301838110878211176108a6578961088a9360019695938f8f907f416464726573733a206c6f772d6c6576656c2064656c65676174652063616c6c7f206661696c6564000000000000000000000000000000000000000000000000009286978352602789528801528601525190305af4610883611449565b9030611479565b610894828a611283565b5261089f8189611283565b5001610704565b6041887f4e487b71000000000000000000000000000000000000000000000000000000006000525260246000fd5b8980fd5b8880fd5b8780fd5b8680fd5b606082828b0101520188906106f8565b83833461012c57602092837ffffffffffffffffffffffffffffffffffffffffffffffffffffffffffffffffc3601126104cd57803567ffffffffffffffff811161065657610946859136908401610f80565b84517f64fdd23c00000000000000000000000000000000000000000000000000000000815293849283926105cc92309233929186016111f3565b83833461012c57602092837ffffffffffffffffffffffffffffffffffffffffffffffffffffffffffffffffc3601126104cd57803567ffffffffffffffff8111610656576109d2859136908401610f80565b90926109de82856112c3565b6105cc855194859384937f786bccf200000000000000000000000000000000000000000000000000000000855230908501528760248501526044840191611127565b50503461012c57817ffffffffffffffffffffffffffffffffffffffffffffffffffffffffffffffffc36011261012c576020905173ffffffffffffffffffffffffffffffffffffffff7f0000000000000000000000000000000000000000000000000000000000000000168152f35b83833461012c57602092837ffffffffffffffffffffffffffffffffffffffffffffffffffffffffffffffffc3601126104cd57803567ffffffffffffffff811161065657610ae1859136908401610f80565b926105cc855194859384937f724fa771000000000000000000000000000000000000000000000000000000008552309033908601611164565b83833461012c57602092837ffffffffffffffffffffffffffffffffffffffffffffffffffffffffffffffffc3601126104cd57803567ffffffffffffffff811161065657610b6c859136908401610f80565b926105cc855194859384937f18602c7b000000000000000000000000000000000000000000000000000000008552309033908601611164565b919050346104cd577ffffffffffffffffffffffffffffffffffffffffffffffffffffffffffffffffc916080833601126106565767ffffffffffffffff602435818111610d9957610bf99036908401610f80565b94906044358381116108dc57366023820112156108dc5780850135908482116108d85736602483830101116108d8576064359073ffffffffffffffffffffffffffffffffffffffff808316809303610d95577f00000000000000000000000000000000000000000000000000000000000000001694853b15610d95579893918a95939189519a8b967f8f1d31ec0000000000000000000000000000000000000000000000000000000088528060a48901338d8b01528c3560248b015260a060448b01525260c488019590895b818110610d7957505050937fffffffffffffffffffffffffffffffffffffffffffffffffffffffffffffffe0601f856020958b9760248c9a978b988989030160648a015282885201888701378787838701015260848601520116010301925af18015610d6f57610d33578480f35b8311610d43575052388080808480f35b8360416024927f4e487b7100000000000000000000000000000000000000000000000000000000835252fd5b83513d87823e3d90fd5b823588528f9a508e995060209788019790920191600101610cc5565b8a80fd5b8580fd5b919050346104cd57610dae36610fb1565b959091948195610dbe88856112c3565b829773ffffffffffffffffffffffffffffffffffffffff91827f000000000000000000000000000000000000000000000000000000000000000016995b818110610e0c5760208a8a51908152f35b610e1781838a611078565b358481168091036108e05786905b8c858310610e3857505050600101610dfb565b88610e47849e9394888d611078565b35918d51907f0cfe3642000000000000000000000000000000000000000000000000000000008252858b830152602493848301523060448301528160648160209586945af1918215610f08578b92610eda575b50508201809211610eb057509a60010190610e25565b886011897f4e487b7100000000000000000000000000000000000000000000000000000000835252fd5b90809250813d8311610f01575b610ef181836110b7565b810103126108d457513880610e9a565b503d610ee7565b8e513d8d823e3d90fd5b84903461012c57817ffffffffffffffffffffffffffffffffffffffffffffffffffffffffffffffffc36011261012c5760209073ffffffffffffffffffffffffffffffffffffffff7f0000000000000000000000000000000000000000000000000000000000000000168152f35b9181601f840112156102465782359167ffffffffffffffff8311610246576020808501948460051b01011161024657565b60407ffffffffffffffffffffffffffffffffffffffffffffffffffffffffffffffffc8201126102465767ffffffffffffffff916004358381116102465782610ffc91600401610f80565b939093926024359182116102465761101691600401610f80565b9091565b919082519283825260005b8481106110645750507fffffffffffffffffffffffffffffffffffffffffffffffffffffffffffffffe0601f8460006020809697860101520116010190565b602081830181015184830182015201611025565b91908110156110885760051b0190565b7f4e487b7100000000000000000000000000000000000000000000000000000000600052603260045260246000fd5b90601f7fffffffffffffffffffffffffffffffffffffffffffffffffffffffffffffffe0910116810190811067ffffffffffffffff8211176110f857604052565b7f4e487b7100000000000000000000000000000000000000000000000000000000600052604160045260246000fd5b90918281527f07ffffffffffffffffffffffffffffffffffffffffffffffffffffffffffffff83116102465760209260051b809284830137010190565b606091611199959373ffffffffffffffffffffffffffffffffffffffff80921683521660208201528160408201520191611127565b90565b9190808252602080920192916000805b8382106111bb57505050505090565b9091929394853573ffffffffffffffffffffffffffffffffffffffff81168091036104cd5781528301948301939291600101906111ac565b929061120d9060409396959660608652606086019161119c565b9473ffffffffffffffffffffffffffffffffffffffff809216602085015216910152565b67ffffffffffffffff81116110f85760051b60200190565b67ffffffffffffffff81116110f857601f017fffffffffffffffffffffffffffffffffffffffffffffffffffffffffffffffe01660200190565b80518210156110885760209160051b010190565b90816020910312610246575173ffffffffffffffffffffffffffffffffffffffff811681036102465790565b90600073ffffffffffffffffffffffffffffffffffffffff91827f000000000000000000000000000000000000000000000000000000000000000016915b81811061130f575050505050565b61131a818387611078565b3560409081517f6352211e000000000000000000000000000000000000000000000000000000009283825260049283830152602093602492858185818c5afa90811561143e57600091611421575b50893391160361137f575050505050600101611301565b8891858992856113918a8f8d90611078565b35918451958693849283528a8301525afa918215611416576044966000936113e7575b505051937f16cece4800000000000000000000000000000000000000000000000000000000855233908501521690820152fd5b611407929350803d1061140f575b6113ff81836110b7565b810190611297565b9086806113b4565b503d6113f5565b50513d6000823e3d90fd5b6114389150863d881161140f576113ff81836110b7565b38611368565b83513d6000823e3d90fd5b3d15611474573d9061145a82611249565b9161146860405193846110b7565b82523d6000602084013e565b606090565b919290156114f4575081511561148d575090565b3b156114965790565b60646040517f08c379a000000000000000000000000000000000000000000000000000000000815260206004820152601d60248201527f416464726573733a2063616c6c20746f206e6f6e2d636f6e74726163740000006044820152fd5b8251909150156115075750805190602001fd5b611545906040519182917f08c379a000000000000000000000000000000000000000000000000000000000835260206004840152602483019061101a565b0390fdfea264697066735822122060a623886d9c5e217fadb025902b8a44a6278bcd8fea0a9d4e93fb05ef8ed39964736f6c63430008180033",
  "linkReferences": {},
  "deployedLinkReferences": {}
}