{
  "_format": "hh-sol-artifact-1",
  "contractName": "PriceUtil",
  "sourceName": "contracts/libraries/PriceUtil.sol",
  "abi": [
    {
      "inputs": [],
      "name": "MaxPremiumRateExceeded",
      "type": "error"
    },
    {
      "inputs": [
        {
          "internalType": "int256",
          "name": "value",
          "type": "int256"
        }
      ],
      "name": "SafeCastOverflowedIntToUint",
      "type": "error"
    },
    {
      "inputs": [
        {
          "internalType": "uint8",
          "name": "bits",
          "type": "uint8"
        },
        {
          "internalType": "uint256",
          "name": "value",
          "type": "uint256"
        }
      ],
      "name": "SafeCastOverflowedUintDowncast",
      "type": "error"
    },
    {
      "inputs": [
        {
          "internalType": "uint256",
          "name": "value",
          "type": "uint256"
        }
      ],
      "name": "SafeCastOverflowedUintToInt",
      "type": "error"
    },
    {
      "inputs": [],
      "name": "ZeroSizeDelta",
      "type": "error"
    },
    {
      "anonymous": false,
      "inputs": [
        {
          "indexed": false,
          "internalType": "uint8",
          "name": "index",
          "type": "uint8"
        },
        {
          "indexed": false,
          "internalType": "uint128",
          "name": "netSizeAfter",
          "type": "uint128"
        }
      ],
      "name": "LiquidationBufferNetSizeChanged",
      "type": "event"
    },
    {
      "anonymous": false,
      "inputs": [
        {
          "indexed": false,
          "internalType": "uint128",
          "name": "premiumRateAfterX96",
          "type": "uint128"
        }
      ],
      "name": "PremiumRateChanged",
      "type": "event"
    },
    {
      "inputs": [
        {
          "internalType": "Side",
          "name": "_globalSide",
          "type": "uint8"
        },
        {
          "internalType": "Side",
          "name": "_side",
          "type": "uint8"
        },
        {
          "internalType": "uint160",
          "name": "_indexPriceX96",
          "type": "uint160"
        },
        {
          "internalType": "uint128",
          "name": "_premiumRateX96",
          "type": "uint128"
        }
      ],
      "name": "calculateMarketPriceX96",
      "outputs": [
        {
          "internalType": "uint160",
          "name": "marketPriceX96",
          "type": "uint160"
        }
      ],
      "stateMutability": "pure",
      "type": "function"
    }
  ],
  "bytecode": "0x6080806040523461001c57611d1490816100228239308160ca0152f35b600080fdfe61016080604052600436101561001457600080fd5b600090813560e01c9081633cb3b61c146100c65750635a9d0bbd1461003857600080fd5b60807ffffffffffffffffffffffffffffffffffffffffffffffffffffffffffffffffc3601126100c35760043560ff811681036100be576024359060ff821682036100be576044359173ffffffffffffffffffffffffffffffffffffffff9182841684036100be576020936100b5926100af6112b7565b9261142e565b60405191168152f35b600080fd5b80fd5b82307f0000000000000000000000000000000000000000000000000000000000000000146100c35760c07ffffffffffffffffffffffffffffffffffffffffffffffffffffffffffffffffc3601126100c35760ff60443516604435036100c35761012e6112b7565b9173ffffffffffffffffffffffffffffffffffffffff60843516608435036112b35760a435151560a435036112b3576fffffffffffffffffffffffffffffffff83161561128b57506040518060c081011067ffffffffffffffff60c083011117610db55760c08101604052600435546fffffffffffffffffffffffffffffffff8116825260801c602082015260ff6001600435015473ffffffffffffffffffffffffffffffffffffffff8116604084015260a01c1660608201526fffffffffffffffffffffffffffffffff600260043501541660808201526003600435015460a08201526024355460801c60086024350154906040516101005261010051608061010051011067ffffffffffffffff60806101005101111761125e579060ff916080610100510160405261010051528181166020610100510152818160081c16604061010051015260101c16606061010051015260ff60608201511660ff60443516146101205261012051611227575b60a0829052604051829182916102b3816112d6565b8481528460208201526fffffffffffffffffffffffffffffffff8251166fffffffffffffffffffffffffffffffff610100515116604051916102f4836112d6565b8252602082015260405191610308836112d6565b8683528660208401526040516101405261032461014051611321565b60ff6044351661014051526fffffffffffffffffffffffffffffffff8816602061014051015273ffffffffffffffffffffffffffffffffffffffff6084351660406101405101526101205115156060610140510152608061014051015260a061014051015260c06101405101526101205115600014610f2a5760ff60606101005101511615610f1b575b60a43515610f1357600160ff6040610100510151160160ff8111610ee657945b60ff606061010051015116935b60ff871660ff86161080610ec4575b15610560576104b09061043361040d61040288611616565b6001602435016115d8565b50610426610420896001602435016115d8565b506115e8565b60c06101405101526115e8565b60806101405101526104aa6fffffffffffffffffffffffffffffffff73ffffffffffffffffffffffffffffffffffffffff6104706101405161171e565b60e0959395525081602061014051015116828216108061053a575b610516575b6101405160200180518316829003831690521691166115c5565b906113e8565b936fffffffffffffffffffffffffffffffff6104cd60e051611abc565b16610100515260ff808216146104e95760ff16600101936103db565b6024867f4e487b710000000000000000000000000000000000000000000000000000000081526011600452fd5b60ff60018c0116606061010051015260c061014051015160a0610140510152610490565b5060a4358061054a575b1561048b565b5060ff60406101005101511660ff8c1614610544565b919492955092506fffffffffffffffffffffffffffffffff602061014051015116610df1575b80946101205115600014610c81576105e26fffffffffffffffffffffffffffffffff9160ff6105b6604435611647565b166060880152826105d36105ca838961133d565b828a511661138e565b1687528260208801511661138e565b1660208501525b6fffffffffffffffffffffffffffffffff60a051166107e6575b50602080946106e7936fffffffffffffffffffffffffffffffff9350600160ff60443516146000146107d057610644918461063f9216906116b4565b61165b565b935b60608101516004356001810180547fffffffffffffffffffffff00ffffffffffffffffffffffffffffffffffffffff1660a09390931b74ff00000000000000000000000000000000000000001692909217909155815192909101516fffffffffffffffffffffffffffffffff928416929092169190921660801b7fffffffffffffffffffffffffffffffff0000000000000000000000000000000016179055565b7f1ad4235be2d2e5cdf7461491e78a838a2f97991e0b08a0b3b75708c9432819df826fffffffffffffffffffffffffffffffff61010051511661076881602435906fffffffffffffffffffffffffffffffff7fffffffffffffffffffffffffffffffff0000000000000000000000000000000083549260801b169116179055565b60606101005101517fffffffffffffffffffffffffffffffffffffffffffffffffffffffffff00ffff62ff0000600860243501549260101b1691161760086024350155604051908152a173ffffffffffffffffffffffffffffffffffffffff60405191168152f35b6107e0918461063f9216906113f5565b93610646565b93509161081e6fffffffffffffffffffffffffffffffff8251166fffffffffffffffffffffffffffffffff60208401511617156113b2565b60ff61082f81606084015116611647565b166060820152600091600093604051610847816112d6565b8581528560208201526fffffffffffffffffffffffffffffffff8451166fffffffffffffffffffffffffffffffff61010051511660405191610888836112d6565b825260208201526040519161089c836112d6565b87835287602084015260405160c0526108b660c051611321565b60ff6044351660c051526fffffffffffffffffffffffffffffffff60a05116602060c051015273ffffffffffffffffffffffffffffffffffffffff60843516604060c051015287606060c0510152608060c051015260a060c051015260c08051015260ff60606101005101511615610c72575b60a43515610c6a57600160ff6040610100510151160160ff81116104e957955b60ff606061010051015116945b60ff881660ff87161080610c49575b15610abb57610a0e9061099b61097d61040289611616565b506109906104208a6001602435016115d8565b60c0805101526115e8565b608060c05101526104aa6fffffffffffffffffffffffffffffffff73ffffffffffffffffffffffffffffffffffffffff6109d660c05161171e565b6080959395525081602060c0510151168282161080610a95575b610a74575b60c05160200180518316829003831690521691166115c5565b946fffffffffffffffffffffffffffffffff610a2b608051611abc565b16610100515260ff80821614610a475760ff1660010194610956565b6024877f4e487b710000000000000000000000000000000000000000000000000000000081526011600452fd5b60ff60018d0116606061010051015260c08051015160a060c05101526109f5565b5060a43580610aa5575b156109f0565b5060ff60406101005101511660ff8d1614610a9f565b92945090929495506fffffffffffffffffffffffffffffffff602060c051015116610b28575b946106e7936fffffffffffffffffffffffffffffffff9384610b07602099958a966113e8565b9381610b158260a05161133d565b1689521684880152935093509450610603565b945060a43515610c1f576020946106e7936fffffffffffffffffffffffffffffffff9384610b078995828760c051015116957f55d8d0ed606edf4b006448dee068c922a0d8381b36c520cc6c791d492a0cf81460ff60406101005101511680610be8600960243501610bc0610bb88a610ba1868561157a565b90549060031b1c168f8c9060c0510151169061138e565b94859261157a565b9091906fffffffffffffffffffffffffffffffff8084549260031b9316831b921b1916179055565b6040805160ff9290921682526fffffffffffffffffffffffffffffffff929092166020820152a1959a509550505093509350610ae1565b60046040517fe9424373000000000000000000000000000000000000000000000000000000008152fd5b506fffffffffffffffffffffffffffffffff602060c0510151161515610965565b600795610949565b60016060610100510152610929565b60ff60206101005101511660ff60606101005101511690818111610cf3575b5050610ce8816fffffffffffffffffffffffffffffffff610cd9610cd08295610ccb60a0518b61133d565b61133d565b828a511661133d565b1687528260208801511661133d565b1660208501526105e9565b303b15610ded57604051917fa468371500000000000000000000000000000000000000000000000000000000835260048301526024820152838160448183305af18015610de257610d97575b50610ce86fffffffffffffffffffffffffffffffff9160ff6060610100510151167fffffffffffffffffffffffffffffffffffffffffffffffffffffffffffffff006008602435015416176008602435015591610ca0565b67ffffffffffffffff8194929411610db55760405291610ce8610d3f565b6024827f4e487b710000000000000000000000000000000000000000000000000000000081526041600452fd5b6040513d86823e3d90fd5b8480fd5b9360a43515610c1f576fffffffffffffffffffffffffffffffff90816020610140510151160116937f55d8d0ed606edf4b006448dee068c922a0d8381b36c520cc6c791d492a0cf81460ff60406101005101511680610e98600960243501610bc0610bb86fffffffffffffffffffffffffffffffff610e70868561157a565b90549060031b1c166fffffffffffffffffffffffffffffffff6020610140510151169061138e565b6040805160ff9290921682526fffffffffffffffffffffffffffffffff929092166020820152a1610586565b506fffffffffffffffffffffffffffffffff60206101405101511615156103ea565b6024857f4e487b710000000000000000000000000000000000000000000000000000000081526011600452fd5b6007946103ce565b600160606101005101526103ae565b60ff6060610100510151165b6fffffffffffffffffffffffffffffffff6020610140510151161561121d576fffffffffffffffffffffffffffffffff610f758260096024350161157a565b90549060031b1c16806110d9575b5060ff8116156110b1576fffffffffffffffffffffffffffffffff602061014051015116610fdf575b60ff811615610ee65760ff167fffffffffffffffffffffffffffffffffffffffffffffffffffffffffffffffff01610f36565b6fffffffffffffffffffffffffffffffff61107d61107773ffffffffffffffffffffffffffffffffffffffff9661103c61042060016024350161102561042089836115d8565b608061014051015261103688611616565b906115d8565b60c06101405101526104aa846110546101405161171e565b9c92939190611088576101405160200180518316829003831690521691166115c5565b95611abc565b166101005152610fac565b60ff6110938b611616565b16606061010051015260c061014051015160a0610140510152610490565b50929093915b6fffffffffffffffffffffffffffffffff60206101405101511660a052610586565b61014051602001516fffffffffffffffffffffffffffffffff1680821015611217575080945b606084015160ff166101405160a00151602001516fffffffffffffffffffffffffffffffff166084356044356111349361142e565b946111448460096024350161157a565b81546fffffffffffffffffffffffffffffffff8a81168703811660039390931b92831b921b19161790556101405160200180516fffffffffffffffffffffffffffffffff898116918116829003811690925291820116956111bb919073ffffffffffffffffffffffffffffffffffffffff166115c5565b6111c4916113e8565b6040805160ff851681526fffffffffffffffffffffffffffffffff9788169093039096166020830152947f55d8d0ed606edf4b006448dee068c922a0d8381b36c520cc6c791d492a0cf81491a186610f83565b946110ff565b50929093916110b7565b6fffffffffffffffffffffffffffffffff8151166fffffffffffffffffffffffffffffffff6020830151161715156101205261029e565b6024847f4e487b710000000000000000000000000000000000000000000000000000000081526041600452fd5b807f0287a7670000000000000000000000000000000000000000000000000000000060049252fd5b5080fd5b606435906fffffffffffffffffffffffffffffffff821682036100be57565b6040810190811067ffffffffffffffff8211176112f257604052565b7f4e487b7100000000000000000000000000000000000000000000000000000000600052604160045260246000fd5b60e0810190811067ffffffffffffffff8211176112f257604052565b6fffffffffffffffffffffffffffffffff918216908216039190821161135f57565b7f4e487b7100000000000000000000000000000000000000000000000000000000600052601160045260246000fd5b9190916fffffffffffffffffffffffffffffffff8080941691160191821161135f57565b156113b957565b7f4e487b7100000000000000000000000000000000000000000000000000000000600052600160045260246000fd5b9190820180921161135f57565b81156113ff570490565b7f4e487b7100000000000000000000000000000000000000000000000000000000600052601260045260246000fd5b90929060009060ff1660010361151757506fffffffffffffffffffffffffffffffff6c010000000000000000000000009116810390811161135f5760ff600191935b16036114f45773ffffffffffffffffffffffffffffffffffffffff6c010000000000000000000000009116916114a68184611b11565b92096114b9575b6114b69061165b565b90565b60018101809111156114ad577f4e487b7100000000000000000000000000000000000000000000000000000000600052601160045260246000fd5b6114b69173ffffffffffffffffffffffffffffffffffffffff61063f9216611b11565b6fffffffffffffffffffffffffffffffff6c010000000000000000000000009216820180921161154d575060ff60019193611470565b807f4e487b7100000000000000000000000000000000000000000000000000000000602492526011600452fd5b9190916007831015611596576010908360011c019260041b1690565b7f4e487b7100000000000000000000000000000000000000000000000000000000600052603260045260246000fd5b8181029291811591840414171561135f57565b6007821015611596570190600090565b906040516115f5816112d6565b91546fffffffffffffffffffffffffffffffff8116835260801c6020830152565b60ff7fffffffffffffffffffffffffffffffffffffffffffffffffffffffffffffffff9116019060ff821161135f57565b60ff1660010361165657600290565b600190565b73ffffffffffffffffffffffffffffffffffffffff9081811161167c571690565b604490604051907f6dfcc65000000000000000000000000000000000000000000000000000000000825260a060048301526024820152fd5b81156116f857806116c6575050600090565b6001917fffffffffffffffffffffffffffffffffffffffffffffffffffffffffffffffff6116f492016113f5565b0190565b906114b6916113f5565b9190916000838201938412911290801582169115161761135f57565b60608101805115611a8c576117536fffffffffffffffffffffffffffffffff8060a085015151169060c085015151169061133d565b915b6fffffffffffffffffffffffffffffffff9081602082015116938281168510159485600014611a845750925b92939260008585156118ec5750506117a283602060c0850151015116611c47565b6117b68194602060a0860151015116611c47565b73ffffffffffffffffffffffffffffffffffffffff604085015116925115801590816118dd575b81156118c1575b506000901561188e57506c020000000000000000000000009080820391600082128184128116908285139015161761135f5783600092019003921281831281169183139015161761135f5761183890611ca2565b915b6c020000000000000000000000006118528484611bdb565b9384930961187c575b5161187292919060ff16600103611875575061165b565b93565b905061165b565b906001830180931161135f579061185b565b816c020000000000000000000000000191821260011661154d57506118bb916118b691611702565b611ca2565b9161183a565b9050806118cf575b386117e4565b50600260ff855116146118c9565b855160ff1660011491506117dd565b825115611a725760ff8451165b8560808601519360c0870151928386848151168587511610611a66575b5050829060208501968280808a5116976020840198828a5116111561193a906113b2565b81808c818c818080885116818c51169003169b8c94511691511690031690611961916116b4565b9a511691511602995116915116029060ff169660028814600014611a4957818110611a3257916119959161199a93036113f5565b611c47565b905b6001829588511515600014611a1b576119bc908560a08c0151511661133d565b965b146119e3575b50506119d991611995916119de9516906115c5565b611702565b6117a2565b91509192507f8000000000000000000000000000000000000000000000000000000000000000821461154d57039085816119956119c4565b611a2c908560a08c0151511661138e565b966119be565b91611a419261199592036113f5565b81039061199c565b90818110611a32579161199591611a6093036113f5565b9061199c565b90965093508238611916565b611a7f60ff855116611647565b6118f9565b905092611781565b611ab66fffffffffffffffffffffffffffffffff8060c085015151169060a085015151169061133d565b91611755565b6fffffffffffffffffffffffffffffffff90818111611ad9571690565b604490604051907f6dfcc650000000000000000000000000000000000000000000000000000000008252608060048301526024820152fd5b7fffffffffffffffffffffffffffffffffffffffffffffffffffffffffffffffff8282099082810292838084109303928084039314611bd2576c010000000000000000000000009183831115611b74570990828211900360a01b910360601c1790565b60646040517f08c379a000000000000000000000000000000000000000000000000000000000815260206004820152601560248201527f4d6174683a206d756c446976206f766572666c6f7700000000000000000000006044820152fd5b50505060601c90565b7fffffffffffffffffffffffffffffffffffffffffffffffffffffffffffffffff8282099082810292838084109303928084039314611c3e576c020000000000000000000000009183831115611b745709908282119003609f1b910360611c1790565b50505060611c90565b7f7fffffffffffffffffffffffffffffffffffffffffffffffffffffffffffffff8111611c715790565b602490604051907f24775e060000000000000000000000000000000000000000000000000000000082526004820152fd5b60008112611cad5790565b602490604051907fa8ce44320000000000000000000000000000000000000000000000000000000082526004820152fdfea26469706673582212201c8ccd1afa700fc120ff4141b9b820153f2919beb96bb92a4d7308f0e792ec6064736f6c63430008180033",
  "linkReferences": {},
  "deployedLinkReferences": {}
}